{
  "contractName": "Mountain",
  "abi": [
    {
      "inputs": [
        {
          "internalType": "address[]",
          "name": "addresses",
          "type": "address[]"
        }
      ],
      "stateMutability": "nonpayable",
      "type": "constructor"
    },
    {
      "anonymous": false,
      "inputs": [
        {
          "indexed": true,
          "internalType": "address",
          "name": "owner",
          "type": "address"
        },
        {
          "indexed": true,
          "internalType": "address",
          "name": "spender",
          "type": "address"
        },
        {
          "indexed": false,
          "internalType": "uint256",
          "name": "value",
          "type": "uint256"
        }
      ],
      "name": "Approval",
      "type": "event"
    },
    {
      "anonymous": false,
      "inputs": [
        {
          "indexed": true,
          "internalType": "address",
          "name": "previousOwner",
          "type": "address"
        },
        {
          "indexed": true,
          "internalType": "address",
          "name": "newOwner",
          "type": "address"
        }
      ],
      "name": "OwnershipTransferred",
      "type": "event"
    },
    {
      "anonymous": false,
      "inputs": [
        {
          "indexed": false,
          "internalType": "uint256",
          "name": "otherHalf",
          "type": "uint256"
        },
        {
          "indexed": false,
          "internalType": "uint256",
          "name": "newBalance",
          "type": "uint256"
        }
      ],
      "name": "SwapAndLiquify",
      "type": "event"
    },
    {
      "anonymous": false,
      "inputs": [
        {
          "indexed": true,
          "internalType": "address",
          "name": "from",
          "type": "address"
        },
        {
          "indexed": true,
          "internalType": "address",
          "name": "to",
          "type": "address"
        },
        {
          "indexed": false,
          "internalType": "uint256",
          "name": "value",
          "type": "uint256"
        }
      ],
      "name": "Transfer",
      "type": "event"
    },
    {
      "inputs": [
        {
          "internalType": "address",
          "name": "",
          "type": "address"
        }
      ],
      "name": "_isBlacklisted",
      "outputs": [
        {
          "internalType": "bool",
          "name": "",
          "type": "bool"
        }
      ],
      "stateMutability": "view",
      "type": "function"
    },
    {
      "inputs": [
        {
          "internalType": "address",
          "name": "",
          "type": "address"
        }
      ],
      "name": "_isWhitelisted",
      "outputs": [
        {
          "internalType": "bool",
          "name": "",
          "type": "bool"
        }
      ],
      "stateMutability": "view",
      "type": "function"
    },
    {
      "inputs": [
        {
          "internalType": "address",
          "name": "",
          "type": "address"
        },
        {
          "internalType": "uint256",
          "name": "",
          "type": "uint256"
        }
      ],
      "name": "accountNodes",
      "outputs": [
        {
          "internalType": "uint256",
          "name": "",
          "type": "uint256"
        }
      ],
      "stateMutability": "view",
      "type": "function"
    },
    {
      "inputs": [
        {
          "internalType": "address",
          "name": "owner",
          "type": "address"
        },
        {
          "internalType": "address",
          "name": "spender",
          "type": "address"
        }
      ],
      "name": "allowance",
      "outputs": [
        {
          "internalType": "uint256",
          "name": "",
          "type": "uint256"
        }
      ],
      "stateMutability": "view",
      "type": "function"
    },
    {
      "inputs": [
        {
          "internalType": "address",
          "name": "spender",
          "type": "address"
        },
        {
          "internalType": "uint256",
          "name": "amount",
          "type": "uint256"
        }
      ],
      "name": "approve",
      "outputs": [
        {
          "internalType": "bool",
          "name": "",
          "type": "bool"
        }
      ],
      "stateMutability": "nonpayable",
      "type": "function"
    },
    {
      "inputs": [
        {
          "internalType": "address",
          "name": "account",
          "type": "address"
        }
      ],
      "name": "balanceOf",
      "outputs": [
        {
          "internalType": "uint256",
          "name": "",
          "type": "uint256"
        }
      ],
      "stateMutability": "view",
      "type": "function"
    },
    {
      "inputs": [
        {
          "internalType": "uint256",
          "name": "_id",
          "type": "uint256"
        }
      ],
      "name": "calculateRewards",
      "outputs": [
        {
          "internalType": "uint256",
          "name": "",
          "type": "uint256"
        }
      ],
      "stateMutability": "view",
      "type": "function"
    },
    {
      "inputs": [],
      "name": "claimFee",
      "outputs": [
        {
          "internalType": "uint32",
          "name": "",
          "type": "uint32"
        }
      ],
      "stateMutability": "view",
      "type": "function"
    },
    {
      "inputs": [],
      "name": "claimMinTime",
      "outputs": [
        {
          "internalType": "uint128",
          "name": "",
          "type": "uint128"
        }
      ],
      "stateMutability": "view",
      "type": "function"
    },
    {
      "inputs": [],
      "name": "dailyBoost",
      "outputs": [
        {
          "internalType": "uint256",
          "name": "",
          "type": "uint256"
        }
      ],
      "stateMutability": "view",
      "type": "function"
    },
    {
      "inputs": [
        {
          "internalType": "uint256",
          "name": "",
          "type": "uint256"
        }
      ],
      "name": "dailyReward",
      "outputs": [
        {
          "internalType": "uint256",
          "name": "",
          "type": "uint256"
        }
      ],
      "stateMutability": "view",
      "type": "function"
    },
    {
      "inputs": [],
      "name": "decimals",
      "outputs": [
        {
          "internalType": "uint8",
          "name": "",
          "type": "uint8"
        }
      ],
      "stateMutability": "view",
      "type": "function"
    },
    {
      "inputs": [
        {
          "internalType": "address",
          "name": "spender",
          "type": "address"
        },
        {
          "internalType": "uint256",
          "name": "subtractedValue",
          "type": "uint256"
        }
      ],
      "name": "decreaseAllowance",
      "outputs": [
        {
          "internalType": "bool",
          "name": "",
          "type": "bool"
        }
      ],
      "stateMutability": "nonpayable",
      "type": "function"
    },
    {
      "inputs": [],
      "name": "endSellFeeTimestamp",
      "outputs": [
        {
          "internalType": "uint256",
          "name": "",
          "type": "uint256"
        }
      ],
      "stateMutability": "view",
      "type": "function"
    },
    {
      "inputs": [
        {
          "internalType": "uint256",
          "name": "node_type",
          "type": "uint256"
        }
      ],
      "name": "getNodePrice",
      "outputs": [
        {
          "internalType": "uint256",
          "name": "",
          "type": "uint256"
        }
      ],
      "stateMutability": "view",
      "type": "function"
    },
    {
      "inputs": [
        {
          "internalType": "address",
          "name": "account",
          "type": "address"
        }
      ],
      "name": "getNumberOfNodes",
      "outputs": [
        {
          "internalType": "uint256",
          "name": "",
          "type": "uint256"
        }
      ],
      "stateMutability": "view",
      "type": "function"
    },
    {
      "inputs": [
        {
          "internalType": "address",
          "name": "user",
          "type": "address"
        }
      ],
      "name": "getReferralCode",
      "outputs": [
        {
          "internalType": "bytes20",
          "name": "",
          "type": "bytes20"
        }
      ],
      "stateMutability": "view",
      "type": "function"
    },
    {
      "inputs": [
        {
          "internalType": "address",
          "name": "spender",
          "type": "address"
        },
        {
          "internalType": "uint256",
          "name": "addedValue",
          "type": "uint256"
        }
      ],
      "name": "increaseAllowance",
      "outputs": [
        {
          "internalType": "bool",
          "name": "",
          "type": "bool"
        }
      ],
      "stateMutability": "nonpayable",
      "type": "function"
    },
    {
      "inputs": [],
      "name": "initialAdditionnalSellFee",
      "outputs": [
        {
          "internalType": "uint256",
          "name": "",
          "type": "uint256"
        }
      ],
      "stateMutability": "view",
      "type": "function"
    },
    {
      "inputs": [
        {
          "internalType": "address",
          "name": "account",
          "type": "address"
        }
      ],
      "name": "isNodeOwner",
      "outputs": [
        {
          "internalType": "bool",
          "name": "",
          "type": "bool"
        }
      ],
      "stateMutability": "view",
      "type": "function"
    },
    {
      "inputs": [],
      "name": "launchSellFeeTimestamp",
      "outputs": [
        {
          "internalType": "uint256",
          "name": "",
          "type": "uint256"
        }
      ],
      "stateMutability": "view",
      "type": "function"
    },
    {
      "inputs": [],
      "name": "liquidityFee",
      "outputs": [
        {
          "internalType": "uint32",
          "name": "",
          "type": "uint32"
        }
      ],
      "stateMutability": "view",
      "type": "function"
    },
    {
      "inputs": [],
      "name": "lpPool",
      "outputs": [
        {
          "internalType": "address",
          "name": "",
          "type": "address"
        }
      ],
      "stateMutability": "view",
      "type": "function"
    },
    {
      "inputs": [],
      "name": "name",
      "outputs": [
        {
          "internalType": "string",
          "name": "",
          "type": "string"
        }
      ],
      "stateMutability": "view",
      "type": "function"
    },
    {
      "inputs": [],
      "name": "nodeCreationEnabled",
      "outputs": [
        {
          "internalType": "bool",
          "name": "",
          "type": "bool"
        }
      ],
      "stateMutability": "view",
      "type": "function"
    },
    {
      "inputs": [
        {
          "internalType": "uint256",
          "name": "",
          "type": "uint256"
        }
      ],
      "name": "nodeMapping",
      "outputs": [
        {
          "internalType": "uint256",
          "name": "id",
          "type": "uint256"
        },
        {
          "internalType": "uint256",
          "name": "timestamp",
          "type": "uint256"
        },
        {
          "internalType": "uint256",
          "name": "nodeType",
          "type": "uint256"
        },
        {
          "internalType": "address",
          "name": "owner",
          "type": "address"
        }
      ],
      "stateMutability": "view",
      "type": "function"
    },
    {
      "inputs": [
        {
          "internalType": "uint256",
          "name": "",
          "type": "uint256"
        }
      ],
      "name": "nodePrice",
      "outputs": [
        {
          "internalType": "uint256",
          "name": "",
          "type": "uint256"
        }
      ],
      "stateMutability": "view",
      "type": "function"
    },
    {
      "inputs": [],
      "name": "nodeRewardEnabled",
      "outputs": [
        {
          "internalType": "bool",
          "name": "",
          "type": "bool"
        }
      ],
      "stateMutability": "view",
      "type": "function"
    },
    {
      "inputs": [],
      "name": "numberOfNodes",
      "outputs": [
        {
          "internalType": "uint256",
          "name": "",
          "type": "uint256"
        }
      ],
      "stateMutability": "view",
      "type": "function"
    },
    {
      "inputs": [],
      "name": "owner",
      "outputs": [
        {
          "internalType": "address",
          "name": "",
          "type": "address"
        }
      ],
      "stateMutability": "view",
      "type": "function"
    },
    {
      "inputs": [],
      "name": "referral_bonus",
      "outputs": [
        {
          "internalType": "uint256",
          "name": "",
          "type": "uint256"
        }
      ],
      "stateMutability": "view",
      "type": "function"
    },
    {
      "inputs": [],
      "name": "renounceOwnership",
      "outputs": [],
      "stateMutability": "nonpayable",
      "type": "function"
    },
    {
      "inputs": [],
      "name": "rewardFee",
      "outputs": [
        {
          "internalType": "uint32",
          "name": "",
          "type": "uint32"
        }
      ],
      "stateMutability": "view",
      "type": "function"
    },
    {
      "inputs": [],
      "name": "rewardPool",
      "outputs": [
        {
          "internalType": "address",
          "name": "",
          "type": "address"
        }
      ],
      "stateMutability": "view",
      "type": "function"
    },
    {
      "inputs": [],
      "name": "rewardSwapRatio",
      "outputs": [
        {
          "internalType": "uint32",
          "name": "",
          "type": "uint32"
        }
      ],
      "stateMutability": "view",
      "type": "function"
    },
    {
      "inputs": [],
      "name": "sellFee",
      "outputs": [
        {
          "internalType": "uint32",
          "name": "",
          "type": "uint32"
        }
      ],
      "stateMutability": "view",
      "type": "function"
    },
    {
      "inputs": [
        {
          "internalType": "uint128",
          "name": "newTime",
          "type": "uint128"
        }
      ],
      "name": "setClaimTime",
      "outputs": [],
      "stateMutability": "nonpayable",
      "type": "function"
    },
    {
      "inputs": [
        {
          "internalType": "bool",
          "name": "enableNodeCreation",
          "type": "bool"
        }
      ],
      "name": "setNodeCreation",
      "outputs": [],
      "stateMutability": "nonpayable",
      "type": "function"
    },
    {
      "inputs": [
        {
          "internalType": "uint256",
          "name": "Ice",
          "type": "uint256"
        },
        {
          "internalType": "uint256",
          "name": "Earth",
          "type": "uint256"
        },
        {
          "internalType": "uint256",
          "name": "Lava",
          "type": "uint256"
        }
      ],
      "name": "setNodePrice",
      "outputs": [],
      "stateMutability": "nonpayable",
      "type": "function"
    },
    {
      "inputs": [
        {
          "internalType": "uint256",
          "name": "Ice",
          "type": "uint256"
        },
        {
          "internalType": "uint256",
          "name": "Earth",
          "type": "uint256"
        },
        {
          "internalType": "uint256",
          "name": "Lava",
          "type": "uint256"
        }
      ],
      "name": "setRewardPerNode",
      "outputs": [],
      "stateMutability": "nonpayable",
      "type": "function"
    },
    {
      "inputs": [],
      "name": "swapTokensAmount",
      "outputs": [
        {
          "internalType": "uint256",
          "name": "",
          "type": "uint256"
        }
      ],
      "stateMutability": "view",
      "type": "function"
    },
    {
      "inputs": [],
      "name": "swapping",
      "outputs": [
        {
          "internalType": "bool",
          "name": "",
          "type": "bool"
        }
      ],
      "stateMutability": "view",
      "type": "function"
    },
    {
      "inputs": [],
      "name": "symbol",
      "outputs": [
        {
          "internalType": "string",
          "name": "",
          "type": "string"
        }
      ],
      "stateMutability": "view",
      "type": "function"
    },
    {
      "inputs": [],
      "name": "teamFee",
      "outputs": [
        {
          "internalType": "uint32",
          "name": "",
          "type": "uint32"
        }
      ],
      "stateMutability": "view",
      "type": "function"
    },
    {
      "inputs": [],
      "name": "teamPool",
      "outputs": [
        {
          "internalType": "address",
          "name": "",
          "type": "address"
        }
      ],
      "stateMutability": "view",
      "type": "function"
    },
    {
      "inputs": [],
      "name": "totalSupply",
      "outputs": [
        {
          "internalType": "uint256",
          "name": "",
          "type": "uint256"
        }
      ],
      "stateMutability": "view",
      "type": "function"
    },
    {
      "inputs": [],
      "name": "traderJoePair",
      "outputs": [
        {
          "internalType": "address",
          "name": "",
          "type": "address"
        }
      ],
      "stateMutability": "view",
      "type": "function"
    },
    {
      "inputs": [],
      "name": "transferFee",
      "outputs": [
        {
          "internalType": "uint32",
          "name": "",
          "type": "uint32"
        }
      ],
      "stateMutability": "view",
      "type": "function"
    },
    {
      "inputs": [
        {
          "internalType": "address",
          "name": "newOwner",
          "type": "address"
        }
      ],
      "name": "transferOwnership",
      "outputs": [],
      "stateMutability": "nonpayable",
      "type": "function"
    },
    {
      "inputs": [],
      "name": "treasuryFee",
      "outputs": [
        {
          "internalType": "uint32",
          "name": "",
          "type": "uint32"
        }
      ],
      "stateMutability": "view",
      "type": "function"
    },
    {
      "inputs": [],
      "name": "treasuryPool",
      "outputs": [
        {
          "internalType": "address",
          "name": "",
          "type": "address"
        }
      ],
      "stateMutability": "view",
      "type": "function"
    },
    {
      "stateMutability": "payable",
      "type": "receive"
    },
    {
      "inputs": [
        {
          "internalType": "address",
          "name": "account",
          "type": "address"
        },
        {
          "internalType": "bool",
          "name": "value",
          "type": "bool"
        }
      ],
      "name": "blacklistMalicious",
      "outputs": [],
      "stateMutability": "nonpayable",
      "type": "function"
    },
    {
      "inputs": [
        {
          "internalType": "address",
          "name": "account",
          "type": "address"
        },
        {
          "internalType": "bool",
          "name": "value",
          "type": "bool"
        }
      ],
      "name": "whitelistUser",
      "outputs": [],
      "stateMutability": "nonpayable",
      "type": "function"
    },
    {
      "inputs": [
        {
          "internalType": "uint256",
          "name": "newVal",
          "type": "uint256"
        }
      ],
      "name": "setSwapTokensAmount",
      "outputs": [],
      "stateMutability": "nonpayable",
      "type": "function"
    },
    {
      "inputs": [
        {
          "internalType": "address payable",
          "name": "walletAddress",
          "type": "address"
        }
      ],
      "name": "updateTreasuryWallet",
      "outputs": [],
      "stateMutability": "nonpayable",
      "type": "function"
    },
    {
      "inputs": [
        {
          "internalType": "address payable",
          "name": "walletAddress",
          "type": "address"
        }
      ],
      "name": "updateRewardWallet",
      "outputs": [],
      "stateMutability": "nonpayable",
      "type": "function"
    },
    {
      "inputs": [
        {
          "internalType": "address payable",
          "name": "walletAddress",
          "type": "address"
        }
      ],
      "name": "updateLiquidityWallet",
      "outputs": [],
      "stateMutability": "nonpayable",
      "type": "function"
    },
    {
      "inputs": [
        {
          "internalType": "address payable",
          "name": "walletAddress",
          "type": "address"
        }
      ],
      "name": "updateTeamyWallet",
      "outputs": [],
      "stateMutability": "nonpayable",
      "type": "function"
    },
    {
      "inputs": [
        {
          "internalType": "uint32",
          "name": "_rewardFee",
          "type": "uint32"
        },
        {
          "internalType": "uint32",
          "name": "_treasuryFee",
          "type": "uint32"
        },
        {
          "internalType": "uint32",
          "name": "_liquidityFee",
          "type": "uint32"
        },
        {
          "internalType": "uint32",
          "name": "_teamFee",
          "type": "uint32"
        }
      ],
      "name": "updateMultiswapFee",
      "outputs": [],
      "stateMutability": "nonpayable",
      "type": "function"
    },
    {
      "inputs": [
        {
          "internalType": "uint32",
          "name": "value",
          "type": "uint32"
        }
      ],
      "name": "updateClaimFee",
      "outputs": [],
      "stateMutability": "nonpayable",
      "type": "function"
    },
    {
      "inputs": [
        {
          "internalType": "uint32",
          "name": "value",
          "type": "uint32"
        }
      ],
      "name": "updateSellFee",
      "outputs": [],
      "stateMutability": "nonpayable",
      "type": "function"
    },
    {
      "inputs": [
        {
          "internalType": "uint32",
          "name": "value",
          "type": "uint32"
        }
      ],
      "name": "updateTransferFee",
      "outputs": [],
      "stateMutability": "nonpayable",
      "type": "function"
    },
    {
      "inputs": [
        {
          "internalType": "uint32",
          "name": "value",
          "type": "uint32"
        }
      ],
      "name": "updateRewardSwapRatio",
      "outputs": [],
      "stateMutability": "nonpayable",
      "type": "function"
    },
    {
      "inputs": [
        {
          "internalType": "address",
          "name": "account",
          "type": "address"
        },
        {
          "internalType": "bool",
          "name": "value",
          "type": "bool"
        }
      ],
      "name": "setIsPool",
      "outputs": [],
      "stateMutability": "nonpayable",
      "type": "function"
    },
    {
      "inputs": [
        {
          "internalType": "uint256",
          "name": "value",
          "type": "uint256"
        }
      ],
      "name": "updateMaxTx",
      "outputs": [],
      "stateMutability": "nonpayable",
      "type": "function"
    },
    {
      "inputs": [
        {
          "internalType": "uint256",
          "name": "value",
          "type": "uint256"
        }
      ],
      "name": "updateMaxWallet",
      "outputs": [],
      "stateMutability": "nonpayable",
      "type": "function"
    },
    {
      "inputs": [],
      "name": "openTrading",
      "outputs": [],
      "stateMutability": "nonpayable",
      "type": "function"
    },
    {
      "inputs": [
        {
          "internalType": "uint256",
          "name": "amount",
          "type": "uint256"
        }
      ],
      "name": "addTokensToRewardPool",
      "outputs": [],
      "stateMutability": "nonpayable",
      "type": "function"
    },
    {
      "inputs": [
        {
          "internalType": "address",
          "name": "recipient",
          "type": "address"
        },
        {
          "internalType": "uint256",
          "name": "amount",
          "type": "uint256"
        }
      ],
      "name": "transfer",
      "outputs": [
        {
          "internalType": "bool",
          "name": "",
          "type": "bool"
        }
      ],
      "stateMutability": "nonpayable",
      "type": "function"
    },
    {
      "inputs": [
        {
          "internalType": "address",
          "name": "sender",
          "type": "address"
        },
        {
          "internalType": "address",
          "name": "recipient",
          "type": "address"
        },
        {
          "internalType": "uint256",
          "name": "amount",
          "type": "uint256"
        }
      ],
      "name": "transferFrom",
      "outputs": [
        {
          "internalType": "bool",
          "name": "",
          "type": "bool"
        }
      ],
      "stateMutability": "nonpayable",
      "type": "function"
    },
    {
      "inputs": [],
      "name": "createExclusiveNode",
      "outputs": [],
      "stateMutability": "nonpayable",
      "type": "function"
    },
    {
      "inputs": [
        {
          "internalType": "uint256",
          "name": "amount",
          "type": "uint256"
        },
        {
          "internalType": "uint256",
          "name": "nodeType",
          "type": "uint256"
        },
        {
          "internalType": "bytes20",
          "name": "referral_code",
          "type": "bytes20"
        }
      ],
      "name": "createNodeAndTransferToPools",
      "outputs": [],
      "stateMutability": "nonpayable",
      "type": "function"
    },
    {
      "inputs": [
        {
          "internalType": "uint256",
          "name": "id",
          "type": "uint256"
        }
      ],
      "name": "claimRewards",
      "outputs": [],
      "stateMutability": "nonpayable",
      "type": "function"
    },
    {
      "inputs": [],
      "name": "claimAllRewards",
      "outputs": [],
      "stateMutability": "nonpayable",
      "type": "function"
    },
    {
      "inputs": [
        {
          "internalType": "address",
          "name": "_presaleToken",
          "type": "address"
        }
      ],
      "name": "setPresaleToken",
      "outputs": [],
      "stateMutability": "nonpayable",
      "type": "function"
    },
    {
      "inputs": [],
      "name": "convertPresaleToReal",
      "outputs": [],
      "stateMutability": "nonpayable",
      "type": "function"
    }
  ],
  "bytecode": "0x6000600655600780546001608060020a03191661a8c0179055610100604052678ac7230489e80000608090815267d02ab486cedc000060a0526801158e460913d0000060c05261232860e0526200005b90600890600462000a10565b506040805160808101825260088152600a6020820152600c918101829052601460608201526200008e9190600462000a5e565b5060146010556015805461ffff1916610101179055620000b16012600a62000c59565b620000c090620f424062000c71565b6016557846000000000000000500000000000000050000000000000014601c557c32000000190000003200000064000002ee000000640000000000000064601d55601e805467ffffffffffffffff19166501f4000000641790556096602155603260225560258054732d99abd9008dc933ff5c0cd271b88309593ab921600160a860020a03199091161790556200015a6012600a62000c59565b6200016790606462000c71565b602655620001786012600a62000c59565b62000186906101f462000c71565b602755620001976012600a62000c59565b620001a590610fa062000c71565b6028556029805460ff19169055685150ae84a8cdf00000602d55612328602e55348015620001d257600080fd5b5060405162004fd838038062004fd8833981016040819052620001f59162000cdf565b60408051808201825260038082527f4d544e000000000000000000000000000000000000000000000000000000000060208084019182528451808601909552600885527f4d6f756e7461696e0000000000000000000000000000000000000000000000009085015282519293926200026f92919062000a94565b5080516200028590600490602084019062000a94565b5050506000620002a36200081d640100000000026401000000009004565b60058054600160a060020a031916600160a060020a038316908117909155604051919250906000907f8be0079c531659141344cd1fd0a4f28419497f9722a3daafe3b4186f6b6457e0908290a35060255460238054600160a060020a031916600160a060020a039092169182179055604080517fc45a0155000000000000000000000000000000000000000000000000000000008152905163c45a0155916004808201926020929091908290030181865afa15801562000367573d6000803e3d6000fd5b505050506040513d601f19601f820116820180604052508101906200038d919062000db0565b600160a060020a031663c9c6539630602360009054906101000a9004600160a060020a0316600160a060020a03166373b295c26040518163ffffffff167c0100000000000000000000000000000000000000000000000000000000028152600401602060405180830381865afa1580156200040c573d6000803e3d6000fd5b505050506040513d601f19601f8201168201806040525081019062000432919062000db0565b6040517c010000000000000000000000000000000000000000000000000000000063ffffffff8516028152600160a060020a039283166004820152911660248201526044016020604051808303816000875af115801562000497573d6000803e3d6000fd5b505050506040513d601f19601f82011682018060405250810190620004bd919062000db0565b602460006101000a815481600160a060020a030219169083600160a060020a0316021790555080600081518110620004f957620004f962000dce565b6020026020010151601860006101000a815481600160a060020a030219169083600160a060020a03160217905550806001815181106200053d576200053d62000dce565b6020026020010151601760006101000a815481600160a060020a030219169083600160a060020a031602179055508060028151811062000581576200058162000dce565b6020026020010151601a60006101000a815481600160a060020a030219169083600160a060020a0316021790555080600381518110620005c557620005c562000dce565b602090810291909101015160198054600160a060020a031916600160a060020a03928316179055601854620006069116600164010000000062000821810204565b6017546200062890600160a060020a0316600164010000000062000821810204565b601a546200064a90600160a060020a0316600164010000000062000821810204565b6019546200066c90600160a060020a0316600164010000000062000821810204565b601d54601c54601654620006b29233926001604060020a039182169262000697929091169062000c71565b620006a3919062000dfd565b640100000000620008d8810204565b601854601d54601c546016546200070593600160a060020a0316926001604060020a0390811692620006979278010000000000000000000000000000000000000000000000009091049091169062000c71565b601754601d54601c546016546200074893600160a060020a0316926001604060020a03908116926200069792680100000000000000009091049091169062000c71565b601954601d54601c546016546200079393600160a060020a0316926001604060020a039081169262000697927001000000000000000000000000000000009091049091169062000c71565b601654620007a964010000000062000a05810204565b1462000816576040517f08c379a000000000000000000000000000000000000000000000000000000000815260206004820152601960248201527f4d544e20434f4e535452203a204572726f7220737570706c790000000000000060448201526064015b60405180910390fd5b5062000eaa565b3390565b620008346401000000006200081d810204565b600554600160a060020a03908116911614620008ad576040517f08c379a000000000000000000000000000000000000000000000000000000000815260206004820181905260248201527f4f776e61626c653a2063616c6c6572206973206e6f7420746865206f776e657260448201526064016200080d565b600160a060020a03919091166000908152601b60205260409020805460ff1916911515919091179055565b600160a060020a0382166200094a576040517f08c379a000000000000000000000000000000000000000000000000000000000815260206004820152601f60248201527f41524332303a206d696e7420746f20746865207a65726f20616464726573730060448201526064016200080d565b620009616000838364010000000062000a0b810204565b806002600082825462000975919062000e39565b9091555050600160a060020a03821660009081526020819052604081208054839290620009a490849062000e39565b9091555050604051818152600160a060020a038316906000907fddf252ad1be2c89b69c2b068fc378daa952ba7f163c4a11628f55a4df523b3ef9060200160405180910390a362000a016000838364010000000062000a0b810204565b5050565b60025490565b505050565b826004810192821562000a4c579160200282015b8281111562000a4c57825182906001604860020a031690559160200191906001019062000a24565b5062000a5a92915062000b11565b5090565b826004810192821562000a4c579160200282015b8281111562000a4c578251829060ff1690559160200191906001019062000a72565b82805462000aa29062000e54565b90600052602060002090601f01602090048101928262000ac6576000855562000a4c565b82601f1062000ae157805160ff191683800117855562000a4c565b8280016001018555821562000a4c579182015b8281111562000a4c57825182559160200191906001019062000af4565b5b8082111562000a5a576000815560010162000b12565b7f4e487b7100000000000000000000000000000000000000000000000000000000600052601160045260246000fd5b600181815b8085111562000b9a57816000190482111562000b7c5762000b7c62000b28565b8085161562000b8a57918102915b6002909404939080029062000b5c565b509250929050565b60008262000bb35750600162000c53565b8162000bc25750600062000c53565b816001811462000bdb576002811462000be65762000c07565b600191505062000c53565b60ff84111562000bfa5762000bfa62000b28565b8360020a91505062000c53565b5060208310610133831016604e8410600b841016171562000c2c575081810a62000c53565b62000c38838362000b57565b806000190482111562000c4f5762000c4f62000b28565b0290505b92915050565b600062000c6a60ff84168362000ba2565b9392505050565b600081600019048311821515161562000c8e5762000c8e62000b28565b500290565b7f4e487b7100000000000000000000000000000000000000000000000000000000600052604160045260246000fd5b8051600160a060020a038116811462000cda57600080fd5b919050565b6000602080838503121562000cf357600080fd5b82516001604060020a038082111562000d0b57600080fd5b818501915085601f83011262000d2057600080fd5b81518181111562000d355762000d3562000c93565b838102604051601f19603f8301168101818110858211171562000d5c5762000d5c62000c93565b60405291825284820192508381018501918883111562000d7b57600080fd5b938501935b8285101562000da45762000d948562000cc2565b8452938501939285019262000d80565b98975050505050505050565b60006020828403121562000dc357600080fd5b62000c6a8262000cc2565b7f4e487b7100000000000000000000000000000000000000000000000000000000600052603260045260246000fd5b60008262000e34577f4e487b7100000000000000000000000000000000000000000000000000000000600052601260045260246000fd5b500490565b6000821982111562000e4f5762000e4f62000b28565b500190565b60028104600182168062000e6957607f821691505b6020821081141562000ea4577f4e487b7100000000000000000000000000000000000000000000000000000000600052602260045260246000fd5b50919050565b61411e8062000eba6000396000f3fe60806040526004361061044f5760003560e060020a90048063758463e211610238578063acb2ad6f11610132578063d59fd900116100ba578063e37ba8f91161007e578063e37ba8f914610dfa578063e3d57b6a14610e1a578063ed45732714610e3a578063f2fde38b14610e50578063fd4781dc14610e7057600080fd5b8063d59fd90014610d41578063d7c94efd14610d5b578063d892934214610d7f578063dd62ed3e14610d9f578063e1398e1814610de557600080fd5b8063c9567bf911610101578063c9567bf914610c9b578063cb0c910814610cb0578063cc32d17614610cd0578063cc600f9114610d01578063d3ea435014610d2157600080fd5b8063acb2ad6f14610c07578063b02079cf14610c2c578063b252999414610c65578063c2d0ffca14610c7b57600080fd5b806392c40344116101c05780639d8dd85e116101845780639d8dd85e14610b71578063a0ca3ee114610b87578063a457c2d714610ba7578063a9059cbb14610bc7578063aa2e99ad14610be757600080fd5b806392c4034414610aa157806395d89b4114610adf57806398118cb414610af457806399d32fc414610b1d5780639cee214214610b4157600080fd5b8063876a3aad11610207578063876a3aad146109d75780638b424267146109f75780638b81666e14610a245780638c7a273a14610a395780638da5cb5b14610a8357600080fd5b8063758463e2146109585780637d58efb914610978578063809d458d1461099857806386b9606e146109b857600080fd5b8063313ce56711610349578063513970a9116102d157806364b6c9011161029557806364b6c901146108cd57806366666aa9146108ed57806366f5f2b61461058a57806370a082311461090d578063715018a61461094357600080fd5b8063513970a91461084157806354d74e1f146108615780635efd86aa146108775780635f1c318214610897578063615cf8b8146108ad57600080fd5b80633cfa0a7f116103185780633cfa0a7f146107ab57806343e716fe146107c157806348df5829146107e157806349e588cf146108015780634df3cce41461082157600080fd5b8063313ce567146107175780633737bcb414610733578063395093511461076b578063396365041461078b57600080fd5b806317fb4c3b116103d75780631cdd3be31161039b5780631cdd3be3146106555780631febb9ea1461068557806323b872dd146106a557806324dac61a146106c55780632b14ca56146106e557600080fd5b806317fb4c3b146105aa57806318160ddd146105e05780631a25a608146105f55780631c499ab0146106155780631cb5a5491461063557600080fd5b80630b83a7271161041e5780630b83a727146104f85780630e5c753d1461050d57806315f7aaab146105315780631732cded14610569578063173ec75d1461058a57600080fd5b806305a4f7f21461045b57806306fdde031461047d578063095ea7b3146104a85780630962ef79146104d857600080fd5b3661045657005b600080fd5b34801561046757600080fd5b5061047b610476366004613944565b610ee4565b005b34801561048957600080fd5b50610492611080565b60405161049f91906139bb565b60405180910390f35b3480156104b457600080fd5b506104c86104c3366004613a03565b611112565b604051901515815260200161049f565b3480156104e457600080fd5b5061047b6104f3366004613a2f565b61112a565b34801561050457600080fd5b5061047b611246565b34801561051957600080fd5b5061052360215481565b60405190815260200161049f565b34801561053d57600080fd5b506104c861054c366004613a48565b600160a060020a0316600090815260116020526040902054151590565b34801561057557600080fd5b506025546104c89060a060020a900460ff1681565b34801561059657600080fd5b5061047b6105a5366004613a79565b611360565b3480156105b657600080fd5b506105236105c5366004613a48565b600160a060020a031660009081526011602052604090205490565b3480156105ec57600080fd5b50600254610523565b34801561060157600080fd5b5061047b610610366004613a79565b6113a9565b34801561062157600080fd5b5061047b610630366004613a2f565b611410565b34801561064157600080fd5b5061047b610650366004613aa2565b611442565b34801561066157600080fd5b506104c8610670366004613a48565b602a6020526000908152604090205460ff1681565b34801561069157600080fd5b5061047b6106a0366004613a2f565b61149a565b3480156106b157600080fd5b506104c86106c0366004613adb565b611533565b3480156106d157600080fd5b5061047b6106e0366004613b1c565b6115ab565b3480156106f157600080fd5b50601e546107029063ffffffff1681565b60405163ffffffff909116815260200161049f565b34801561072357600080fd5b506040516012815260200161049f565b34801561073f57600080fd5b50601a5461075390600160a060020a031681565b604051600160a060020a03909116815260200161049f565b34801561077757600080fd5b506104c8610786366004613a03565b61174f565b34801561079757600080fd5b5060195461075390600160a060020a031681565b3480156107b757600080fd5b50610523601f5481565b3480156107cd57600080fd5b5061047b6107dc366004613a2f565b61178e565b3480156107ed57600080fd5b5060175461075390600160a060020a031681565b34801561080d57600080fd5b5061047b61081c366004613b70565b6117c0565b34801561082d57600080fd5b5061047b61083c366004613a48565b611800565b34801561084d57600080fd5b5060245461075390600160a060020a031681565b34801561086d57600080fd5b5061052360065481565b34801561088357600080fd5b50610523610892366004613a03565b61184f565b3480156108a357600080fd5b5061052360265481565b3480156108b957600080fd5b506105236108c8366004613a2f565b611880565b3480156108d957600080fd5b5061047b6108e8366004613a79565b6118f1565b3480156108f957600080fd5b5060185461075390600160a060020a031681565b34801561091957600080fd5b50610523610928366004613a48565b600160a060020a031660009081526020819052604090205490565b34801561094f57600080fd5b5061047b6119ed565b34801561096457600080fd5b50610523610973366004613a2f565b611a64565b34801561098457600080fd5b50610523610993366004613a2f565b611a7b565b3480156109a457600080fd5b5061047b6109b3366004613a48565b611a8b565b3480156109c457600080fd5b506015546104c890610100900460ff1681565b3480156109e357600080fd5b5061047b6109f2366004613b8d565b611ada565b348015610a0357600080fd5b50601d54610702906c01000000000000000000000000900463ffffffff1681565b348015610a3057600080fd5b5061047b611b4f565b348015610a4557600080fd5b50600754610a62906fffffffffffffffffffffffffffffffff1681565b6040516fffffffffffffffffffffffffffffffff909116815260200161049f565b348015610a8f57600080fd5b50600554600160a060020a0316610753565b348015610aad57600080fd5b50610ac1610abc366004613a48565b611e07565b6040516bffffffffffffffffffffffff19909116815260200161049f565b348015610aeb57600080fd5b50610492611e66565b348015610b0057600080fd5b50601d546107029068010000000000000000900463ffffffff1681565b348015610b2957600080fd5b50601d546107029060e060020a900463ffffffff1681565b348015610b4d57600080fd5b506104c8610b5c366004613a48565b602b6020526000908152604090205460ff1681565b348015610b7d57600080fd5b5061052360225481565b348015610b9357600080fd5b5061047b610ba2366004613aa2565b611e75565b348015610bb357600080fd5b506104c8610bc2366004613a03565b611ecd565b348015610bd357600080fd5b506104c8610be2366004613a03565b611f85565b348015610bf357600080fd5b5061047b610c02366004613a48565b611f99565b348015610c1357600080fd5b50601e5461070290640100000000900463ffffffff1681565b348015610c3857600080fd5b50601d54610702907801000000000000000000000000000000000000000000000000900463ffffffff1681565b348015610c7157600080fd5b5061052360205481565b348015610c8757600080fd5b5061047b610c96366004613a2f565b611fe8565b348015610ca757600080fd5b5061047b61201a565b348015610cbc57600080fd5b5061047b610ccb366004613bb9565b61206d565b348015610cdc57600080fd5b50601d5461070290700100000000000000000000000000000000900463ffffffff1681565b348015610d0d57600080fd5b5061047b610d1c366004613a48565b6120ce565b348015610d2d57600080fd5b50610523610d3c366004613a2f565b61211d565b348015610d4d57600080fd5b506015546104c89060ff1681565b348015610d6757600080fd5b50601d546107029060a060020a900463ffffffff1681565b348015610d8b57600080fd5b5061047b610d9a366004613aa2565b61222b565b348015610dab57600080fd5b50610523610dba366004613beb565b600160a060020a03918216600090815260016020908152604080832093909416825291909152205490565b348015610df157600080fd5b5061047b612283565b348015610e0657600080fd5b5061047b610e15366004613a48565b6124e9565b348015610e2657600080fd5b5061047b610e35366004613b8d565b612538565b348015610e4657600080fd5b5061052360105481565b348015610e5c57600080fd5b5061047b610e6b366004613a48565b612578565b348015610e7c57600080fd5b50610ebb610e8b366004613a2f565b601460205260009081526040902080546001820154600283015460039093015491929091600160a060020a031684565b60408051948552602085019390935291830152600160a060020a0316606082015260800161049f565b3380610f0e5760405160e560020a62461bcd028152600401610f0590613c19565b60405180910390fd5b600160a060020a0381166000908152602a602052604090205460ff1615610f4a5760405160e560020a62461bcd028152600401610f0590613c76565b610f5381612680565b15610f735760405160e560020a62461bcd028152600401610f0590613cd3565b30600090815260208190526040902054602654602554908210159060a060020a900460ff16158015610fa25750805b15610fb057610fb0826126e4565b610fba8686612892565b600160a060020a0383166000908152602b602052604090205460ff161561100057600160a060020a0383166000908152602b60205260409020805460ff19169055611078565b6bffffffffffffffffffffffff1984166000908152601360205260409020548690600160a060020a031680156110695760006103e8836022546110439190613d49565b61104d9190613d68565b90506110598184613d8d565b9250611066338383612b34565b50505b611074333084612ce6565b5050505b505050505050565b60606003805461108f90613da4565b80601f01602080910402602001604051908101604052809291908181526020018280546110bb90613da4565b80156111085780601f106110dd57610100808354040283529160200191611108565b820191906000526020600020905b8154815290600101906020018083116110eb57829003601f168201915b5050505050905090565b600033611120818585612f15565b5060019392505050565b338061117b5760405160e560020a62461bcd02815260206004820181905260248201527f434c41494d205245574152443a2066726f6d20746865203020616464726573736044820152606401610f05565b600160a060020a0381166000908152602a602052604090205460ff16156111b75760405160e560020a62461bcd028152600401610f0590613de2565b6111c081612680565b156111e05760405160e560020a62461bcd028152600401610f0590613e3f565b60006111eb83613073565b601d549091506000906103e89061120f9060e060020a900463ffffffff1684613d49565b6112199190613d68565b90506112258183613d8d565b60185490925061123f90600160a060020a03168484612ce6565b5050505050565b33806112975760405160e560020a62461bcd02815260206004820181905260248201527f434c41494d205245574152443a2066726f6d20746865203020616464726573736044820152606401610f05565b600160a060020a0381166000908152602a602052604090205460ff16156112d35760405160e560020a62461bcd028152600401610f0590613de2565b6112dc81612680565b156112fc5760405160e560020a62461bcd028152600401610f0590613e3f565b60006113066131ec565b601d549091506000906103e89061132a9060e060020a900463ffffffff1684613d49565b6113349190613d68565b90506113408183613d8d565b60185490925061135a90600160a060020a03168484612ce6565b50505050565b600554600160a060020a0316331461138d5760405160e560020a62461bcd028152600401610f0590613e9c565b601e805463ffffffff191663ffffffff92909216919091179055565b600554600160a060020a031633146113d65760405160e560020a62461bcd028152600401610f0590613e9c565b601d805463ffffffff90921660e060020a027bffffffffffffffffffffffffffffffffffffffffffffffffffffffff909216919091179055565b600554600160a060020a0316331461143d5760405160e560020a62461bcd028152600401610f0590613e9c565b602855565b600554600160a060020a0316331461146f5760405160e560020a62461bcd028152600401610f0590613e9c565b600160a060020a03919091166000908152601b60205260409020805460ff1916911515919091179055565b600554600160a060020a031633146114c75760405160e560020a62461bcd028152600401610f0590613e9c565b6000811161151a5760405160e560020a62461bcd02815260206004820152600e60248201527f416d6f756e7420746f6f206c6f770000000000000000000000000000000000006044820152606401610f05565b60185461153090600160a060020a031682613373565b50565b600160a060020a03831660009081526001602090815260408083203384529091528120546000191461159857600160a060020a038416600090815260016020908152604080832033845290915281208054849290611592908490613d8d565b90915550505b6115a3848484612ce6565b949350505050565b600554600160a060020a031633146115d85760405160e560020a62461bcd028152600401610f0590613e9c565b601d805473ffffffffffffffff00000000000000000000000019166c0100000000000000000000000063ffffffff878116820273ffffffff0000000000000000000000000000000019169290921770010000000000000000000000000000000087841681029190911777ffffffff0000000000000000ffffffff0000000000000000191668010000000000000000878516810277ffffffff000000000000000000000000000000000000000019169190911760a060020a878616810291909117958690556103e8959081048516949281048316936116bf9390820481169290910416613ed1565b6116c99190613ed1565b6116d39190613ed1565b63ffffffff161461135a5760405160e560020a62461bcd02815260206004820152603c60248201527f557064617465204665653a205468652073756d206f6620616c6c20666565732060448201527f6973206e6f7420657175616c20746f20315f30303020283130302529000000006064820152608401610f05565b336000818152600160209081526040808320600160a060020a03871684529091528120549091906111209082908690611789908790613ef9565b612f15565b600554600160a060020a031633146117bb5760405160e560020a62461bcd028152600401610f0590613e9c565b602655565b600554600160a060020a031633146117ed5760405160e560020a62461bcd028152600401610f0590613e9c565b6015805460ff1916911515919091179055565b600554600160a060020a0316331461182d5760405160e560020a62461bcd028152600401610f0590613e9c565b602c8054600160a060020a031916600160a060020a0392909216919091179055565b6011602052816000526040600020818154811061186b57600080fd5b90600052602060002001600091509150505481565b600060028211156118d65760405160e560020a62461bcd02815260206004820152601460248201527f4e6f6465207479706520697320696e76616c69640000000000000000000000006044820152606401610f05565b600882600481106118e9576118e9613f11565b015492915050565b600554600160a060020a0316331461191e5760405160e560020a62461bcd028152600401610f0590613e9c565b601d80547fffffffff00000000ffffffffffffffffffffffffffffffffffffffffffffffff16780100000000000000000000000000000000000000000000000063ffffffff848116820292909217928390556103e892041611156115305760405160e560020a62461bcd02815260206004820152603260248201527f557064617465207377617020726174696f203a206e65772076616c756520697360448201527f20686967686572207468616e20315f30303000000000000000000000000000006064820152608401610f05565b600554600160a060020a03163314611a1a5760405160e560020a62461bcd028152600401610f0590613e9c565b600554604051600091600160a060020a0316907f8be0079c531659141344cd1fd0a4f28419497f9722a3daafe3b4186f6b6457e0908390a360058054600160a060020a0319169055565b60088160048110611a7457600080fd5b0154905081565b600c8160048110611a7457600080fd5b600554600160a060020a03163314611ab85760405160e560020a62461bcd028152600401610f0590613e9c565b60178054600160a060020a031916600160a060020a0392909216919091179055565b600554600160a060020a03163314611b075760405160e560020a62461bcd028152600401610f0590613e9c565b611b1983670de0b6b3a7640000613d49565b600855611b2e82670de0b6b3a7640000613d49565b600955611b4381670de0b6b3a7640000613d49565b600860025b0155505050565b602c54600160a060020a0316611baa5760405160e560020a62461bcd02815260206004820152601560248201527f50726573616c6520746f6b656e206e6f742073657400000000000000000000006044820152606401610f05565b602c546040517f70a08231000000000000000000000000000000000000000000000000000000008152336004820152600091600160a060020a0316906370a0823190602401602060405180830381865afa158015611c0c573d6000803e3d6000fd5b505050506040513d601f19601f82011682018060405250810190611c309190613f2a565b9050600081118015611c445750602d548111155b611c935760405160e560020a62461bcd02815260206004820152600f60248201527f496e76616c69642062616c616e636500000000000000000000000000000000006044820152606401610f05565b602c546040517f23b872dd00000000000000000000000000000000000000000000000000000000815233600482015230602482015260448101839052600160a060020a03909116906323b872dd906064016020604051808303816000875af1158015611d03573d6000803e3d6000fd5b505050506040513d601f19601f82011682018060405250810190611d279190613f43565b50602c546040517f70a08231000000000000000000000000000000000000000000000000000000008152336004820152600160a060020a03909116906370a0823190602401602060405180830381865afa158015611d89573d6000803e3d6000fd5b505050506040513d601f19601f82011682018060405250810190611dad9190613f2a565b15611dfd5760405160e560020a62461bcd02815260206004820152601560248201527f4572726f72207769746820636f6e76657273696f6e00000000000000000000006044820152606401610f05565b6115303382613373565b600554600090600160a060020a03163314611e375760405160e560020a62461bcd028152600401610f0590613e9c565b50600160a060020a0381166000908152601260205260409020546c01000000000000000000000000025b919050565b60606004805461108f90613da4565b600554600160a060020a03163314611ea25760405160e560020a62461bcd028152600401610f0590613e9c565b600160a060020a03919091166000908152602b60205260409020805460ff1916911515919091179055565b336000818152600160209081526040808320600160a060020a038716845290915281205490919083811015611f6d5760405160e560020a62461bcd02815260206004820152602560248201527f41524332303a2064656372656173656420616c6c6f77616e63652062656c6f7760448201527f207a65726f0000000000000000000000000000000000000000000000000000006064820152608401610f05565b611f7a8286868403612f15565b506001949350505050565b6000611f92338484612ce6565b9392505050565b600554600160a060020a03163314611fc65760405160e560020a62461bcd028152600401610f0590613e9c565b60198054600160a060020a031916600160a060020a0392909216919091179055565b600554600160a060020a031633146120155760405160e560020a62461bcd028152600401610f0590613e9c565b602755565b600554600160a060020a031633146120475760405160e560020a62461bcd028152600401610f0590613e9c565b6029805460ff1916600117905542601f819055612068906202a30090613ef9565b602055565b600554600160a060020a0316331461209a5760405160e560020a62461bcd028152600401610f0590613e9c565b600780546fffffffffffffffffffffffffffffffff19166fffffffffffffffffffffffffffffffff92909216919091179055565b600554600160a060020a031633146120fb5760405160e560020a62461bcd028152600401610f0590613e9c565b60188054600160a060020a031916600160a060020a0392909216919091179055565b6000818152601460209081526040808320815160808101835281548152600182015493810193909352600281015491830182905260030154600160a060020a031660608301528290600c906004811061217857612178613f11565b01549050816040015160031480156121bd5750612199620151806002613f60565b6fffffffffffffffffffffffffffffffff168260200151426121bb9190613d8d565b105b156121d2576010546121cf9082613ef9565b90505b602082015162015180906121e69042613d8d565b6103e883600886604001516004811061220157612201613f11565b015461220d9190613d49565b6122179190613d68565b6122219190613d49565b6115a39190613d68565b600554600160a060020a031633146122585760405160e560020a62461bcd028152600401610f0590613e9c565b600160a060020a03919091166000908152602a60205260409020805460ff1916911515919091179055565b33806122a45760405160e560020a62461bcd028152600401610f0590613c19565b600160a060020a0381166000908152602a602052604090205460ff16156122e05760405160e560020a62461bcd028152600401610f0590613c76565b6122e981612680565b156123095760405160e560020a62461bcd028152600401610f0590613cd3565b602c54600160a060020a03166123645760405160e560020a62461bcd02815260206004820152601560248201527f50726573616c6520746f6b656e206e6f742073657400000000000000000000006044820152606401610f05565b602c546040517f70a08231000000000000000000000000000000000000000000000000000000008152336004820152600091600160a060020a0316906370a0823190602401602060405180830381865afa1580156123c6573d6000803e3d6000fd5b505050506040513d601f19601f820116820180604052508101906123ea9190613f2a565b9050602e548110156124415760405160e560020a62461bcd02815260206004820152601960248201527f446f65736e2774206861766520656e6f7567682066756e6473000000000000006044820152606401610f05565b602e546003906124519082612892565b602c54602e546040517f23b872dd0000000000000000000000000000000000000000000000000000000081523360048201523060248201526044810191909152600160a060020a03909116906323b872dd906064016020604051808303816000875af11580156124c5573d6000803e3d6000fd5b505050506040513d601f19601f8201168201806040525081019061135a9190613f43565b600554600160a060020a031633146125165760405160e560020a62461bcd028152600401610f0590613e9c565b601a8054600160a060020a031916600160a060020a0392909216919091179055565b600554600160a060020a031633146125655760405160e560020a62461bcd028152600401610f0590613e9c565b600c838155600d83905581906002611b48565b600554600160a060020a031633146125a55760405160e560020a62461bcd028152600401610f0590613e9c565b600160a060020a0381166126245760405160e560020a62461bcd02815260206004820152602660248201527f4f776e61626c653a206e6577206f776e657220697320746865207a65726f206160448201527f64647265737300000000000000000000000000000000000000000000000000006064820152608401610f05565b600554604051600160a060020a038084169216907f8be0079c531659141344cd1fd0a4f28419497f9722a3daafe3b4186f6b6457e090600090a360058054600160a060020a031916600160a060020a0392909216919091179055565b6000612694600554600160a060020a031690565b600160a060020a031682600160a060020a031614806126bb5750600160a060020a03821630145b806126de5750600160a060020a0382166000908152601b602052604090205460ff165b92915050565b6025805474ff0000000000000000000000000000000000000000191660a060020a179055601d546000906103e8906127379063ffffffff7001000000000000000000000000000000009091041684613d49565b6127419190613d68565b60175490915061275a90600160a060020a031682613455565b601d546000906103e890612784906c01000000000000000000000000900463ffffffff1685613d49565b61278e9190613d68565b601d549091506000906103e8906127c7907801000000000000000000000000000000000000000000000000900463ffffffff1684613d49565b6127d19190613d68565b6018549091506127ea90600160a060020a031682613455565b60185461280b903090600160a060020a03166128068486613d8d565b612ce6565b50601d546000906103e8906128329068010000000000000000900463ffffffff1687613d49565b61283c9190613d68565b9050612847816134a6565b6019543060009081526020819052604090205461286d91600160a060020a031690613455565b50506025805474ff000000000000000000000000000000000000000019169055505050565b601554339060ff166128e95760405160e560020a62461bcd02815260206004820152601960248201527f4e6f6465206372656174696f6e2069732064697361626c6564000000000000006044820152606401610f05565b600382111561293d5760405160e560020a62461bcd02815260206004820152601460248201527f4e6f6465207479706520697320696e76616c69640000000000000000000000006044820152606401610f05565b6008826004811061295057612950613f11565b015483146129a35760405160e560020a62461bcd02815260206004820152601760248201527f4e6f646520616d6f756e74206e6f7420636f72726563740000000000000000006044820152606401610f05565b600060065460016129b49190613ef9565b90506129ea60405180608001604052806000815260200160008152602001600081526020016000600160a060020a031681525090565b5060408051608081018252828152426020820152908101849052600160a060020a038316606082015260068054906000612a2383613f98565b909155505060008281526014602090815260408083208451815584830151600180830191909155858301516002830155606086015160039092018054600160a060020a031916600160a060020a0393841617905590871680855260118452828520805492830181558552838520909101869055835260129091529020546c01000000000000000000000000026bffffffffffffffffffffffff191661123f576000612acd84613527565b600160a060020a038516600081815260126020908152604080832080546c010000000000000000000000008704600160a060020a0319918216179091556bffffffffffffffffffffffff199095168352601390915290208054909216179055505050505050565b6000600160a060020a038416612bb55760405160e560020a62461bcd02815260206004820152602560248201527f41524332303a207472616e736665722066726f6d20746865207a65726f20616460448201527f64726573730000000000000000000000000000000000000000000000000000006064820152608401610f05565b600160a060020a038316612c345760405160e560020a62461bcd02815260206004820152602360248201527f41524332303a207472616e7366657220746f20746865207a65726f206164647260448201527f65737300000000000000000000000000000000000000000000000000000000006064820152608401610f05565b600160a060020a038416600090815260208190526040902054612c58908390613d8d565b600160a060020a038086166000908152602081905260408082209390935590851681522054612c88908390613ef9565b600160a060020a038481166000818152602081815260409182902094909455518581529092918716917fddf252ad1be2c89b69c2b068fc378daa952ba7f163c4a11628f55a4df523b3ef910160405180910390a35060019392505050565b600160a060020a0383166000908152602a6020526040812054829060ff16158015612d2a5750600160a060020a0384166000908152602a602052604090205460ff16155b612d795760405160e560020a62461bcd02815260206004820152601360248201527f426c61636b6c69737465642061646472657373000000000000000000000000006044820152606401610f05565b612d8285612680565b158015612d955750612d9384612680565b155b15612f015760295460ff1615612e8657602754831115612dfa5760405160e560020a62461bcd02815260206004820152601a60248201527f5472616e73616374696f6e204c696d69742045786365656465640000000000006044820152606401610f05565b602454600160a060020a03858116911614612e8657602854600160a060020a038516600090815260208190526040902054612e359085613ef9565b1115612e865760405160e560020a62461bcd02815260206004820152601860248201527f5472616e7366657220616d6f756e7420746f6f206869676800000000000000006044820152606401610f05565b60295460ff16158015612ea65750602454600160a060020a038681169116145b15612ecf57600160a060020a0384166000908152602a60205260409020805460ff191660011790555b60295460ff168015612eef5750602454600160a060020a03868116911614155b15612f0157612efe85846135aa565b90505b612f0c858583612b34565b95945050505050565b600160a060020a038316612f935760405160e560020a62461bcd028152602060048201526024808201527f41524332303a20617070726f76652066726f6d20746865207a65726f2061646460448201527f72657373000000000000000000000000000000000000000000000000000000006064820152608401610f05565b600160a060020a0382166130125760405160e560020a62461bcd02815260206004820152602260248201527f41524332303a20617070726f766520746f20746865207a65726f20616464726560448201527f73730000000000000000000000000000000000000000000000000000000000006064820152608401610f05565b600160a060020a0383811660008181526001602090815260408083209487168084529482529182902085905590518481527f8c5be1e5ebec7d5bd14f71427d1e84f3dd0314c0f7b2291e5b200ac8c7c3b925910160405180910390a3505050565b601554600090610100900460ff166130a05760405160e560020a62461bcd028152600401610f0590613fb3565b600082815260146020908152604091829020825160808101845281548152600182015492810192909252600281015492820192909252600390910154600160a060020a031660608201819052331461313d5760405160e560020a62461bcd02815260206004820152601e60248201527f4d757374206265206f776e6572206f66206e6f646520746f20636c61696d00006044820152606401610f05565b61314a81602001516136d1565b6131bf5760405160e560020a62461bcd02815260206004820152602260248201527f4e6f6465207265776172647320617265206e6f7420636c61696d61626c65207960448201527f65740000000000000000000000000000000000000000000000000000000000006064820152608401610f05565b60006131ce826000015161211d565b91516000908152601460205260409020426001909101555092915050565b601554600090610100900460ff166132195760405160e560020a62461bcd028152600401610f0590613fb3565b33600081815260116020526040902054806132795760405160e560020a62461bcd02815260206004820152601f60248201527f4d757374206f776e206e6f64657320746f20636c61696d2072657761726473006044820152606401610f05565b6000805b8281101561336b57600160a060020a038416600090815260116020526040812080546132da926014929091859081106132b8576132b8613f11565b90600052602060002001548152602001908152602001600020600101546136d1565b1561335957600160a060020a0384166000908152601160205260408120805460149183918590811061330e5761330e613f11565b906000526020600020015481526020019081526020016000206000015490506133368161211d565b6133409084613ef9565b6000918252601460205260409091204260019091015591505b8061336381613f98565b91505061327d565b509392505050565b600160a060020a0382166133cc5760405160e560020a62461bcd02815260206004820152601f60248201527f41524332303a206d696e7420746f20746865207a65726f2061646472657373006044820152606401610f05565b80600260008282546133de9190613ef9565b9091555050600160a060020a0382166000908152602081905260408120805483929061340b908490613ef9565b9091555050604051818152600160a060020a038316906000907fddf252ad1be2c89b69c2b068fc378daa952ba7f163c4a11628f55a4df523b3ef9060200160405180910390a35050565b3031613460826136fa565b600061346d823031613d8d565b604051909150600160a060020a0385169082156108fc029083906000818181858888f1935050505015801561123f573d6000803e3d6000fd5b60006134b3600283613d68565b905060006134c18284613d8d565b905030316134ce836136fa565b60006134db823031613d8d565b90506134e7838261387e565b60408051848152602081018390527f28fc98272ce761178794ad6768050fea1648e07f1e2ffe15afd3a290f8381486910160405180910390a15050505050565b6040516c01000000000000000000000000600160a060020a03831602602082015242603482015260009060039060540160408051601f198184030181529082905261357191614010565b602060405180830381855afa15801561358e573d6000803e3d6000fd5b5050604051516c01000000000000000000000000029392505050565b601e5460009081906103e8906135c69063ffffffff1685613d49565b6135d09190613d68565b9050602054421015613636576103e86202a300601f54426135f19190613d8d565b6135fe906202a300613d8d565b60215461360b9087613d49565b6136159190613d49565b61361f9190613d68565b6136299190613d68565b6136339082613ef9565b90505b3060009081526020819052604081208054839290613655908490613ef9565b9091555050600160a060020a03841660009081526020819052604081208054839290613682908490613d8d565b90915550506040518181523090600160a060020a038616907fddf252ad1be2c89b69c2b068fc378daa952ba7f163c4a11628f55a4df523b3ef9060200160405180910390a36115a38184613d8d565b6007546000906fffffffffffffffffffffffffffffffff166136f38342613d8d565b1192915050565b604080516002808252606082018352600092602083019080368337019050509050308160008151811061372f5761372f613f11565b600160a060020a03928316602091820292909201810191909152602354604080517f73b295c2000000000000000000000000000000000000000000000000000000008152905191909316926373b295c29260048083019391928290030181865afa1580156137a1573d6000803e3d6000fd5b505050506040513d601f19601f820116820180604052508101906137c5919061402c565b816001815181106137d8576137d8613f11565b600160a060020a0392831660209182029290920101526023546137fe9130911684612f15565b6023546040517f762b1562000000000000000000000000000000000000000000000000000000008152600160a060020a039091169063762b156290613850908590600090869030904290600401614049565b600060405180830381600087803b15801561386a57600080fd5b505af1158015611078573d6000803e3d6000fd5b602354613896903090600160a060020a031684612f15565b602354601a546040517ff91b3f72000000000000000000000000000000000000000000000000000000008152306004820152602481018590526000604482018190526064820152600160a060020a0391821660848201524260a482015291169063f91b3f7290839060c40160606040518083038185885af115801561391f573d6000803e3d6000fd5b50505050506040513d601f19601f8201168201806040525081019061123f91906140ba565b60008060006060848603121561395957600080fd5b833592506020840135915060408401356bffffffffffffffffffffffff198116811461398457600080fd5b809150509250925092565b60005b838110156139aa578181015183820152602001613992565b8381111561135a5750506000910152565b60208152600082518060208401526139da81604085016020870161398f565b601f01601f19169190910160400192915050565b600160a060020a038116811461153057600080fd5b60008060408385031215613a1657600080fd5b8235613a21816139ee565b946020939093013593505050565b600060208284031215613a4157600080fd5b5035919050565b600060208284031215613a5a57600080fd5b8135611f92816139ee565b803563ffffffff81168114611e6157600080fd5b600060208284031215613a8b57600080fd5b611f9282613a65565b801515811461153057600080fd5b60008060408385031215613ab557600080fd5b8235613ac0816139ee565b91506020830135613ad081613a94565b809150509250929050565b600080600060608486031215613af057600080fd5b8335613afb816139ee565b92506020840135613b0b816139ee565b929592945050506040919091013590565b60008060008060808587031215613b3257600080fd5b613b3b85613a65565b9350613b4960208601613a65565b9250613b5760408601613a65565b9150613b6560608601613a65565b905092959194509250565b600060208284031215613b8257600080fd5b8135611f9281613a94565b600080600060608486031215613ba257600080fd5b505081359360208301359350604090920135919050565b600060208284031215613bcb57600080fd5b81356fffffffffffffffffffffffffffffffff81168114611f9257600080fd5b60008060408385031215613bfe57600080fd5b8235613c09816139ee565b91506020830135613ad0816139ee565b60208082526021908201527f4e4f4445204352454154494f4e3a2066726f6d2074686520302061646472657360408201527f7300000000000000000000000000000000000000000000000000000000000000606082015260800190565b60208082526022908201527f4e4f4445204352454154494f4e3a20426c61636b6c697374656420616464726560408201527f7373000000000000000000000000000000000000000000000000000000000000606082015260800190565b60208082526036908201527f4e4f4445204352454154494f4e3a20506f6f6c732c20534320616e64206f776e60408201527f65722063616e6e6f7420637265617465206e6f64657300000000000000000000606082015260800190565b60e060020a634e487b7102600052601160045260246000fd5b6000816000190483118215151615613d6357613d63613d30565b500290565b600082613d885760e060020a634e487b7102600052601260045260246000fd5b500490565b600082821015613d9f57613d9f613d30565b500390565b600281046001821680613db857607f821691505b60208210811415613ddc5760e060020a634e487b7102600052602260045260246000fd5b50919050565b60208082526021908201527f434c41494d205245574152443a20426c61636b6c69737465642061646472657360408201527f7300000000000000000000000000000000000000000000000000000000000000606082015260800190565b60208082526036908201527f434c41494d205245574152443a20506f6f6c732c20534320616e64206f776e6560408201527f722063616e6e6f7420636c61696d207265776172647300000000000000000000606082015260800190565b6020808252818101527f4f776e61626c653a2063616c6c6572206973206e6f7420746865206f776e6572604082015260600190565b600063ffffffff808316818516808303821115613ef057613ef0613d30565b01949350505050565b60008219821115613f0c57613f0c613d30565b500190565b60e060020a634e487b7102600052603260045260246000fd5b600060208284031215613f3c57600080fd5b5051919050565b600060208284031215613f5557600080fd5b8151611f9281613a94565b60006fffffffffffffffffffffffffffffffff80831681851681830481118215151615613f8f57613f8f613d30565b02949350505050565b6000600019821415613fac57613fac613d30565b5060010190565b60208082526029908201527f4e6f64652072657761726420636c61696d206861736e2774206265656e20656e60408201527f61626c6564207965740000000000000000000000000000000000000000000000606082015260800190565b6000825161402281846020870161398f565b9190910192915050565b60006020828403121561403e57600080fd5b8151611f92816139ee565b600060a082018783526020878185015260a0604085015281875180845260c086019150828901935060005b81811015614099578451600160a060020a031683529383019391830191600101614074565b5050600160a060020a03969096166060850152505050608001529392505050565b6000806000606084860312156140cf57600080fd5b835192506020840151915060408401519050925092509256fea26469706673582212200f6b385bf621e601a1dede77e093806425eed75c08db208a01135c7e1c548d7464736f6c634300080c0033",
  "immutableReferences": {},
  "source": "\n// SPDX-License-Identifier: MIT\n\npragma solidity ^0.8.11;\n\nimport \"./ARC20.sol\";\nimport \"./IARC20.sol\";\nimport \"./Context.sol\";\nimport \"./ITraderJoeFactory.sol\";\nimport \"./ITraderJoeRouter.sol\";\nimport \"./MountainRewardManager.sol\";\n\n\n\n\n\n\ncontract Mountain is ARC20, MountainRewardManager {\n\n    // In the constructor competitors usually provide :\n    // _ Addresses for the reward, treasury and liquidity handler pools\n    // _ Initial balances of tokens for those pools\n    \n\n    // A setlpPool function (with an array) like in PolarNodes ?\n\n    // Later : Need to take into account the presale tokens\n\n\n\n    //-----------------------------------------------------\\\\\n    //----------- Token variables -------------------------\\\\\n    //-----------------------------------------------------\\\\  \n    string constant _name = 'Mountain';\n    string constant _symbol = 'MTN';\n    uint8 constant _decimals = 18;\n    uint256 _totalSupply = 1_000_000 * (10 ** _decimals);   // 1 Million tokens (as defined in the WP)\n\n\n\n    //-----------------------------------------------------\\\\\n    //--------------- Pools -------------------------------\\\\\n    //-----------------------------------------------------\\\\\n    address public treasuryPool;\n    address public rewardPool; \n    address public teamPool; \n    address public lpPool; \n\n\tmapping(address => bool) private _isPool;\n\n\n    // Initial allocation of tokens (TODO : replace this)\n    uint64 ownerAllocation = 20;  // For test purposes (imagine this address being the LP provider)\n    uint64 treasuryPoolAllocation = 5;  \n    uint64 teamPoolAllocation = 5;  \n    uint64 rewardPoolAllocation = 70;\n    uint64 allocationDenominator = 100;\n\n\n    //-----------------------------------------------------\\\\\n    //----------- Fee variables ---------------------------\\\\\n    //-----------------------------------------------------\\\\\n\n    // Node creation fees\n    uint32 public liquidityFee = 100; // 10%\n    uint32 public rewardFee = 750; // 75%\n    uint32 public treasuryFee = 100; // 10% \n    uint32 public teamFee = 50; // 5% \n\n    uint32 public rewardSwapRatio = 25; // 2.5%  Note : a bit of AVAX if necessary\n\n    // Claim and sell fees\n    uint32 public claimFee = 50; // 5%\n    uint32 public sellFee = 100;// 10%\n\n    // Transfer fee (Not implemented yet)\n    uint32 public transferFee = 500;// 50%\n\n    // Sell fees for the first two days\n    uint256 constant TWO_DAYS = 2*24*60*60; // two days in second\n    uint256 public launchSellFeeTimestamp;\n    uint256 public  endSellFeeTimestamp;\n    uint256 public initialAdditionnalSellFee = 150; // 15% that will decrease to zero after two days\n\n\n    // Referral bonus\n    uint256 public referral_bonus = 50; //5%\n\n\n    //-----------------------------------------------------\\\\\n    //----------- Auto Liquidity variables ----------------\\\\\n    //-----------------------------------------------------\\\\   \n\n    ITraderJoeRouter private traderJoeRouter;\n    address public traderJoePair;\n\n    //address private traderJoeRouterAddress = 0x60aE616a2155Ee3d9A68541Ba4544862310933d4; // TraderJoe MainNet\n    //address private traderJoeRouterAddress = 0x5db0735cf88F85E78ed742215090c465979B5006; // TraderJoe testnet \n    address private traderJoeRouterAddress = 0x2D99ABD9008Dc933ff5c0CD271B88309593aB921; // Pangolin testnet\n \n\n    bool public swapping = false;\n\n\n    //-----------------------------------------------------\\\\\n    //----------- Transfer related variables --------------\\\\\n    //-----------------------------------------------------\\\\   \n\n    /* Before transferring tokens/Avax to the pools, the min num of tokens accumulated with the fees needs\n       to be at least equal to swapTokensAmount. */     \n    uint256 public swapTokensAmount = 100 * (10 ** _decimals); // TODO : check with the other projects    \n\n    // Max tokens per tx and per wallet\n    uint256 private maxTx = 500 * (10 ** _decimals);\n    uint256 private maxWallet = 4_000 * (10 ** _decimals);\n\n   \tbool private tradingOpen = false; // TODO : Need set it to false before launching \n\n    // List of blacklisted malicious addresses (opportunists that try to buy before trading actually started)\n    mapping(address => bool) public _isBlacklisted;\n\n    // Mapping for whitelisted to create a free node\n    mapping(address => bool) public _isWhitelisted; \n\n\n    //-----------------------------------------------------\\\\\n    //----------- Presale variables -----------------------\\\\\n    //-----------------------------------------------------\\\\   \n\n\n    IARC20 presaleToken;\n    uint256 presaleMax = 1500*10**18;\n\n    // The exclusive node is the node that can be bought only with the tokens of the presale\n    uint256 exclusiveNodePrice = 50*10*18;\n\n\n    //-----------------------------------------------------\\\\\n    //----------- Events and modifiers --------------------\\\\\n    //-----------------------------------------------------\\\\  \n\n\n    modifier inSwap {\n        swapping = true;\n        _;\n        swapping = false;\n    }\n\n\n    event SwapAndLiquify(uint256 otherHalf, uint256 newBalance);\n\n\n\n\n   constructor(address[] memory addresses) ARC20(_symbol, _name)  {\n\n        // Instantiate a TraderJoe router with current address traderJoeRouterAddress\n        traderJoeRouter = ITraderJoeRouter(traderJoeRouterAddress);\n\n        // Create a TraderJoe pair for the MTN token (with AVAX)\n        traderJoePair = ITraderJoeFactory(traderJoeRouter.factory()).createPair(address(this), traderJoeRouter.WAVAX()); \n\n     \n        rewardPool = addresses[0];\n        treasuryPool = addresses[1];\n        lpPool = addresses[2];\n        teamPool = addresses[3];\n\n        setIsPool(rewardPool, true);\n        setIsPool(treasuryPool, true);\n        setIsPool(lpPool, true);\n        setIsPool(teamPool, true);\n\n\n        _mint(msg.sender, _totalSupply * ownerAllocation / allocationDenominator); \n        _mint(rewardPool, _totalSupply * rewardPoolAllocation / allocationDenominator); \n        _mint(treasuryPool, _totalSupply * treasuryPoolAllocation / allocationDenominator); \n        _mint(teamPool, _totalSupply * teamPoolAllocation / allocationDenominator); \n\n        require(totalSupply()==_totalSupply, \"MTN CONSTR : Error supply\");\n   }    \n\n\n\n    /** \n        @dev Create pair function : The pair MTN-AVAX is created for the first time on TraderJoe\n    */\n    //function createPair() external onlyOwner {\n\n\n        // TODO : find a check that the pair was created and make a required in the functions that uses it\n    //} \n\n\n    /** \n        @param account : The address to be blacklisted or not\n        @param value   : boolean to set the address to the blacklist or not\n    */\n    function blacklistMalicious(address account, bool value) external onlyOwner { \n        _isBlacklisted[account] = value;\n    }  \n\n\n    /** \n        @param account : The address to be whitelisted or not\n        @param value   : boolean to set the address to the whitelist or not\n    */\n    function whitelistUser(address account, bool value) external onlyOwner { \n        _isWhitelisted[account] = value;\n    }        \n    \n\n    /** \n        @param newVal : Boolean to set the min amount of tokens requested for a multi-swap\n    */    \n    function setSwapTokensAmount(uint256 newVal) external onlyOwner { \n        swapTokensAmount = newVal; \n    }\n\n\n    /** \n        @param walletAddress : The new wallet address for the treasury pool\n    */  \n    function updateTreasuryWallet(address payable walletAddress) external onlyOwner { \n        treasuryPool = walletAddress; \n    }\n\n\n    /** \n        @param walletAddress : The new wallet address for the reward pool\n    */      \n    function updateRewardWallet(address payable walletAddress) external onlyOwner { \n        rewardPool = walletAddress; \n    }\n\n\n    /** \n        @param walletAddress : The new wallet address for the pool that holds the LP tokens\n    */      \n    function updateLiquidityWallet(address payable walletAddress) external onlyOwner { \n        lpPool = walletAddress; \n    }   \n\n\n    /** \n        @param walletAddress : The new wallet address for the team pool\n    */      \n    function updateTeamyWallet(address payable walletAddress) external onlyOwner { \n        teamPool = walletAddress; \n    }        \n\n\n    /** \n        @param _rewardFee : The new fee for the reward pool when a new node is created\n        @param _treasuryFee : The new fee for the treasury pool when a new node is created\n        @param _liquidityFee : The new fee for the liquidity pool when a new node is created\n        @param _teamFee : The new fee for the team pool when a new node is created\n        \n        @notice The max value for 100% is 1_000, i.e. 100 is 10%\n        @dev The sum of all fees should equal 1_000 (100%)\n    */  \n    function updateMultiswapFee(uint32 _rewardFee, \n                                uint32 _treasuryFee, \n                                uint32 _liquidityFee, \n                                uint32 _teamFee) external onlyOwner {\n\n        rewardFee = _rewardFee;\n        treasuryFee = _treasuryFee;\n        liquidityFee = _liquidityFee;\n        teamFee = _teamFee;\n\n\n        require((liquidityFee + rewardFee + treasuryFee + teamFee) == PER_MILLE, \n                \"Update Fee: The sum of all fees is not equal to 1_000 (100%)\");\n    }\n\n\n    /** \n        @param value : The new fee to be taken at each user claim \n        @notice The max value for 100% is 1_000, i.e. 100 is 10%\n    */  \n    function updateClaimFee(uint32 value) external onlyOwner { \n        claimFee = value; \n    }\n\n    /** \n        @param value : The new fee to be taken at each user sell \n        @notice The max value for 100% is 1_000, i.e. 100 is 10%\n    */      \n    function updateSellFee(uint32 value) external onlyOwner { \n        sellFee = value; \n    }  \n\n\n    // TODO : To be removed (if there are no difference between sell and transfer fee)\n    /** \n        @param value : The new fee to be taken at each user node transfer \n        @notice The max value for 100% is 1_000, i.e. 100 is 10%\n    */      \n    function updateTransferFee(uint32 value) external onlyOwner { \n        sellFee = value; \n    }    \n\n\n    /** \n        @param value : The new reward swap ratio. \n                       This is the percentage of tokens that will be swapped and sent to the reward Pool. \n        @notice The max value for 100% is 1_000, i.e. 100 is 10%\n    */     \n    function updateRewardSwapRatio(uint32 value) external onlyOwner { \n        rewardSwapRatio = value;\n        require(rewardSwapRatio<=PER_MILLE, \"Update swap ratio : new value is higher than 1_000\");\n    }\n\n\n    /** \n        @param account : The account that is set, or not, as a pool\n        @param value : If true the account is set as a pool\n    */   \n\tfunction setIsPool(address account, bool value) public onlyOwner {\n        _isPool[account] = value;\n    }\n\n    /** \n        @param value : The new max amount of tokens per tx\n    */   \n\tfunction updateMaxTx(uint256 value) external onlyOwner {\n        maxTx = value;\n    }\n\n\n    /** \n        @param value : The new max amount of tokens per wallet\n    */   \n\tfunction updateMaxWallet(uint256 value) external onlyOwner {\n        maxWallet = value;\n    }    \n\n    /** \n        @dev Start trading (after adding liquidity, and waiting some time in order to blacklist bots)\n    */   \n\tfunction openTrading() external onlyOwner {\n        tradingOpen = true;\n\n        // TODO : Check if this is the right place to put it\n        launchSellFeeTimestamp = block.timestamp;\n        endSellFeeTimestamp = block.timestamp + TWO_DAYS;        \n    }\n\n    /** \n        @param account : The address of the account to check if it's a pool address/the owner or this SC\n    */   \n    function isMTNAddress(address account) internal view returns (bool) {\n            return (account == owner() || account == address(this) || _isPool[account]);\n    }\n\n\n    /** \n        @param amount : The amount of tokens to be minted to the reward pool\n    */   \n\tfunction addTokensToRewardPool(uint256 amount) external onlyOwner {\n\t\trequire(amount > 0, \"Amount too low\");\n\t\t_mint(rewardPool, amount);\n\t}\n\n\n    // Note : Defined in PaymentSplitter, if we use it, remove this function\n    receive() external payable {}\n\n\n    function transfer(address recipient, uint256 amount) public override returns (bool) {\n        return _transfer(msg.sender, recipient, amount);\n    }\n\n    function transferFrom(address sender, address recipient, uint256 amount) public override returns (bool) {\n        if (_allowances[sender][msg.sender] != type(uint256).max) {\n            _allowances[sender][msg.sender] -= amount;\n        }\n        return _transfer(sender, recipient, amount);\n    }\n  \n    function _transfer(\n        address from,\n        address to,\n        uint256 amount\n    ) internal returns(bool){\n        \n        uint256 amountToTransfer = amount;\n\n\n        require(!_isBlacklisted[from] && !_isBlacklisted[to], \"Blacklisted address\");\n\n\t\tif (!isMTNAddress(from) && !isMTNAddress(to)) {\n\n            \n\t\t \tif (tradingOpen) {\n                \n                require(amount <= maxTx, 'Transaction Limit Exceeded');\n\n                if (traderJoePair!=to) {      // Note update : useless since we are in a if        \n\t\t \t\t    require(amount + balanceOf(address(to)) <= maxWallet, \"Transfer amount too high\");\n                }\n\n\t\t \t}\n\n\t\t\tif (!tradingOpen && from == traderJoePair) {\n\n\t\t \t\t_isBlacklisted[to] = true;  \n                //return false; // User is blacklisted and won't buy tokens\n\n\t\t \t}\n\n\n            if(tradingOpen && from != traderJoePair) { // Note : added tradingOpen because timestamps need to be set\n               amountToTransfer = takeSellFee(from, amount);\n            }\n\t\t}\n\n        return _basic_transfer(from, to, amountToTransfer);\n\n    }\n\n    function _basic_transfer(address from, address to, uint256 amount) internal returns (bool){\n\n        require(from != address(0), \"ARC20: transfer from the zero address\");\n        require(to != address(0), \"ARC20: transfer to the zero address\");         \n        \n        _balances[from] = _balances[from] - amount;\n        _balances[to] = _balances[to] + amount;\n\n        emit Transfer(from, to, amount);\n        return true;\n    }\n\n\n\n    function takeSellFee(address sender, uint256 amount) internal returns (uint256) {\n        uint256 feeAmount = (amount * sellFee) / PER_MILLE;\n\n        if(block.timestamp < endSellFeeTimestamp) {\n            feeAmount += ((amount * initialAdditionnalSellFee * \n                                    (TWO_DAYS - (block.timestamp - launchSellFeeTimestamp)) / (TWO_DAYS))\n                                    / PER_MILLE);\n        }\n\n\n        _balances[address(this)] += feeAmount;\n        _balances[sender] -= feeAmount;\n        \n        // TODO : Check if the transfer is to the SC or the reward pool ?\n        emit Transfer(sender, address(this), feeAmount);\n\n        return amount - feeAmount;\n    }\n\n\n    /** \n        @param tokens : The amount of tokens. \n        @dev For more details, see the functions swapTokensForAvax and addLiquidity\n    */  \n    function swapAndLiquify(uint256 tokens) private {\n\n        // Split the amount of tokens in half\n        uint256 half = tokens/2;\n        uint256 otherHalf = tokens-half; //TODO : removed this o ?\n\n        // Store the initial AVAX balance\n        uint256 initialBalance = address(this).balance;\n\n        // Swap 50% of the tokens to AVAX\n        swapTokensForAvax(half);\n\n        // Calculate the amount of AVAX swapped\n        uint256 newBalance = address(this).balance-initialBalance;\n\n        // Add liquidity by adding 50% of tokens and the AVAX that was swapped\n        addLiquidity(otherHalf, newBalance);\n\n        // Emit an event for the logs\n        emit SwapAndLiquify(otherHalf, newBalance);\n    }\n\n\n    /** \n        @param tokenAmount : The amount of tokens\n        @param avaxAmount  : The amount of Avax\n        \n        @dev This function is responsible for adding liquidity to the liquidity pool MTN-AVAX\n             tokenAmount in dollar value = avaxAmount in dollar value.\n    */  \n    function addLiquidity(uint256 tokenAmount, uint256 avaxAmount) private {\n\n        // approve token transfer to cover all possible scenarios\n        _approve(address(this), address(traderJoeRouter), tokenAmount);\n\n        // add the liquidity\n        traderJoeRouter.addLiquidityAVAX{value: avaxAmount}(\n            address(this),\n            tokenAmount,\n            0, // slippage is unavoidable\n            0, // slippage is unavoidable\n            lpPool,\n            block.timestamp\n        );\n    }\n\n\n    /** \n        @param tokenAmount : The amount of tokens\n        \n        @dev This function is responsible for swapping MTN to AVAX\n             tokenAmount in dollar value = avaxAmount in dollar value.\n    */  \n    function swapTokensForAvax(uint256 tokenAmount) private {\n\n        // Compute the path (tokens to AVAX)\n        address[] memory path = new address[](2);\n        path[0] = address(this);\n        path[1] = traderJoeRouter.WAVAX();\n\n        // For a swap of tokens to AVAX, we need to approve spending first\n        _approve(address(this), address(traderJoeRouter), tokenAmount);\n\n        // Call the TraderJoe swapping function\n        // Todo : check why we need supportingFee\n        traderJoeRouter.swapExactTokensForAVAXSupportingFeeOnTransferTokens(\n            tokenAmount,\n            0, // accept any amount of AVAX\n            path,\n            address(this),\n            block.timestamp\n        );\n    }    \n\n\n    /** \n        @param destination : The address of the pool where the AVAX are sent\n        @param tokens      : The amount of tokens to be swapped to AVAX\n    */ \n    function swapAndSendToPool(address destination, uint256 tokens) private {\n        \n        // Store the initial AVAX balance of the SC\n        uint256 initialAVAXBalance = address(this).balance;\n\n        // Swap tokens to AVAX\n        swapTokensForAvax(tokens);\n\n        // Get the total amount of AVAX that was swapped\n        uint256 newBalance = (address(this).balance)-initialAVAXBalance;\n\n        // Send it to the pool\n        payable(destination).transfer(newBalance);\n    }\n\n\n\n    /** \n        @param contractTokenBalance : The amount of tokens in this contract\n        \n        @dev This function handles all the transfers at a node creation \n             when there is enough tokens in the contract\n    */  \n    function multi_swapping(uint256 contractTokenBalance) private inSwap{\n            \n        // Swap some tokens for Avax and send them to the treasury pool\n        uint256 treasuryTokens = contractTokenBalance * treasuryFee / PER_MILLE;\n        swapAndSendToPool(treasuryPool, treasuryTokens);\n\n        // Send some tokens and Avax to the reward pool\n        uint256 rewardsPoolTokens = contractTokenBalance * rewardFee / PER_MILLE;\n        uint256 rewardsTokenstoSwap = rewardsPoolTokens * rewardSwapRatio / PER_MILLE;\n\n        swapAndSendToPool(rewardPool, rewardsTokenstoSwap);\n        _transfer(address(this), rewardPool, rewardsPoolTokens-rewardsTokenstoSwap);\n   \n\n        // Swap half of some tokens and add liquidity\n        uint256 swapTokens = contractTokenBalance * liquidityFee / PER_MILLE;\n        swapAndLiquify(swapTokens);\n\n\n        // Swap the rest to Avax and send it to the team Pool\n        swapAndSendToPool(teamPool, balanceOf(address(this)));\n\n        // // Swap the rest to Avax and keep it in this SC (Old classical way, using payment splitter)\n        //swapTokensForAvax(balanceOf(address(this)));        \n\n    }\n\n    /**         \n        @dev This function handles the exclusive node creation, by calling the nodeRewardManager function\n    */  \n    function createExclusiveNode() public {\n\n        address sender = _msgSender();\n\n        require(sender != address(0), \"NODE CREATION: from the 0 address\");\n        require(!_isBlacklisted[sender], \"NODE CREATION: Blacklisted address\");\n        require(!isMTNAddress(sender), \"NODE CREATION: Pools, SC and owner cannot create nodes\");\n\n        require(address(presaleToken) != address(0), \"Presale token not set\");\n        uint256 balance = presaleToken.balanceOf(msg.sender);\n        require(balance>=exclusiveNodePrice, \"Doesn't have enough funds\");\n\n        uint256 exclusiveNodeType = 3;\n        \n        super.createNode(exclusiveNodePrice, exclusiveNodeType);\n\n        presaleToken.transferFrom(msg.sender, address(this), exclusiveNodePrice);\n\n    }\n\n    /** \n        @param amount : The amount of tokens needed for the node creation \n        @param nodeType : The node type (Lava, Earth or Snow). Should be a uint between 0 and 2.\n        @param referral_code : The referral code (bytes20(0) if None)\n        \n        @dev This function handles the node creation, by calling the nodeRewardManager, \n             and all the transfers to the different pools when there is enough tokens in the contract\n    */  \n    function createNodeAndTransferToPools(uint256 amount, uint256 nodeType, bytes20 referral_code) public {\n\n\n        address sender = _msgSender();\n        require(sender != address(0),\n                \"NODE CREATION: from the 0 address\");\n        require(!_isBlacklisted[sender], \n                \"NODE CREATION: Blacklisted address\");\n        require(!isMTNAddress(sender),\n                \"NODE CREATION: Pools, SC and owner cannot create nodes\");\n\n\n        uint256 contractTokenBalance = balanceOf(address(this));\n        bool swapAmountOk = contractTokenBalance >= swapTokensAmount;\n        if (!swapping && swapAmountOk) {\n            multi_swapping(contractTokenBalance);\n        }\n\n\n        super.createNode(amount, nodeType);\n\n       // If the sender is whitelisted he can create a free node\n        if (_isWhitelisted[sender]) {\n            _isWhitelisted[sender] = false;\n        }\n        else {\n\n            uint256 amount_to_sc = amount;\n\n            // Get the address of the referral (if no referral code => 0 address) \n            address referral = getAddressFromReferral[referral_code];\n\n            if (referral != address(0)) {\n\n                uint256 amount_to_referral = referral_bonus * amount_to_sc / PER_MILLE;\n                amount_to_sc -= amount_to_referral;\n\n                // Send 5% of the amount to the referral (Use _basic_transfer to avoid the transfer fee)\n                _basic_transfer(_msgSender(), referral, amount_to_referral);\n\n            }\n\n            // TODO: add a require balance ?x\n            _transfer(_msgSender(), address(this), amount_to_sc);  \n        }   \n\n    }    \n\n    /** \n        @param id : The identifier of the node \n        \n        @dev This function uses the identifier to get the rewards of the node and send it to the \n             owner.\n    */ \n    function claimRewards(uint256 id) public {\n\n        address sender = _msgSender();\n\n        // Revert if the sender is the 0 address, blacklisted or a pool address\n        require(sender != address(0),    \n                \"CLAIM REWARD: from the 0 address\");\n        require(!_isBlacklisted[sender], \n                \"CLAIM REWARD: Blacklisted address\");\n        require(!isMTNAddress(sender),\n                \"CLAIM REWARD: Pools, SC and owner cannot claim rewards\");\n\n        // Uses the nodeRewardManager to get the amount for reward for the node of given id\n        uint256 node_reward = super.getNodeReward(id);\n\n        // A percentage of fee, the claimFee, is applied and some tokens are be kept in the in the reward pool\n        uint256 feeAmount = node_reward*claimFee/PER_MILLE;\n        node_reward -= feeAmount;\n                     \n\n        // Transfer the reward to the owner of the node with given id\n        _transfer(rewardPool, sender, node_reward);\n    }\n\n\n    function claimAllRewards() public {\n\n        address sender = _msgSender();\n\n        // Revert if the sender is the 0 address, blacklisted or a pool address\n        require(sender != address(0),\n                \"CLAIM REWARD: from the 0 address\");\n        require(!_isBlacklisted[sender], \n                \"CLAIM REWARD: Blacklisted address\");\n        require(!isMTNAddress(sender),\n                \"CLAIM REWARD: Pools, SC and owner cannot claim rewards\");\n\n        // Uses the nodeRewardManager to get the amount for all rewards for the nodes of the sender\n        uint256 node_reward = super.getAllReward();\n\n        // A percentage of fee, the claimFee, is applied and some tokens are be kept in the reward pool\n        uint256 feeAmount = node_reward*claimFee/PER_MILLE;\n        node_reward -= feeAmount;\n        \n        // Transfer all the rewards to the owner of the nodes       \n        _transfer(rewardPool, sender, node_reward);\n    }    \n\n    /* -------------------- PRESALE -------------------- */\n\n\n\n    function setPresaleToken(address _presaleToken) external onlyOwner {\n        presaleToken = IARC20(_presaleToken);\n    }\n\n    function convertPresaleToReal() external {\n        require(address(presaleToken) != address(0), \"Presale token not set\");\n        uint256 balance = presaleToken.balanceOf(msg.sender);\n        require(balance > 0 && balance <= presaleMax, \"Invalid balance\");\n\n        presaleToken.transferFrom(msg.sender, address(this), balance);\n\n        // TODO : Maybe need to remove this (since a part of the tokens are vested)\n        // TODO : Rethink this function w.r.t the presale contract\n        require(presaleToken.balanceOf(msg.sender) == 0, \"Error with conversion\");\n        \n        _mint(msg.sender, balance);\n    }\n\n}",
  "sourcePath": "/Users/pilu/Desktop/Smart-contract-MTN/contracts/Mountain.sol",
  "compiler": {
    "name": "solc",
    "version": "0.8.12+commit.f00d7308.Emscripten.clang"
  },
  "schemaVersion": "3.4.6",
  "updatedAt": "2022-05-16T13:33:36.975Z",
  "devdoc": {
    "kind": "dev",
    "methods": {
      "addTokensToRewardPool(uint256)": {
        "params": {
          "amount": ": The amount of tokens to be minted to the reward pool"
        }
      },
      "allowance(address,address)": {
        "details": "See {IARC20-allowance}."
      },
      "approve(address,uint256)": {
        "details": "See {IARC20-approve}. NOTE: If `amount` is the maximum `uint256`, the allowance is not updated on `transferFrom`. This is semantically equivalent to an infinite approval. Requirements: - `spender` cannot be the zero address."
      },
      "balanceOf(address)": {
        "details": "See {IARC20-balanceOf}."
      },
      "blacklistMalicious(address,bool)": {
        "params": {
          "account": ": The address to be blacklisted or not",
          "value": ": boolean to set the address to the blacklist or not"
        }
      },
      "calculateRewards(uint256)": {
        "details": "This function calculates reward every time it's called. Contrary to classical Node SC,  we believe that this way of doing is more efficient gas-wise. The reward is calculated based on the last time it was claimed (or the first time the node was created), and on the daily reward.",
        "params": {
          "_id": ": The identifier of the node.  "
        }
      },
      "claimRewards(uint256)": {
        "details": "This function uses the identifier to get the rewards of the node and send it to the  owner.",
        "params": {
          "id": ": The identifier of the node "
        }
      },
      "createExclusiveNode()": {
        "details": "This function handles the exclusive node creation, by calling the nodeRewardManager function"
      },
      "createNodeAndTransferToPools(uint256,uint256,bytes20)": {
        "details": "This function handles the node creation, by calling the nodeRewardManager,  and all the transfers to the different pools when there is enough tokens in the contract",
        "params": {
          "amount": ": The amount of tokens needed for the node creation ",
          "nodeType": ": The node type (Lava, Earth or Snow). Should be a uint between 0 and 2.",
          "referral_code": ": The referral code (bytes20(0) if None)"
        }
      },
      "decimals()": {
        "details": "Returns the number of decimals used to get its user representation. For example, if `decimals` equals `2`, a balance of `505` tokens should be displayed to a user as `5.05` (`505 / 10 ** 2`). Tokens usually opt for a value of 18, imitating the relationship between Ether and Wei. This is the value {ARC20} uses, unless this function is overridden; NOTE: This information is only used for _display_ purposes: it in no way affects any of the arithmetic of the contract, including {IARC20-balanceOf} and {IARC20-transfer}."
      },
      "decreaseAllowance(address,uint256)": {
        "details": "Atomically decreases the allowance granted to `spender` by the caller. This is an alternative to {approve} that can be used as a mitigation for problems described in {IARC20-approve}. Emits an {Approval} event indicating the updated allowance. Requirements: - `spender` cannot be the zero address. - `spender` must have allowance for the caller of at least `subtractedValue`."
      },
      "getNodePrice(uint256)": {
        "params": {
          "node_type": ": The node type (Lava, Earth or Snow). Must be between 0 and 2 "
        },
        "returns": {
          "_0": "uint256 : The current node price for the given type  "
        }
      },
      "getNumberOfNodes(address)": {
        "params": {
          "account": ": The address of the account that supposedly has nodes"
        },
        "returns": {
          "_0": "uint256 : The number of nodes the account has"
        }
      },
      "getReferralCode(address)": {
        "params": {
          "user": ": The address of the user"
        },
        "returns": {
          "_0": "bytes20 : The referral code for the address "
        }
      },
      "increaseAllowance(address,uint256)": {
        "details": "Atomically increases the allowance granted to `spender` by the caller. This is an alternative to {approve} that can be used as a mitigation for problems described in {IARC20-approve}. Emits an {Approval} event indicating the updated allowance. Requirements: - `spender` cannot be the zero address."
      },
      "isNodeOwner(address)": {
        "params": {
          "account": ": The address of the account that supposedly has nodes"
        },
        "returns": {
          "_0": "bool    : True if the account has at least one Node"
        }
      },
      "name()": {
        "details": "Returns the name of the token."
      },
      "openTrading()": {
        "details": "Start trading (after adding liquidity, and waiting some time in order to blacklist bots)"
      },
      "owner()": {
        "details": "Returns the address of the current owner."
      },
      "renounceOwnership()": {
        "details": "Leaves the contract without owner. It will not be possible to call `onlyOwner` functions anymore. Can only be called by the current owner. NOTE: Renouncing ownership will leave the contract without an owner, thereby removing any functionality that is only available to the owner."
      },
      "setClaimTime(uint128)": {
        "params": {
          "newTime": ": The new min claim time that needs to be respected before claiming reward "
        }
      },
      "setIsPool(address,bool)": {
        "params": {
          "account": ": The account that is set, or not, as a pool",
          "value": ": If true the account is set as a pool"
        }
      },
      "setNodeCreation(bool)": {
        "params": {
          "enableNodeCreation": ": Boolean to enable or disable the node creation  "
        }
      },
      "setNodePrice(uint256,uint256,uint256)": {
        "params": {
          "Earth": ": The amount of tokens (without the decimals) of the Earth node ",
          "Ice": ": The amount of tokens (without the decimals) of the Ice node ",
          "Lava": ": The amount of tokens (without the decimals) of the Lava node "
        }
      },
      "setRewardPerNode(uint256,uint256,uint256)": {
        "details": "The percentages are set with 100% corresponding to 1_000 (Meaning 10% = 100)",
        "params": {
          "Earth": ": The daily reward (in percentages) for the Earth node ",
          "Ice": ": The daily reward (in percentages) for the Ice node ",
          "Lava": ": The daily reward (in percentages) for the Lava node "
        }
      },
      "setSwapTokensAmount(uint256)": {
        "params": {
          "newVal": ": Boolean to set the min amount of tokens requested for a multi-swap"
        }
      },
      "symbol()": {
        "details": "Returns the symbol of the token, usually a shorter version of the name."
      },
      "totalSupply()": {
        "details": "See {IARC20-totalSupply}."
      },
      "transferOwnership(address)": {
        "details": "Transfers ownership of the contract to a new account (`newOwner`). Can only be called by the current owner."
      },
      "updateClaimFee(uint32)": {
        "params": {
          "value": ": The new fee to be taken at each user claim "
        }
      },
      "updateLiquidityWallet(address)": {
        "params": {
          "walletAddress": ": The new wallet address for the pool that holds the LP tokens"
        }
      },
      "updateMaxTx(uint256)": {
        "params": {
          "value": ": The new max amount of tokens per tx"
        }
      },
      "updateMaxWallet(uint256)": {
        "params": {
          "value": ": The new max amount of tokens per wallet"
        }
      },
      "updateMultiswapFee(uint32,uint32,uint32,uint32)": {
        "details": "The sum of all fees should equal 1_000 (100%)",
        "params": {
          "_liquidityFee": ": The new fee for the liquidity pool when a new node is created",
          "_rewardFee": ": The new fee for the reward pool when a new node is created",
          "_teamFee": ": The new fee for the team pool when a new node is created",
          "_treasuryFee": ": The new fee for the treasury pool when a new node is created"
        }
      },
      "updateRewardSwapRatio(uint32)": {
        "params": {
          "value": ": The new reward swap ratio.  This is the percentage of tokens that will be swapped and sent to the reward Pool. "
        }
      },
      "updateRewardWallet(address)": {
        "params": {
          "walletAddress": ": The new wallet address for the reward pool"
        }
      },
      "updateSellFee(uint32)": {
        "params": {
          "value": ": The new fee to be taken at each user sell "
        }
      },
      "updateTeamyWallet(address)": {
        "params": {
          "walletAddress": ": The new wallet address for the team pool"
        }
      },
      "updateTransferFee(uint32)": {
        "params": {
          "value": ": The new fee to be taken at each user node transfer "
        }
      },
      "updateTreasuryWallet(address)": {
        "params": {
          "walletAddress": ": The new wallet address for the treasury pool"
        }
      },
      "whitelistUser(address,bool)": {
        "params": {
          "account": ": The address to be whitelisted or not",
          "value": ": boolean to set the address to the whitelist or not"
        }
      }
    },
    "version": 1
  },
  "userdoc": {
    "kind": "user",
    "methods": {
      "updateClaimFee(uint32)": {
        "notice": "The max value for 100% is 1_000, i.e. 100 is 10%"
      },
      "updateMultiswapFee(uint32,uint32,uint32,uint32)": {
        "notice": "The max value for 100% is 1_000, i.e. 100 is 10%"
      },
      "updateRewardSwapRatio(uint32)": {
        "notice": "The max value for 100% is 1_000, i.e. 100 is 10%"
      },
      "updateSellFee(uint32)": {
        "notice": "The max value for 100% is 1_000, i.e. 100 is 10%"
      },
      "updateTransferFee(uint32)": {
        "notice": "The max value for 100% is 1_000, i.e. 100 is 10%"
      }
    },
    "version": 1
  }
}