{
  "contractName": "MountainRewardManager",
  "abi": [
    {
      "inputs": [],
      "stateMutability": "nonpayable",
      "type": "constructor"
    },
    {
      "anonymous": false,
      "inputs": [
        {
          "indexed": true,
          "internalType": "address",
          "name": "previousOwner",
          "type": "address"
        },
        {
          "indexed": true,
          "internalType": "address",
          "name": "newOwner",
          "type": "address"
        }
      ],
      "name": "OwnershipTransferred",
      "type": "event"
    },
    {
      "inputs": [
        {
          "internalType": "address",
          "name": "",
          "type": "address"
        },
        {
          "internalType": "uint256",
          "name": "",
          "type": "uint256"
        }
      ],
      "name": "accountNodes",
      "outputs": [
        {
          "internalType": "uint256",
          "name": "",
          "type": "uint256"
        }
      ],
      "stateMutability": "view",
      "type": "function"
    },
    {
      "inputs": [],
      "name": "claimMinTime",
      "outputs": [
        {
          "internalType": "uint128",
          "name": "",
          "type": "uint128"
        }
      ],
      "stateMutability": "view",
      "type": "function"
    },
    {
      "inputs": [
        {
          "internalType": "uint256",
          "name": "",
          "type": "uint256"
        }
      ],
      "name": "dailyReward",
      "outputs": [
        {
          "internalType": "uint256",
          "name": "",
          "type": "uint256"
        }
      ],
      "stateMutability": "view",
      "type": "function"
    },
    {
      "inputs": [
        {
          "internalType": "bytes20",
          "name": "",
          "type": "bytes20"
        }
      ],
      "name": "getAddressFromReferral",
      "outputs": [
        {
          "internalType": "address",
          "name": "",
          "type": "address"
        }
      ],
      "stateMutability": "view",
      "type": "function"
    },
    {
      "inputs": [],
      "name": "nodeCreationEnabled",
      "outputs": [
        {
          "internalType": "bool",
          "name": "",
          "type": "bool"
        }
      ],
      "stateMutability": "view",
      "type": "function"
    },
    {
      "inputs": [
        {
          "internalType": "uint256",
          "name": "",
          "type": "uint256"
        }
      ],
      "name": "nodeMapping",
      "outputs": [
        {
          "internalType": "uint256",
          "name": "id",
          "type": "uint256"
        },
        {
          "internalType": "uint256",
          "name": "timestamp",
          "type": "uint256"
        },
        {
          "internalType": "uint256",
          "name": "nodeType",
          "type": "uint256"
        },
        {
          "internalType": "address",
          "name": "owner",
          "type": "address"
        }
      ],
      "stateMutability": "view",
      "type": "function"
    },
    {
      "inputs": [
        {
          "internalType": "uint256",
          "name": "",
          "type": "uint256"
        }
      ],
      "name": "nodePrice",
      "outputs": [
        {
          "internalType": "uint256",
          "name": "",
          "type": "uint256"
        }
      ],
      "stateMutability": "view",
      "type": "function"
    },
    {
      "inputs": [],
      "name": "numberOfNodes",
      "outputs": [
        {
          "internalType": "uint256",
          "name": "",
          "type": "uint256"
        }
      ],
      "stateMutability": "view",
      "type": "function"
    },
    {
      "inputs": [],
      "name": "owner",
      "outputs": [
        {
          "internalType": "address",
          "name": "",
          "type": "address"
        }
      ],
      "stateMutability": "view",
      "type": "function"
    },
    {
      "inputs": [],
      "name": "renounceOwnership",
      "outputs": [],
      "stateMutability": "nonpayable",
      "type": "function"
    },
    {
      "inputs": [
        {
          "internalType": "address",
          "name": "newOwner",
          "type": "address"
        }
      ],
      "name": "transferOwnership",
      "outputs": [],
      "stateMutability": "nonpayable",
      "type": "function"
    },
    {
      "inputs": [
        {
          "internalType": "address",
          "name": "user",
          "type": "address"
        }
      ],
      "name": "getReferralCode",
      "outputs": [
        {
          "internalType": "bytes20",
          "name": "",
          "type": "bytes20"
        }
      ],
      "stateMutability": "view",
      "type": "function"
    },
    {
      "inputs": [
        {
          "internalType": "uint256",
          "name": "_id",
          "type": "uint256"
        }
      ],
      "name": "calculateRewards",
      "outputs": [
        {
          "internalType": "uint256",
          "name": "",
          "type": "uint256"
        }
      ],
      "stateMutability": "view",
      "type": "function"
    },
    {
      "inputs": [
        {
          "internalType": "bool",
          "name": "enableNodeCreation",
          "type": "bool"
        }
      ],
      "name": "setNodeCreation",
      "outputs": [],
      "stateMutability": "nonpayable",
      "type": "function"
    },
    {
      "inputs": [
        {
          "internalType": "uint256",
          "name": "node_type",
          "type": "uint256"
        }
      ],
      "name": "getNodePrice",
      "outputs": [
        {
          "internalType": "uint256",
          "name": "",
          "type": "uint256"
        }
      ],
      "stateMutability": "view",
      "type": "function"
    },
    {
      "inputs": [
        {
          "internalType": "uint256",
          "name": "Ice",
          "type": "uint256"
        },
        {
          "internalType": "uint256",
          "name": "Earth",
          "type": "uint256"
        },
        {
          "internalType": "uint256",
          "name": "Lava",
          "type": "uint256"
        }
      ],
      "name": "setNodePrice",
      "outputs": [],
      "stateMutability": "nonpayable",
      "type": "function"
    },
    {
      "inputs": [
        {
          "internalType": "uint256",
          "name": "Ice",
          "type": "uint256"
        },
        {
          "internalType": "uint256",
          "name": "Earth",
          "type": "uint256"
        },
        {
          "internalType": "uint256",
          "name": "Lava",
          "type": "uint256"
        }
      ],
      "name": "setRewardPerNode",
      "outputs": [],
      "stateMutability": "nonpayable",
      "type": "function"
    },
    {
      "inputs": [
        {
          "internalType": "uint128",
          "name": "newTime",
          "type": "uint128"
        }
      ],
      "name": "setClaimTime",
      "outputs": [],
      "stateMutability": "nonpayable",
      "type": "function"
    },
    {
      "inputs": [
        {
          "internalType": "address",
          "name": "account",
          "type": "address"
        }
      ],
      "name": "getNumberOfNodes",
      "outputs": [
        {
          "internalType": "uint256",
          "name": "",
          "type": "uint256"
        }
      ],
      "stateMutability": "view",
      "type": "function"
    },
    {
      "inputs": [
        {
          "internalType": "address",
          "name": "account",
          "type": "address"
        }
      ],
      "name": "isNodeOwner",
      "outputs": [
        {
          "internalType": "bool",
          "name": "",
          "type": "bool"
        }
      ],
      "stateMutability": "view",
      "type": "function"
    }
  ],
  "bytecode": "0x6000600155600280546001608060020a03191661a8c017905560e0604052678ac7230489e80000608090815267d02ab486cedc000060a0526801158e460913d0000060c05261005190600390816100ff565b506040805160608101825260088152600a6020820152600c9181019190915261007e906006906003610148565b50600d805460ff1916600117905534801561009857600080fd5b5060006100ac6401000000006100fb810204565b60008054600160a060020a031916600160a060020a0383169081178255604051929350917f8be0079c531659141344cd1fd0a4f28419497f9722a3daafe3b4186f6b6457e0908290a350610190565b3390565b8260038101928215610138579160200282015b8281111561013857825182906001604860020a0316905591602001919060010190610112565b5061014492915061017b565b5090565b8260038101928215610138579160200282015b82811115610138578251829060ff1690559160200191906001019061015b565b5b80821115610144576000815560010161017c565b610aff8061019f6000396000f3fe608060405234801561001057600080fd5b5060043610610149576000357c010000000000000000000000000000000000000000000000000000000090048063876a3aad116100ca578063d3ea43501161008e578063d3ea43501461031d578063d59fd90014610330578063e3d57b6a1461033d578063f2fde38b14610350578063fd4781dc1461036357600080fd5b8063876a3aad146102785780638c7a273a1461028b5780638da5cb5b146102c857806392c40344146102d9578063cb0c91081461030a57600080fd5b80635efd86aa116101115780635efd86aa14610224578063615cf8b814610237578063715018a61461024a578063758463e2146102525780637d58efb91461026557600080fd5b806315f7aaab1461014e57806317fb4c3b1461018e5780631ec7904c146101c557806349e588cf1461020657806354d74e1f1461021b575b600080fd5b61017961015c3660046108b8565b600160a060020a0316600090815260096020526040902054151590565b60405190151581526020015b60405180910390f35b6101b761019c3660046108b8565b600160a060020a031660009081526009602052604090205490565b604051908152602001610185565b6101ee6101d33660046108d3565b600b60205260009081526040902054600160a060020a031681565b604051600160a060020a039091168152602001610185565b610219610214366004610902565b6103ca565b005b6101b760015481565b6101b7610232366004610924565b610413565b6101b761024536600461094e565b610444565b6102196104b5565b6101b761026036600461094e565b610539565b6101b761027336600461094e565b610550565b610219610286366004610967565b610560565b6002546102a7906fffffffffffffffffffffffffffffffff1681565b6040516fffffffffffffffffffffffffffffffff9091168152602001610185565b600054600160a060020a03166101ee565b6102ec6102e73660046108b8565b6105d5565b6040516bffffffffffffffffffffffff199091168152602001610185565b610219610318366004610993565b610632565b6101b761032b36600461094e565b610693565b600d546101799060ff1681565b61021961034b366004610967565b61074d565b61021961035e3660046108b8565b61078d565b6103a161037136600461094e565b600c60205260009081526040902080546001820154600283015460039093015491929091600160a060020a031684565b60408051948552602085019390935291830152600160a060020a03166060820152608001610185565b600054600160a060020a031633146104005760405160e560020a62461bcd0281526004016103f7906109c5565b60405180910390fd5b600d805460ff1916911515919091179055565b6009602052816000526040600020818154811061042f57600080fd5b90600052602060002001600091509150505481565b6000600282111561049a5760405160e560020a62461bcd02815260206004820152601460248201527f4e6f6465207479706520697320696e76616c696400000000000000000000000060448201526064016103f7565b600382600381106104ad576104ad6109fa565b015492915050565b600054600160a060020a031633146104e25760405160e560020a62461bcd0281526004016103f7906109c5565b60008054604051600160a060020a03909116907f8be0079c531659141344cd1fd0a4f28419497f9722a3daafe3b4186f6b6457e0908390a36000805473ffffffffffffffffffffffffffffffffffffffff19169055565b6003816003811061054957600080fd5b0154905081565b6006816003811061054957600080fd5b600054600160a060020a0316331461058d5760405160e560020a62461bcd0281526004016103f7906109c5565b61059f83670de0b6b3a7640000610a58565b6003556105b482670de0b6b3a7640000610a58565b6004556105c981670de0b6b3a7640000610a58565b600360025b0155505050565b60008054600160a060020a031633146106035760405160e560020a62461bcd0281526004016103f7906109c5565b50600160a060020a0381166000908152600a60205260409020546c01000000000000000000000000025b919050565b600054600160a060020a0316331461065f5760405160e560020a62461bcd0281526004016103f7906109c5565b600280546fffffffffffffffffffffffffffffffff19166fffffffffffffffffffffffffffffffff92909216919091179055565b6000818152600c60209081526040808320815160808101835281548152600182015493810184905260028201549281019290925260030154600160a060020a031660608201529062015180906106e99042610a77565b6103e86006846040015160038110610703576107036109fa565b0154600385604001516003811061071c5761071c6109fa565b01546107289190610a58565b6107329190610a8e565b61073c9190610a58565b6107469190610a8e565b9392505050565b600054600160a060020a0316331461077a5760405160e560020a62461bcd0281526004016103f7906109c5565b60068381556007839055819060026105ce565b600054600160a060020a031633146107ba5760405160e560020a62461bcd0281526004016103f7906109c5565b600160a060020a0381166108395760405160e560020a62461bcd02815260206004820152602660248201527f4f776e61626c653a206e6577206f776e657220697320746865207a65726f206160448201527f646472657373000000000000000000000000000000000000000000000000000060648201526084016103f7565b60008054604051600160a060020a03808516939216917f8be0079c531659141344cd1fd0a4f28419497f9722a3daafe3b4186f6b6457e091a36000805473ffffffffffffffffffffffffffffffffffffffff1916600160a060020a0392909216919091179055565b8035600160a060020a038116811461062d57600080fd5b6000602082840312156108ca57600080fd5b610746826108a1565b6000602082840312156108e557600080fd5b81356bffffffffffffffffffffffff198116811461074657600080fd5b60006020828403121561091457600080fd5b8135801515811461074657600080fd5b6000806040838503121561093757600080fd5b610940836108a1565b946020939093013593505050565b60006020828403121561096057600080fd5b5035919050565b60008060006060848603121561097c57600080fd5b505081359360208301359350604090920135919050565b6000602082840312156109a557600080fd5b81356fffffffffffffffffffffffffffffffff8116811461074657600080fd5b6020808252818101527f4f776e61626c653a2063616c6c6572206973206e6f7420746865206f776e6572604082015260600190565b7f4e487b7100000000000000000000000000000000000000000000000000000000600052603260045260246000fd5b7f4e487b7100000000000000000000000000000000000000000000000000000000600052601160045260246000fd5b6000816000190483118215151615610a7257610a72610a29565b500290565b600082821015610a8957610a89610a29565b500390565b600082610ac4577f4e487b7100000000000000000000000000000000000000000000000000000000600052601260045260246000fd5b50049056fea2646970667358221220d08c970d23754bc113ebb49ca2978def85c09e75d86ebc38f050b57de44356a064736f6c634300080c0033",
  "immutableReferences": {},
  "source": "\n// SPDX-License-Identifier: MIT\n\npragma solidity ^0.8.11;\n\nimport \"./Ownable.sol\";\n\n\n\ncontract MountainRewardManager is Ownable {\n\n    // Total number of nodes\n    uint256 public numberOfNodes = 0;\n\n\n    // The minimum claim time between two claims\n    uint128 public claimMinTime = 12*60*60; //12 hours in seconds\n    uint128 constant ONE_DAY = 24*60*60; // 24 hours in seconds\n\n    // The main structure that holds information of Nodes.\n    struct MountainNode {\n        uint256 id;        // The unique identifier of the node\n        uint256 timestamp; // The creation time or the last claim time\n        uint256 nodeType;  // 0: Ice, 1: Earth, 2: Lava\n        address owner;     // The address of the node owner \n    }\n\n    // The prices of the Ice, the Earth and the Lava nodes\n    uint256[3] public nodePrice = [10 * 10**18, 15* 10**18, 20* 10**18];\n\n    // The daily rewards of the Lava, the earth and the Snow nodes (0.8%, 1%, 1.2%) \n    // TODO : add the exclusif node\n    uint256[3] public dailyReward = [8, 10, 12];\n\n    // Instead of percentages we use per mille, so that we can have one decimal percentages\n    uint256 constant PER_MILLE = 1000;\n\n    // Mapping that stores the node identifiers for given addresses \n    mapping(address => uint256[]) public accountNodes;\n   \n\n    // Mapping that stores the referral id for given addresses \n    mapping(address => bytes20) private referrals;\n\n    // Mapping that allows to retrive the address of a user from the referral id\n    mapping(bytes20 => address) public getAddressFromReferral;    // Note : for testing purposes only => internal\n\n    // Mapping that stores the Node structure for given node identifiers\n    mapping(uint256 => MountainNode) public nodeMapping;\n\n    // Is the creation of nodes enabled \n    bool public nodeCreationEnabled = true;\n\n\n    constructor() {}\n   \n\n    /** \n        @param _amount : The amount corresponding to the price of a the node  \n        @param _nodeType : The node type (Ice, Earth or Lava). Should be a uint between 0 and 2s\n        \n        @dev This is the main function to create a node\n    */ \n    function createNode(uint256 _amount, uint256 _nodeType) internal { \n\n        address sender = _msgSender();\n\n\n        // Revert if the node creation hasn't been enabled yet\n        require(nodeCreationEnabled, \"Node creation is disabled\");\n        // Revert if the node type isn't in the list (between 0 and 2)\n        require(_nodeType >= 0 && _nodeType <= 2, \"Node type is invalid\");\n        // Revert if the amount sent doesn't match the price of the node\n        require(_amount == nodePrice[_nodeType], \"Node amount not correct\");\n        \n\n        // The nodeID is the identifier of the node, it is incremented at each node creation. It\n        // is therefore unique to each node\n        uint256 nodeID = numberOfNodes + 1;\n\n        // Declare a MountainNode structure that holds the id, the creation time, the type and the address of the owner\n        MountainNode memory nodeToCreate;\n\n        // Create the node by assigining the variables to the field of the struct\n        nodeToCreate = MountainNode({\n            id: nodeID,\n            timestamp: block.timestamp,\n            nodeType: _nodeType,\n            owner: sender\n        });\n\n        // The number of nodes' counter is incremented to keep track\n        numberOfNodes++;\n\n        // Store the node created in an array that maps nodeIds to nodes\n        nodeMapping[nodeID] = nodeToCreate;\n\n        // Store the nodeID in an array that maps addresses to IDs\n        accountNodes[sender].push(nodeID);\n\n        // Create a referral code if this is the first time the user create a node\n        if (referrals[sender] == 0) {\n            bytes20 referral_code = createReferralCode(sender);\n            referrals[sender] = referral_code;\n            getAddressFromReferral[referral_code] = sender;\n\n        }\n\n    }\n\n\n    /** \n        @param user : The address of the user\n        @return  bytes20 : The referral code for the address \n    */ \n    function getReferralCode(address user) external view onlyOwner returns(bytes20) { \n        return referrals[user];\n    }\n\n\n\n\n    /**    \n        @dev This is the main function to get all rewards before transferring to the owner\n    */ \n    function getAllReward() internal returns(uint256) {\n\n        address sender = _msgSender();\n        \n        // Retrieve the number of nodes of the caller\n        uint256 numOwnedNodes = accountNodes[sender].length;\n        require(numOwnedNodes > 0, \"Must own nodes to claim rewards\");\n        uint256 totalClaim = 0;\n        for(uint256 i = 0; i < numOwnedNodes; i++) {\n            if(rewardsClaimable(nodeMapping[accountNodes[sender][i]].timestamp)) {\n                uint256 nodeID = nodeMapping[accountNodes[sender][i]].id;\n                totalClaim += calculateRewards(nodeID);\n                nodeMapping[nodeID].timestamp = block.timestamp;\n            }\n        }\n        return totalClaim;\n    }\n\n\n    /** \n        @param _id : The identifier of the node that the owner wants to get rewards from.  \n        \n        @dev This is the main function to get reward of node given its NodeId, before transferring to the owner\n    */ \n    function getNodeReward(uint256 _id) internal returns(uint256){\n\n        // Retrieve the Node structure given its id \n        MountainNode memory mountaintNode = nodeMapping[_id];\n\n        // Revert if the caller isn't the owner of the Node\n        require(_msgSender() == mountaintNode.owner, \"Must be owner of node to claim\");\n        // Revert if it's too soon to claim the rewards\n        require(rewardsClaimable(mountaintNode.timestamp), \"Node rewards are not claimable yet\");\n\n        // Calculate the rewards for the given node\n        uint256 amount = calculateRewards(mountaintNode.id);\n\n        // Update the timestamp, it's a way to reset the rewards\n        nodeMapping[mountaintNode.id].timestamp = block.timestamp;\n\n        // Return the amount of rewards to the main contract so that it can be sent to the owner of the node\n        return amount;\n    }\n\n\n    /** \n        @param _id : The identifier of the node.  \n        \n        @dev This function calculates reward every time it's called. Contrary to classical Node SC, \n             we believe that this way of doing is more efficient gas-wise. The reward is calculated based on the last\n             time it was claimed (or the first time the node was created), and on the daily reward.\n    */ \n    function calculateRewards(uint256 _id) public view returns (uint256) {\n\n        // Retrieve the Node structure given its id \n        MountainNode memory mountainNode = nodeMapping[_id];\n\n\n        // The formula to calculate the rewards is easy, and similar to staking SCs. \n        // It corresponds to the node price * daily interest * days elapsed\n        return (( (nodePrice[mountainNode.nodeType] * dailyReward[mountainNode.nodeType]) / PER_MILLE)\n                                  * (block.timestamp - mountainNode.timestamp) / ONE_DAY);\n    }\n\n\n    /**    \n        @param sender : The adddress of the sender\n        @return sender_timestamp_hash : The referral code (the hash of the sender address and the timestamp)\n\n        @dev This function uses the address of the sender and the current timestamp to create a referral code\n    */ \n    function createReferralCode(address sender) internal view returns (bytes20 sender_timestamp_hash)\n    {\n        return ripemd160(abi.encodePacked(sender, block.timestamp));\n    }\n\n    /** \n        @param nodeTimestamp : The timestamp of the node (either the creation time or the last time the rewards were claimed)  \n        @return bool         : True if at least claimMinTime has passed between two claim\n\n        @dev This function ensures that the claimMinTime between two claims is respected\n    */ \n    function rewardsClaimable(uint256 nodeTimestamp) internal view returns(bool) {   \n        return (block.timestamp - nodeTimestamp) > claimMinTime;\n    }\n\n    /** \n        @param enableNodeCreation : Boolean to enable or disable the node creation  \n    */ \n    function setNodeCreation(bool enableNodeCreation) external onlyOwner { \n        nodeCreationEnabled = enableNodeCreation;\n    }\n\n\n\n    /** \n        @param node_type : The node type (Lava, Earth or Snow). Must be between 0 and 2 \n        @return  uint256 : The current node price for the given type  \n    */ \n    function getNodePrice(uint256 node_type) external view returns(uint256) { \n        require(node_type >= 0 && node_type <= 2, \"Node type is invalid\");\n        return nodePrice[node_type];\n    }\n\n    /** \n        @param Ice  : The amount of tokens (without the decimals) of the Ice node \n        @param Earth  : The amount of tokens (without the decimals) of the Earth node \n        @param Lava : The amount of tokens (without the decimals) of the Lava node \n\n    */ \n    function setNodePrice(uint256 Ice, uint256 Earth, uint256 Lava) external onlyOwner {\n        nodePrice[0] = Ice * 10**18;\n        nodePrice[1] = Earth * 10**18;\n        nodePrice[2] = Lava * 10**18;\n    }\n\n    /** \n        @param Ice  : The daily reward (in percentages) for the Ice node \n        @param Earth  : The daily reward (in percentages) for the Earth node \n        @param Lava : The daily reward (in percentages) for the Lava node \n\n        @dev The percentages are set with 100% corresponding to 1_000 (Meaning 10% = 100)\n\n    */ \n    function setRewardPerNode(uint256 Ice, uint256 Earth, uint256 Lava) external onlyOwner {\n        dailyReward[0] = Ice;\n        dailyReward[1] = Earth;\n        dailyReward[2] = Lava;\n    }\n\n    /** \n        @param newTime  : The new min claim time that needs to be respected before claiming reward \n    */ \n    function setClaimTime(uint128 newTime) external onlyOwner {\n        claimMinTime = newTime;\n    }\n\n    /** \n        @param account  : The address of the account that supposedly has nodes\n        @return uint256 : The number of nodes the account has\n\n    */ \n    function getNumberOfNodes(address account) external view returns (uint256) {\n        return accountNodes[account].length;\n    }\n\n    /** \n        @param account  : The address of the account that supposedly has nodes\n        @return bool    : True if the account has at least one Node\n\n    */ \n    function isNodeOwner(address account) public view returns (bool) {\n        return accountNodes[account].length>0;\n    }\n\n\n}\n\n\n\n    // The transfer of nodes is not possible for now, waiting for a guildeline from the team to see if\n    // we include it or not\n\n    // /** \n    //     @param _id : The identifier of the node that the owner wants to to transfer  \n    //     @param _owner : The owner of the node with given id\n    //     @param _recipient : The new owner of the node with given id \n\n    //     @notice TODO : For now it is only doable by the owner of the contract\n\n    //     @dev This function loops over the nodes of the owner and if it finds the node with given id,\n    //          it removes it from the owner list and add it to the recipient's list of nodes\n    // */ \n    // function transferNode(uint256 _id, address _owner, address _recipient) public onlyOwner {\n\n    //     require(_owner != _recipient, \"Cannot transfer to self\");\n\n    //     uint256 len = accountNodes[_owner].length;\n    //     bool success = false;\n    //     for(uint256 i = 0; i < len; i++) {\n    //         if(accountNodes[_owner][i] == _id) {\n    //             accountNodes[_owner][i] = accountNodes[_owner][len-1];\n    //             accountNodes[_owner].pop();\n    //             accountNodes[_recipient].push(_id);\n    //             nodeMapping[_id].owner = _recipient;\n    //             success = true;\n    //             break;\n    //         }\n    //     }\n    //     require(success, \"Transfer failed\");\n    // } ",
  "sourcePath": "/Users/pilu/Desktop/Smart-contract-MTN/contracts/MountainRewardManager.sol",
  "compiler": {
    "name": "solc",
    "version": "0.8.12+commit.f00d7308.Emscripten.clang"
  },
  "schemaVersion": "3.4.6",
  "updatedAt": "2022-05-04T15:15:15.781Z",
  "devdoc": {
    "kind": "dev",
    "methods": {
      "calculateRewards(uint256)": {
        "details": "This function calculates reward every time it's called. Contrary to classical Node SC,  we believe that this way of doing is more efficient gas-wise. The reward is calculated based on the last time it was claimed (or the first time the node was created), and on the daily reward.",
        "params": {
          "_id": ": The identifier of the node.  "
        }
      },
      "getNodePrice(uint256)": {
        "params": {
          "node_type": ": The node type (Lava, Earth or Snow). Must be between 0 and 2 "
        },
        "returns": {
          "_0": "uint256 : The current node price for the given type  "
        }
      },
      "getNumberOfNodes(address)": {
        "params": {
          "account": ": The address of the account that supposedly has nodes"
        },
        "returns": {
          "_0": "uint256 : The number of nodes the account has"
        }
      },
      "getReferralCode(address)": {
        "params": {
          "user": ": The address of the user"
        },
        "returns": {
          "_0": "bytes20 : The referral code for the address "
        }
      },
      "isNodeOwner(address)": {
        "params": {
          "account": ": The address of the account that supposedly has nodes"
        },
        "returns": {
          "_0": "bool    : True if the account has at least one Node"
        }
      },
      "owner()": {
        "details": "Returns the address of the current owner."
      },
      "renounceOwnership()": {
        "details": "Leaves the contract without owner. It will not be possible to call `onlyOwner` functions anymore. Can only be called by the current owner. NOTE: Renouncing ownership will leave the contract without an owner, thereby removing any functionality that is only available to the owner."
      },
      "setClaimTime(uint128)": {
        "params": {
          "newTime": ": The new min claim time that needs to be respected before claiming reward "
        }
      },
      "setNodeCreation(bool)": {
        "params": {
          "enableNodeCreation": ": Boolean to enable or disable the node creation  "
        }
      },
      "setNodePrice(uint256,uint256,uint256)": {
        "params": {
          "Earth": ": The amount of tokens (without the decimals) of the Earth node ",
          "Ice": ": The amount of tokens (without the decimals) of the Ice node ",
          "Lava": ": The amount of tokens (without the decimals) of the Lava node "
        }
      },
      "setRewardPerNode(uint256,uint256,uint256)": {
        "details": "The percentages are set with 100% corresponding to 1_000 (Meaning 10% = 100)",
        "params": {
          "Earth": ": The daily reward (in percentages) for the Earth node ",
          "Ice": ": The daily reward (in percentages) for the Ice node ",
          "Lava": ": The daily reward (in percentages) for the Lava node "
        }
      },
      "transferOwnership(address)": {
        "details": "Transfers ownership of the contract to a new account (`newOwner`). Can only be called by the current owner."
      }
    },
    "version": 1
  },
  "userdoc": {
    "kind": "user",
    "methods": {},
    "version": 1
  }
}