{
  "contractName": "MountainRewardManager",
  "abi": [
    {
      "inputs": [],
      "stateMutability": "nonpayable",
      "type": "constructor"
    },
    {
      "anonymous": false,
      "inputs": [
        {
          "indexed": true,
          "internalType": "address",
          "name": "previousOwner",
          "type": "address"
        },
        {
          "indexed": true,
          "internalType": "address",
          "name": "newOwner",
          "type": "address"
        }
      ],
      "name": "OwnershipTransferred",
      "type": "event"
    },
    {
      "inputs": [
        {
          "internalType": "address",
          "name": "",
          "type": "address"
        },
        {
          "internalType": "uint256",
          "name": "",
          "type": "uint256"
        }
      ],
      "name": "accountNodes",
      "outputs": [
        {
          "internalType": "uint256",
          "name": "",
          "type": "uint256"
        }
      ],
      "stateMutability": "view",
      "type": "function"
    },
    {
      "inputs": [],
      "name": "claimMinTime",
      "outputs": [
        {
          "internalType": "uint128",
          "name": "",
          "type": "uint128"
        }
      ],
      "stateMutability": "view",
      "type": "function"
    },
    {
      "inputs": [
        {
          "internalType": "uint256",
          "name": "",
          "type": "uint256"
        }
      ],
      "name": "dailyReward",
      "outputs": [
        {
          "internalType": "uint256",
          "name": "",
          "type": "uint256"
        }
      ],
      "stateMutability": "view",
      "type": "function"
    },
    {
      "inputs": [],
      "name": "nodeCreationEnabled",
      "outputs": [
        {
          "internalType": "bool",
          "name": "",
          "type": "bool"
        }
      ],
      "stateMutability": "view",
      "type": "function"
    },
    {
      "inputs": [
        {
          "internalType": "uint256",
          "name": "",
          "type": "uint256"
        }
      ],
      "name": "nodeMapping",
      "outputs": [
        {
          "internalType": "uint256",
          "name": "id",
          "type": "uint256"
        },
        {
          "internalType": "uint256",
          "name": "timestamp",
          "type": "uint256"
        },
        {
          "internalType": "uint256",
          "name": "nodeType",
          "type": "uint256"
        },
        {
          "internalType": "address",
          "name": "owner",
          "type": "address"
        }
      ],
      "stateMutability": "view",
      "type": "function"
    },
    {
      "inputs": [
        {
          "internalType": "uint256",
          "name": "",
          "type": "uint256"
        }
      ],
      "name": "nodePrice",
      "outputs": [
        {
          "internalType": "uint256",
          "name": "",
          "type": "uint256"
        }
      ],
      "stateMutability": "view",
      "type": "function"
    },
    {
      "inputs": [],
      "name": "numberOfNodes",
      "outputs": [
        {
          "internalType": "uint256",
          "name": "",
          "type": "uint256"
        }
      ],
      "stateMutability": "view",
      "type": "function"
    },
    {
      "inputs": [],
      "name": "owner",
      "outputs": [
        {
          "internalType": "address",
          "name": "",
          "type": "address"
        }
      ],
      "stateMutability": "view",
      "type": "function"
    },
    {
      "inputs": [
        {
          "internalType": "address",
          "name": "",
          "type": "address"
        }
      ],
      "name": "referrals",
      "outputs": [
        {
          "internalType": "uint32",
          "name": "",
          "type": "uint32"
        }
      ],
      "stateMutability": "view",
      "type": "function"
    },
    {
      "inputs": [],
      "name": "renounceOwnership",
      "outputs": [],
      "stateMutability": "nonpayable",
      "type": "function"
    },
    {
      "inputs": [
        {
          "internalType": "address",
          "name": "newOwner",
          "type": "address"
        }
      ],
      "name": "transferOwnership",
      "outputs": [],
      "stateMutability": "nonpayable",
      "type": "function"
    },
    {
      "inputs": [
        {
          "internalType": "uint256",
          "name": "_amount",
          "type": "uint256"
        },
        {
          "internalType": "uint256",
          "name": "_nodeType",
          "type": "uint256"
        },
        {
          "internalType": "address",
          "name": "_referral",
          "type": "address"
        }
      ],
      "name": "createNode",
      "outputs": [],
      "stateMutability": "nonpayable",
      "type": "function"
    },
    {
      "inputs": [],
      "name": "getAllReward",
      "outputs": [
        {
          "internalType": "uint256",
          "name": "",
          "type": "uint256"
        }
      ],
      "stateMutability": "nonpayable",
      "type": "function"
    },
    {
      "inputs": [
        {
          "internalType": "uint256",
          "name": "_id",
          "type": "uint256"
        }
      ],
      "name": "getNodeReward",
      "outputs": [
        {
          "internalType": "uint256",
          "name": "",
          "type": "uint256"
        }
      ],
      "stateMutability": "nonpayable",
      "type": "function"
    },
    {
      "inputs": [
        {
          "internalType": "uint256",
          "name": "_id",
          "type": "uint256"
        }
      ],
      "name": "calculateRewards",
      "outputs": [
        {
          "internalType": "uint256",
          "name": "",
          "type": "uint256"
        }
      ],
      "stateMutability": "view",
      "type": "function"
    },
    {
      "inputs": [
        {
          "internalType": "uint256",
          "name": "_id",
          "type": "uint256"
        },
        {
          "internalType": "address",
          "name": "_owner",
          "type": "address"
        },
        {
          "internalType": "address",
          "name": "_recipient",
          "type": "address"
        }
      ],
      "name": "transferNode",
      "outputs": [],
      "stateMutability": "nonpayable",
      "type": "function"
    },
    {
      "inputs": [
        {
          "internalType": "bool",
          "name": "enableNodeCreation",
          "type": "bool"
        }
      ],
      "name": "setNodeCreation",
      "outputs": [],
      "stateMutability": "nonpayable",
      "type": "function"
    },
    {
      "inputs": [
        {
          "internalType": "uint256",
          "name": "_id",
          "type": "uint256"
        }
      ],
      "name": "getMountainNodeById",
      "outputs": [
        {
          "components": [
            {
              "internalType": "uint256",
              "name": "id",
              "type": "uint256"
            },
            {
              "internalType": "uint256",
              "name": "timestamp",
              "type": "uint256"
            },
            {
              "internalType": "uint256",
              "name": "nodeType",
              "type": "uint256"
            },
            {
              "internalType": "address",
              "name": "owner",
              "type": "address"
            }
          ],
          "internalType": "struct MountainRewardManager.MountainNode",
          "name": "",
          "type": "tuple"
        }
      ],
      "stateMutability": "view",
      "type": "function"
    },
    {
      "inputs": [
        {
          "internalType": "uint256",
          "name": "node_type",
          "type": "uint256"
        }
      ],
      "name": "getNodePrice",
      "outputs": [
        {
          "internalType": "uint256",
          "name": "",
          "type": "uint256"
        }
      ],
      "stateMutability": "view",
      "type": "function"
    },
    {
      "inputs": [
        {
          "internalType": "uint256",
          "name": "Lava",
          "type": "uint256"
        },
        {
          "internalType": "uint256",
          "name": "Snow",
          "type": "uint256"
        },
        {
          "internalType": "uint256",
          "name": "Earth",
          "type": "uint256"
        }
      ],
      "name": "setNodePrice",
      "outputs": [],
      "stateMutability": "nonpayable",
      "type": "function"
    },
    {
      "inputs": [
        {
          "internalType": "uint256",
          "name": "Lava",
          "type": "uint256"
        },
        {
          "internalType": "uint256",
          "name": "Snow",
          "type": "uint256"
        },
        {
          "internalType": "uint256",
          "name": "Earth",
          "type": "uint256"
        }
      ],
      "name": "setRewardPerNode",
      "outputs": [],
      "stateMutability": "nonpayable",
      "type": "function"
    },
    {
      "inputs": [
        {
          "internalType": "uint128",
          "name": "newTime",
          "type": "uint128"
        }
      ],
      "name": "setClaimTime",
      "outputs": [],
      "stateMutability": "nonpayable",
      "type": "function"
    },
    {
      "inputs": [
        {
          "internalType": "address",
          "name": "account",
          "type": "address"
        }
      ],
      "name": "getNumberOfNodes",
      "outputs": [
        {
          "internalType": "uint256",
          "name": "",
          "type": "uint256"
        }
      ],
      "stateMutability": "view",
      "type": "function"
    },
    {
      "inputs": [
        {
          "internalType": "address",
          "name": "account",
          "type": "address"
        }
      ],
      "name": "isNodeOwner",
      "outputs": [
        {
          "internalType": "bool",
          "name": "",
          "type": "bool"
        }
      ],
      "stateMutability": "view",
      "type": "function"
    }
  ],
  "bytecode": "0x6080604052600060015561a8c0600260006101000a8154816fffffffffffffffffffffffffffffffff02191690836fffffffffffffffffffffffffffffffff1602179055506040518060600160405280674563918244f4000068ffffffffffffffffff16815260200168015af1d78b58c4000068ffffffffffffffffff16815260200168056bc75e2d6310000068ffffffffffffffffff168152506003906003620000ac92919062000211565b506040518060600160405280600560ff168152602001600f60ff168152602001603260ff168152506006906003620000e692919062000263565b506001600b60006101000a8154816fffffffffffffffffffffffffffffffff02191690836fffffffffffffffffffffffffffffffff1602179055506001600d60006101000a81548160ff0219169083151502179055503480156200014957600080fd5b5060006200016562000209640100000000026401000000009004565b9050806000806101000a81548173ffffffffffffffffffffffffffffffffffffffff021916908373ffffffffffffffffffffffffffffffffffffffff1602179055508073ffffffffffffffffffffffffffffffffffffffff16600073ffffffffffffffffffffffffffffffffffffffff167f8be0079c531659141344cd1fd0a4f28419497f9722a3daafe3b4186f6b6457e060405160405180910390a350620002cc565b600033905090565b826003810192821562000250579160200282015b828111156200024f578251829068ffffffffffffffffff1690559160200191906001019062000225565b5b5090506200025f9190620002ad565b5090565b82600381019282156200029a579160200282015b8281111562000299578251829060ff1690559160200191906001019062000277565b5b509050620002a99190620002ad565b5090565b5b80821115620002c8576000816000905550600101620002ae565b5090565b61261980620002dc6000396000f3fe608060405234801561001057600080fd5b5060043610610175576000357c0100000000000000000000000000000000000000000000000000000000900480638c7a273a116100e0578063d59fd90011610099578063d59fd9001461041c578063e3d57b6a1461043a578063f2fde38b14610456578063f3339be714610472578063fa5f9556146104a2578063fd4781dc146104be57610175565b80638c7a273a146103485780638da5cb5b146103665780639ca423b314610384578063b5dcdd34146103b4578063cb0c9108146103d0578063d3ea4350146103ec57610175565b80635efd86aa116101325780635efd86aa14610262578063615cf8b814610292578063715018a6146102c2578063758463e2146102cc5780637d58efb9146102fc578063876a3aad1461032c57610175565b80630914e0111461017a57806315f7aaab1461019857806317fb4c3b146101c8578063432e8688146101f857806349e588cf1461022857806354d74e1f14610244575b600080fd5b6101826104f1565b60405161018f9190611a58565b60405180910390f35b6101b260048036038101906101ad9190611ad6565b6106d9565b6040516101bf9190611b1e565b60405180910390f35b6101e260048036038101906101dd9190611ad6565b610727565b6040516101ef9190611a58565b60405180910390f35b610212600480360381019061020d9190611b65565b610773565b60405161021f9190611a58565b60405180910390f35b610242600480360381019061023d9190611bbe565b610880565b005b61024c610932565b6040516102599190611a58565b60405180910390f35b61027c60048036038101906102779190611beb565b610938565b6040516102899190611a58565b60405180910390f35b6102ac60048036038101906102a79190611b65565b610969565b6040516102b99190611a58565b60405180910390f35b6102ca6109d8565b005b6102e660048036038101906102e19190611b65565b610b2b565b6040516102f39190611a58565b60405180910390f35b61031660048036038101906103119190611b65565b610b46565b6040516103239190611a58565b60405180910390f35b61034660048036038101906103419190611c2b565b610b61565b005b610350610c4c565b60405161035d9190611ca9565b60405180910390f35b61036e610c6e565b60405161037b9190611cd3565b60405180910390f35b61039e60048036038101906103999190611ad6565b610c97565b6040516103ab9190611d0d565b60405180910390f35b6103ce60048036038101906103c99190611d28565b610cba565b005b6103ea60048036038101906103e59190611da7565b6110bf565b005b61040660048036038101906104019190611b65565b611190565b6040516104139190611a58565b60405180910390f35b6104246112e4565b6040516104319190611b1e565b60405180910390f35b610454600480360381019061044f9190611c2b565b6112f7565b005b610470600480360381019061046b9190611ad6565b6113e2565b005b61048c60048036038101906104879190611b65565b6115a4565b6040516104999190611e47565b60405180910390f35b6104bc60048036038101906104b79190611e62565b611645565b005b6104d860048036038101906104d39190611b65565b611962565b6040516104e89493929190611eb5565b60405180910390f35b6000806104fc6119b2565b90506000600960008373ffffffffffffffffffffffffffffffffffffffff1673ffffffffffffffffffffffffffffffffffffffff16815260200190815260200160002080549050905060008111610588576040517f08c379a000000000000000000000000000000000000000000000000000000000815260040161057f90611f57565b60405180910390fd5b6000805b828110156106cf5761060e600c6000600960008873ffffffffffffffffffffffffffffffffffffffff1673ffffffffffffffffffffffffffffffffffffffff16815260200190815260200160002084815481106105ec576105eb611f77565b5b90600052602060002001548152602001908152602001600020600101546119ba565b156106bc576000600c6000600960008873ffffffffffffffffffffffffffffffffffffffff1673ffffffffffffffffffffffffffffffffffffffff168152602001908152602001600020848154811061066a57610669611f77565b5b9060005260206000200154815260200190815260200160002060000154905061069281611190565b8361069d9190611fd5565b925042600c600083815260200190815260200160002060010181905550505b80806106c79061202b565b91505061058c565b5080935050505090565b600080600960008473ffffffffffffffffffffffffffffffffffffffff1673ffffffffffffffffffffffffffffffffffffffff16815260200190815260200160002080549050119050919050565b6000600960008373ffffffffffffffffffffffffffffffffffffffff1673ffffffffffffffffffffffffffffffffffffffff168152602001908152602001600020805490509050919050565b60008061077f836115a4565b9050806060015173ffffffffffffffffffffffffffffffffffffffff166107a46119b2565b73ffffffffffffffffffffffffffffffffffffffff16146107fa576040517f08c379a00000000000000000000000000000000000000000000000000000000081526004016107f1906120c0565b60405180910390fd5b61080781602001516119ba565b610846576040517f08c379a000000000000000000000000000000000000000000000000000000000815260040161083d90612152565b60405180910390fd5b60006108558260000151611190565b905042600c600084600001518152602001908152602001600020600101819055508092505050919050565b6108886119b2565b73ffffffffffffffffffffffffffffffffffffffff1660008054906101000a900473ffffffffffffffffffffffffffffffffffffffff1673ffffffffffffffffffffffffffffffffffffffff1614610915576040517f08c379a000000000000000000000000000000000000000000000000000000000815260040161090c906121be565b60405180910390fd5b80600d60006101000a81548160ff02191690831515021790555050565b60015481565b6009602052816000526040600020818154811061095457600080fd5b90600052602060002001600091509150505481565b600080821015801561097c575060028211155b6109bb576040517f08c379a00000000000000000000000000000000000000000000000000000000081526004016109b29061222a565b60405180910390fd5b600382600381106109cf576109ce611f77565b5b01549050919050565b6109e06119b2565b73ffffffffffffffffffffffffffffffffffffffff1660008054906101000a900473ffffffffffffffffffffffffffffffffffffffff1673ffffffffffffffffffffffffffffffffffffffff1614610a6d576040517f08c379a0000000000000000000000000000000000000000000000000000000008152600401610a64906121be565b60405180910390fd5b600073ffffffffffffffffffffffffffffffffffffffff1660008054906101000a900473ffffffffffffffffffffffffffffffffffffffff1673ffffffffffffffffffffffffffffffffffffffff167f8be0079c531659141344cd1fd0a4f28419497f9722a3daafe3b4186f6b6457e060405160405180910390a360008060006101000a81548173ffffffffffffffffffffffffffffffffffffffff021916908373ffffffffffffffffffffffffffffffffffffffff160217905550565b60038160038110610b3b57600080fd5b016000915090505481565b60068160038110610b5657600080fd5b016000915090505481565b610b696119b2565b73ffffffffffffffffffffffffffffffffffffffff1660008054906101000a900473ffffffffffffffffffffffffffffffffffffffff1673ffffffffffffffffffffffffffffffffffffffff1614610bf6576040517f08c379a0000000000000000000000000000000000000000000000000000000008152600401610bed906121be565b60405180910390fd5b826003600060038110610c0c57610c0b611f77565b5b0181905550816003600160038110610c2757610c26611f77565b5b0181905550806003600260038110610c4257610c41611f77565b5b0181905550505050565b600260009054906101000a90046fffffffffffffffffffffffffffffffff1681565b60008060009054906101000a900473ffffffffffffffffffffffffffffffffffffffff16905090565b600a6020528060005260406000206000915054906101000a900463ffffffff1681565b610cc26119b2565b73ffffffffffffffffffffffffffffffffffffffff1660008054906101000a900473ffffffffffffffffffffffffffffffffffffffff1673ffffffffffffffffffffffffffffffffffffffff1614610d4f576040517f08c379a0000000000000000000000000000000000000000000000000000000008152600401610d46906121be565b60405180910390fd5b8073ffffffffffffffffffffffffffffffffffffffff168273ffffffffffffffffffffffffffffffffffffffff161415610dbe576040517f08c379a0000000000000000000000000000000000000000000000000000000008152600401610db590612296565b60405180910390fd5b6000600960008473ffffffffffffffffffffffffffffffffffffffff1673ffffffffffffffffffffffffffffffffffffffff1681526020019081526020016000208054905090506000805b828110156110775785600960008773ffffffffffffffffffffffffffffffffffffffff1673ffffffffffffffffffffffffffffffffffffffff1681526020019081526020016000208281548110610e6357610e62611f77565b5b9060005260206000200154141561106457600960008673ffffffffffffffffffffffffffffffffffffffff1673ffffffffffffffffffffffffffffffffffffffff168152602001908152602001600020600184610ec091906122b6565b81548110610ed157610ed0611f77565b5b9060005260206000200154600960008773ffffffffffffffffffffffffffffffffffffffff1673ffffffffffffffffffffffffffffffffffffffff1681526020019081526020016000208281548110610f2d57610f2c611f77565b5b9060005260206000200181905550600960008673ffffffffffffffffffffffffffffffffffffffff1673ffffffffffffffffffffffffffffffffffffffff168152602001908152602001600020805480610f8a57610f896122ea565b5b60019003818190600052602060002001600090559055600960008573ffffffffffffffffffffffffffffffffffffffff1673ffffffffffffffffffffffffffffffffffffffff16815260200190815260200160002086908060018154018082558091505060019003906000526020600020016000909190919091505583600c600088815260200190815260200160002060030160006101000a81548173ffffffffffffffffffffffffffffffffffffffff021916908373ffffffffffffffffffffffffffffffffffffffff16021790555060019150611077565b808061106f9061202b565b915050610e09565b50806110b8576040517f08c379a00000000000000000000000000000000000000000000000000000000081526004016110af90612365565b60405180910390fd5b5050505050565b6110c76119b2565b73ffffffffffffffffffffffffffffffffffffffff1660008054906101000a900473ffffffffffffffffffffffffffffffffffffffff1673ffffffffffffffffffffffffffffffffffffffff1614611154576040517f08c379a000000000000000000000000000000000000000000000000000000000815260040161114b906121be565b60405180910390fd5b80600260006101000a8154816fffffffffffffffffffffffffffffffff02191690836fffffffffffffffffffffffffffffffff16021790555050565b60008061119c836115a4565b9050600060068260400151600381106111b8576111b7611f77565b5b0154905060056fffffffffffffffffffffffffffffffff16600a6000846060015173ffffffffffffffffffffffffffffffffffffffff1673ffffffffffffffffffffffffffffffffffffffff16815260200190815260200160002060009054906101000a900463ffffffff1663ffffffff16111561126f57600b60009054906101000a90046fffffffffffffffffffffffffffffffff166fffffffffffffffffffffffffffffffff168161126c9190611fd5565b90505b620151806fffffffffffffffffffffffffffffffff1682602001514261129591906122b6565b6103e88360038660400151600381106112b1576112b0611f77565b5b01546112bd9190612385565b6112c7919061240e565b6112d19190612385565b6112db919061240e565b92505050919050565b600d60009054906101000a900460ff1681565b6112ff6119b2565b73ffffffffffffffffffffffffffffffffffffffff1660008054906101000a900473ffffffffffffffffffffffffffffffffffffffff1673ffffffffffffffffffffffffffffffffffffffff161461138c576040517f08c379a0000000000000000000000000000000000000000000000000000000008152600401611383906121be565b60405180910390fd5b8260066000600381106113a2576113a1611f77565b5b01819055508160066001600381106113bd576113bc611f77565b5b01819055508060066002600381106113d8576113d7611f77565b5b0181905550505050565b6113ea6119b2565b73ffffffffffffffffffffffffffffffffffffffff1660008054906101000a900473ffffffffffffffffffffffffffffffffffffffff1673ffffffffffffffffffffffffffffffffffffffff1614611477576040517f08c379a000000000000000000000000000000000000000000000000000000000815260040161146e906121be565b60405180910390fd5b600073ffffffffffffffffffffffffffffffffffffffff168173ffffffffffffffffffffffffffffffffffffffff1614156114e7576040517f08c379a00000000000000000000000000000000000000000000000000000000081526004016114de906124b1565b60405180910390fd5b8073ffffffffffffffffffffffffffffffffffffffff1660008054906101000a900473ffffffffffffffffffffffffffffffffffffffff1673ffffffffffffffffffffffffffffffffffffffff167f8be0079c531659141344cd1fd0a4f28419497f9722a3daafe3b4186f6b6457e060405160405180910390a3806000806101000a81548173ffffffffffffffffffffffffffffffffffffffff021916908373ffffffffffffffffffffffffffffffffffffffff16021790555050565b6115ac611a01565b600c60008381526020019081526020016000206040518060800160405290816000820154815260200160018201548152602001600282015481526020016003820160009054906101000a900473ffffffffffffffffffffffffffffffffffffffff1673ffffffffffffffffffffffffffffffffffffffff1673ffffffffffffffffffffffffffffffffffffffff16815250509050919050565b600061164f6119b2565b9050600d60009054906101000a900460ff166116a0576040517f08c379a00000000000000000000000000000000000000000000000000000000081526004016116979061251d565b60405180910390fd5b600083101580156116b2575060028311155b6116f1576040517f08c379a00000000000000000000000000000000000000000000000000000000081526004016116e89061222a565b60405180910390fd5b6003836003811061170557611704611f77565b5b01548414611748576040517f08c379a000000000000000000000000000000000000000000000000000000000815260040161173f90612589565b60405180910390fd5b6000600180546117589190611fd5565b9050611762611a01565b60405180608001604052808381526020014281526020018681526020018473ffffffffffffffffffffffffffffffffffffffff168152509050600160008154809291906117ae9061202b565b919050555080600c600084815260200190815260200160002060008201518160000155602082015181600101556040820151816002015560608201518160030160006101000a81548173ffffffffffffffffffffffffffffffffffffffff021916908373ffffffffffffffffffffffffffffffffffffffff160217905550905050600960008473ffffffffffffffffffffffffffffffffffffffff1673ffffffffffffffffffffffffffffffffffffffff168152602001908152602001600020829080600181540180825580915050600190039060005260206000200160009091909190915055600073ffffffffffffffffffffffffffffffffffffffff168473ffffffffffffffffffffffffffffffffffffffff16141580156118d757506118d6846106d9565b5b1561195a576001600a60008673ffffffffffffffffffffffffffffffffffffffff1673ffffffffffffffffffffffffffffffffffffffff16815260200190815260200160002060008282829054906101000a900463ffffffff1661193b91906125a9565b92506101000a81548163ffffffff021916908363ffffffff1602179055505b505050505050565b600c6020528060005260406000206000915090508060000154908060010154908060020154908060030160009054906101000a900473ffffffffffffffffffffffffffffffffffffffff16905084565b600033905090565b6000600260009054906101000a90046fffffffffffffffffffffffffffffffff166fffffffffffffffffffffffffffffffff1682426119f991906122b6565b119050919050565b6040518060800160405280600081526020016000815260200160008152602001600073ffffffffffffffffffffffffffffffffffffffff1681525090565b6000819050919050565b611a5281611a3f565b82525050565b6000602082019050611a6d6000830184611a49565b92915050565b600080fd5b600073ffffffffffffffffffffffffffffffffffffffff82169050919050565b6000611aa382611a78565b9050919050565b611ab381611a98565b8114611abe57600080fd5b50565b600081359050611ad081611aaa565b92915050565b600060208284031215611aec57611aeb611a73565b5b6000611afa84828501611ac1565b91505092915050565b60008115159050919050565b611b1881611b03565b82525050565b6000602082019050611b336000830184611b0f565b92915050565b611b4281611a3f565b8114611b4d57600080fd5b50565b600081359050611b5f81611b39565b92915050565b600060208284031215611b7b57611b7a611a73565b5b6000611b8984828501611b50565b91505092915050565b611b9b81611b03565b8114611ba657600080fd5b50565b600081359050611bb881611b92565b92915050565b600060208284031215611bd457611bd3611a73565b5b6000611be284828501611ba9565b91505092915050565b60008060408385031215611c0257611c01611a73565b5b6000611c1085828601611ac1565b9250506020611c2185828601611b50565b9150509250929050565b600080600060608486031215611c4457611c43611a73565b5b6000611c5286828701611b50565b9350506020611c6386828701611b50565b9250506040611c7486828701611b50565b9150509250925092565b60006fffffffffffffffffffffffffffffffff82169050919050565b611ca381611c7e565b82525050565b6000602082019050611cbe6000830184611c9a565b92915050565b611ccd81611a98565b82525050565b6000602082019050611ce86000830184611cc4565b92915050565b600063ffffffff82169050919050565b611d0781611cee565b82525050565b6000602082019050611d226000830184611cfe565b92915050565b600080600060608486031215611d4157611d40611a73565b5b6000611d4f86828701611b50565b9350506020611d6086828701611ac1565b9250506040611d7186828701611ac1565b9150509250925092565b611d8481611c7e565b8114611d8f57600080fd5b50565b600081359050611da181611d7b565b92915050565b600060208284031215611dbd57611dbc611a73565b5b6000611dcb84828501611d92565b91505092915050565b611ddd81611a3f565b82525050565b611dec81611a98565b82525050565b608082016000820151611e086000850182611dd4565b506020820151611e1b6020850182611dd4565b506040820151611e2e6040850182611dd4565b506060820151611e416060850182611de3565b50505050565b6000608082019050611e5c6000830184611df2565b92915050565b600080600060608486031215611e7b57611e7a611a73565b5b6000611e8986828701611b50565b9350506020611e9a86828701611b50565b9250506040611eab86828701611ac1565b9150509250925092565b6000608082019050611eca6000830187611a49565b611ed76020830186611a49565b611ee46040830185611a49565b611ef16060830184611cc4565b95945050505050565b600082825260208201905092915050565b7f4d757374206f776e206e6f64657320746f20636c61696d207265776172647300600082015250565b6000611f41601f83611efa565b9150611f4c82611f0b565b602082019050919050565b60006020820190508181036000830152611f7081611f34565b9050919050565b7f4e487b7100000000000000000000000000000000000000000000000000000000600052603260045260246000fd5b7f4e487b7100000000000000000000000000000000000000000000000000000000600052601160045260246000fd5b6000611fe082611a3f565b9150611feb83611a3f565b9250827fffffffffffffffffffffffffffffffffffffffffffffffffffffffffffffffff038211156120205761201f611fa6565b5b828201905092915050565b600061203682611a3f565b91507fffffffffffffffffffffffffffffffffffffffffffffffffffffffffffffffff82141561206957612068611fa6565b5b600182019050919050565b7f4d757374206265206f776e6572206f66206e6f646520746f20636c61696d0000600082015250565b60006120aa601e83611efa565b91506120b582612074565b602082019050919050565b600060208201905081810360008301526120d98161209d565b9050919050565b7f4e6f6465207265776172647320617265206e6f7420636c61696d61626c65207960008201527f6574000000000000000000000000000000000000000000000000000000000000602082015250565b600061213c602283611efa565b9150612147826120e0565b604082019050919050565b6000602082019050818103600083015261216b8161212f565b9050919050565b7f4f776e61626c653a2063616c6c6572206973206e6f7420746865206f776e6572600082015250565b60006121a8602083611efa565b91506121b382612172565b602082019050919050565b600060208201905081810360008301526121d78161219b565b9050919050565b7f4e6f6465207479706520697320696e76616c6964000000000000000000000000600082015250565b6000612214601483611efa565b915061221f826121de565b602082019050919050565b6000602082019050818103600083015261224381612207565b9050919050565b7f43616e6e6f74207472616e7366657220746f2073656c66000000000000000000600082015250565b6000612280601783611efa565b915061228b8261224a565b602082019050919050565b600060208201905081810360008301526122af81612273565b9050919050565b60006122c182611a3f565b91506122cc83611a3f565b9250828210156122df576122de611fa6565b5b828203905092915050565b7f4e487b7100000000000000000000000000000000000000000000000000000000600052603160045260246000fd5b7f5472616e73666572206661696c65640000000000000000000000000000000000600082015250565b600061234f600f83611efa565b915061235a82612319565b602082019050919050565b6000602082019050818103600083015261237e81612342565b9050919050565b600061239082611a3f565b915061239b83611a3f565b9250817fffffffffffffffffffffffffffffffffffffffffffffffffffffffffffffffff04831182151516156123d4576123d3611fa6565b5b828202905092915050565b7f4e487b7100000000000000000000000000000000000000000000000000000000600052601260045260246000fd5b600061241982611a3f565b915061242483611a3f565b925082612434576124336123df565b5b828204905092915050565b7f4f776e61626c653a206e6577206f776e657220697320746865207a65726f206160008201527f6464726573730000000000000000000000000000000000000000000000000000602082015250565b600061249b602683611efa565b91506124a68261243f565b604082019050919050565b600060208201905081810360008301526124ca8161248e565b9050919050565b7f4e6f6465206372656174696f6e2069732064697361626c656400000000000000600082015250565b6000612507601983611efa565b9150612512826124d1565b602082019050919050565b60006020820190508181036000830152612536816124fa565b9050919050565b7f4e6f646520616d6f756e74206e6f7420636f7272656374000000000000000000600082015250565b6000612573601783611efa565b915061257e8261253d565b602082019050919050565b600060208201905081810360008301526125a281612566565b9050919050565b60006125b482611cee565b91506125bf83611cee565b92508263ffffffff038211156125d8576125d7611fa6565b5b82820190509291505056fea264697066735822122016f7f1092501e136ccbd296a9824ccf24c477789abff9fcc86edd97a05fb22c664736f6c634300080c0033",
  "immutableReferences": {},
  "source": "\n// SPDX-License-Identifier: MIT\n\npragma solidity ^0.8.11;\n\nimport \"./Ownable.sol\";\n\n\n\ncontract MountainRewardManager is Ownable {\n\n    // Total number of nodes\n    uint256 public numberOfNodes = 0;\n\n\n    // The minimum claim time between two claims\n    uint128 public claimMinTime = 12*60*60; //12 hours in seconds\n    uint128 constant ONE_DAY = 24*60*60; // 24 hours in seconds\n\n    // The main structure that holds information of Nodes.\n    struct MountainNode {\n        uint256 id;        // The unique identifier of the node\n        uint256 timestamp; // The creation time or the last claim time\n        uint256 nodeType;  // 0: Lava, 1: Snow, 2: Earth\n        address owner;     // The address of the node owner \n    }\n\n    // The prices of the Lava, the earth and the Snow nodes\n    uint256[3] public nodePrice = [5 * 10**18, 25* 10**18, 100* 10**18];\n\n    // The daily rewards of the Lava, the earth and the Snow nodes (0.5%, 1.5%, 5%)\n    uint256[3] public dailyReward = [5, 15, 50];\n\n    // Instead of percentages we use per mille, so that we can have one decimal percentages\n    uint256 constant PER_MILLE = 1000;\n\n    // Mapping that stores the node identifiers for given addresses \n    mapping(address => uint256[]) public accountNodes;\n\n    // Mapping that stores the referral number for given addresses \n    mapping(address => uint32) public referrals;    \n    uint128 constant MIN_REFERRAL = 5;\n    uint128 private referral_boost = 1;\n\n    // Mapping that stores the Node structure for given node identifiers\n    mapping(uint256 => MountainNode) public nodeMapping;\n\n    // Is the creation of nodes enabled \n    bool public nodeCreationEnabled = true;\n\n\n    constructor() {}\n   \n\n    /** \n        @param _amount : The amount corresponding to the price of a the node  \n        @param _nodeType : The node type (Lava, earth or snow). Should be a uint between 0 and 2s\n        @param _referral : The referral address (address 0 if None)\n        \n        @dev This is the main function to create a node\n    */ \n    function createNode(uint256 _amount, uint256 _nodeType, address _referral) public {\n\n        address sender = _msgSender();\n\n\n        // Revert if the node creation hasn't been enabled yet\n        require(nodeCreationEnabled, \"Node creation is disabled\");\n        // Revert if the node type isn't in the list (between 0 and 2)\n        require(_nodeType >= 0 && _nodeType <= 2, \"Node type is invalid\");\n        // Revert if the amount sent doesn't match the price of the node\n        require(_amount == nodePrice[_nodeType], \"Node amount not correct\");\n        \n\n        // The nodeID is the identifier of the node, it is incremented at each node creation. It\n        // is therefore unique to each node\n        uint256 nodeID = numberOfNodes + 1;\n\n        // Declare a MountainNode structure that holds the id, the creation time, the type and the address of the owner\n        MountainNode memory nodeToCreate;\n\n        // Create the node by assigining the variables to the field of the struct\n        nodeToCreate = MountainNode({\n            id: nodeID,\n            timestamp: block.timestamp,\n            nodeType: _nodeType,\n            owner: sender\n        });\n\n        // The number of nodes' counter is incremented to keep track\n        numberOfNodes++;\n\n        // Store the node created in an array that maps nodeIds to nodes\n        nodeMapping[nodeID] = nodeToCreate;\n\n        // Store the nodeID in an array that maps addresses to IDs\n        accountNodes[sender].push(nodeID);\n\n        if (_referral != address(0) && isNodeOwner(_referral)) {\n            referrals[_referral] +=1;\n        }\n    }\n\n\n    /**    \n        @dev This is the main function to get all rewards before transferring to the owner\n    */ \n    // TODO : pass sender as a parameter ? to make it a query ? or make the function internal ?\n    function getAllReward() public returns(uint256) {\n\n        address sender = _msgSender();\n        \n        // Retrieve the number of nodes of the caller\n        uint256 numOwnedNodes = accountNodes[sender].length;\n        require(numOwnedNodes > 0, \"Must own nodes to claim rewards\");\n        uint256 totalClaim = 0;\n        for(uint256 i = 0; i < numOwnedNodes; i++) {\n            if(rewardsClaimable(nodeMapping[accountNodes[sender][i]].timestamp)) {\n                uint256 nodeID = nodeMapping[accountNodes[sender][i]].id;\n                totalClaim += calculateRewards(nodeID);\n                nodeMapping[nodeID].timestamp = block.timestamp;\n            }\n        }\n        return totalClaim;\n    }\n\n\n    /** \n        @param _id : The identifier of the node that the owner wants to get rewards from.  \n        \n        @dev This is the main function to get reward of node given its NodeId, before transferring to the owner\n    */ \n    function getNodeReward(uint256 _id) public returns(uint256){\n\n        // Retrieve the Node structure given its id \n        MountainNode memory mountaintNode = getMountainNodeById(_id);\n\n        // Revert if the caller isn't the owner of the Node\n        require(_msgSender() == mountaintNode.owner, \"Must be owner of node to claim\");\n        // Revert if it's too soon to claim the rewards\n        require(rewardsClaimable(mountaintNode.timestamp), \"Node rewards are not claimable yet\");\n\n        // Calculate the rewards for the given node\n        uint256 amount = calculateRewards(mountaintNode.id);\n\n        // Update the timestamp, it's a way to reset the rewards\n        nodeMapping[mountaintNode.id].timestamp = block.timestamp;\n\n        // Return the amount of rewards to the main contract so that it can be sent to the owner of the node\n        return amount;\n    }\n\n\n    /** \n        @param _id : The identifier of the node.  \n        \n        @dev This function calculates reward every time it's called. Contrary to classical Node SC, \n             we believe that this way of doing is more efficient gas-wise. The reward is calculated based on the last\n             time it was claimed (or the first time the node was created), and on the daily reward.\n    */ \n    function calculateRewards(uint256 _id) public view returns (uint256) {\n\n        // Retrieve the Node structure given its id \n        MountainNode memory mountainNode = getMountainNodeById(_id);\n\n        uint256 daily_interest = dailyReward[mountainNode.nodeType];\n\n        // Add an extra boost for referrals\n        if (referrals[mountainNode.owner] > MIN_REFERRAL ) {\n            daily_interest+=referral_boost;\n        }\n\n        // The formula to calculate the rewards is easy, and similar to staking SCs. \n        // It corresponds to the node price * daily interest * days elapsed\n        return (( (nodePrice[mountainNode.nodeType] * daily_interest) / PER_MILLE)\n                                  * (block.timestamp - mountainNode.timestamp) / ONE_DAY);\n    }\n\n\n    /** \n        @param _id : The identifier of the node that the owner wants to to transfer  \n        @param _owner : The owner of the node with given id\n        @param _recipient : The new owner of the node with given id \n\n        @notice TODO : For now it is only doable by the owner of the contract\n\n        @dev This function loops over the nodes of the owner and if it finds the node with given id,\n             it removes it from the owner list and add it to the recipient's list of nodes\n    */ \n    function transferNode(uint256 _id, address _owner, address _recipient) public onlyOwner {\n\n        require(_owner != _recipient, \"Cannot transfer to self\");\n\n        uint256 len = accountNodes[_owner].length;\n        bool success = false;\n        for(uint256 i = 0; i < len; i++) {\n            if(accountNodes[_owner][i] == _id) {\n                accountNodes[_owner][i] = accountNodes[_owner][len-1];\n                accountNodes[_owner].pop();\n                accountNodes[_recipient].push(_id);\n                nodeMapping[_id].owner = _recipient;\n                success = true;\n                break;\n            }\n        }\n        require(success, \"Transfer failed\");\n    }    \n\n    /** \n        @param nodeTimestamp : The timestamp of the node (either the creation time or the last time the rewards were claimed)  \n        @return bool         : True if at least claimMinTime has passed between two claim\n\n        @dev This function ensures that the claimMinTime between two claims is respected\n    */ \n    function rewardsClaimable(uint256 nodeTimestamp) internal view returns(bool) {   \n        return (block.timestamp - nodeTimestamp) > claimMinTime;\n    }\n\n    /** \n        @param enableNodeCreation : Boolean to enable or disable the node creation  \n    */ \n    function setNodeCreation(bool enableNodeCreation) external onlyOwner { \n        nodeCreationEnabled = enableNodeCreation;\n    }\n\n\n    /** \n        @param _id : The identifier of the node  \n        \n        @dev This function is public so that it's not only called internally, but also as a query if needed.\n    */ \n    function getMountainNodeById(uint256 _id) public view returns (MountainNode memory){ \n        return nodeMapping[_id];\n    }\n\n    /** \n        @param node_type : The node type (Lava, Earth or Snow). Must be between 0 and 2 \n        @return  uint256 : The current node price for the given type  \n    */ \n    function getNodePrice(uint256 node_type) external view returns(uint256) { \n        require(node_type >= 0 && node_type <= 2, \"Node type is invalid\");\n        return nodePrice[node_type];\n    }\n\n    /** \n        @param Lava  : The amount of tokens (respecting the decimals) of the Lava node \n        @param Snow  : The amount of tokens (respecting the decimals) of the Snow node \n        @param Earth : The amount of tokens (respecting the decimals) of the Earth node \n\n    */ \n    function setNodePrice(uint256 Lava, uint256 Snow, uint256 Earth) external onlyOwner {\n        nodePrice[0] = Lava;\n        nodePrice[1] = Snow;\n        nodePrice[2] = Earth;\n    }\n\n    /** \n        @param Lava  : The daily reward (in percentages) for the Lava node \n        @param Snow  : The daily reward (in percentages) for the Snow node \n        @param Earth : The daily reward (in percentages) for the Earth node \n\n        @dev The percentages are set with 100% corresponding to 1_000 (Meaning 10% = 100)\n\n    */ \n    function setRewardPerNode(uint256 Lava, uint256 Snow, uint256 Earth) external onlyOwner {\n        dailyReward[0] = Lava;\n        dailyReward[1] = Snow;\n        dailyReward[2] = Earth;\n    }\n\n    /** \n        @param newTime  : The new min claim time that needs to be respected before claiming reward \n    */ \n    function setClaimTime(uint128 newTime) external onlyOwner {\n        claimMinTime = newTime;\n    }\n\n    /** \n        @param account  : The address of the account that supposedly has nodes\n        @return uint256 : The number of nodes the account has\n\n    */ \n    function getNumberOfNodes(address account) external view returns (uint256) {\n        return accountNodes[account].length;\n    }\n\n    /** \n        @param account  : The address of the account that supposedly has nodes\n        @return bool    : True if the account has at least one Node\n\n    */ \n    function isNodeOwner(address account) public view returns (bool) {\n        return accountNodes[account].length>0;\n    }\n\n\n}",
  "sourcePath": "/Users/pilu/Desktop/Nodes Avax Project/MountainNode/contracts/MountainRewardManager.sol",
  "compiler": {
    "name": "solc",
    "version": "0.8.12+commit.f00d7308.Emscripten.clang"
  },
  "schemaVersion": "3.4.6",
  "updatedAt": "2022-04-27T12:18:41.089Z",
  "devdoc": {
    "kind": "dev",
    "methods": {
      "calculateRewards(uint256)": {
        "details": "This function calculates reward every time it's called. Contrary to classical Node SC,  we believe that this way of doing is more efficient gas-wise. The reward is calculated based on the last time it was claimed (or the first time the node was created), and on the daily reward.",
        "params": {
          "_id": ": The identifier of the node.  "
        }
      },
      "createNode(uint256,uint256,address)": {
        "details": "This is the main function to create a node",
        "params": {
          "_amount": ": The amount corresponding to the price of a the node  ",
          "_nodeType": ": The node type (Lava, earth or snow). Should be a uint between 0 and 2s",
          "_referral": ": The referral address (address 0 if None)"
        }
      },
      "getAllReward()": {
        "details": "This is the main function to get all rewards before transferring to the owner"
      },
      "getMountainNodeById(uint256)": {
        "details": "This function is public so that it's not only called internally, but also as a query if needed.",
        "params": {
          "_id": ": The identifier of the node  "
        }
      },
      "getNodePrice(uint256)": {
        "params": {
          "node_type": ": The node type (Lava, Earth or Snow). Must be between 0 and 2 "
        },
        "returns": {
          "_0": "uint256 : The current node price for the given type  "
        }
      },
      "getNodeReward(uint256)": {
        "details": "This is the main function to get reward of node given its NodeId, before transferring to the owner",
        "params": {
          "_id": ": The identifier of the node that the owner wants to get rewards from.  "
        }
      },
      "getNumberOfNodes(address)": {
        "params": {
          "account": ": The address of the account that supposedly has nodes"
        },
        "returns": {
          "_0": "uint256 : The number of nodes the account has"
        }
      },
      "isNodeOwner(address)": {
        "params": {
          "account": ": The address of the account that supposedly has nodes"
        },
        "returns": {
          "_0": "bool    : True if the account has at least one Node"
        }
      },
      "owner()": {
        "details": "Returns the address of the current owner."
      },
      "renounceOwnership()": {
        "details": "Leaves the contract without owner. It will not be possible to call `onlyOwner` functions anymore. Can only be called by the current owner. NOTE: Renouncing ownership will leave the contract without an owner, thereby removing any functionality that is only available to the owner."
      },
      "setClaimTime(uint128)": {
        "params": {
          "newTime": ": The new min claim time that needs to be respected before claiming reward "
        }
      },
      "setNodeCreation(bool)": {
        "params": {
          "enableNodeCreation": ": Boolean to enable or disable the node creation  "
        }
      },
      "setNodePrice(uint256,uint256,uint256)": {
        "params": {
          "Earth": ": The amount of tokens (respecting the decimals) of the Earth node ",
          "Lava": ": The amount of tokens (respecting the decimals) of the Lava node ",
          "Snow": ": The amount of tokens (respecting the decimals) of the Snow node "
        }
      },
      "setRewardPerNode(uint256,uint256,uint256)": {
        "details": "The percentages are set with 100% corresponding to 1_000 (Meaning 10% = 100)",
        "params": {
          "Earth": ": The daily reward (in percentages) for the Earth node ",
          "Lava": ": The daily reward (in percentages) for the Lava node ",
          "Snow": ": The daily reward (in percentages) for the Snow node "
        }
      },
      "transferNode(uint256,address,address)": {
        "details": "This function loops over the nodes of the owner and if it finds the node with given id, it removes it from the owner list and add it to the recipient's list of nodes",
        "params": {
          "_id": ": The identifier of the node that the owner wants to to transfer  ",
          "_owner": ": The owner of the node with given id",
          "_recipient": ": The new owner of the node with given id "
        }
      },
      "transferOwnership(address)": {
        "details": "Transfers ownership of the contract to a new account (`newOwner`). Can only be called by the current owner."
      }
    },
    "version": 1
  },
  "userdoc": {
    "kind": "user",
    "methods": {
      "transferNode(uint256,address,address)": {
        "notice": "TODO : For now it is only doable by the owner of the contract"
      }
    },
    "version": 1
  }
}