{
  "contractName": "MountainRewardManager",
  "abi": [
    {
      "inputs": [],
      "stateMutability": "nonpayable",
      "type": "constructor"
    },
    {
      "anonymous": false,
      "inputs": [
        {
          "indexed": true,
          "internalType": "address",
          "name": "previousOwner",
          "type": "address"
        },
        {
          "indexed": true,
          "internalType": "address",
          "name": "newOwner",
          "type": "address"
        }
      ],
      "name": "OwnershipTransferred",
      "type": "event"
    },
    {
      "inputs": [
        {
          "internalType": "address",
          "name": "",
          "type": "address"
        },
        {
          "internalType": "uint256",
          "name": "",
          "type": "uint256"
        }
      ],
      "name": "accountNodes",
      "outputs": [
        {
          "internalType": "uint256",
          "name": "",
          "type": "uint256"
        }
      ],
      "stateMutability": "view",
      "type": "function"
    },
    {
      "inputs": [],
      "name": "claimMinTime",
      "outputs": [
        {
          "internalType": "uint128",
          "name": "",
          "type": "uint128"
        }
      ],
      "stateMutability": "view",
      "type": "function"
    },
    {
      "inputs": [],
      "name": "dailyBoost",
      "outputs": [
        {
          "internalType": "uint256",
          "name": "",
          "type": "uint256"
        }
      ],
      "stateMutability": "view",
      "type": "function"
    },
    {
      "inputs": [
        {
          "internalType": "uint256",
          "name": "",
          "type": "uint256"
        }
      ],
      "name": "dailyReward",
      "outputs": [
        {
          "internalType": "uint256",
          "name": "",
          "type": "uint256"
        }
      ],
      "stateMutability": "view",
      "type": "function"
    },
    {
      "inputs": [],
      "name": "nodeCreationEnabled",
      "outputs": [
        {
          "internalType": "bool",
          "name": "",
          "type": "bool"
        }
      ],
      "stateMutability": "view",
      "type": "function"
    },
    {
      "inputs": [
        {
          "internalType": "uint256",
          "name": "",
          "type": "uint256"
        }
      ],
      "name": "nodeMapping",
      "outputs": [
        {
          "internalType": "uint256",
          "name": "id",
          "type": "uint256"
        },
        {
          "internalType": "uint256",
          "name": "timestamp",
          "type": "uint256"
        },
        {
          "internalType": "uint256",
          "name": "nodeType",
          "type": "uint256"
        },
        {
          "internalType": "address",
          "name": "owner",
          "type": "address"
        }
      ],
      "stateMutability": "view",
      "type": "function"
    },
    {
      "inputs": [
        {
          "internalType": "uint256",
          "name": "",
          "type": "uint256"
        }
      ],
      "name": "nodePrice",
      "outputs": [
        {
          "internalType": "uint256",
          "name": "",
          "type": "uint256"
        }
      ],
      "stateMutability": "view",
      "type": "function"
    },
    {
      "inputs": [],
      "name": "nodeRewardEnabled",
      "outputs": [
        {
          "internalType": "bool",
          "name": "",
          "type": "bool"
        }
      ],
      "stateMutability": "view",
      "type": "function"
    },
    {
      "inputs": [],
      "name": "numberOfNodes",
      "outputs": [
        {
          "internalType": "uint256",
          "name": "",
          "type": "uint256"
        }
      ],
      "stateMutability": "view",
      "type": "function"
    },
    {
      "inputs": [],
      "name": "owner",
      "outputs": [
        {
          "internalType": "address",
          "name": "",
          "type": "address"
        }
      ],
      "stateMutability": "view",
      "type": "function"
    },
    {
      "inputs": [],
      "name": "renounceOwnership",
      "outputs": [],
      "stateMutability": "nonpayable",
      "type": "function"
    },
    {
      "inputs": [
        {
          "internalType": "address",
          "name": "newOwner",
          "type": "address"
        }
      ],
      "name": "transferOwnership",
      "outputs": [],
      "stateMutability": "nonpayable",
      "type": "function"
    },
    {
      "inputs": [
        {
          "internalType": "address",
          "name": "user",
          "type": "address"
        }
      ],
      "name": "getReferralCode",
      "outputs": [
        {
          "internalType": "bytes20",
          "name": "",
          "type": "bytes20"
        }
      ],
      "stateMutability": "view",
      "type": "function"
    },
    {
      "inputs": [
        {
          "internalType": "uint256",
          "name": "_id",
          "type": "uint256"
        }
      ],
      "name": "calculateRewards",
      "outputs": [
        {
          "internalType": "uint256",
          "name": "",
          "type": "uint256"
        }
      ],
      "stateMutability": "view",
      "type": "function"
    },
    {
      "inputs": [
        {
          "internalType": "bool",
          "name": "enableNodeCreation",
          "type": "bool"
        }
      ],
      "name": "setNodeCreation",
      "outputs": [],
      "stateMutability": "nonpayable",
      "type": "function"
    },
    {
      "inputs": [
        {
          "internalType": "uint256",
          "name": "node_type",
          "type": "uint256"
        }
      ],
      "name": "getNodePrice",
      "outputs": [
        {
          "internalType": "uint256",
          "name": "",
          "type": "uint256"
        }
      ],
      "stateMutability": "view",
      "type": "function"
    },
    {
      "inputs": [
        {
          "internalType": "uint256",
          "name": "Ice",
          "type": "uint256"
        },
        {
          "internalType": "uint256",
          "name": "Earth",
          "type": "uint256"
        },
        {
          "internalType": "uint256",
          "name": "Lava",
          "type": "uint256"
        }
      ],
      "name": "setNodePrice",
      "outputs": [],
      "stateMutability": "nonpayable",
      "type": "function"
    },
    {
      "inputs": [
        {
          "internalType": "uint256",
          "name": "Ice",
          "type": "uint256"
        },
        {
          "internalType": "uint256",
          "name": "Earth",
          "type": "uint256"
        },
        {
          "internalType": "uint256",
          "name": "Lava",
          "type": "uint256"
        }
      ],
      "name": "setRewardPerNode",
      "outputs": [],
      "stateMutability": "nonpayable",
      "type": "function"
    },
    {
      "inputs": [
        {
          "internalType": "uint128",
          "name": "newTime",
          "type": "uint128"
        }
      ],
      "name": "setClaimTime",
      "outputs": [],
      "stateMutability": "nonpayable",
      "type": "function"
    },
    {
      "inputs": [
        {
          "internalType": "address",
          "name": "account",
          "type": "address"
        }
      ],
      "name": "getNumberOfNodes",
      "outputs": [
        {
          "internalType": "uint256",
          "name": "",
          "type": "uint256"
        }
      ],
      "stateMutability": "view",
      "type": "function"
    },
    {
      "inputs": [
        {
          "internalType": "address",
          "name": "account",
          "type": "address"
        }
      ],
      "name": "isNodeOwner",
      "outputs": [
        {
          "internalType": "bool",
          "name": "",
          "type": "bool"
        }
      ],
      "stateMutability": "view",
      "type": "function"
    }
  ],
  "bytecode": "0x6000600155600280546001608060020a03191661a8c0179055610100604052678ac7230489e80000608090815267d02ab486cedc000060a0526801158e460913d0000060c05261232860e052610059906003906004610115565b506040805160808101825260088152600a6020820152600c918101919091526014606082015261008d90600790600461015e565b506014600b556010805461ffff19166101011790553480156100ae57600080fd5b5060006100c2640100000000610111810204565b60008054600160a060020a031916600160a060020a0383169081178255604051929350917f8be0079c531659141344cd1fd0a4f28419497f9722a3daafe3b4186f6b6457e0908290a3506101a6565b3390565b826004810192821561014e579160200282015b8281111561014e57825182906001604860020a0316905591602001919060010190610128565b5061015a929150610191565b5090565b826004810192821561014e579160200282015b8281111561014e578251829060ff16905591602001919060010190610171565b5b8082111561015a5760008155600101610192565b610b72806101b56000396000f3fe608060405234801561001057600080fd5b5060043610610154576000357c010000000000000000000000000000000000000000000000000000000090048063876a3aad116100d5578063d3ea435011610099578063d3ea435014610303578063d59fd90014610316578063e3d57b6a14610323578063ed45732714610336578063f2fde38b1461033f578063fd4781dc1461035257600080fd5b8063876a3aad146102545780638c7a273a146102675780638da5cb5b146102a457806392c40344146102bf578063cb0c9108146102f057600080fd5b8063615cf8b81161011c578063615cf8b814610201578063715018a614610214578063758463e21461021c5780637d58efb91461022f57806386b9606e1461024257600080fd5b806315f7aaab1461015957806317fb4c3b1461019957806349e588cf146101d057806354d74e1f146101e55780635efd86aa146101ee575b600080fd5b610184610167366004610903565b600160a060020a03166000908152600c6020526040902054151590565b60405190151581526020015b60405180910390f35b6101c26101a7366004610903565b600160a060020a03166000908152600c602052604090205490565b604051908152602001610190565b6101e36101de366004610925565b6103b9565b005b6101c260015481565b6101c26101fc366004610947565b610402565b6101c261020f366004610971565b610433565b6101e36104a4565b6101c261022a366004610971565b610528565b6101c261023d366004610971565b61053f565b60105461018490610100900460ff1681565b6101e361026236600461098a565b61054f565b600254610283906fffffffffffffffffffffffffffffffff1681565b6040516fffffffffffffffffffffffffffffffff9091168152602001610190565b600054604051600160a060020a039091168152602001610190565b6102d26102cd366004610903565b6105c4565b6040516bffffffffffffffffffffffff199091168152602001610190565b6101e36102fe3660046109b6565b610621565b6101c2610311366004610971565b610682565b6010546101849060ff1681565b6101e361033136600461098a565b610798565b6101c2600b5481565b6101e361034d366004610903565b6107d8565b610390610360366004610971565b600f60205260009081526040902080546001820154600283015460039093015491929091600160a060020a031684565b60408051948552602085019390935291830152600160a060020a03166060820152608001610190565b600054600160a060020a031633146103ef5760405160e560020a62461bcd0281526004016103e6906109e8565b60405180910390fd5b6010805460ff1916911515919091179055565b600c602052816000526040600020818154811061041e57600080fd5b90600052602060002001600091509150505481565b600060028211156104895760405160e560020a62461bcd02815260206004820152601460248201527f4e6f6465207479706520697320696e76616c696400000000000000000000000060448201526064016103e6565b6003826004811061049c5761049c610a1d565b015492915050565b600054600160a060020a031633146104d15760405160e560020a62461bcd0281526004016103e6906109e8565b60008054604051600160a060020a03909116907f8be0079c531659141344cd1fd0a4f28419497f9722a3daafe3b4186f6b6457e0908390a36000805473ffffffffffffffffffffffffffffffffffffffff19169055565b6003816004811061053857600080fd5b0154905081565b6007816004811061053857600080fd5b600054600160a060020a0316331461057c5760405160e560020a62461bcd0281526004016103e6906109e8565b61058e83670de0b6b3a7640000610a7b565b6003556105a382670de0b6b3a7640000610a7b565b6004556105b881670de0b6b3a7640000610a7b565b600360025b0155505050565b60008054600160a060020a031633146105f25760405160e560020a62461bcd0281526004016103e6906109e8565b50600160a060020a0381166000908152600d60205260409020546c01000000000000000000000000025b919050565b600054600160a060020a0316331461064e5760405160e560020a62461bcd0281526004016103e6906109e8565b600280546fffffffffffffffffffffffffffffffff19166fffffffffffffffffffffffffffffffff92909216919091179055565b6000818152600f60209081526040808320815160808101835281548152600182015493810193909352600281015491830182905260030154600160a060020a031660608301528290600790600481106106dd576106dd610a1d565b015490508160400151600314801561072257506106fe620151806002610a9a565b6fffffffffffffffffffffffffffffffff168260200151426107209190610ad2565b105b1561073757600b546107349082610ae9565b90505b6020820151620151809061074b9042610ad2565b6103e883600386604001516004811061076657610766610a1d565b01546107729190610a7b565b61077c9190610b01565b6107869190610a7b565b6107909190610b01565b949350505050565b600054600160a060020a031633146107c55760405160e560020a62461bcd0281526004016103e6906109e8565b60078381556008839055819060026105bd565b600054600160a060020a031633146108055760405160e560020a62461bcd0281526004016103e6906109e8565b600160a060020a0381166108845760405160e560020a62461bcd02815260206004820152602660248201527f4f776e61626c653a206e6577206f776e657220697320746865207a65726f206160448201527f646472657373000000000000000000000000000000000000000000000000000060648201526084016103e6565b60008054604051600160a060020a03808516939216917f8be0079c531659141344cd1fd0a4f28419497f9722a3daafe3b4186f6b6457e091a36000805473ffffffffffffffffffffffffffffffffffffffff1916600160a060020a0392909216919091179055565b8035600160a060020a038116811461061c57600080fd5b60006020828403121561091557600080fd5b61091e826108ec565b9392505050565b60006020828403121561093757600080fd5b8135801515811461091e57600080fd5b6000806040838503121561095a57600080fd5b610963836108ec565b946020939093013593505050565b60006020828403121561098357600080fd5b5035919050565b60008060006060848603121561099f57600080fd5b505081359360208301359350604090920135919050565b6000602082840312156109c857600080fd5b81356fffffffffffffffffffffffffffffffff8116811461091e57600080fd5b6020808252818101527f4f776e61626c653a2063616c6c6572206973206e6f7420746865206f776e6572604082015260600190565b7f4e487b7100000000000000000000000000000000000000000000000000000000600052603260045260246000fd5b7f4e487b7100000000000000000000000000000000000000000000000000000000600052601160045260246000fd5b6000816000190483118215151615610a9557610a95610a4c565b500290565b60006fffffffffffffffffffffffffffffffff80831681851681830481118215151615610ac957610ac9610a4c565b02949350505050565b600082821015610ae457610ae4610a4c565b500390565b60008219821115610afc57610afc610a4c565b500190565b600082610b37577f4e487b7100000000000000000000000000000000000000000000000000000000600052601260045260246000fd5b50049056fea26469706673582212201004bae3030ffb1e216498ec2f39bbaa6ab8b35886c6087ee511e8e119f1adf264736f6c634300080c0033",
  "immutableReferences": {},
  "source": "\n// SPDX-License-Identifier: MIT\n\npragma solidity ^0.8.11;\n\nimport \"./Ownable.sol\";\n\n\n\n\ncontract MountainRewardManager is Ownable {\n\n    // Total number of nodes\n    uint256 public numberOfNodes = 0;\n\n\n    // The minimum claim time between two claims\n    uint128 public claimMinTime = 12*60*60; //12 hours in seconds\n    uint128 constant ONE_DAY = 24*60*60; // 24 hours in seconds\n\n    // The main structure that holds information of Nodes.\n    struct MountainNode {\n        uint256 id;        // The unique identifier of the node\n        uint256 timestamp; // The creation time or the last claim time\n        uint256 nodeType;  // 0: Ice, 1: Earth, 2: Lava, 3: Exclusive\n        address owner;     // The address of the node owner \n    }\n\n    // The prices of the Ice, the Earth, the Lava and the exclusive nodes\n    uint256[4] public nodePrice = [10 * 10**18, 15* 10**18, 20* 10**18, 50*10*18];\n\n    // The daily rewards of the Lava, the earth and the Snow nodes (0.8%, 1%, 1.2% and 2%) \n    uint256[4] public dailyReward = [8, 10, 12, 20];\n\n    // Daily boost for the first two days with an exclusive node\n    uint256 public dailyBoost = 20;\n\n    // Instead of percentages we use per mille, so that we can have one decimal percentages\n    uint256 constant PER_MILLE = 1000;\n\n    // Mapping that stores the node identifiers for given addresses \n    mapping(address => uint256[]) public accountNodes;\n   \n\n    // Mapping that stores the referral id for given addresses \n    mapping(address => bytes20) private referrals;\n\n    // Mapping that allows to retrive the address of a user from the referral id\n    mapping(bytes20 => address) internal getAddressFromReferral;    // Note : make it public for tests\n\n    // Mapping that stores the Node structure for given node identifiers\n    mapping(uint256 => MountainNode) public nodeMapping;\n\n    // Is the creation of nodes enabled \n    bool public nodeCreationEnabled = true; // Note : True for tests\n\n    // Enables reward claims\n    bool public nodeRewardEnabled = true;   // Note : True for tests \n\n\n    constructor() {}\n   \n\n\n\n    /** \n        @param _amount : The amount corresponding to the price of a the node  \n        @param _nodeType : The node type (Ice, Earth or Lava). Should be a uint between 0 and 2s\n        \n        @dev This is the main function to create a node\n    */ \n    function createNode(uint256 _amount, uint256 _nodeType) internal { \n\n        address sender = _msgSender();\n\n\n        // Revert if the node creation hasn't been enabled yet\n        require(nodeCreationEnabled, \"Node creation is disabled\");\n        // Revert if the node type isn't in the list (between 0 and 3)\n        require(_nodeType >= 0 && _nodeType <= 3, \"Node type is invalid\");\n        // Revert if the amount sent doesn't match the price of the node\n        require(_amount == nodePrice[_nodeType], \"Node amount not correct\");\n        \n\n        // The nodeID is the identifier of the node, it is incremented at each node creation. It\n        // is therefore unique to each node\n        uint256 nodeID = numberOfNodes + 1;\n\n        // Declare a MountainNode structure that holds the id, the creation time, the type and the address of the owner\n        MountainNode memory nodeToCreate;\n\n        // Create the node by assigining the variables to the field of the struct\n        nodeToCreate = MountainNode({\n            id: nodeID,\n            timestamp: block.timestamp,\n            nodeType: _nodeType,\n            owner: sender\n        });\n\n        // The number of nodes' counter is incremented to keep track\n        numberOfNodes++;\n\n        // Store the node created in an array that maps nodeIds to nodes\n        nodeMapping[nodeID] = nodeToCreate;\n\n        // Store the nodeID in an array that maps addresses to IDs\n        accountNodes[sender].push(nodeID);\n\n        // Create a referral code if this is the first time the user create a node\n        if (referrals[sender] == 0) {\n            bytes20 referral_code = createReferralCode(sender);\n            referrals[sender] = referral_code;\n            getAddressFromReferral[referral_code] = sender;\n\n        }\n\n    }\n\n\n    /** \n        @param user : The address of the user\n        @return  bytes20 : The referral code for the address \n    */ \n    function getReferralCode(address user) external view onlyOwner returns(bytes20) { \n        return referrals[user];\n    }\n\n\n\n\n    /**    \n        @dev This is the main function to get all rewards before transferring to the owner\n    */ \n    function getAllReward() internal returns(uint256) {\n\n        // Revert if the node reward claim hasn't been enabled yet\n        require(nodeRewardEnabled, \"Node reward claim hasn't been enabled yet\");        \n\n        address sender = _msgSender();\n        \n        // Retrieve the number of nodes of the caller\n        uint256 numOwnedNodes = accountNodes[sender].length;\n        require(numOwnedNodes > 0, \"Must own nodes to claim rewards\");\n        uint256 totalClaim = 0;\n        for(uint256 i = 0; i < numOwnedNodes; i++) {\n            if(rewardsClaimable(nodeMapping[accountNodes[sender][i]].timestamp)) {\n                uint256 nodeID = nodeMapping[accountNodes[sender][i]].id;\n                totalClaim += calculateRewards(nodeID);\n                nodeMapping[nodeID].timestamp = block.timestamp;\n            }\n        }\n        return totalClaim;\n    }\n\n\n    /** \n        @param _id : The identifier of the node that the owner wants to get rewards from.  \n        \n        @dev This is the main function to get reward of node given its NodeId, before transferring to the owner\n    */ \n    function getNodeReward(uint256 _id) internal returns(uint256){\n\n        // Revert if the node reward claim hasn't been enabled yet\n        require(nodeRewardEnabled, \"Node reward claim hasn't been enabled yet\");          \n\n        // Retrieve the Node structure given its id \n        MountainNode memory mountaintNode = nodeMapping[_id];\n\n        // Revert if the caller isn't the owner of the Node\n        require(_msgSender() == mountaintNode.owner, \"Must be owner of node to claim\");\n        // Revert if it's too soon to claim the rewards\n        require(rewardsClaimable(mountaintNode.timestamp), \"Node rewards are not claimable yet\");\n\n        // Calculate the rewards for the given node\n        uint256 amount = calculateRewards(mountaintNode.id);\n\n        // Update the timestamp, it's a way to reset the rewards\n        nodeMapping[mountaintNode.id].timestamp = block.timestamp;\n\n        // Return the amount of rewards to the main contract so that it can be sent to the owner of the node\n        return amount;\n    }\n\n\n    /** \n        @param _id : The identifier of the node.  \n        \n        @dev This function calculates reward every time it's called. Contrary to classical Node SC, \n             we believe that this way of doing is more efficient gas-wise. The reward is calculated based on the last\n             time it was claimed (or the first time the node was created), and on the daily reward.\n    */ \n    function calculateRewards(uint256 _id) public view returns (uint256) {\n\n        // Retrieve the Node structure given its id \n        MountainNode memory mountainNode = nodeMapping[_id];\n\n        uint256 dailyInterest = dailyReward[mountainNode.nodeType];\n        // Add an extra boost for the first two days for the exclusive node\n        if (mountainNode.nodeType == 3 && \n            (block.timestamp - mountainNode.timestamp) < 2*ONE_DAY ) \n        { \n            dailyInterest+=dailyBoost;\n        }\n\n        // The formula to calculate the rewards is simple, and similar to staking SCs. \n        // It corresponds to the node price * daily interest * days elapsed\n        return (( (nodePrice[mountainNode.nodeType] * dailyInterest) / PER_MILLE)\n                                  * (block.timestamp - mountainNode.timestamp) / ONE_DAY);\n    }\n\n\n    /**    \n        @param sender : The adddress of the sender\n        @return sender_timestamp_hash : The referral code (the hash of the sender address and the timestamp)\n\n        @dev This function uses the address of the sender and the current timestamp to create a referral code\n    */ \n    function createReferralCode(address sender) internal view returns (bytes20 sender_timestamp_hash)\n    {\n        return ripemd160(abi.encodePacked(sender, block.timestamp));\n    }\n\n    /** \n        @param nodeTimestamp : The timestamp of the node (either the creation time or the last time the rewards were claimed)  \n        @return bool         : True if at least claimMinTime has passed between two claim\n\n        @dev This function ensures that the claimMinTime between two claims is respected\n    */ \n    function rewardsClaimable(uint256 nodeTimestamp) internal view returns(bool) {   \n        return (block.timestamp - nodeTimestamp) > claimMinTime;\n    }\n\n    /** \n        @param enableNodeCreation : Boolean to enable or disable the node creation  \n    */ \n    function setNodeCreation(bool enableNodeCreation) external onlyOwner { \n        nodeCreationEnabled = enableNodeCreation;\n    }\n\n\n\n    /** \n        @param node_type : The node type (Lava, Earth or Snow). Must be between 0 and 2 \n        @return  uint256 : The current node price for the given type  \n    */ \n    function getNodePrice(uint256 node_type) external view returns(uint256) { \n        require(node_type >= 0 && node_type <= 2, \"Node type is invalid\");\n        return nodePrice[node_type];\n    }\n\n    /** \n        @param Ice  : The amount of tokens (without the decimals) of the Ice node \n        @param Earth  : The amount of tokens (without the decimals) of the Earth node \n        @param Lava : The amount of tokens (without the decimals) of the Lava node \n\n    */ \n    function setNodePrice(uint256 Ice, uint256 Earth, uint256 Lava) external onlyOwner {\n        nodePrice[0] = Ice * 10**18;\n        nodePrice[1] = Earth * 10**18;\n        nodePrice[2] = Lava * 10**18;\n    }\n\n    /** \n        @param Ice  : The daily reward (in percentages) for the Ice node \n        @param Earth  : The daily reward (in percentages) for the Earth node \n        @param Lava : The daily reward (in percentages) for the Lava node \n\n        @dev The percentages are set with 100% corresponding to 1_000 (Meaning 10% = 100)\n\n    */ \n    function setRewardPerNode(uint256 Ice, uint256 Earth, uint256 Lava) external onlyOwner {\n        dailyReward[0] = Ice;\n        dailyReward[1] = Earth;\n        dailyReward[2] = Lava;\n    }\n\n    /** \n        @param newTime  : The new min claim time that needs to be respected before claiming reward \n    */ \n    function setClaimTime(uint128 newTime) external onlyOwner {\n        claimMinTime = newTime;\n    }\n\n    /** \n        @param account  : The address of the account that supposedly has nodes\n        @return uint256 : The number of nodes the account has\n\n    */ \n    function getNumberOfNodes(address account) external view returns (uint256) {\n        return accountNodes[account].length;\n    }\n\n    /** \n        @param account  : The address of the account that supposedly has nodes\n        @return bool    : True if the account has at least one Node\n\n    */ \n    function isNodeOwner(address account) public view returns (bool) {\n        return accountNodes[account].length>0;\n    }\n\n\n}\n\n\n\n\n    // The transfer of nodes is not possible for now, waiting for a guildeline from the team to see if\n    // we include it or not\n\n    // /** \n    //     @param _id : The identifier of the node that the owner wants to to transfer  \n    //     @param _owner : The owner of the node with given id\n    //     @param _recipient : The new owner of the node with given id \n\n    //     @notice TODO : For now it is only doable by the owner of the contract\n\n    //     @dev This function loops over the nodes of the owner and if it finds the node with given id,\n    //          it removes it from the owner list and add it to the recipient's list of nodes\n    // */ \n    // function transferNode(uint256 _id, address _owner, address _recipient) public onlyOwner {\n\n    //     require(_owner != _recipient, \"Cannot transfer to self\");\n\n    //     uint256 len = accountNodes[_owner].length;\n    //     bool success = false;\n    //     for(uint256 i = 0; i < len; i++) {\n    //         if(accountNodes[_owner][i] == _id) {\n    //             accountNodes[_owner][i] = accountNodes[_owner][len-1];\n    //             accountNodes[_owner].pop();\n    //             accountNodes[_recipient].push(_id);\n    //             nodeMapping[_id].owner = _recipient;\n    //             success = true;\n    //             break;\n    //         }\n    //     }\n    //     require(success, \"Transfer failed\");\n    // } ",
  "sourcePath": "/Users/pilu/Desktop/Smart-contract-MTN/contracts/MountainRewardManager.sol",
  "compiler": {
    "name": "solc",
    "version": "0.8.12+commit.f00d7308.Emscripten.clang"
  },
  "schemaVersion": "3.4.6",
  "updatedAt": "2022-05-16T13:33:37.009Z",
  "devdoc": {
    "kind": "dev",
    "methods": {
      "calculateRewards(uint256)": {
        "details": "This function calculates reward every time it's called. Contrary to classical Node SC,  we believe that this way of doing is more efficient gas-wise. The reward is calculated based on the last time it was claimed (or the first time the node was created), and on the daily reward.",
        "params": {
          "_id": ": The identifier of the node.  "
        }
      },
      "getNodePrice(uint256)": {
        "params": {
          "node_type": ": The node type (Lava, Earth or Snow). Must be between 0 and 2 "
        },
        "returns": {
          "_0": "uint256 : The current node price for the given type  "
        }
      },
      "getNumberOfNodes(address)": {
        "params": {
          "account": ": The address of the account that supposedly has nodes"
        },
        "returns": {
          "_0": "uint256 : The number of nodes the account has"
        }
      },
      "getReferralCode(address)": {
        "params": {
          "user": ": The address of the user"
        },
        "returns": {
          "_0": "bytes20 : The referral code for the address "
        }
      },
      "isNodeOwner(address)": {
        "params": {
          "account": ": The address of the account that supposedly has nodes"
        },
        "returns": {
          "_0": "bool    : True if the account has at least one Node"
        }
      },
      "owner()": {
        "details": "Returns the address of the current owner."
      },
      "renounceOwnership()": {
        "details": "Leaves the contract without owner. It will not be possible to call `onlyOwner` functions anymore. Can only be called by the current owner. NOTE: Renouncing ownership will leave the contract without an owner, thereby removing any functionality that is only available to the owner."
      },
      "setClaimTime(uint128)": {
        "params": {
          "newTime": ": The new min claim time that needs to be respected before claiming reward "
        }
      },
      "setNodeCreation(bool)": {
        "params": {
          "enableNodeCreation": ": Boolean to enable or disable the node creation  "
        }
      },
      "setNodePrice(uint256,uint256,uint256)": {
        "params": {
          "Earth": ": The amount of tokens (without the decimals) of the Earth node ",
          "Ice": ": The amount of tokens (without the decimals) of the Ice node ",
          "Lava": ": The amount of tokens (without the decimals) of the Lava node "
        }
      },
      "setRewardPerNode(uint256,uint256,uint256)": {
        "details": "The percentages are set with 100% corresponding to 1_000 (Meaning 10% = 100)",
        "params": {
          "Earth": ": The daily reward (in percentages) for the Earth node ",
          "Ice": ": The daily reward (in percentages) for the Ice node ",
          "Lava": ": The daily reward (in percentages) for the Lava node "
        }
      },
      "transferOwnership(address)": {
        "details": "Transfers ownership of the contract to a new account (`newOwner`). Can only be called by the current owner."
      }
    },
    "version": 1
  },
  "userdoc": {
    "kind": "user",
    "methods": {},
    "version": 1
  }
}