{
  "contractName": "Mountain",
  "abi": [
    {
      "inputs": [
        {
          "internalType": "address[]",
          "name": "addresses",
          "type": "address[]"
        }
      ],
      "stateMutability": "nonpayable",
      "type": "constructor"
    },
    {
      "anonymous": false,
      "inputs": [
        {
          "indexed": true,
          "internalType": "address",
          "name": "owner",
          "type": "address"
        },
        {
          "indexed": true,
          "internalType": "address",
          "name": "spender",
          "type": "address"
        },
        {
          "indexed": false,
          "internalType": "uint256",
          "name": "value",
          "type": "uint256"
        }
      ],
      "name": "Approval",
      "type": "event"
    },
    {
      "anonymous": false,
      "inputs": [
        {
          "indexed": true,
          "internalType": "address",
          "name": "previousOwner",
          "type": "address"
        },
        {
          "indexed": true,
          "internalType": "address",
          "name": "newOwner",
          "type": "address"
        }
      ],
      "name": "OwnershipTransferred",
      "type": "event"
    },
    {
      "anonymous": false,
      "inputs": [
        {
          "indexed": false,
          "internalType": "uint256",
          "name": "otherHalf",
          "type": "uint256"
        },
        {
          "indexed": false,
          "internalType": "uint256",
          "name": "newBalance",
          "type": "uint256"
        }
      ],
      "name": "SwapAndLiquify",
      "type": "event"
    },
    {
      "anonymous": false,
      "inputs": [
        {
          "indexed": true,
          "internalType": "address",
          "name": "from",
          "type": "address"
        },
        {
          "indexed": true,
          "internalType": "address",
          "name": "to",
          "type": "address"
        },
        {
          "indexed": false,
          "internalType": "uint256",
          "name": "value",
          "type": "uint256"
        }
      ],
      "name": "Transfer",
      "type": "event"
    },
    {
      "inputs": [
        {
          "internalType": "address",
          "name": "",
          "type": "address"
        }
      ],
      "name": "_isBlacklisted",
      "outputs": [
        {
          "internalType": "bool",
          "name": "",
          "type": "bool"
        }
      ],
      "stateMutability": "view",
      "type": "function"
    },
    {
      "inputs": [
        {
          "internalType": "address",
          "name": "",
          "type": "address"
        }
      ],
      "name": "_isWhitelisted",
      "outputs": [
        {
          "internalType": "bool",
          "name": "",
          "type": "bool"
        }
      ],
      "stateMutability": "view",
      "type": "function"
    },
    {
      "inputs": [
        {
          "internalType": "address",
          "name": "",
          "type": "address"
        },
        {
          "internalType": "uint256",
          "name": "",
          "type": "uint256"
        }
      ],
      "name": "accountNodes",
      "outputs": [
        {
          "internalType": "uint256",
          "name": "",
          "type": "uint256"
        }
      ],
      "stateMutability": "view",
      "type": "function"
    },
    {
      "inputs": [
        {
          "internalType": "address",
          "name": "owner",
          "type": "address"
        },
        {
          "internalType": "address",
          "name": "spender",
          "type": "address"
        }
      ],
      "name": "allowance",
      "outputs": [
        {
          "internalType": "uint256",
          "name": "",
          "type": "uint256"
        }
      ],
      "stateMutability": "view",
      "type": "function"
    },
    {
      "inputs": [
        {
          "internalType": "address",
          "name": "spender",
          "type": "address"
        },
        {
          "internalType": "uint256",
          "name": "amount",
          "type": "uint256"
        }
      ],
      "name": "approve",
      "outputs": [
        {
          "internalType": "bool",
          "name": "",
          "type": "bool"
        }
      ],
      "stateMutability": "nonpayable",
      "type": "function"
    },
    {
      "inputs": [
        {
          "internalType": "address",
          "name": "account",
          "type": "address"
        }
      ],
      "name": "balanceOf",
      "outputs": [
        {
          "internalType": "uint256",
          "name": "",
          "type": "uint256"
        }
      ],
      "stateMutability": "view",
      "type": "function"
    },
    {
      "inputs": [
        {
          "internalType": "uint256",
          "name": "_id",
          "type": "uint256"
        }
      ],
      "name": "calculateRewards",
      "outputs": [
        {
          "internalType": "uint256",
          "name": "",
          "type": "uint256"
        }
      ],
      "stateMutability": "view",
      "type": "function"
    },
    {
      "inputs": [],
      "name": "claimFee",
      "outputs": [
        {
          "internalType": "uint32",
          "name": "",
          "type": "uint32"
        }
      ],
      "stateMutability": "view",
      "type": "function"
    },
    {
      "inputs": [],
      "name": "claimMinTime",
      "outputs": [
        {
          "internalType": "uint128",
          "name": "",
          "type": "uint128"
        }
      ],
      "stateMutability": "view",
      "type": "function"
    },
    {
      "inputs": [
        {
          "internalType": "uint256",
          "name": "",
          "type": "uint256"
        }
      ],
      "name": "dailyReward",
      "outputs": [
        {
          "internalType": "uint256",
          "name": "",
          "type": "uint256"
        }
      ],
      "stateMutability": "view",
      "type": "function"
    },
    {
      "inputs": [],
      "name": "decimals",
      "outputs": [
        {
          "internalType": "uint8",
          "name": "",
          "type": "uint8"
        }
      ],
      "stateMutability": "view",
      "type": "function"
    },
    {
      "inputs": [
        {
          "internalType": "address",
          "name": "spender",
          "type": "address"
        },
        {
          "internalType": "uint256",
          "name": "subtractedValue",
          "type": "uint256"
        }
      ],
      "name": "decreaseAllowance",
      "outputs": [
        {
          "internalType": "bool",
          "name": "",
          "type": "bool"
        }
      ],
      "stateMutability": "nonpayable",
      "type": "function"
    },
    {
      "inputs": [],
      "name": "endSellFeeTimestamp",
      "outputs": [
        {
          "internalType": "uint256",
          "name": "",
          "type": "uint256"
        }
      ],
      "stateMutability": "view",
      "type": "function"
    },
    {
      "inputs": [
        {
          "internalType": "bytes20",
          "name": "",
          "type": "bytes20"
        }
      ],
      "name": "getAddressFromReferral",
      "outputs": [
        {
          "internalType": "address",
          "name": "",
          "type": "address"
        }
      ],
      "stateMutability": "view",
      "type": "function"
    },
    {
      "inputs": [
        {
          "internalType": "uint256",
          "name": "node_type",
          "type": "uint256"
        }
      ],
      "name": "getNodePrice",
      "outputs": [
        {
          "internalType": "uint256",
          "name": "",
          "type": "uint256"
        }
      ],
      "stateMutability": "view",
      "type": "function"
    },
    {
      "inputs": [
        {
          "internalType": "address",
          "name": "account",
          "type": "address"
        }
      ],
      "name": "getNumberOfNodes",
      "outputs": [
        {
          "internalType": "uint256",
          "name": "",
          "type": "uint256"
        }
      ],
      "stateMutability": "view",
      "type": "function"
    },
    {
      "inputs": [
        {
          "internalType": "address",
          "name": "user",
          "type": "address"
        }
      ],
      "name": "getReferralCode",
      "outputs": [
        {
          "internalType": "bytes20",
          "name": "",
          "type": "bytes20"
        }
      ],
      "stateMutability": "view",
      "type": "function"
    },
    {
      "inputs": [
        {
          "internalType": "address",
          "name": "spender",
          "type": "address"
        },
        {
          "internalType": "uint256",
          "name": "addedValue",
          "type": "uint256"
        }
      ],
      "name": "increaseAllowance",
      "outputs": [
        {
          "internalType": "bool",
          "name": "",
          "type": "bool"
        }
      ],
      "stateMutability": "nonpayable",
      "type": "function"
    },
    {
      "inputs": [],
      "name": "initialAdditionnalSellFee",
      "outputs": [
        {
          "internalType": "uint256",
          "name": "",
          "type": "uint256"
        }
      ],
      "stateMutability": "view",
      "type": "function"
    },
    {
      "inputs": [
        {
          "internalType": "address",
          "name": "account",
          "type": "address"
        }
      ],
      "name": "isNodeOwner",
      "outputs": [
        {
          "internalType": "bool",
          "name": "",
          "type": "bool"
        }
      ],
      "stateMutability": "view",
      "type": "function"
    },
    {
      "inputs": [],
      "name": "launchSellFeeTimestamp",
      "outputs": [
        {
          "internalType": "uint256",
          "name": "",
          "type": "uint256"
        }
      ],
      "stateMutability": "view",
      "type": "function"
    },
    {
      "inputs": [],
      "name": "liquidityFee",
      "outputs": [
        {
          "internalType": "uint32",
          "name": "",
          "type": "uint32"
        }
      ],
      "stateMutability": "view",
      "type": "function"
    },
    {
      "inputs": [],
      "name": "lpPool",
      "outputs": [
        {
          "internalType": "address",
          "name": "",
          "type": "address"
        }
      ],
      "stateMutability": "view",
      "type": "function"
    },
    {
      "inputs": [],
      "name": "name",
      "outputs": [
        {
          "internalType": "string",
          "name": "",
          "type": "string"
        }
      ],
      "stateMutability": "view",
      "type": "function"
    },
    {
      "inputs": [],
      "name": "nodeCreationEnabled",
      "outputs": [
        {
          "internalType": "bool",
          "name": "",
          "type": "bool"
        }
      ],
      "stateMutability": "view",
      "type": "function"
    },
    {
      "inputs": [
        {
          "internalType": "uint256",
          "name": "",
          "type": "uint256"
        }
      ],
      "name": "nodeMapping",
      "outputs": [
        {
          "internalType": "uint256",
          "name": "id",
          "type": "uint256"
        },
        {
          "internalType": "uint256",
          "name": "timestamp",
          "type": "uint256"
        },
        {
          "internalType": "uint256",
          "name": "nodeType",
          "type": "uint256"
        },
        {
          "internalType": "address",
          "name": "owner",
          "type": "address"
        }
      ],
      "stateMutability": "view",
      "type": "function"
    },
    {
      "inputs": [
        {
          "internalType": "uint256",
          "name": "",
          "type": "uint256"
        }
      ],
      "name": "nodePrice",
      "outputs": [
        {
          "internalType": "uint256",
          "name": "",
          "type": "uint256"
        }
      ],
      "stateMutability": "view",
      "type": "function"
    },
    {
      "inputs": [],
      "name": "numberOfNodes",
      "outputs": [
        {
          "internalType": "uint256",
          "name": "",
          "type": "uint256"
        }
      ],
      "stateMutability": "view",
      "type": "function"
    },
    {
      "inputs": [],
      "name": "owner",
      "outputs": [
        {
          "internalType": "address",
          "name": "",
          "type": "address"
        }
      ],
      "stateMutability": "view",
      "type": "function"
    },
    {
      "inputs": [],
      "name": "referral_bonus",
      "outputs": [
        {
          "internalType": "uint256",
          "name": "",
          "type": "uint256"
        }
      ],
      "stateMutability": "view",
      "type": "function"
    },
    {
      "inputs": [],
      "name": "renounceOwnership",
      "outputs": [],
      "stateMutability": "nonpayable",
      "type": "function"
    },
    {
      "inputs": [],
      "name": "rewardFee",
      "outputs": [
        {
          "internalType": "uint32",
          "name": "",
          "type": "uint32"
        }
      ],
      "stateMutability": "view",
      "type": "function"
    },
    {
      "inputs": [],
      "name": "rewardPool",
      "outputs": [
        {
          "internalType": "address",
          "name": "",
          "type": "address"
        }
      ],
      "stateMutability": "view",
      "type": "function"
    },
    {
      "inputs": [],
      "name": "rewardSwapRatio",
      "outputs": [
        {
          "internalType": "uint32",
          "name": "",
          "type": "uint32"
        }
      ],
      "stateMutability": "view",
      "type": "function"
    },
    {
      "inputs": [],
      "name": "sellFee",
      "outputs": [
        {
          "internalType": "uint32",
          "name": "",
          "type": "uint32"
        }
      ],
      "stateMutability": "view",
      "type": "function"
    },
    {
      "inputs": [
        {
          "internalType": "uint128",
          "name": "newTime",
          "type": "uint128"
        }
      ],
      "name": "setClaimTime",
      "outputs": [],
      "stateMutability": "nonpayable",
      "type": "function"
    },
    {
      "inputs": [
        {
          "internalType": "bool",
          "name": "enableNodeCreation",
          "type": "bool"
        }
      ],
      "name": "setNodeCreation",
      "outputs": [],
      "stateMutability": "nonpayable",
      "type": "function"
    },
    {
      "inputs": [
        {
          "internalType": "uint256",
          "name": "Ice",
          "type": "uint256"
        },
        {
          "internalType": "uint256",
          "name": "Earth",
          "type": "uint256"
        },
        {
          "internalType": "uint256",
          "name": "Lava",
          "type": "uint256"
        }
      ],
      "name": "setNodePrice",
      "outputs": [],
      "stateMutability": "nonpayable",
      "type": "function"
    },
    {
      "inputs": [
        {
          "internalType": "uint256",
          "name": "Ice",
          "type": "uint256"
        },
        {
          "internalType": "uint256",
          "name": "Earth",
          "type": "uint256"
        },
        {
          "internalType": "uint256",
          "name": "Lava",
          "type": "uint256"
        }
      ],
      "name": "setRewardPerNode",
      "outputs": [],
      "stateMutability": "nonpayable",
      "type": "function"
    },
    {
      "inputs": [],
      "name": "swapTokensAmount",
      "outputs": [
        {
          "internalType": "uint256",
          "name": "",
          "type": "uint256"
        }
      ],
      "stateMutability": "view",
      "type": "function"
    },
    {
      "inputs": [],
      "name": "swapping",
      "outputs": [
        {
          "internalType": "bool",
          "name": "",
          "type": "bool"
        }
      ],
      "stateMutability": "view",
      "type": "function"
    },
    {
      "inputs": [],
      "name": "symbol",
      "outputs": [
        {
          "internalType": "string",
          "name": "",
          "type": "string"
        }
      ],
      "stateMutability": "view",
      "type": "function"
    },
    {
      "inputs": [],
      "name": "teamFee",
      "outputs": [
        {
          "internalType": "uint32",
          "name": "",
          "type": "uint32"
        }
      ],
      "stateMutability": "view",
      "type": "function"
    },
    {
      "inputs": [],
      "name": "teamPool",
      "outputs": [
        {
          "internalType": "address",
          "name": "",
          "type": "address"
        }
      ],
      "stateMutability": "view",
      "type": "function"
    },
    {
      "inputs": [],
      "name": "totalCreationFees",
      "outputs": [
        {
          "internalType": "uint32",
          "name": "",
          "type": "uint32"
        }
      ],
      "stateMutability": "view",
      "type": "function"
    },
    {
      "inputs": [],
      "name": "totalSupply",
      "outputs": [
        {
          "internalType": "uint256",
          "name": "",
          "type": "uint256"
        }
      ],
      "stateMutability": "view",
      "type": "function"
    },
    {
      "inputs": [],
      "name": "traderJoePair",
      "outputs": [
        {
          "internalType": "address",
          "name": "",
          "type": "address"
        }
      ],
      "stateMutability": "view",
      "type": "function"
    },
    {
      "inputs": [],
      "name": "transferFee",
      "outputs": [
        {
          "internalType": "uint32",
          "name": "",
          "type": "uint32"
        }
      ],
      "stateMutability": "view",
      "type": "function"
    },
    {
      "inputs": [
        {
          "internalType": "address",
          "name": "newOwner",
          "type": "address"
        }
      ],
      "name": "transferOwnership",
      "outputs": [],
      "stateMutability": "nonpayable",
      "type": "function"
    },
    {
      "inputs": [],
      "name": "treasuryFee",
      "outputs": [
        {
          "internalType": "uint32",
          "name": "",
          "type": "uint32"
        }
      ],
      "stateMutability": "view",
      "type": "function"
    },
    {
      "inputs": [],
      "name": "treasuryPool",
      "outputs": [
        {
          "internalType": "address",
          "name": "",
          "type": "address"
        }
      ],
      "stateMutability": "view",
      "type": "function"
    },
    {
      "stateMutability": "payable",
      "type": "receive"
    },
    {
      "inputs": [
        {
          "internalType": "address",
          "name": "account",
          "type": "address"
        },
        {
          "internalType": "bool",
          "name": "value",
          "type": "bool"
        }
      ],
      "name": "blacklistMalicious",
      "outputs": [],
      "stateMutability": "nonpayable",
      "type": "function"
    },
    {
      "inputs": [
        {
          "internalType": "address",
          "name": "account",
          "type": "address"
        },
        {
          "internalType": "bool",
          "name": "value",
          "type": "bool"
        }
      ],
      "name": "whitelisteUser",
      "outputs": [],
      "stateMutability": "nonpayable",
      "type": "function"
    },
    {
      "inputs": [
        {
          "internalType": "uint256",
          "name": "newVal",
          "type": "uint256"
        }
      ],
      "name": "setSwapTokensAmount",
      "outputs": [],
      "stateMutability": "nonpayable",
      "type": "function"
    },
    {
      "inputs": [
        {
          "internalType": "address payable",
          "name": "walletAddress",
          "type": "address"
        }
      ],
      "name": "updateTreasuryWallet",
      "outputs": [],
      "stateMutability": "nonpayable",
      "type": "function"
    },
    {
      "inputs": [
        {
          "internalType": "address payable",
          "name": "walletAddress",
          "type": "address"
        }
      ],
      "name": "updateRewardWallet",
      "outputs": [],
      "stateMutability": "nonpayable",
      "type": "function"
    },
    {
      "inputs": [
        {
          "internalType": "address payable",
          "name": "walletAddress",
          "type": "address"
        }
      ],
      "name": "updateLiquidityWallet",
      "outputs": [],
      "stateMutability": "nonpayable",
      "type": "function"
    },
    {
      "inputs": [
        {
          "internalType": "address payable",
          "name": "walletAddress",
          "type": "address"
        }
      ],
      "name": "updateTeamyWallet",
      "outputs": [],
      "stateMutability": "nonpayable",
      "type": "function"
    },
    {
      "inputs": [
        {
          "internalType": "uint32",
          "name": "_rewardFee",
          "type": "uint32"
        },
        {
          "internalType": "uint32",
          "name": "_treasuryFee",
          "type": "uint32"
        },
        {
          "internalType": "uint32",
          "name": "_liquidityFee",
          "type": "uint32"
        },
        {
          "internalType": "uint32",
          "name": "_teamFee",
          "type": "uint32"
        }
      ],
      "name": "updateMultiswapFee",
      "outputs": [],
      "stateMutability": "nonpayable",
      "type": "function"
    },
    {
      "inputs": [
        {
          "internalType": "uint32",
          "name": "value",
          "type": "uint32"
        }
      ],
      "name": "updateClaimFee",
      "outputs": [],
      "stateMutability": "nonpayable",
      "type": "function"
    },
    {
      "inputs": [
        {
          "internalType": "uint32",
          "name": "value",
          "type": "uint32"
        }
      ],
      "name": "updateSellFee",
      "outputs": [],
      "stateMutability": "nonpayable",
      "type": "function"
    },
    {
      "inputs": [
        {
          "internalType": "uint32",
          "name": "value",
          "type": "uint32"
        }
      ],
      "name": "updateTransferFee",
      "outputs": [],
      "stateMutability": "nonpayable",
      "type": "function"
    },
    {
      "inputs": [
        {
          "internalType": "uint32",
          "name": "value",
          "type": "uint32"
        }
      ],
      "name": "updateRewardSwapRatio",
      "outputs": [],
      "stateMutability": "nonpayable",
      "type": "function"
    },
    {
      "inputs": [
        {
          "internalType": "address",
          "name": "account",
          "type": "address"
        },
        {
          "internalType": "bool",
          "name": "value",
          "type": "bool"
        }
      ],
      "name": "setIsPool",
      "outputs": [],
      "stateMutability": "nonpayable",
      "type": "function"
    },
    {
      "inputs": [
        {
          "internalType": "uint256",
          "name": "value",
          "type": "uint256"
        }
      ],
      "name": "updateMaxTx",
      "outputs": [],
      "stateMutability": "nonpayable",
      "type": "function"
    },
    {
      "inputs": [
        {
          "internalType": "uint256",
          "name": "value",
          "type": "uint256"
        }
      ],
      "name": "updateMaxWallet",
      "outputs": [],
      "stateMutability": "nonpayable",
      "type": "function"
    },
    {
      "inputs": [],
      "name": "openTrading",
      "outputs": [],
      "stateMutability": "nonpayable",
      "type": "function"
    },
    {
      "inputs": [
        {
          "internalType": "uint256",
          "name": "amount",
          "type": "uint256"
        }
      ],
      "name": "addTokensToRewardPool",
      "outputs": [],
      "stateMutability": "nonpayable",
      "type": "function"
    },
    {
      "inputs": [
        {
          "internalType": "address",
          "name": "recipient",
          "type": "address"
        },
        {
          "internalType": "uint256",
          "name": "amount",
          "type": "uint256"
        }
      ],
      "name": "transfer",
      "outputs": [
        {
          "internalType": "bool",
          "name": "",
          "type": "bool"
        }
      ],
      "stateMutability": "nonpayable",
      "type": "function"
    },
    {
      "inputs": [
        {
          "internalType": "address",
          "name": "sender",
          "type": "address"
        },
        {
          "internalType": "address",
          "name": "recipient",
          "type": "address"
        },
        {
          "internalType": "uint256",
          "name": "amount",
          "type": "uint256"
        }
      ],
      "name": "transferFrom",
      "outputs": [
        {
          "internalType": "bool",
          "name": "",
          "type": "bool"
        }
      ],
      "stateMutability": "nonpayable",
      "type": "function"
    },
    {
      "inputs": [
        {
          "internalType": "uint256",
          "name": "amount",
          "type": "uint256"
        },
        {
          "internalType": "uint256",
          "name": "nodeType",
          "type": "uint256"
        },
        {
          "internalType": "bytes20",
          "name": "referral_code",
          "type": "bytes20"
        }
      ],
      "name": "createNodeAndTransferToPools",
      "outputs": [],
      "stateMutability": "nonpayable",
      "type": "function"
    },
    {
      "inputs": [
        {
          "internalType": "uint256",
          "name": "id",
          "type": "uint256"
        }
      ],
      "name": "claimRewards",
      "outputs": [],
      "stateMutability": "nonpayable",
      "type": "function"
    },
    {
      "inputs": [],
      "name": "claimAllRewards",
      "outputs": [],
      "stateMutability": "nonpayable",
      "type": "function"
    },
    {
      "inputs": [
        {
          "internalType": "address",
          "name": "_presaleToken",
          "type": "address"
        }
      ],
      "name": "setPresaleToken",
      "outputs": [],
      "stateMutability": "nonpayable",
      "type": "function"
    },
    {
      "inputs": [],
      "name": "convertPresaleToReal",
      "outputs": [],
      "stateMutability": "nonpayable",
      "type": "function"
    }
  ],
  "bytecode": "0x6000600655600780546001608060020a03191661a8c017905560e0604052678ac7230489e80000608090815267d02ab486cedc000060a0526801158e460913d0000060c0526200005490600890600362000adc565b506040805160608101825260088152600a6020820152600c918101919091526200008390600b90600362000b2a565b506012805460ff191660011781556200009e90600a62000d25565b620000ad90620f424062000d3d565b6013557846000000000000000500000000000000050000000000000014601955601a8054600160c060020a031916743200000064000002ee000000640000000000000064179081905563ffffffff740100000000000000000000000000000000000000008204811691700100000000000000000000000000000000810482169162000159916c010000000000000000000000008104821691680100000000000000009091041662000d5f565b62000165919062000d5f565b62000171919062000d5f565b601a8054600160c060020a0316780100000000000000000000000000000000000000000000000063ffffffff9390931692909202600160e060020a0316919091177c1900000000000000000000000000000000000000000000000000000000179055601b80546001606060020a0319166901f400000064000000321790556096601e556032601f5560228054732d99abd9008dc933ff5c0cd271b88309593ab921600160a860020a03199091161790556200022f6012600a62000d25565b6200023c90606462000d3d565b6023556200024d6012600a62000d25565b6200025b906101f462000d3d565b6024556200026c6012600a62000d25565b6200027a90610fa062000d3d565b6025556026805460ff19169055685150ae84a8cdf00000602a55348015620002a157600080fd5b5060405162004d6038038062004d60833981016040819052620002c49162000dd6565b60408051808201825260038082527f4d544e000000000000000000000000000000000000000000000000000000000060208084019182528451808601909552600885527f4d6f756e7461696e0000000000000000000000000000000000000000000000009085015282519293926200033e92919062000b60565b5080516200035490600490602084019062000b60565b505050600062000372620008e9640100000000026401000000009004565b60058054600160a060020a031916600160a060020a038316908117909155604051919250906000907f8be0079c531659141344cd1fd0a4f28419497f9722a3daafe3b4186f6b6457e0908290a35060225460208054600160a060020a031916600160a060020a039092169182178155604080517fc45a0155000000000000000000000000000000000000000000000000000000008152905163c45a0155926004808401939192918290030181865afa15801562000433573d6000803e3d6000fd5b505050506040513d601f19601f8201168201806040525081019062000459919062000ea7565b600160a060020a031663c9c6539630602060009054906101000a9004600160a060020a0316600160a060020a03166373b295c26040518163ffffffff167c0100000000000000000000000000000000000000000000000000000000028152600401602060405180830381865afa158015620004d8573d6000803e3d6000fd5b505050506040513d601f19601f82011682018060405250810190620004fe919062000ea7565b6040517c010000000000000000000000000000000000000000000000000000000063ffffffff8516028152600160a060020a039283166004820152911660248201526044016020604051808303816000875af115801562000563573d6000803e3d6000fd5b505050506040513d601f19601f8201168201806040525081019062000589919062000ea7565b602160006101000a815481600160a060020a030219169083600160a060020a0316021790555080600081518110620005c557620005c562000ec5565b6020026020010151601560006101000a815481600160a060020a030219169083600160a060020a031602179055508060018151811062000609576200060962000ec5565b6020026020010151601460006101000a815481600160a060020a030219169083600160a060020a03160217905550806002815181106200064d576200064d62000ec5565b6020026020010151601760006101000a815481600160a060020a030219169083600160a060020a031602179055508060038151811062000691576200069162000ec5565b602090810291909101015160168054600160a060020a031916600160a060020a03928316179055601554620006d291166001640100000000620008ed810204565b601454620006f490600160a060020a03166001640100000000620008ed810204565b6017546200071690600160a060020a03166001640100000000620008ed810204565b6016546200073890600160a060020a03166001640100000000620008ed810204565b601a546019546013546200077e9233926001604060020a039182169262000763929091169062000d3d565b6200076f919062000ef4565b640100000000620009a4810204565b601554601a54601954601354620007d193600160a060020a0316926001604060020a0390811692620007639278010000000000000000000000000000000000000000000000009091049091169062000d3d565b601454601a546019546013546200081493600160a060020a0316926001604060020a03908116926200076392680100000000000000009091049091169062000d3d565b601654601a546019546013546200085f93600160a060020a0316926001604060020a039081169262000763927001000000000000000000000000000000009091049091169062000d3d565b6013546200087564010000000062000ad1810204565b14620008e2576040517f08c379a000000000000000000000000000000000000000000000000000000000815260206004820152601960248201527f4d544e20434f4e535452203a204572726f7220737570706c790000000000000060448201526064015b60405180910390fd5b5062000fa1565b3390565b62000900640100000000620008e9810204565b600554600160a060020a0390811691161462000979576040517f08c379a000000000000000000000000000000000000000000000000000000000815260206004820181905260248201527f4f776e61626c653a2063616c6c6572206973206e6f7420746865206f776e65726044820152606401620008d9565b600160a060020a03919091166000908152601860205260409020805460ff1916911515919091179055565b600160a060020a03821662000a16576040517f08c379a000000000000000000000000000000000000000000000000000000000815260206004820152601f60248201527f41524332303a206d696e7420746f20746865207a65726f2061646472657373006044820152606401620008d9565b62000a2d6000838364010000000062000ad7810204565b806002600082825462000a41919062000f30565b9091555050600160a060020a0382166000908152602081905260408120805483929062000a7090849062000f30565b9091555050604051818152600160a060020a038316906000907fddf252ad1be2c89b69c2b068fc378daa952ba7f163c4a11628f55a4df523b3ef9060200160405180910390a362000acd6000838364010000000062000ad7810204565b5050565b60025490565b505050565b826003810192821562000b18579160200282015b8281111562000b1857825182906001604860020a031690559160200191906001019062000af0565b5062000b2692915062000bdd565b5090565b826003810192821562000b18579160200282015b8281111562000b18578251829060ff1690559160200191906001019062000b3e565b82805462000b6e9062000f4b565b90600052602060002090601f01602090048101928262000b92576000855562000b18565b82601f1062000bad57805160ff191683800117855562000b18565b8280016001018555821562000b18579182015b8281111562000b1857825182559160200191906001019062000bc0565b5b8082111562000b26576000815560010162000bde565b7f4e487b7100000000000000000000000000000000000000000000000000000000600052601160045260246000fd5b600181815b8085111562000c6657816000190482111562000c485762000c4862000bf4565b8085161562000c5657918102915b6002909404939080029062000c28565b509250929050565b60008262000c7f5750600162000d1f565b8162000c8e5750600062000d1f565b816001811462000ca7576002811462000cb25762000cd3565b600191505062000d1f565b60ff84111562000cc65762000cc662000bf4565b8360020a91505062000d1f565b5060208310610133831016604e8410600b841016171562000cf8575081810a62000d1f565b62000d04838362000c23565b806000190482111562000d1b5762000d1b62000bf4565b0290505b92915050565b600062000d3660ff84168362000c6e565b9392505050565b600081600019048311821515161562000d5a5762000d5a62000bf4565b500290565b600063ffffffff80831681851680830382111562000d815762000d8162000bf4565b01949350505050565b7f4e487b7100000000000000000000000000000000000000000000000000000000600052604160045260246000fd5b8051600160a060020a038116811462000dd157600080fd5b919050565b6000602080838503121562000dea57600080fd5b82516001604060020a038082111562000e0257600080fd5b818501915085601f83011262000e1757600080fd5b81518181111562000e2c5762000e2c62000d8a565b838102604051601f19603f8301168101818110858211171562000e535762000e5362000d8a565b60405291825284820192508381018501918883111562000e7257600080fd5b938501935b8285101562000e9b5762000e8b8562000db9565b8452938501939285019262000e77565b98975050505050505050565b60006020828403121562000eba57600080fd5b62000d368262000db9565b7f4e487b7100000000000000000000000000000000000000000000000000000000600052603260045260246000fd5b60008262000f2b577f4e487b7100000000000000000000000000000000000000000000000000000000600052601260045260246000fd5b500490565b6000821982111562000f465762000f4662000bf4565b500190565b60028104600182168062000f6057607f821691505b6020821081141562000f9b577f4e487b7100000000000000000000000000000000000000000000000000000000600052602260045260246000fd5b50919050565b613daf8062000fb16000396000f3fe6080604052600436106104445760003560e060020a900480636f8d65ac11610238578063a9059cbb11610132578063cc600f91116100ba578063dd62ed3e1161007e578063dd62ed3e14610dd4578063e37ba8f914610e1a578063e3d57b6a14610e3a578063f2fde38b14610e5a578063fd4781dc14610e7a57600080fd5b8063cc600f9114610d36578063d3ea435014610d56578063d59fd90014610d76578063d7c94efd14610d90578063d892934214610db457600080fd5b8063b252999411610101578063b252999414610c9a578063c2d0ffca14610cb0578063c9567bf914610cd0578063cb0c910814610ce5578063cc32d17614610d0557600080fd5b8063a9059cbb14610c0d578063aa2e99ad14610c2d578063acb2ad6f14610c4d578063b02079cf14610c7657600080fd5b80638b81666e116101c057806398118cb41161018457806398118cb414610b6157806399d32fc414610b8a5780639cee214214610ba75780639d8dd85e14610bd7578063a457c2d714610bed57600080fd5b80638b81666e14610a915780638c7a273a14610aa65780638da5cb5b14610af057806392c4034414610b0e57806395d89b4114610b4c57600080fd5b8063758463e211610207578063758463e2146109e45780637d58efb914610a04578063809d458d14610a24578063876a3aad14610a445780638b42426714610a6457600080fd5b80636f8d65ac1461094057806370a082311461096057806370e9b1a214610996578063715018a6146109cf57600080fd5b806324dac61a1161034957806349e588cf116102d15780635f1c3182116102955780635f1c3182146108ca578063615cf8b8146108e057806364b6c9011461090057806366666aa91461092057806366f5f2b61461057f57600080fd5b806349e588cf146108345780634df3cce414610854578063513970a91461087457806354d74e1f146108945780635efd86aa146108aa57600080fd5b80633950935111610318578063395093511461079e57806339636504146107be5780633cfa0a7f146107de57806343e716fe146107f457806348df58291461081457600080fd5b806324dac61a146107085780632b14ca5614610728578063313ce567146107625780633737bcb41461077e57600080fd5b806317fb4c3b116103cc5780631cb5a5491161039b5780631cb5a5491461062a5780631cdd3be31461064a5780631ec7904c1461067a5780631febb9ea146106c857806323b872dd146106e857600080fd5b806317fb4c3b1461059f57806318160ddd146105d55780631a25a608146105ea5780631c499ab01461060a57600080fd5b80630b83a727116104135780630b83a727146104ed5780630e5c753d1461050257806315f7aaab146105265780631732cded1461055e578063173ec75d1461057f57600080fd5b806305a4f7f21461045057806306fdde0314610472578063095ea7b31461049d5780630962ef79146104cd57600080fd5b3661044b57005b600080fd5b34801561045c57600080fd5b5061047061046b36600461377c565b610eee565b005b34801561047e57600080fd5b506104876111aa565b60405161049491906137dd565b60405180910390f35b3480156104a957600080fd5b506104bd6104b8366004613825565b61123c565b6040519015158152602001610494565b3480156104d957600080fd5b506104706104e8366004613851565b611254565b3480156104f957600080fd5b5061047061138b565b34801561050e57600080fd5b50610518601e5481565b604051908152602001610494565b34801561053257600080fd5b506104bd61054136600461386a565b600160a060020a03166000908152600e6020526040902054151590565b34801561056a57600080fd5b506022546104bd9060a060020a900460ff1681565b34801561058b57600080fd5b5061047061059a36600461389b565b6114c0565b3480156105ab57600080fd5b506105186105ba36600461386a565b600160a060020a03166000908152600e602052604090205490565b3480156105e157600080fd5b50600254610518565b3480156105f657600080fd5b5061047061060536600461389b565b611515565b34801561061657600080fd5b50610470610625366004613851565b61155e565b34801561063657600080fd5b506104706106453660046138c4565b611590565b34801561065657600080fd5b506104bd61066536600461386a565b60276020526000908152604090205460ff1681565b34801561068657600080fd5b506106b06106953660046138fd565b601060205260009081526040902054600160a060020a031681565b604051600160a060020a039091168152602001610494565b3480156106d457600080fd5b506104706106e3366004613851565b6115e8565b3480156106f457600080fd5b506104bd610703366004613918565b611681565b34801561071457600080fd5b50610470610723366004613959565b6116f9565b34801561073457600080fd5b50601b5461074d90640100000000900463ffffffff1681565b60405163ffffffff9091168152602001610494565b34801561076e57600080fd5b5060405160128152602001610494565b34801561078a57600080fd5b506017546106b090600160a060020a031681565b3480156107aa57600080fd5b506104bd6107b9366004613825565b6118ed565b3480156107ca57600080fd5b506016546106b090600160a060020a031681565b3480156107ea57600080fd5b50610518601c5481565b34801561080057600080fd5b5061047061080f366004613851565b61192c565b34801561082057600080fd5b506014546106b090600160a060020a031681565b34801561084057600080fd5b5061047061084f3660046139ad565b61195e565b34801561086057600080fd5b5061047061086f36600461386a565b61199e565b34801561088057600080fd5b506021546106b090600160a060020a031681565b3480156108a057600080fd5b5061051860065481565b3480156108b657600080fd5b506105186108c5366004613825565b6119ed565b3480156108d657600080fd5b5061051860235481565b3480156108ec57600080fd5b506105186108fb366004613851565b611a1e565b34801561090c57600080fd5b5061047061091b36600461389b565b611a8f565b34801561092c57600080fd5b506015546106b090600160a060020a031681565b34801561094c57600080fd5b5061047061095b3660046138c4565b611b72565b34801561096c57600080fd5b5061051861097b36600461386a565b600160a060020a031660009081526020819052604090205490565b3480156109a257600080fd5b50601a5461074d907801000000000000000000000000000000000000000000000000900463ffffffff1681565b3480156109db57600080fd5b50610470611bca565b3480156109f057600080fd5b506105186109ff366004613851565b611c41565b348015610a1057600080fd5b50610518610a1f366004613851565b611c58565b348015610a3057600080fd5b50610470610a3f36600461386a565b611c68565b348015610a5057600080fd5b50610470610a5f3660046139ca565b611cb7565b348015610a7057600080fd5b50601a5461074d906c01000000000000000000000000900463ffffffff1681565b348015610a9d57600080fd5b50610470611d2c565b348015610ab257600080fd5b50600754610acf906fffffffffffffffffffffffffffffffff1681565b6040516fffffffffffffffffffffffffffffffff9091168152602001610494565b348015610afc57600080fd5b50600554600160a060020a03166106b0565b348015610b1a57600080fd5b50610b2e610b2936600461386a565b611fe4565b6040516bffffffffffffffffffffffff199091168152602001610494565b348015610b5857600080fd5b50610487612043565b348015610b6d57600080fd5b50601a5461074d9068010000000000000000900463ffffffff1681565b348015610b9657600080fd5b50601b5461074d9063ffffffff1681565b348015610bb357600080fd5b506104bd610bc236600461386a565b60286020526000908152604090205460ff1681565b348015610be357600080fd5b50610518601f5481565b348015610bf957600080fd5b506104bd610c08366004613825565b612052565b348015610c1957600080fd5b506104bd610c28366004613825565b61210a565b348015610c3957600080fd5b50610470610c4836600461386a565b61211e565b348015610c5957600080fd5b50601b5461074d9068010000000000000000900463ffffffff1681565b348015610c8257600080fd5b50601a5461074d9060e060020a900463ffffffff1681565b348015610ca657600080fd5b50610518601d5481565b348015610cbc57600080fd5b50610470610ccb366004613851565b61216d565b348015610cdc57600080fd5b5061047061219f565b348015610cf157600080fd5b50610470610d003660046139f6565b6121f2565b348015610d1157600080fd5b50601a5461074d90700100000000000000000000000000000000900463ffffffff1681565b348015610d4257600080fd5b50610470610d5136600461386a565b612253565b348015610d6257600080fd5b50610518610d71366004613851565b6122a2565b348015610d8257600080fd5b506012546104bd9060ff1681565b348015610d9c57600080fd5b50601a5461074d9060a060020a900463ffffffff1681565b348015610dc057600080fd5b50610470610dcf3660046138c4565b612355565b348015610de057600080fd5b50610518610def366004613a28565b600160a060020a03918216600090815260016020908152604080832093909416825291909152205490565b348015610e2657600080fd5b50610470610e3536600461386a565b6123ad565b348015610e4657600080fd5b50610470610e553660046139ca565b6123fc565b348015610e6657600080fd5b50610470610e7536600461386a565b61243c565b348015610e8657600080fd5b50610ec5610e95366004613851565b601160205260009081526040902080546001820154600283015460039093015491929091600160a060020a031684565b60408051948552602085019390935291830152600160a060020a03166060820152608001610494565b3380610f6a5760405160e560020a62461bcd02815260206004820152602160248201527f4e4f4445204352454154494f4e3a2066726f6d2074686520302061646472657360448201527f730000000000000000000000000000000000000000000000000000000000000060648201526084015b60405180910390fd5b600160a060020a03811660009081526027602052604090205460ff1615610ffc5760405160e560020a62461bcd02815260206004820152602260248201527f4e4f4445204352454154494f4e3a20426c61636b6c697374656420616464726560448201527f73730000000000000000000000000000000000000000000000000000000000006064820152608401610f61565b601454600160a060020a038281169116148015906110285750601554600160a060020a03828116911614155b61109d5760405160e560020a62461bcd02815260206004820152602860248201527f4e4f4445204352454154494f4e3a20506f6f6c732063616e6e6f74206372656160448201527f7465206e6f6465730000000000000000000000000000000000000000000000006064820152608401610f61565b30600090815260208190526040902054602354602254908210159060a060020a900460ff161580156110cc5750805b156110da576110da82612544565b6110e486866126ae565b600160a060020a03831660009081526028602052604090205460ff161561112a57600160a060020a0383166000908152602860205260409020805460ff191690556111a2565b6bffffffffffffffffffffffff1984166000908152601060205260409020548690600160a060020a031680156111935760006103e883601f5461116d9190613a6f565b6111779190613a8e565b90506111838184613ab3565b9250611190338383612950565b50505b61119e333084612950565b5050505b505050505050565b6060600380546111b990613aca565b80601f01602080910402602001604051908101604052809291908181526020018280546111e590613aca565b80156112325780601f1061120757610100808354040283529160200191611232565b820191906000526020600020905b81548152906001019060200180831161121557829003601f168201915b5050505050905090565b60003361124a818585612d1d565b5060019392505050565b33806112a55760405160e560020a62461bcd02815260206004820181905260248201527f434c41494d205245574152443a2066726f6d20746865203020616464726573736044820152606401610f61565b600160a060020a03811660009081526027602052604090205460ff16156112e15760405160e560020a62461bcd028152600401610f6190613b08565b601454600160a060020a0382811691161480159061130d5750601554600160a060020a03828116911614155b61132c5760405160e560020a62461bcd028152600401610f6190613b65565b600061133783612e7b565b601b549091506000906103e8906113549063ffffffff1684613a6f565b61135e9190613a8e565b905061136a8183613ab3565b60155490925061138490600160a060020a03168484612950565b5050505050565b33806113dc5760405160e560020a62461bcd02815260206004820181905260248201527f434c41494d205245574152443a2066726f6d20746865203020616464726573736044820152606401610f61565b600160a060020a03811660009081526027602052604090205460ff16156114185760405160e560020a62461bcd028152600401610f6190613b08565b601454600160a060020a038281169116148015906114445750601554600160a060020a03828116911614155b6114635760405160e560020a62461bcd028152600401610f6190613b65565b600061146d612fc4565b601b549091506000906103e89061148a9063ffffffff1684613a6f565b6114949190613a8e565b90506114a08183613ab3565b6015549092506114ba90600160a060020a03168484612950565b50505050565b600554600160a060020a031633146114ed5760405160e560020a62461bcd028152600401610f6190613bc2565b601b805463ffffffff9092166401000000000267ffffffff0000000019909216919091179055565b600554600160a060020a031633146115425760405160e560020a62461bcd028152600401610f6190613bc2565b601b805463ffffffff191663ffffffff92909216919091179055565b600554600160a060020a0316331461158b5760405160e560020a62461bcd028152600401610f6190613bc2565b602555565b600554600160a060020a031633146115bd5760405160e560020a62461bcd028152600401610f6190613bc2565b600160a060020a03919091166000908152601860205260409020805460ff1916911515919091179055565b600554600160a060020a031633146116155760405160e560020a62461bcd028152600401610f6190613bc2565b600081116116685760405160e560020a62461bcd02815260206004820152600e60248201527f416d6f756e7420746f6f206c6f770000000000000000000000000000000000006044820152606401610f61565b60155461167e90600160a060020a031682613121565b50565b600160a060020a0383166000908152600160209081526040808320338452909152812054600019146116e657600160a060020a0384166000908152600160209081526040808320338452909152812080548492906116e0908490613ab3565b90915550505b6116f1848484612950565b949350505050565b600554600160a060020a031633146117265760405160e560020a62461bcd028152600401610f6190613bc2565b601a805473ffffffffffffffff00000000000000000000000019166c0100000000000000000000000063ffffffff878116820273ffffffff0000000000000000000000000000000019169290921770010000000000000000000000000000000087841681029190911777ffffffff0000000000000000ffffffff0000000000000000191668010000000000000000878516810277ffffffff000000000000000000000000000000000000000019169190911760a060020a878616810291909117958690558504841694918204841693611809939183048116929190910416613bf7565b6118139190613bf7565b61181d9190613bf7565b601a80547fffffffff00000000ffffffffffffffffffffffffffffffffffffffffffffffff16780100000000000000000000000000000000000000000000000063ffffffff938416810291909117918290556103e89104909116146114ba5760405160e560020a62461bcd02815260206004820152603560248201527f557064617465204665653a205468652073756d206f6620616c6c20666565732060448201527f6973206e6f7420657175616c20746f20315f30303000000000000000000000006064820152608401610f61565b336000818152600160209081526040808320600160a060020a038716845290915281205490919061124a9082908690611927908790613c1f565b612d1d565b600554600160a060020a031633146119595760405160e560020a62461bcd028152600401610f6190613bc2565b602355565b600554600160a060020a0316331461198b5760405160e560020a62461bcd028152600401610f6190613bc2565b6012805460ff1916911515919091179055565b600554600160a060020a031633146119cb5760405160e560020a62461bcd028152600401610f6190613bc2565b60298054600160a060020a031916600160a060020a0392909216919091179055565b600e6020528160005260406000208181548110611a0957600080fd5b90600052602060002001600091509150505481565b60006002821115611a745760405160e560020a62461bcd02815260206004820152601460248201527f4e6f6465207479706520697320696e76616c69640000000000000000000000006044820152606401610f61565b60088260038110611a8757611a87613c37565b015492915050565b600554600160a060020a03163314611abc5760405160e560020a62461bcd028152600401610f6190613bc2565b601a80547bffffffffffffffffffffffffffffffffffffffffffffffffffffffff1660e060020a63ffffffff848116820292909217928390556103e8920416111561167e5760405160e560020a62461bcd02815260206004820152603260248201527f557064617465207377617020726174696f203a206e65772076616c756520697360448201527f20686967686572207468616e20315f30303000000000000000000000000000006064820152608401610f61565b600554600160a060020a03163314611b9f5760405160e560020a62461bcd028152600401610f6190613bc2565b600160a060020a03919091166000908152602860205260409020805460ff1916911515919091179055565b600554600160a060020a03163314611bf75760405160e560020a62461bcd028152600401610f6190613bc2565b600554604051600091600160a060020a0316907f8be0079c531659141344cd1fd0a4f28419497f9722a3daafe3b4186f6b6457e0908390a360058054600160a060020a0319169055565b60088160038110611c5157600080fd5b0154905081565b600b8160038110611c5157600080fd5b600554600160a060020a03163314611c955760405160e560020a62461bcd028152600401610f6190613bc2565b60148054600160a060020a031916600160a060020a0392909216919091179055565b600554600160a060020a03163314611ce45760405160e560020a62461bcd028152600401610f6190613bc2565b611cf683670de0b6b3a7640000613a6f565b600855611d0b82670de0b6b3a7640000613a6f565b600955611d2081670de0b6b3a7640000613a6f565b600860025b0155505050565b602954600160a060020a0316611d875760405160e560020a62461bcd02815260206004820152601560248201527f50726573616c6520746f6b656e206e6f742073657400000000000000000000006044820152606401610f61565b6029546040517f70a08231000000000000000000000000000000000000000000000000000000008152336004820152600091600160a060020a0316906370a0823190602401602060405180830381865afa158015611de9573d6000803e3d6000fd5b505050506040513d601f19601f82011682018060405250810190611e0d9190613c50565b9050600081118015611e215750602a548111155b611e705760405160e560020a62461bcd02815260206004820152600f60248201527f496e76616c69642062616c616e636500000000000000000000000000000000006044820152606401610f61565b6029546040517f23b872dd00000000000000000000000000000000000000000000000000000000815233600482015230602482015260448101839052600160a060020a03909116906323b872dd906064016020604051808303816000875af1158015611ee0573d6000803e3d6000fd5b505050506040513d601f19601f82011682018060405250810190611f049190613c69565b506029546040517f70a08231000000000000000000000000000000000000000000000000000000008152336004820152600160a060020a03909116906370a0823190602401602060405180830381865afa158015611f66573d6000803e3d6000fd5b505050506040513d601f19601f82011682018060405250810190611f8a9190613c50565b15611fda5760405160e560020a62461bcd02815260206004820152601560248201527f4572726f72207769746820636f6e76657273696f6e00000000000000000000006044820152606401610f61565b61167e3382613121565b600554600090600160a060020a031633146120145760405160e560020a62461bcd028152600401610f6190613bc2565b50600160a060020a0381166000908152600f60205260409020546c01000000000000000000000000025b919050565b6060600480546111b990613aca565b336000818152600160209081526040808320600160a060020a0387168452909152812054909190838110156120f25760405160e560020a62461bcd02815260206004820152602560248201527f41524332303a2064656372656173656420616c6c6f77616e63652062656c6f7760448201527f207a65726f0000000000000000000000000000000000000000000000000000006064820152608401610f61565b6120ff8286868403612d1d565b506001949350505050565b6000612117338484612950565b9392505050565b600554600160a060020a0316331461214b5760405160e560020a62461bcd028152600401610f6190613bc2565b60168054600160a060020a031916600160a060020a0392909216919091179055565b600554600160a060020a0316331461219a5760405160e560020a62461bcd028152600401610f6190613bc2565b602455565b600554600160a060020a031633146121cc5760405160e560020a62461bcd028152600401610f6190613bc2565b6026805460ff1916600117905542601c8190556121ed906202a30090613c1f565b601d55565b600554600160a060020a0316331461221f5760405160e560020a62461bcd028152600401610f6190613bc2565b600780546fffffffffffffffffffffffffffffffff19166fffffffffffffffffffffffffffffffff92909216919091179055565b600554600160a060020a031633146122805760405160e560020a62461bcd028152600401610f6190613bc2565b60158054600160a060020a031916600160a060020a0392909216919091179055565b6000818152601160209081526040808320815160808101835281548152600182015493810184905260028201549281019290925260030154600160a060020a031660608201529062015180906122f89042613ab3565b6103e8600b84604001516003811061231257612312613c37565b0154600885604001516003811061232b5761232b613c37565b01546123379190613a6f565b6123419190613a8e565b61234b9190613a6f565b6121179190613a8e565b600554600160a060020a031633146123825760405160e560020a62461bcd028152600401610f6190613bc2565b600160a060020a03919091166000908152602760205260409020805460ff1916911515919091179055565b600554600160a060020a031633146123da5760405160e560020a62461bcd028152600401610f6190613bc2565b60178054600160a060020a031916600160a060020a0392909216919091179055565b600554600160a060020a031633146124295760405160e560020a62461bcd028152600401610f6190613bc2565b600b838155600c83905581906002611d25565b600554600160a060020a031633146124695760405160e560020a62461bcd028152600401610f6190613bc2565b600160a060020a0381166124e85760405160e560020a62461bcd02815260206004820152602660248201527f4f776e61626c653a206e6577206f776e657220697320746865207a65726f206160448201527f64647265737300000000000000000000000000000000000000000000000000006064820152608401610f61565b600554604051600160a060020a038084169216907f8be0079c531659141344cd1fd0a4f28419497f9722a3daafe3b4186f6b6457e090600090a360058054600160a060020a031916600160a060020a0392909216919091179055565b6022805474ff0000000000000000000000000000000000000000191660a060020a179055601a546000906103e8906125979063ffffffff7001000000000000000000000000000000009091041684613a6f565b6125a19190613a8e565b6014549091506125ba90600160a060020a031682613203565b601a546000906103e8906125e4906c01000000000000000000000000900463ffffffff1685613a6f565b6125ee9190613a8e565b601a549091506000906103e8906126129060e060020a900463ffffffff1684613a6f565b61261c9190613a8e565b60155490915061263590600160a060020a031682613203565b601a546000906103e89061265b9068010000000000000000900463ffffffff1687613a6f565b6126659190613a8e565b905061267081613254565b30600090815260208190526040902054612689906132d5565b50506022805474ff000000000000000000000000000000000000000019169055505050565b601254339060ff166127055760405160e560020a62461bcd02815260206004820152601960248201527f4e6f6465206372656174696f6e2069732064697361626c6564000000000000006044820152606401610f61565b60028211156127595760405160e560020a62461bcd02815260206004820152601460248201527f4e6f6465207479706520697320696e76616c69640000000000000000000000006044820152606401610f61565b6008826003811061276c5761276c613c37565b015483146127bf5760405160e560020a62461bcd02815260206004820152601760248201527f4e6f646520616d6f756e74206e6f7420636f72726563740000000000000000006044820152606401610f61565b600060065460016127d09190613c1f565b905061280660405180608001604052806000815260200160008152602001600081526020016000600160a060020a031681525090565b5060408051608081018252828152426020820152908101849052600160a060020a03831660608201526006805490600061283f83613c86565b909155505060008281526011602090815260408083208451815584830151600180830191909155858301516002830155606086015160039092018054600160a060020a031916600160a060020a03938416179055908716808552600e84528285208054928301815585528385209091018690558352600f9091529020546c01000000000000000000000000026bffffffffffffffffffffffff19166113845760006128e98461345a565b600160a060020a0385166000818152600f6020908152604080832080546c010000000000000000000000008704600160a060020a0319918216179091556bffffffffffffffffffffffff199095168352601090915290208054909216179055505050505050565b600081600160a060020a0385166129d25760405160e560020a62461bcd02815260206004820152602560248201527f41524332303a207472616e736665722066726f6d20746865207a65726f20616460448201527f64726573730000000000000000000000000000000000000000000000000000006064820152608401610f61565b600160a060020a038416612a515760405160e560020a62461bcd02815260206004820152602360248201527f41524332303a207472616e7366657220746f20746865207a65726f206164647260448201527f65737300000000000000000000000000000000000000000000000000000000006064820152608401610f61565b600160a060020a03851660009081526027602052604090205460ff16158015612a935750600160a060020a03841660009081526027602052604090205460ff16155b612ae25760405160e560020a62461bcd02815260206004820152601360248201527f426c61636b6c69737465642061646472657373000000000000000000000000006044820152606401610f61565b612aeb856134dd565b158015612afe5750612afc846134dd565b155b15612c6a5760265460ff1615612bef57602454831115612b635760405160e560020a62461bcd02815260206004820152601a60248201527f5472616e73616374696f6e204c696d69742045786365656465640000000000006044820152606401610f61565b602154600160a060020a03858116911614612bef57602554600160a060020a038516600090815260208190526040902054612b9e9085613c1f565b1115612bef5760405160e560020a62461bcd02815260206004820152601860248201527f5472616e7366657220616d6f756e7420746f6f206869676800000000000000006044820152606401610f61565b60265460ff16158015612c0f5750602154600160a060020a038681169116145b15612c3857600160a060020a0384166000908152602760205260409020805460ff191660011790555b60265460ff168015612c585750602154600160a060020a03868116911614155b15612c6a57612c678584613541565b90505b600160a060020a038516600090815260208190526040902054612c8e908290613ab3565b600160a060020a038087166000908152602081905260408082209390935590861681522054612cbe908290613c1f565b600160a060020a038581166000818152602081815260409182902094909455518481529092918816917fddf252ad1be2c89b69c2b068fc378daa952ba7f163c4a11628f55a4df523b3ef910160405180910390a3506001949350505050565b600160a060020a038316612d9b5760405160e560020a62461bcd028152602060048201526024808201527f41524332303a20617070726f76652066726f6d20746865207a65726f2061646460448201527f72657373000000000000000000000000000000000000000000000000000000006064820152608401610f61565b600160a060020a038216612e1a5760405160e560020a62461bcd02815260206004820152602260248201527f41524332303a20617070726f766520746f20746865207a65726f20616464726560448201527f73730000000000000000000000000000000000000000000000000000000000006064820152608401610f61565b600160a060020a0383811660008181526001602090815260408083209487168084529482529182902085905590518481527f8c5be1e5ebec7d5bd14f71427d1e84f3dd0314c0f7b2291e5b200ac8c7c3b925910160405180910390a3505050565b600081815260116020908152604080832081516080810183528154815260018201549381019390935260028101549183019190915260030154600160a060020a0316606082018190523314612f155760405160e560020a62461bcd02815260206004820152601e60248201527f4d757374206265206f776e6572206f66206e6f646520746f20636c61696d00006044820152606401610f61565b612f228160200151613670565b612f975760405160e560020a62461bcd02815260206004820152602260248201527f4e6f6465207265776172647320617265206e6f7420636c61696d61626c65207960448201527f65740000000000000000000000000000000000000000000000000000000000006064820152608401610f61565b6000612fa682600001516122a2565b91516000908152601160205260409020426001909101555092915050565b336000818152600e6020526040812054909190806130275760405160e560020a62461bcd02815260206004820152601f60248201527f4d757374206f776e206e6f64657320746f20636c61696d2072657761726473006044820152606401610f61565b6000805b8281101561311957600160a060020a0384166000908152600e6020526040812080546130889260119290918590811061306657613066613c37565b9060005260206000200154815260200190815260200160002060010154613670565b1561310757600160a060020a0384166000908152600e6020526040812080546011918391859081106130bc576130bc613c37565b906000526020600020015481526020019081526020016000206000015490506130e4816122a2565b6130ee9084613c1f565b6000918252601160205260409091204260019091015591505b8061311181613c86565b91505061302b565b509392505050565b600160a060020a03821661317a5760405160e560020a62461bcd02815260206004820152601f60248201527f41524332303a206d696e7420746f20746865207a65726f2061646472657373006044820152606401610f61565b806002600082825461318c9190613c1f565b9091555050600160a060020a038216600090815260208190526040812080548392906131b9908490613c1f565b9091555050604051818152600160a060020a038316906000907fddf252ad1be2c89b69c2b068fc378daa952ba7f163c4a11628f55a4df523b3ef9060200160405180910390a35050565b303161320e826132d5565b600061321b823031613ab3565b604051909150600160a060020a0385169082156108fc029083906000818181858888f19350505050158015611384573d6000803e3d6000fd5b6000613261600283613a8e565b9050600061326f8284613ab3565b9050303161327c836132d5565b6000613289823031613ab3565b90506132958382613699565b60408051848152602081018390527f28fc98272ce761178794ad6768050fea1648e07f1e2ffe15afd3a290f8381486910160405180910390a15050505050565b604080516002808252606082018352600092602083019080368337019050509050308160008151811061330a5761330a613c37565b600160a060020a039283166020918202929092018101919091528054604080517f73b295c2000000000000000000000000000000000000000000000000000000008152905191909316926373b295c29260048083019391928290030181865afa15801561337b573d6000803e3d6000fd5b505050506040513d601f19601f8201168201806040525081019061339f9190613ca1565b816001815181106133b2576133b2613c37565b600160a060020a03928316602091820292909201810191909152546133da9130911684612d1d565b6020546040517f762b1562000000000000000000000000000000000000000000000000000000008152600160a060020a039091169063762b15629061342c908590600090869030904290600401613cbe565b600060405180830381600087803b15801561344657600080fd5b505af11580156111a2573d6000803e3d6000fd5b6040516c01000000000000000000000000600160a060020a03831602602082015242603482015260009060039060540160408051601f19818403018152908290526134a491613d2f565b602060405180830381855afa1580156134c1573d6000803e3d6000fd5b5050604051516c01000000000000000000000000029392505050565b60006134f1600554600160a060020a031690565b600160a060020a031682600160a060020a031614806135185750600160a060020a03821630145b8061353b5750600160a060020a03821660009081526018602052604090205460ff165b92915050565b601b5460009081906103e89061356590640100000000900463ffffffff1685613a6f565b61356f9190613a8e565b9050601d544210156135d5576103e86202a300601c54426135909190613ab3565b61359d906202a300613ab3565b601e546135aa9087613a6f565b6135b49190613a6f565b6135be9190613a8e565b6135c89190613a8e565b6135d29082613c1f565b90505b30600090815260208190526040812080548392906135f4908490613c1f565b9091555050600160a060020a03841660009081526020819052604081208054839290613621908490613ab3565b90915550506040518181523090600160a060020a038616907fddf252ad1be2c89b69c2b068fc378daa952ba7f163c4a11628f55a4df523b3ef9060200160405180910390a36116f18184613ab3565b6007546000906fffffffffffffffffffffffffffffffff166136928342613ab3565b1192915050565b6020546136b1903090600160a060020a031684612d1d565b6020546017546040517ff91b3f72000000000000000000000000000000000000000000000000000000008152306004820152602481018590526000604482018190526064820152600160a060020a0391821660848201524260a482015291169063f91b3f7290839060c40160606040518083038185885af115801561373a573d6000803e3d6000fd5b50505050506040513d601f19601f820116820180604052508101906113849190613d4b565b80356bffffffffffffffffffffffff198116811461203e57600080fd5b60008060006060848603121561379157600080fd5b83359250602084013591506137a86040850161375f565b90509250925092565b60005b838110156137cc5781810151838201526020016137b4565b838111156114ba5750506000910152565b60208152600082518060208401526137fc8160408501602087016137b1565b601f01601f19169190910160400192915050565b600160a060020a038116811461167e57600080fd5b6000806040838503121561383857600080fd5b823561384381613810565b946020939093013593505050565b60006020828403121561386357600080fd5b5035919050565b60006020828403121561387c57600080fd5b813561211781613810565b803563ffffffff8116811461203e57600080fd5b6000602082840312156138ad57600080fd5b61211782613887565b801515811461167e57600080fd5b600080604083850312156138d757600080fd5b82356138e281613810565b915060208301356138f2816138b6565b809150509250929050565b60006020828403121561390f57600080fd5b6121178261375f565b60008060006060848603121561392d57600080fd5b833561393881613810565b9250602084013561394881613810565b929592945050506040919091013590565b6000806000806080858703121561396f57600080fd5b61397885613887565b935061398660208601613887565b925061399460408601613887565b91506139a260608601613887565b905092959194509250565b6000602082840312156139bf57600080fd5b8135612117816138b6565b6000806000606084860312156139df57600080fd5b505081359360208301359350604090920135919050565b600060208284031215613a0857600080fd5b81356fffffffffffffffffffffffffffffffff8116811461211757600080fd5b60008060408385031215613a3b57600080fd5b8235613a4681613810565b915060208301356138f281613810565b60e060020a634e487b7102600052601160045260246000fd5b6000816000190483118215151615613a8957613a89613a56565b500290565b600082613aae5760e060020a634e487b7102600052601260045260246000fd5b500490565b600082821015613ac557613ac5613a56565b500390565b600281046001821680613ade57607f821691505b60208210811415613b025760e060020a634e487b7102600052602260045260246000fd5b50919050565b60208082526021908201527f434c41494d205245574152443a20426c61636b6c69737465642061646472657360408201527f7300000000000000000000000000000000000000000000000000000000000000606082015260800190565b60208082526028908201527f434c41494d205245574152443a20506f6f6c732063616e6e6f7420636c61696d60408201527f2072657761726473000000000000000000000000000000000000000000000000606082015260800190565b6020808252818101527f4f776e61626c653a2063616c6c6572206973206e6f7420746865206f776e6572604082015260600190565b600063ffffffff808316818516808303821115613c1657613c16613a56565b01949350505050565b60008219821115613c3257613c32613a56565b500190565b60e060020a634e487b7102600052603260045260246000fd5b600060208284031215613c6257600080fd5b5051919050565b600060208284031215613c7b57600080fd5b8151612117816138b6565b6000600019821415613c9a57613c9a613a56565b5060010190565b600060208284031215613cb357600080fd5b815161211781613810565b600060a082018783526020878185015260a0604085015281875180845260c086019150828901935060005b81811015613d0e578451600160a060020a031683529383019391830191600101613ce9565b5050600160a060020a03969096166060850152505050608001529392505050565b60008251613d418184602087016137b1565b9190910192915050565b600080600060608486031215613d6057600080fd5b835192506020840151915060408401519050925092509256fea2646970667358221220781109877448dcaafc355d9bfa7f187972ee530c00f82c5bde95e24cd3e84b3864736f6c634300080c0033",
  "immutableReferences": {},
  "source": "\n// SPDX-License-Identifier: MIT\n\npragma solidity ^0.8.11;\n\nimport \"./ARC20.sol\";\nimport \"./IARC20.sol\";\nimport \"./PaymentSplitter.sol\";\nimport \"./Context.sol\";\nimport \"./ITraderJoeFactory.sol\";\nimport \"./ITraderJoeRouter.sol\";\nimport \"./MountainRewardManager.sol\";\n\n\n\n\ncontract Mountain is ARC20, MountainRewardManager {\n\n    // In the constructor competitors usually provide :\n    // _ Addresses for the reward, treasury and liquidity handler pools\n    // _ Initial balances of tokens for those pools\n    \n\n    // A setlpPool function (with an array) like in PolarNodes ?\n\n    // Later : Need to take into account the presale tokens\n\n\n\n    //-----------------------------------------------------\\\\\n    //----------- Token variables -------------------------\\\\\n    //-----------------------------------------------------\\\\  \n    string constant _name = 'Mountain';\n    string constant _symbol = 'MTN';\n    uint8 constant _decimals = 18;\n    uint256 _totalSupply = 1_000_000 * (10 ** _decimals);   // 1 Million tokens (as defined in the WP)\n\n\n\n    //-----------------------------------------------------\\\\\n    //--------------- Pools -------------------------------\\\\\n    //-----------------------------------------------------\\\\\n    address public treasuryPool;\n    address public rewardPool; \n    address public teamPool; \n    address public lpPool; // Todo: do we need an address for the LP tokens ? \n\n\tmapping(address => bool) private _isPool;\n\n\n    // Initial allocation of tokens (TODO : replace this)\n    uint64 ownerAllocation = 20;  // For test purposes (imagine this address being the LP provider)\n    uint64 treasuryPoolAllocation = 5;  \n    uint64 teamPoolAllocation = 5;  \n    uint64 rewardPoolAllocation = 70;\n    uint64 allocationDenominator = 100;\n\n\n    //-----------------------------------------------------\\\\\n    //----------- Fee variables ---------------------------\\\\\n    //-----------------------------------------------------\\\\\n\n    // Node creation fees\n    uint32 public liquidityFee = 100; // 10%\n    uint32 public rewardFee = 750; // 75%\n    uint32 public treasuryFee = 100; // 10% \n    uint32 public teamFee = 50; // 5% \n    uint32 public totalCreationFees = liquidityFee + rewardFee + treasuryFee + teamFee;\n\n    uint32 public rewardSwapRatio = 25; // 2.5%  Note : a bit of AVAX if necessary\n\n    // Claim and sell fees\n    uint32 public claimFee = 50; // 5%\n    uint32 public sellFee = 100;// 10%\n\n    // Transfer fee (Not implemented yet)\n    uint32 public transferFee = 500;// 50%\n\n    // Sell fees for the first two days\n    uint256 constant TWO_DAYS = 2*24*60*60; // two days in second\n    uint256 public launchSellFeeTimestamp;\n    uint256 public  endSellFeeTimestamp;\n    uint256 public initialAdditionnalSellFee = 150; // 15% that will decrease to zero after two days\n\n\n    // Referral bonus\n    uint256 public referral_bonus = 50; //5%\n\n\n    //-----------------------------------------------------\\\\\n    //----------- Auto Liquidity variables ----------------\\\\\n    //-----------------------------------------------------\\\\   \n\n    ITraderJoeRouter private traderJoeRouter;\n    address public traderJoePair;\n\n    //address private traderJoeRouterAddress = 0x60aE616a2155Ee3d9A68541Ba4544862310933d4; // TraderJoe MainNet\n    //address private traderJoeRouterAddress = 0x5db0735cf88F85E78ed742215090c465979B5006; // TraderJoe testnet TODO : change this\n    address private traderJoeRouterAddress = 0x2D99ABD9008Dc933ff5c0CD271B88309593aB921;   // Pangolin testnet\n    \n\n    bool public swapping = false;\n\n\n    //-----------------------------------------------------\\\\\n    //----------- Transfer related variables --------------\\\\\n    //-----------------------------------------------------\\\\   \n\n    /* Before transferring tokens/Avax to the pools, the min num of tokens accumulated with the fees needs\n       to be at least equal to swapTokensAmount. */     \n    uint256 public swapTokensAmount = 100 * (10 ** _decimals); // TODO : define with the team    \n\n    // Max tokens per tx and per wallet\n    uint256 private maxTx = 500 * (10 ** _decimals);\n    uint256 private maxWallet = 4_000 * (10 ** _decimals);\n\n   \tbool private tradingOpen = false; // TODO : Need set it to true before launching (set to true for testing purposes)\n\n    // List of blacklisted malicious addresses (opportunists that try to buy before trading actually opened)\n    mapping(address => bool) public _isBlacklisted;\n\n    // Mapping for whitelisted to create a free node\n    mapping(address => bool) public _isWhitelisted; \n\n    //-----------------------------------------------------\\\\\n    //----------- Presale variables -----------------------\\\\\n    //-----------------------------------------------------\\\\   \n\n    IARC20 presaleToken;\n    uint256 presaleMax = 1500*10**18;\n\n    //-----------------------------------------------------\\\\\n    //----------- Events and modifiers --------------------\\\\\n    //-----------------------------------------------------\\\\  \n\n\n    modifier inSwap {\n        swapping = true;\n        _;\n        swapping = false;\n    }\n\n\n    event SwapAndLiquify(uint256 otherHalf, uint256 newBalance);\n\n\n\n\n   constructor(address[] memory addresses) ARC20(_symbol, _name)  {\n\n        // Instantiate a TraderJoe router with current address traderJoeRouterAddress\n        traderJoeRouter = ITraderJoeRouter(traderJoeRouterAddress);\n\n        // Create a TraderJoe pair for MTN token\n        traderJoePair = ITraderJoeFactory(traderJoeRouter.factory()).createPair(address(this), traderJoeRouter.WAVAX()); \n\n     \n        rewardPool = addresses[0];\n        treasuryPool = addresses[1];\n        lpPool = addresses[2];\n        teamPool = addresses[3];\n\n        setIsPool(rewardPool, true);\n        setIsPool(treasuryPool, true);\n        setIsPool(lpPool, true);\n        setIsPool(teamPool, true);\n\n\n        _mint(msg.sender, _totalSupply * ownerAllocation / allocationDenominator); \n        _mint(rewardPool, _totalSupply * rewardPoolAllocation / allocationDenominator); \n        _mint(treasuryPool, _totalSupply * treasuryPoolAllocation / allocationDenominator); \n        _mint(teamPool, _totalSupply * teamPoolAllocation / allocationDenominator); \n\n        require(totalSupply()==_totalSupply, \"MTN CONSTR : Error supply\");\n   }    \n\n\n\n    /** \n        @dev Create pair function : The pair MTN-AVAX is created for the first time on TraderJoe\n    */\n    //function createPair() external onlyOwner {\n\n\n        // TODO : find a check that the pair was created and make a required in the functions that uses it\n    //} \n\n\n    /** \n        @param account : The address to be blacklisted or not\n        @param value   : boolean to set the address to the blacklist or not\n    */\n    function blacklistMalicious(address account, bool value) external onlyOwner { \n        _isBlacklisted[account] = value;\n    }  \n\n    /** \n        @param account : The address to be whitelisted or not\n        @param value   : boolean to set the address to the whitelist or not\n    */\n    function whitelisteUser(address account, bool value) external onlyOwner { \n        _isWhitelisted[account] = value;\n    }        \n    \n\n    /** \n        @param newVal : Boolean to set the min amount of tokens requested for a multi-swap\n    */    \n    function setSwapTokensAmount(uint256 newVal) external onlyOwner { \n        swapTokensAmount = newVal; \n    }\n\n\n    /** \n        @param walletAddress : The new wallet address for the treasury pool\n    */  \n    function updateTreasuryWallet(address payable walletAddress) external onlyOwner { \n        treasuryPool = walletAddress; \n    }\n\n\n    /** \n        @param walletAddress : The new wallet address for the reward pool\n    */      \n    function updateRewardWallet(address payable walletAddress) external onlyOwner { \n        rewardPool = walletAddress; \n    }\n\n\n    /** \n        @param walletAddress : The new wallet address for the pool that holds the LP tokens\n    */      \n    function updateLiquidityWallet(address payable walletAddress) external onlyOwner { \n        lpPool = walletAddress; \n    }   \n\n\n    /** \n        @param walletAddress : The new wallet address for the team pool\n    */      \n    function updateTeamyWallet(address payable walletAddress) external onlyOwner { \n        teamPool = walletAddress; \n    }        \n\n\n    /** \n        @param _rewardFee : The new fee for the reward pool when a new node is created\n        @param _treasuryFee : The new fee for the treasury pool when a new node is created\n        @param _liquidityFee : The new fee for the liquidity pool when a new node is created\n        @param _teamFee : The new fee for the team pool when a new node is created\n        \n        @notice The max value for 100% is 1_000, i.e. 100 is 10%\n        @dev The sum of all fees should equal 1_000 (100%)\n    */  \n    function updateMultiswapFee(uint32 _rewardFee, \n                                uint32 _treasuryFee, \n                                uint32 _liquidityFee, \n                                uint32 _teamFee) external onlyOwner {\n\n        rewardFee = _rewardFee;\n        treasuryFee = _treasuryFee;\n        liquidityFee = _liquidityFee;\n        teamFee = _teamFee;\n\n        totalCreationFees = rewardFee+liquidityFee+treasuryFee+teamFee;\n\n        require(totalCreationFees==PER_MILLE, \"Update Fee: The sum of all fees is not equal to 1_000\");\n    }\n\n\n    /** \n        @param value : The new fee to be taken at each user claim \n        @notice The max value for 100% is 1_000, i.e. 100 is 10%\n    */  \n    function updateClaimFee(uint32 value) external onlyOwner { \n        claimFee = value; \n    }\n\n    /** \n        @param value : The new fee to be taken at each user sell \n        @notice The max value for 100% is 1_000, i.e. 100 is 10%\n    */      \n    function updateSellFee(uint32 value) external onlyOwner { \n        sellFee = value; \n    }  \n\n\n    // TODO : To be removed (if there are no difference between sell and transfer fee)\n    /** \n        @param value : The new fee to be taken at each user node transfer \n        @notice The max value for 100% is 1_000, i.e. 100 is 10%\n    */      \n    function updateTransferFee(uint32 value) external onlyOwner { \n        sellFee = value; \n    }    \n\n\n    /** \n        @param value : The new reward swap ratio. \n                       This is the percentage of tokens that will be swapped and sent to the reward Pool. \n        @notice The max value for 100% is 1_000, i.e. 100 is 10%\n    */     \n    function updateRewardSwapRatio(uint32 value) external onlyOwner { \n        rewardSwapRatio = value;\n        require(rewardSwapRatio<=PER_MILLE, \"Update swap ratio : new value is higher than 1_000\");\n    }\n\n\n    /** \n        @param account : The account that is set, or not, as a pool\n        @param value : If true the account is set as a pool\n    */   \n\tfunction setIsPool(address account, bool value) public onlyOwner {\n        _isPool[account] = value;\n    }\n\n    /** \n        @param value : The new max amount of tokens per tx\n    */   \n\tfunction updateMaxTx(uint256 value) external onlyOwner {\n        maxTx = value;\n    }\n\n\n    /** \n        @param value : The new max amount of tokens per wallet\n    */   \n\tfunction updateMaxWallet(uint256 value) external onlyOwner {\n        maxWallet = value;\n    }    \n\n    /** \n        @dev Start trading (after adding liquidity, and waiting some time in order to blacklist bots)\n    */   \n\tfunction openTrading() external onlyOwner {\n        tradingOpen = true;\n\n        // TODO : Check if this is the right place to put it\n        launchSellFeeTimestamp = block.timestamp;\n        endSellFeeTimestamp = block.timestamp + TWO_DAYS;        \n    }\n\n    /** \n        @param account : The address of the account to check if it's a pool address/the owner or this SC\n    */   \n    function isMTNAddress(address account) internal view returns (bool) {\n            return (account == owner() || account == address(this) || _isPool[account]);\n    }\n\n\n    /** \n        @param amount : The amount of tokens to be minted to the reward pool\n    */   \n\tfunction addTokensToRewardPool(uint256 amount) external onlyOwner {\n\t\trequire(amount > 0, \"Amount too low\");\n\t\t_mint(rewardPool, amount);\n\t}\n\n\n    // Note : Defined in PaymentSplitter, if we use it, remove this function\n    receive() external payable {}\n\n\n    function transfer(address recipient, uint256 amount) public override returns (bool) {\n        return _transfer(msg.sender, recipient, amount);\n    }\n\n    function transferFrom(address sender, address recipient, uint256 amount) public override returns (bool) {\n        if (_allowances[sender][msg.sender] != type(uint256).max) {\n            _allowances[sender][msg.sender] -= amount;\n        }\n        return _transfer(sender, recipient, amount);\n    }\n  \n    function _transfer(\n        address from,\n        address to,\n        uint256 amount\n    ) internal returns(bool){\n        \n        uint256 amountToTransfer = amount;\n\n        require(from != address(0), \"ARC20: transfer from the zero address\");\n        require(to != address(0), \"ARC20: transfer to the zero address\"); \n        require(!_isBlacklisted[from] && !_isBlacklisted[to], \"Blacklisted address\");\n\n\t\tif (!isMTNAddress(from) && !isMTNAddress(to)) {\n\n            \n\t\t \tif (tradingOpen) {\n                \n                require(amount <= maxTx, 'Transaction Limit Exceeded');\n\n                if (traderJoePair!=to) {      // Note update : useless since we are in a if        \n\t\t \t\t    require(amount + balanceOf(address(to)) <= maxWallet, \"Transfer amount too high\");\n                }\n\n\t\t \t}\n\n\t\t\tif (!tradingOpen && from == traderJoePair) {\n\n\t\t \t\t_isBlacklisted[to] = true;  \n                //return false; // User is blacklisted and won't buy tokens\n\n\t\t \t}\n\n\n            if(tradingOpen && from != traderJoePair) { // Note : added tradingOpen because timestamps need to be set\n               amountToTransfer = takeSellFee(from, amount);\n            }\n\t\t}\n\n       \n        _balances[from] = _balances[from] - amountToTransfer;\n        _balances[to] = _balances[to] + amountToTransfer;\n\n        emit Transfer(from, to, amountToTransfer);\n        return true;\n    }\n\n\n\n    function takeSellFee(address sender, uint256 amount) internal returns (uint256) {\n        uint256 feeAmount = (amount * sellFee) / PER_MILLE;\n\n        if(block.timestamp < endSellFeeTimestamp) {\n            feeAmount += ((amount * initialAdditionnalSellFee * \n                                    (TWO_DAYS - (block.timestamp - launchSellFeeTimestamp)) / (TWO_DAYS))\n                                    / PER_MILLE);\n        }\n\n\n        _balances[address(this)] += feeAmount;\n        _balances[sender] -= feeAmount;\n        \n        // TODO : Check if the transfer is to the SC or the reward pool ?\n        emit Transfer(sender, address(this), feeAmount);\n\n        return amount - feeAmount;\n    }\n\n\n    /** \n        @param tokens : The amount of tokens. \n        @dev For more details, see the functions swapTokensForAvax and addLiquidity\n    */  \n    function swapAndLiquify(uint256 tokens) private {\n\n        // Split the amount of tokens in half\n        uint256 half = tokens/2;\n        uint256 otherHalf = tokens-half; //TODO : removed this o ?\n\n        // Store the initial AVAX balance\n        uint256 initialBalance = address(this).balance;\n\n        // Swap 50% of the tokens to AVAX\n        swapTokensForAvax(half);\n\n        // Calculate the amount of AVAX swapped\n        uint256 newBalance = address(this).balance-initialBalance;\n\n        // Add liquidity by adding 50% of tokens and the AVAX that was swapped\n        addLiquidity(otherHalf, newBalance);\n\n        // Emit an event for the logs\n        emit SwapAndLiquify(otherHalf, newBalance);\n    }\n\n\n    /** \n        @param tokenAmount : The amount of tokens\n        @param avaxAmount  : The amount of Avax\n        \n        @dev This function is responsible for adding liquidity to the liquidity pool MTN-AVAX\n             tokenAmount in dollar value = avaxAmount in dollar value.\n    */  \n    function addLiquidity(uint256 tokenAmount, uint256 avaxAmount) private {\n\n        // approve token transfer to cover all possible scenarios\n        _approve(address(this), address(traderJoeRouter), tokenAmount);\n\n        // add the liquidity\n        traderJoeRouter.addLiquidityAVAX{value: avaxAmount}(\n            address(this),\n            tokenAmount,\n            0, // slippage is unavoidable\n            0, // slippage is unavoidable\n            lpPool,\n            block.timestamp\n        );\n    }\n\n\n    /** \n        @param tokenAmount : The amount of tokens\n        \n        @dev This function is responsible for swapping MTN to AVAX\n             tokenAmount in dollar value = avaxAmount in dollar value.\n    */  \n    function swapTokensForAvax(uint256 tokenAmount) private {\n\n        // Compute the path (tokens to AVAX)\n        address[] memory path = new address[](2);\n        path[0] = address(this);\n        path[1] = traderJoeRouter.WAVAX();\n\n        // For a swap of tokens to AVAX, we need to approve spending first\n        _approve(address(this), address(traderJoeRouter), tokenAmount);\n\n        // Call the TraderJoe swapping function\n        // Todo : check why we need supportingFee\n        traderJoeRouter.swapExactTokensForAVAXSupportingFeeOnTransferTokens(\n            tokenAmount,\n            0, // accept any amount of AVAX\n            path,\n            address(this),\n            block.timestamp\n        );\n    }    \n\n    /** \n        @param destination : The address of the pool where the AVAX are sent\n        @param tokens      : The amount of tokens to be swapped to AVAX\n    */ \n    function swapAndSendToPool(address destination, uint256 tokens) private {\n        \n        // Store the initial AVAX balance of the SC\n        uint256 initialAVAXBalance = address(this).balance;\n\n        // Swap tokens to AVAX\n        swapTokensForAvax(tokens);\n\n        // Get the total amount of AVAX that was swapped\n        uint256 newBalance = (address(this).balance)-initialAVAXBalance;\n\n        // Send it to the pool\n        payable(destination).transfer(newBalance);\n    }\n\n\n\n    /** \n        @param contractTokenBalance : The amount of tokens in this contract\n        \n        @dev This function handles all the transfers at a node creation \n             when there is enough tokens in the contract\n    */  \n    function multi_swapping(uint256 contractTokenBalance) private inSwap{\n            \n        // Swap some tokens for Avax and send them to the treasury pool\n        uint256 treasuryTokens = contractTokenBalance * treasuryFee / PER_MILLE;\n        swapAndSendToPool(treasuryPool, treasuryTokens);\n\n        // Send some tokens and Avax to the reward pool\n        uint256 rewardsPoolTokens = contractTokenBalance * rewardFee / PER_MILLE;\n        uint256 rewardsTokenstoSwap = rewardsPoolTokens * rewardSwapRatio / PER_MILLE;\n\n        swapAndSendToPool(rewardPool, rewardsTokenstoSwap);\n        //_transfer(address(this),rewardPool, rewardsPoolTokens-rewardsTokenstoSwap);\n   \n\n        // Swap half of some tokens and add liquidity\n        uint256 swapTokens = contractTokenBalance * liquidityFee / PER_MILLE;\n        swapAndLiquify(swapTokens);\n\n        // Swap the rest to Avax and send it to the team Pool\n        //swapAndSendToPool(teamPool, balanceOf(address(this)));\n\n        // // Swap the rest to Avax and keep it in this SC (Old classical way, using payment splitter)\n        swapTokensForAvax(balanceOf(address(this)));        \n\n    }\n\n    /** \n        @param amount : The amount of tokens needed for the node creation \n        @param nodeType : The node type (Lava, Earth or Snow). Should be a uint between 0 and 2.\n        @param referral_code : The referral code (bytes20(0) if None)\n        \n        @dev This function handles the node creation, by calling the nodeRewardManager, \n             and all the transfers to the different pools when there is enough tokens in the contract\n    */  \n    function createNodeAndTransferToPools(uint256 amount, uint256 nodeType, bytes20 referral_code) public {\n\n\n        address sender = _msgSender();\n        require(sender != address(0),\n                \"NODE CREATION: from the 0 address\");\n        require(!_isBlacklisted[sender], \n                \"NODE CREATION: Blacklisted address\");\n        require(sender != treasuryPool && sender != rewardPool,\n                \"NODE CREATION: Pools cannot create nodes\");\n\n\n        uint256 contractTokenBalance = balanceOf(address(this));\n        bool swapAmountOk = contractTokenBalance >= swapTokensAmount;\n        if (!swapping && swapAmountOk) {\n            multi_swapping(contractTokenBalance);\n        }\n\n\n        super.createNode(amount, nodeType);\n\n       // If the sender is whitelisted he can create a free node\n        if (_isWhitelisted[sender]) {\n            _isWhitelisted[sender] = false;\n        }\n        else {\n\n            uint256 amount_to_reward_pool = amount;\n\n            // Get the address of the referral (if no referral code => 0 address) \n            address referral = getAddressFromReferral[referral_code];\n\n            if (referral != address(0)) {\n\n                uint256 amount_to_referral = referral_bonus * amount_to_reward_pool / PER_MILLE;\n                amount_to_reward_pool -= amount_to_referral;\n\n                // Send 5% of the amount to the referral (Note that since this is a transfer there is a transfer fee)\n                _transfer(_msgSender(), referral, amount_to_referral);\n            }\n\n            // TODO: add a require balance ?x\n            _transfer(_msgSender(), address(this), amount_to_reward_pool);  \n        }   \n\n    }    \n\n    /** \n        @param id : The identifier of the node \n        \n        @dev This function uses the identifier to get the rewards of the node and send it to the \n             owner.\n    */ \n    function claimRewards(uint256 id) public {\n\n        address sender = _msgSender();\n\n        // Revert if the sender is the 0 address, blacklisted or a pool address\n        require(sender != address(0),    \n                \"CLAIM REWARD: from the 0 address\");\n        require(!_isBlacklisted[sender], \n                \"CLAIM REWARD: Blacklisted address\");\n        require(sender != treasuryPool && sender != rewardPool,\n                \"CLAIM REWARD: Pools cannot claim rewards\");\n\n        // Uses the nodeRewardManager to get the amount for reward for the node of given id\n        uint256 node_reward = super.getNodeReward(id);\n\n        // A percentage of fee, the claimFee, is applied and some tokens are be kept in the in the reward pool\n        uint256 feeAmount = node_reward*claimFee/PER_MILLE;\n        node_reward -= feeAmount;\n                     \n\n        // Transfer the reward to the owner of the node with given id\n        _transfer(rewardPool, sender, node_reward);\n    }\n\n\n    function claimAllRewards() public {\n\n        address sender = _msgSender();\n\n        // Revert if the sender is the 0 address, blacklisted or a pool address\n        require(sender != address(0),\n                \"CLAIM REWARD: from the 0 address\");\n        require(!_isBlacklisted[sender], \n                \"CLAIM REWARD: Blacklisted address\");\n        require(sender != treasuryPool && sender != rewardPool,\n                \"CLAIM REWARD: Pools cannot claim rewards\");\n\n        // Uses the nodeRewardManager to get the amount for all rewards for the nodes of the sender\n        uint256 node_reward = super.getAllReward();\n\n        // A percentage of fee, the claimFee, is applied and some tokens are be kept in the reward pool\n        uint256 feeAmount = node_reward*claimFee/PER_MILLE;\n        node_reward -= feeAmount;\n        \n        // Transfer all the rewards to the owner of the nodes       \n        _transfer(rewardPool, sender, node_reward);\n    }    \n\n    /* -------------------- PRESALE -------------------- */\n\n\n\n    function setPresaleToken(address _presaleToken) external onlyOwner {\n        presaleToken = IARC20(_presaleToken);\n    }\n\n    function convertPresaleToReal() external {\n        require(address(presaleToken) != address(0), \"Presale token not set\");\n        uint256 balance = presaleToken.balanceOf(msg.sender);\n        require(balance > 0 && balance <= presaleMax, \"Invalid balance\");\n\n        presaleToken.transferFrom(msg.sender, address(this), balance);\n        require(presaleToken.balanceOf(msg.sender) == 0, \"Error with conversion\");\n        \n        _mint(msg.sender, balance);\n    }\n\n}",
  "sourcePath": "/Users/pilu/Desktop/Smart-contract-MTN/contracts/Mountain.sol",
  "compiler": {
    "name": "solc",
    "version": "0.8.12+commit.f00d7308.Emscripten.clang"
  },
  "schemaVersion": "3.4.6",
  "updatedAt": "2022-05-04T15:15:15.763Z",
  "devdoc": {
    "kind": "dev",
    "methods": {
      "addTokensToRewardPool(uint256)": {
        "params": {
          "amount": ": The amount of tokens to be minted to the reward pool"
        }
      },
      "allowance(address,address)": {
        "details": "See {IARC20-allowance}."
      },
      "approve(address,uint256)": {
        "details": "See {IARC20-approve}. NOTE: If `amount` is the maximum `uint256`, the allowance is not updated on `transferFrom`. This is semantically equivalent to an infinite approval. Requirements: - `spender` cannot be the zero address."
      },
      "balanceOf(address)": {
        "details": "See {IARC20-balanceOf}."
      },
      "blacklistMalicious(address,bool)": {
        "params": {
          "account": ": The address to be blacklisted or not",
          "value": ": boolean to set the address to the blacklist or not"
        }
      },
      "calculateRewards(uint256)": {
        "details": "This function calculates reward every time it's called. Contrary to classical Node SC,  we believe that this way of doing is more efficient gas-wise. The reward is calculated based on the last time it was claimed (or the first time the node was created), and on the daily reward.",
        "params": {
          "_id": ": The identifier of the node.  "
        }
      },
      "claimRewards(uint256)": {
        "details": "This function uses the identifier to get the rewards of the node and send it to the  owner.",
        "params": {
          "id": ": The identifier of the node "
        }
      },
      "createNodeAndTransferToPools(uint256,uint256,bytes20)": {
        "details": "This function handles the node creation, by calling the nodeRewardManager,  and all the transfers to the different pools when there is enough tokens in the contract",
        "params": {
          "amount": ": The amount of tokens needed for the node creation ",
          "nodeType": ": The node type (Lava, Earth or Snow). Should be a uint between 0 and 2.",
          "referral_code": ": The referral code (bytes20(0) if None)"
        }
      },
      "decimals()": {
        "details": "Returns the number of decimals used to get its user representation. For example, if `decimals` equals `2`, a balance of `505` tokens should be displayed to a user as `5.05` (`505 / 10 ** 2`). Tokens usually opt for a value of 18, imitating the relationship between Ether and Wei. This is the value {ARC20} uses, unless this function is overridden; NOTE: This information is only used for _display_ purposes: it in no way affects any of the arithmetic of the contract, including {IARC20-balanceOf} and {IARC20-transfer}."
      },
      "decreaseAllowance(address,uint256)": {
        "details": "Atomically decreases the allowance granted to `spender` by the caller. This is an alternative to {approve} that can be used as a mitigation for problems described in {IARC20-approve}. Emits an {Approval} event indicating the updated allowance. Requirements: - `spender` cannot be the zero address. - `spender` must have allowance for the caller of at least `subtractedValue`."
      },
      "getNodePrice(uint256)": {
        "params": {
          "node_type": ": The node type (Lava, Earth or Snow). Must be between 0 and 2 "
        },
        "returns": {
          "_0": "uint256 : The current node price for the given type  "
        }
      },
      "getNumberOfNodes(address)": {
        "params": {
          "account": ": The address of the account that supposedly has nodes"
        },
        "returns": {
          "_0": "uint256 : The number of nodes the account has"
        }
      },
      "getReferralCode(address)": {
        "params": {
          "user": ": The address of the user"
        },
        "returns": {
          "_0": "bytes20 : The referral code for the address "
        }
      },
      "increaseAllowance(address,uint256)": {
        "details": "Atomically increases the allowance granted to `spender` by the caller. This is an alternative to {approve} that can be used as a mitigation for problems described in {IARC20-approve}. Emits an {Approval} event indicating the updated allowance. Requirements: - `spender` cannot be the zero address."
      },
      "isNodeOwner(address)": {
        "params": {
          "account": ": The address of the account that supposedly has nodes"
        },
        "returns": {
          "_0": "bool    : True if the account has at least one Node"
        }
      },
      "name()": {
        "details": "Returns the name of the token."
      },
      "openTrading()": {
        "details": "Start trading (after adding liquidity, and waiting some time in order to blacklist bots)"
      },
      "owner()": {
        "details": "Returns the address of the current owner."
      },
      "renounceOwnership()": {
        "details": "Leaves the contract without owner. It will not be possible to call `onlyOwner` functions anymore. Can only be called by the current owner. NOTE: Renouncing ownership will leave the contract without an owner, thereby removing any functionality that is only available to the owner."
      },
      "setClaimTime(uint128)": {
        "params": {
          "newTime": ": The new min claim time that needs to be respected before claiming reward "
        }
      },
      "setIsPool(address,bool)": {
        "params": {
          "account": ": The account that is set, or not, as a pool",
          "value": ": If true the account is set as a pool"
        }
      },
      "setNodeCreation(bool)": {
        "params": {
          "enableNodeCreation": ": Boolean to enable or disable the node creation  "
        }
      },
      "setNodePrice(uint256,uint256,uint256)": {
        "params": {
          "Earth": ": The amount of tokens (without the decimals) of the Earth node ",
          "Ice": ": The amount of tokens (without the decimals) of the Ice node ",
          "Lava": ": The amount of tokens (without the decimals) of the Lava node "
        }
      },
      "setRewardPerNode(uint256,uint256,uint256)": {
        "details": "The percentages are set with 100% corresponding to 1_000 (Meaning 10% = 100)",
        "params": {
          "Earth": ": The daily reward (in percentages) for the Earth node ",
          "Ice": ": The daily reward (in percentages) for the Ice node ",
          "Lava": ": The daily reward (in percentages) for the Lava node "
        }
      },
      "setSwapTokensAmount(uint256)": {
        "params": {
          "newVal": ": Boolean to set the min amount of tokens requested for a multi-swap"
        }
      },
      "symbol()": {
        "details": "Returns the symbol of the token, usually a shorter version of the name."
      },
      "totalSupply()": {
        "details": "See {IARC20-totalSupply}."
      },
      "transferOwnership(address)": {
        "details": "Transfers ownership of the contract to a new account (`newOwner`). Can only be called by the current owner."
      },
      "updateClaimFee(uint32)": {
        "params": {
          "value": ": The new fee to be taken at each user claim "
        }
      },
      "updateLiquidityWallet(address)": {
        "params": {
          "walletAddress": ": The new wallet address for the pool that holds the LP tokens"
        }
      },
      "updateMaxTx(uint256)": {
        "params": {
          "value": ": The new max amount of tokens per tx"
        }
      },
      "updateMaxWallet(uint256)": {
        "params": {
          "value": ": The new max amount of tokens per wallet"
        }
      },
      "updateMultiswapFee(uint32,uint32,uint32,uint32)": {
        "details": "The sum of all fees should equal 1_000 (100%)",
        "params": {
          "_liquidityFee": ": The new fee for the liquidity pool when a new node is created",
          "_rewardFee": ": The new fee for the reward pool when a new node is created",
          "_teamFee": ": The new fee for the team pool when a new node is created",
          "_treasuryFee": ": The new fee for the treasury pool when a new node is created"
        }
      },
      "updateRewardSwapRatio(uint32)": {
        "params": {
          "value": ": The new reward swap ratio.  This is the percentage of tokens that will be swapped and sent to the reward Pool. "
        }
      },
      "updateRewardWallet(address)": {
        "params": {
          "walletAddress": ": The new wallet address for the reward pool"
        }
      },
      "updateSellFee(uint32)": {
        "params": {
          "value": ": The new fee to be taken at each user sell "
        }
      },
      "updateTeamyWallet(address)": {
        "params": {
          "walletAddress": ": The new wallet address for the team pool"
        }
      },
      "updateTransferFee(uint32)": {
        "params": {
          "value": ": The new fee to be taken at each user node transfer "
        }
      },
      "updateTreasuryWallet(address)": {
        "params": {
          "walletAddress": ": The new wallet address for the treasury pool"
        }
      },
      "whitelisteUser(address,bool)": {
        "params": {
          "account": ": The address to be whitelisted or not",
          "value": ": boolean to set the address to the whitelist or not"
        }
      }
    },
    "version": 1
  },
  "userdoc": {
    "kind": "user",
    "methods": {
      "updateClaimFee(uint32)": {
        "notice": "The max value for 100% is 1_000, i.e. 100 is 10%"
      },
      "updateMultiswapFee(uint32,uint32,uint32,uint32)": {
        "notice": "The max value for 100% is 1_000, i.e. 100 is 10%"
      },
      "updateRewardSwapRatio(uint32)": {
        "notice": "The max value for 100% is 1_000, i.e. 100 is 10%"
      },
      "updateSellFee(uint32)": {
        "notice": "The max value for 100% is 1_000, i.e. 100 is 10%"
      },
      "updateTransferFee(uint32)": {
        "notice": "The max value for 100% is 1_000, i.e. 100 is 10%"
      }
    },
    "version": 1
  }
}