{
  "contractName": "Mountain",
  "abi": [
    {
      "inputs": [
        {
          "internalType": "address[]",
          "name": "addresses",
          "type": "address[]"
        }
      ],
      "stateMutability": "nonpayable",
      "type": "constructor"
    },
    {
      "anonymous": false,
      "inputs": [
        {
          "indexed": true,
          "internalType": "address",
          "name": "owner",
          "type": "address"
        },
        {
          "indexed": true,
          "internalType": "address",
          "name": "spender",
          "type": "address"
        },
        {
          "indexed": false,
          "internalType": "uint256",
          "name": "value",
          "type": "uint256"
        }
      ],
      "name": "Approval",
      "type": "event"
    },
    {
      "anonymous": false,
      "inputs": [
        {
          "indexed": true,
          "internalType": "address",
          "name": "previousOwner",
          "type": "address"
        },
        {
          "indexed": true,
          "internalType": "address",
          "name": "newOwner",
          "type": "address"
        }
      ],
      "name": "OwnershipTransferred",
      "type": "event"
    },
    {
      "anonymous": false,
      "inputs": [
        {
          "indexed": false,
          "internalType": "uint256",
          "name": "otherHalf",
          "type": "uint256"
        },
        {
          "indexed": false,
          "internalType": "uint256",
          "name": "newBalance",
          "type": "uint256"
        }
      ],
      "name": "SwapAndLiquify",
      "type": "event"
    },
    {
      "anonymous": false,
      "inputs": [
        {
          "indexed": true,
          "internalType": "address",
          "name": "from",
          "type": "address"
        },
        {
          "indexed": true,
          "internalType": "address",
          "name": "to",
          "type": "address"
        },
        {
          "indexed": false,
          "internalType": "uint256",
          "name": "value",
          "type": "uint256"
        }
      ],
      "name": "Transfer",
      "type": "event"
    },
    {
      "inputs": [
        {
          "internalType": "address",
          "name": "",
          "type": "address"
        }
      ],
      "name": "_isBlacklisted",
      "outputs": [
        {
          "internalType": "bool",
          "name": "",
          "type": "bool"
        }
      ],
      "stateMutability": "view",
      "type": "function",
      "constant": true
    },
    {
      "inputs": [
        {
          "internalType": "address",
          "name": "",
          "type": "address"
        },
        {
          "internalType": "uint256",
          "name": "",
          "type": "uint256"
        }
      ],
      "name": "accountNodes",
      "outputs": [
        {
          "internalType": "uint256",
          "name": "",
          "type": "uint256"
        }
      ],
      "stateMutability": "view",
      "type": "function",
      "constant": true
    },
    {
      "inputs": [
        {
          "internalType": "address",
          "name": "owner",
          "type": "address"
        },
        {
          "internalType": "address",
          "name": "spender",
          "type": "address"
        }
      ],
      "name": "allowance",
      "outputs": [
        {
          "internalType": "uint256",
          "name": "",
          "type": "uint256"
        }
      ],
      "stateMutability": "view",
      "type": "function",
      "constant": true
    },
    {
      "inputs": [
        {
          "internalType": "address",
          "name": "spender",
          "type": "address"
        },
        {
          "internalType": "uint256",
          "name": "amount",
          "type": "uint256"
        }
      ],
      "name": "approve",
      "outputs": [
        {
          "internalType": "bool",
          "name": "",
          "type": "bool"
        }
      ],
      "stateMutability": "nonpayable",
      "type": "function"
    },
    {
      "inputs": [
        {
          "internalType": "address",
          "name": "account",
          "type": "address"
        }
      ],
      "name": "balanceOf",
      "outputs": [
        {
          "internalType": "uint256",
          "name": "",
          "type": "uint256"
        }
      ],
      "stateMutability": "view",
      "type": "function",
      "constant": true
    },
    {
      "inputs": [
        {
          "internalType": "uint256",
          "name": "_id",
          "type": "uint256"
        }
      ],
      "name": "calculateRewards",
      "outputs": [
        {
          "internalType": "uint256",
          "name": "",
          "type": "uint256"
        }
      ],
      "stateMutability": "view",
      "type": "function",
      "constant": true
    },
    {
      "inputs": [],
      "name": "claimMinTime",
      "outputs": [
        {
          "internalType": "uint128",
          "name": "",
          "type": "uint128"
        }
      ],
      "stateMutability": "view",
      "type": "function",
      "constant": true
    },
    {
      "inputs": [
        {
          "internalType": "uint256",
          "name": "_amount",
          "type": "uint256"
        },
        {
          "internalType": "uint256",
          "name": "_nodeType",
          "type": "uint256"
        },
        {
          "internalType": "address",
          "name": "_referral",
          "type": "address"
        }
      ],
      "name": "createNode",
      "outputs": [],
      "stateMutability": "nonpayable",
      "type": "function"
    },
    {
      "inputs": [
        {
          "internalType": "uint256",
          "name": "",
          "type": "uint256"
        }
      ],
      "name": "dailyReward",
      "outputs": [
        {
          "internalType": "uint256",
          "name": "",
          "type": "uint256"
        }
      ],
      "stateMutability": "view",
      "type": "function",
      "constant": true
    },
    {
      "inputs": [],
      "name": "decimals",
      "outputs": [
        {
          "internalType": "uint8",
          "name": "",
          "type": "uint8"
        }
      ],
      "stateMutability": "view",
      "type": "function",
      "constant": true
    },
    {
      "inputs": [
        {
          "internalType": "address",
          "name": "spender",
          "type": "address"
        },
        {
          "internalType": "uint256",
          "name": "subtractedValue",
          "type": "uint256"
        }
      ],
      "name": "decreaseAllowance",
      "outputs": [
        {
          "internalType": "bool",
          "name": "",
          "type": "bool"
        }
      ],
      "stateMutability": "nonpayable",
      "type": "function"
    },
    {
      "inputs": [],
      "name": "getAllReward",
      "outputs": [
        {
          "internalType": "uint256",
          "name": "",
          "type": "uint256"
        }
      ],
      "stateMutability": "nonpayable",
      "type": "function"
    },
    {
      "inputs": [
        {
          "internalType": "uint256",
          "name": "_id",
          "type": "uint256"
        }
      ],
      "name": "getMountainNodeById",
      "outputs": [
        {
          "components": [
            {
              "internalType": "uint256",
              "name": "id",
              "type": "uint256"
            },
            {
              "internalType": "uint256",
              "name": "timestamp",
              "type": "uint256"
            },
            {
              "internalType": "uint256",
              "name": "nodeType",
              "type": "uint256"
            },
            {
              "internalType": "address",
              "name": "owner",
              "type": "address"
            }
          ],
          "internalType": "struct MountainRewardManager.MountainNode",
          "name": "",
          "type": "tuple"
        }
      ],
      "stateMutability": "view",
      "type": "function",
      "constant": true
    },
    {
      "inputs": [
        {
          "internalType": "uint256",
          "name": "node_type",
          "type": "uint256"
        }
      ],
      "name": "getNodePrice",
      "outputs": [
        {
          "internalType": "uint256",
          "name": "",
          "type": "uint256"
        }
      ],
      "stateMutability": "view",
      "type": "function",
      "constant": true
    },
    {
      "inputs": [
        {
          "internalType": "uint256",
          "name": "_id",
          "type": "uint256"
        }
      ],
      "name": "getNodeReward",
      "outputs": [
        {
          "internalType": "uint256",
          "name": "",
          "type": "uint256"
        }
      ],
      "stateMutability": "nonpayable",
      "type": "function"
    },
    {
      "inputs": [
        {
          "internalType": "address",
          "name": "account",
          "type": "address"
        }
      ],
      "name": "getNumberOfNodes",
      "outputs": [
        {
          "internalType": "uint256",
          "name": "",
          "type": "uint256"
        }
      ],
      "stateMutability": "view",
      "type": "function",
      "constant": true
    },
    {
      "inputs": [
        {
          "internalType": "address",
          "name": "spender",
          "type": "address"
        },
        {
          "internalType": "uint256",
          "name": "addedValue",
          "type": "uint256"
        }
      ],
      "name": "increaseAllowance",
      "outputs": [
        {
          "internalType": "bool",
          "name": "",
          "type": "bool"
        }
      ],
      "stateMutability": "nonpayable",
      "type": "function"
    },
    {
      "inputs": [
        {
          "internalType": "address",
          "name": "account",
          "type": "address"
        }
      ],
      "name": "isNodeOwner",
      "outputs": [
        {
          "internalType": "bool",
          "name": "",
          "type": "bool"
        }
      ],
      "stateMutability": "view",
      "type": "function",
      "constant": true
    },
    {
      "inputs": [],
      "name": "liquidityPool",
      "outputs": [
        {
          "internalType": "address",
          "name": "",
          "type": "address"
        }
      ],
      "stateMutability": "view",
      "type": "function",
      "constant": true
    },
    {
      "inputs": [],
      "name": "name",
      "outputs": [
        {
          "internalType": "string",
          "name": "",
          "type": "string"
        }
      ],
      "stateMutability": "view",
      "type": "function",
      "constant": true
    },
    {
      "inputs": [],
      "name": "nodeCreationEnabled",
      "outputs": [
        {
          "internalType": "bool",
          "name": "",
          "type": "bool"
        }
      ],
      "stateMutability": "view",
      "type": "function",
      "constant": true
    },
    {
      "inputs": [
        {
          "internalType": "uint256",
          "name": "",
          "type": "uint256"
        }
      ],
      "name": "nodeMapping",
      "outputs": [
        {
          "internalType": "uint256",
          "name": "id",
          "type": "uint256"
        },
        {
          "internalType": "uint256",
          "name": "timestamp",
          "type": "uint256"
        },
        {
          "internalType": "uint256",
          "name": "nodeType",
          "type": "uint256"
        },
        {
          "internalType": "address",
          "name": "owner",
          "type": "address"
        }
      ],
      "stateMutability": "view",
      "type": "function",
      "constant": true
    },
    {
      "inputs": [
        {
          "internalType": "uint256",
          "name": "",
          "type": "uint256"
        }
      ],
      "name": "nodePrice",
      "outputs": [
        {
          "internalType": "uint256",
          "name": "",
          "type": "uint256"
        }
      ],
      "stateMutability": "view",
      "type": "function",
      "constant": true
    },
    {
      "inputs": [],
      "name": "numberOfNodes",
      "outputs": [
        {
          "internalType": "uint256",
          "name": "",
          "type": "uint256"
        }
      ],
      "stateMutability": "view",
      "type": "function",
      "constant": true
    },
    {
      "inputs": [],
      "name": "owner",
      "outputs": [
        {
          "internalType": "address",
          "name": "",
          "type": "address"
        }
      ],
      "stateMutability": "view",
      "type": "function",
      "constant": true
    },
    {
      "inputs": [
        {
          "internalType": "address",
          "name": "",
          "type": "address"
        }
      ],
      "name": "referrals",
      "outputs": [
        {
          "internalType": "uint32",
          "name": "",
          "type": "uint32"
        }
      ],
      "stateMutability": "view",
      "type": "function",
      "constant": true
    },
    {
      "inputs": [],
      "name": "renounceOwnership",
      "outputs": [],
      "stateMutability": "nonpayable",
      "type": "function"
    },
    {
      "inputs": [],
      "name": "rewardPool",
      "outputs": [
        {
          "internalType": "address",
          "name": "",
          "type": "address"
        }
      ],
      "stateMutability": "view",
      "type": "function",
      "constant": true
    },
    {
      "inputs": [
        {
          "internalType": "uint128",
          "name": "newTime",
          "type": "uint128"
        }
      ],
      "name": "setClaimTime",
      "outputs": [],
      "stateMutability": "nonpayable",
      "type": "function"
    },
    {
      "inputs": [
        {
          "internalType": "bool",
          "name": "enableNodeCreation",
          "type": "bool"
        }
      ],
      "name": "setNodeCreation",
      "outputs": [],
      "stateMutability": "nonpayable",
      "type": "function"
    },
    {
      "inputs": [
        {
          "internalType": "uint256",
          "name": "Lava",
          "type": "uint256"
        },
        {
          "internalType": "uint256",
          "name": "Snow",
          "type": "uint256"
        },
        {
          "internalType": "uint256",
          "name": "Earth",
          "type": "uint256"
        }
      ],
      "name": "setNodePrice",
      "outputs": [],
      "stateMutability": "nonpayable",
      "type": "function"
    },
    {
      "inputs": [
        {
          "internalType": "uint256",
          "name": "Lava",
          "type": "uint256"
        },
        {
          "internalType": "uint256",
          "name": "Snow",
          "type": "uint256"
        },
        {
          "internalType": "uint256",
          "name": "Earth",
          "type": "uint256"
        }
      ],
      "name": "setRewardPerNode",
      "outputs": [],
      "stateMutability": "nonpayable",
      "type": "function"
    },
    {
      "inputs": [],
      "name": "swapTokensAmount",
      "outputs": [
        {
          "internalType": "uint256",
          "name": "",
          "type": "uint256"
        }
      ],
      "stateMutability": "view",
      "type": "function",
      "constant": true
    },
    {
      "inputs": [],
      "name": "swapping",
      "outputs": [
        {
          "internalType": "bool",
          "name": "",
          "type": "bool"
        }
      ],
      "stateMutability": "view",
      "type": "function",
      "constant": true
    },
    {
      "inputs": [],
      "name": "symbol",
      "outputs": [
        {
          "internalType": "string",
          "name": "",
          "type": "string"
        }
      ],
      "stateMutability": "view",
      "type": "function",
      "constant": true
    },
    {
      "inputs": [],
      "name": "totalSupply",
      "outputs": [
        {
          "internalType": "uint256",
          "name": "",
          "type": "uint256"
        }
      ],
      "stateMutability": "view",
      "type": "function",
      "constant": true
    },
    {
      "inputs": [],
      "name": "traderJoePair",
      "outputs": [
        {
          "internalType": "address",
          "name": "",
          "type": "address"
        }
      ],
      "stateMutability": "view",
      "type": "function",
      "constant": true
    },
    {
      "inputs": [],
      "name": "traderJoePairTest",
      "outputs": [
        {
          "internalType": "address",
          "name": "",
          "type": "address"
        }
      ],
      "stateMutability": "view",
      "type": "function",
      "constant": true
    },
    {
      "inputs": [
        {
          "internalType": "uint256",
          "name": "_id",
          "type": "uint256"
        },
        {
          "internalType": "address",
          "name": "_owner",
          "type": "address"
        },
        {
          "internalType": "address",
          "name": "_recipient",
          "type": "address"
        }
      ],
      "name": "transferNode",
      "outputs": [],
      "stateMutability": "nonpayable",
      "type": "function"
    },
    {
      "inputs": [
        {
          "internalType": "address",
          "name": "newOwner",
          "type": "address"
        }
      ],
      "name": "transferOwnership",
      "outputs": [],
      "stateMutability": "nonpayable",
      "type": "function"
    },
    {
      "inputs": [],
      "name": "treasuryPool",
      "outputs": [
        {
          "internalType": "address",
          "name": "",
          "type": "address"
        }
      ],
      "stateMutability": "view",
      "type": "function",
      "constant": true
    },
    {
      "stateMutability": "payable",
      "type": "receive",
      "payable": true
    },
    {
      "inputs": [],
      "name": "createPair",
      "outputs": [],
      "stateMutability": "nonpayable",
      "type": "function"
    },
    {
      "inputs": [
        {
          "internalType": "address",
          "name": "account",
          "type": "address"
        },
        {
          "internalType": "bool",
          "name": "value",
          "type": "bool"
        }
      ],
      "name": "blacklistMalicious",
      "outputs": [],
      "stateMutability": "nonpayable",
      "type": "function"
    },
    {
      "inputs": [
        {
          "internalType": "uint256",
          "name": "newVal",
          "type": "uint256"
        }
      ],
      "name": "setSwapTokensAmount",
      "outputs": [],
      "stateMutability": "nonpayable",
      "type": "function"
    },
    {
      "inputs": [
        {
          "internalType": "address payable",
          "name": "walletAddress",
          "type": "address"
        }
      ],
      "name": "updateTreasuryWallet",
      "outputs": [],
      "stateMutability": "nonpayable",
      "type": "function"
    },
    {
      "inputs": [
        {
          "internalType": "address payable",
          "name": "walletAddress",
          "type": "address"
        }
      ],
      "name": "updateRewardWallet",
      "outputs": [],
      "stateMutability": "nonpayable",
      "type": "function"
    },
    {
      "inputs": [
        {
          "internalType": "address payable",
          "name": "walletAddress",
          "type": "address"
        }
      ],
      "name": "updateLiquidityWallet",
      "outputs": [],
      "stateMutability": "nonpayable",
      "type": "function"
    },
    {
      "inputs": [
        {
          "internalType": "uint32",
          "name": "value",
          "type": "uint32"
        }
      ],
      "name": "updateRewardsFee",
      "outputs": [],
      "stateMutability": "nonpayable",
      "type": "function"
    },
    {
      "inputs": [
        {
          "internalType": "uint32",
          "name": "value",
          "type": "uint32"
        }
      ],
      "name": "updateLiquiditFee",
      "outputs": [],
      "stateMutability": "nonpayable",
      "type": "function"
    },
    {
      "inputs": [
        {
          "internalType": "uint32",
          "name": "value",
          "type": "uint32"
        }
      ],
      "name": "updateTreasuryFee",
      "outputs": [],
      "stateMutability": "nonpayable",
      "type": "function"
    },
    {
      "inputs": [
        {
          "internalType": "uint32",
          "name": "value",
          "type": "uint32"
        }
      ],
      "name": "updateClaimFee",
      "outputs": [],
      "stateMutability": "nonpayable",
      "type": "function"
    },
    {
      "inputs": [
        {
          "internalType": "uint32",
          "name": "value",
          "type": "uint32"
        }
      ],
      "name": "updateSellFee",
      "outputs": [],
      "stateMutability": "nonpayable",
      "type": "function"
    },
    {
      "inputs": [
        {
          "internalType": "uint32",
          "name": "value",
          "type": "uint32"
        }
      ],
      "name": "updateTransferFee",
      "outputs": [],
      "stateMutability": "nonpayable",
      "type": "function"
    },
    {
      "inputs": [
        {
          "internalType": "uint32",
          "name": "value",
          "type": "uint32"
        }
      ],
      "name": "updateRewardSwapRatio",
      "outputs": [],
      "stateMutability": "nonpayable",
      "type": "function"
    },
    {
      "inputs": [
        {
          "internalType": "address",
          "name": "account",
          "type": "address"
        },
        {
          "internalType": "bool",
          "name": "value",
          "type": "bool"
        }
      ],
      "name": "setIsPool",
      "outputs": [],
      "stateMutability": "nonpayable",
      "type": "function"
    },
    {
      "inputs": [
        {
          "internalType": "uint256",
          "name": "value",
          "type": "uint256"
        }
      ],
      "name": "updateMaxTx",
      "outputs": [],
      "stateMutability": "nonpayable",
      "type": "function"
    },
    {
      "inputs": [
        {
          "internalType": "uint256",
          "name": "value",
          "type": "uint256"
        }
      ],
      "name": "updateMaxWallet",
      "outputs": [],
      "stateMutability": "nonpayable",
      "type": "function"
    },
    {
      "inputs": [],
      "name": "openTrading",
      "outputs": [],
      "stateMutability": "nonpayable",
      "type": "function"
    },
    {
      "inputs": [
        {
          "internalType": "uint256",
          "name": "amount",
          "type": "uint256"
        }
      ],
      "name": "addTokensToRewardPool",
      "outputs": [],
      "stateMutability": "nonpayable",
      "type": "function"
    },
    {
      "inputs": [
        {
          "internalType": "address",
          "name": "recipient",
          "type": "address"
        },
        {
          "internalType": "uint256",
          "name": "amount",
          "type": "uint256"
        }
      ],
      "name": "transfer",
      "outputs": [
        {
          "internalType": "bool",
          "name": "",
          "type": "bool"
        }
      ],
      "stateMutability": "nonpayable",
      "type": "function"
    },
    {
      "inputs": [
        {
          "internalType": "address",
          "name": "sender",
          "type": "address"
        },
        {
          "internalType": "address",
          "name": "recipient",
          "type": "address"
        },
        {
          "internalType": "uint256",
          "name": "amount",
          "type": "uint256"
        }
      ],
      "name": "transferFrom",
      "outputs": [
        {
          "internalType": "bool",
          "name": "",
          "type": "bool"
        }
      ],
      "stateMutability": "nonpayable",
      "type": "function"
    },
    {
      "inputs": [
        {
          "internalType": "uint256",
          "name": "amount",
          "type": "uint256"
        },
        {
          "internalType": "uint256",
          "name": "nodeType",
          "type": "uint256"
        },
        {
          "internalType": "address",
          "name": "referral",
          "type": "address"
        }
      ],
      "name": "createNodeAndTransferToPools",
      "outputs": [],
      "stateMutability": "nonpayable",
      "type": "function"
    },
    {
      "inputs": [
        {
          "internalType": "uint256",
          "name": "id",
          "type": "uint256"
        }
      ],
      "name": "claimRewards",
      "outputs": [],
      "stateMutability": "nonpayable",
      "type": "function"
    },
    {
      "inputs": [],
      "name": "claimAllRewards",
      "outputs": [],
      "stateMutability": "nonpayable",
      "type": "function"
    }
  ],
  "bytecode": "0x6080604052600060065561a8c0600760006101000a8154816fffffffffffffffffffffffffffffffff02191690836fffffffffffffffffffffffffffffffff1602179055506040518060600160405280674563918244f4000068ffffffffffffffffff16815260200168015af1d78b58c4000068ffffffffffffffffff16815260200168056bc75e2d6310000068ffffffffffffffffff168152506008906003620000ac92919062000c08565b506040518060600160405280600560ff168152602001600f60ff168152602001603260ff16815250600b906003620000e692919062000c5a565b506001601060006101000a8154816fffffffffffffffffffffffffffffffff02191690836fffffffffffffffffffffffffffffffff1602179055506001601260006101000a81548160ff0219169083151502179055506012600a6200014c919062000eee565b633b9aca006200015d919062000f3f565b601355600a601860006101000a81548167ffffffffffffffff021916908367ffffffffffffffff160217905550600a601860086101000a81548167ffffffffffffffff021916908367ffffffffffffffff1602179055506050601860106101000a81548167ffffffffffffffff021916908367ffffffffffffffff16021790555060646018806101000a81548167ffffffffffffffff021916908367ffffffffffffffff1602179055506032601960006101000a81548163ffffffff021916908363ffffffff1602179055506064601960046101000a81548163ffffffff021916908363ffffffff1602179055506032601960086101000a81548163ffffffff021916908363ffffffff160217905550601960089054906101000a900463ffffffff16601960049054906101000a900463ffffffff16601960009054906101000a900463ffffffff16620002b2919062000fb0565b620002be919062000fb0565b6019600c6101000a81548163ffffffff021916908363ffffffff1602179055506032601960106101000a81548163ffffffff021916908363ffffffff1602179055506014601960146101000a81548163ffffffff021916908363ffffffff1602179055506064601960186101000a81548163ffffffff021916908363ffffffff1602179055506101f46019601c6101000a81548163ffffffff021916908363ffffffff160217905550732d99abd9008dc933ff5c0cd271b88309593ab921601d60006101000a81548173ffffffffffffffffffffffffffffffffffffffff021916908373ffffffffffffffffffffffffffffffffffffffff1602179055506000601d60146101000a81548160ff0219169083151502179055506012600a620003e7919062000eee565b6014620003f5919062000f3f565b601e556012600a62000408919062000eee565b6103e862000417919062000f3f565b601f556012600a6200042a919062000eee565b61271062000439919062000f3f565b6020556001602160006101000a81548160ff0219169083151502179055503480156200046457600080fd5b50604051620083713803806200837183398181016040528101906200048a9190620011df565b6040518060400160405280600381526020017f4d544e00000000000000000000000000000000000000000000000000000000008152506040518060400160405280600881526020017f4d6f756e7461696e00000000000000000000000000000000000000000000000081525081600390805190602001906200050e92919062000ca4565b5080600490805190602001906200052792919062000ca4565b50505060006200054562000965640100000000026401000000009004565b905080600560006101000a81548173ffffffffffffffffffffffffffffffffffffffff021916908373ffffffffffffffffffffffffffffffffffffffff1602179055508073ffffffffffffffffffffffffffffffffffffffff16600073ffffffffffffffffffffffffffffffffffffffff167f8be0079c531659141344cd1fd0a4f28419497f9722a3daafe3b4186f6b6457e060405160405180910390a35080600081518110620005fb57620005fa62001230565b5b6020026020010151601560006101000a81548173ffffffffffffffffffffffffffffffffffffffff021916908373ffffffffffffffffffffffffffffffffffffffff160217905550806001815181106200065a576200065962001230565b5b6020026020010151601460006101000a81548173ffffffffffffffffffffffffffffffffffffffff021916908373ffffffffffffffffffffffffffffffffffffffff16021790555080600281518110620006b957620006b862001230565b5b6020026020010151601660006101000a81548173ffffffffffffffffffffffffffffffffffffffff021916908373ffffffffffffffffffffffffffffffffffffffff1602179055506200073f601560009054906101000a900473ffffffffffffffffffffffffffffffffffffffff1660016200096d640100000000026401000000009004565b6200077d601460009054906101000a900473ffffffffffffffffffffffffffffffffffffffff1660016200096d640100000000026401000000009004565b620007bb601660009054906101000a900473ffffffffffffffffffffffffffffffffffffffff1660016200096d640100000000026401000000009004565b620008303360188054906101000a900467ffffffffffffffff1667ffffffffffffffff16601860009054906101000a900467ffffffffffffffff1667ffffffffffffffff166013546200080f919062000f3f565b6200081b91906200128e565b62000a73640100000000026401000000009004565b620008c7601560009054906101000a900473ffffffffffffffffffffffffffffffffffffffff1660188054906101000a900467ffffffffffffffff1667ffffffffffffffff16601860109054906101000a900467ffffffffffffffff1667ffffffffffffffff16601354620008a6919062000f3f565b620008b291906200128e565b62000a73640100000000026401000000009004565b6200095e601460009054906101000a900473ffffffffffffffffffffffffffffffffffffffff1660188054906101000a900467ffffffffffffffff1667ffffffffffffffff16601860089054906101000a900467ffffffffffffffff1667ffffffffffffffff166013546200093d919062000f3f565b6200094991906200128e565b62000a73640100000000026401000000009004565b50620014ab565b600033905090565b6200098662000965640100000000026401000000009004565b73ffffffffffffffffffffffffffffffffffffffff16600560009054906101000a900473ffffffffffffffffffffffffffffffffffffffff1673ffffffffffffffffffffffffffffffffffffffff161462000a18576040517f08c379a000000000000000000000000000000000000000000000000000000000815260040162000a0f9062001327565b60405180910390fd5b80601760008473ffffffffffffffffffffffffffffffffffffffff1673ffffffffffffffffffffffffffffffffffffffff16815260200190815260200160002060006101000a81548160ff0219169083151502179055505050565b600073ffffffffffffffffffffffffffffffffffffffff168273ffffffffffffffffffffffffffffffffffffffff16141562000ae6576040517f08c379a000000000000000000000000000000000000000000000000000000000815260040162000add9062001399565b60405180910390fd5b62000b036000838362000bfe640100000000026401000000009004565b806002600082825462000b179190620013bb565b92505081905550806000808473ffffffffffffffffffffffffffffffffffffffff1673ffffffffffffffffffffffffffffffffffffffff168152602001908152602001600020600082825462000b6e9190620013bb565b925050819055508173ffffffffffffffffffffffffffffffffffffffff16600073ffffffffffffffffffffffffffffffffffffffff167fddf252ad1be2c89b69c2b068fc378daa952ba7f163c4a11628f55a4df523b3ef8360405162000bd5919062001429565b60405180910390a362000bfa6000838362000c03640100000000026401000000009004565b5050565b505050565b505050565b826003810192821562000c47579160200282015b8281111562000c46578251829068ffffffffffffffffff1690559160200191906001019062000c1c565b5b50905062000c56919062000d35565b5090565b826003810192821562000c91579160200282015b8281111562000c90578251829060ff1690559160200191906001019062000c6e565b5b50905062000ca0919062000d35565b5090565b82805462000cb29062001475565b90600052602060002090601f01602090048101928262000cd6576000855562000d22565b82601f1062000cf157805160ff191683800117855562000d22565b8280016001018555821562000d22579182015b8281111562000d2157825182559160200191906001019062000d04565b5b50905062000d31919062000d35565b5090565b5b8082111562000d5057600081600090555060010162000d36565b5090565b7f4e487b7100000000000000000000000000000000000000000000000000000000600052601160045260246000fd5b6000600282049050919050565b6000808291508390505b600185111562000de25780860481111562000dba5762000db962000d54565b5b600185161562000dca5780820291505b808102905062000dda8562000d83565b945062000d9a565b94509492505050565b60008262000dfd576001905062000ed0565b8162000e0d576000905062000ed0565b816001811462000e26576002811462000e315762000e67565b600191505062000ed0565b60ff84111562000e465762000e4562000d54565b5b8360020a91508482111562000e605762000e5f62000d54565b5b5062000ed0565b5060208310610133831016604e8410600b841016171562000ea15782820a90508381111562000e9b5762000e9a62000d54565b5b62000ed0565b62000eb0848484600162000d90565b9250905081840481111562000eca5762000ec962000d54565b5b81810290505b9392505050565b6000819050919050565b600060ff82169050919050565b600062000efb8262000ed7565b915062000f088362000ee1565b925062000f377fffffffffffffffffffffffffffffffffffffffffffffffffffffffffffffffff848462000deb565b905092915050565b600062000f4c8262000ed7565b915062000f598362000ed7565b9250817fffffffffffffffffffffffffffffffffffffffffffffffffffffffffffffffff048311821515161562000f955762000f9462000d54565b5b828202905092915050565b600063ffffffff82169050919050565b600062000fbd8262000fa0565b915062000fca8362000fa0565b92508263ffffffff0382111562000fe65762000fe562000d54565b5b828201905092915050565b6000604051905090565b600080fd5b600080fd5b600080fd5b6000601f19601f8301169050919050565b7f4e487b7100000000000000000000000000000000000000000000000000000000600052604160045260246000fd5b62001055826200100a565b810181811067ffffffffffffffff821117156200107757620010766200101b565b5b80604052505050565b60006200108c62000ff1565b90506200109a82826200104a565b919050565b600067ffffffffffffffff821115620010bd57620010bc6200101b565b5b602082029050602081019050919050565b600080fd5b600073ffffffffffffffffffffffffffffffffffffffff82169050919050565b60006200110082620010d3565b9050919050565b6200111281620010f3565b81146200111e57600080fd5b50565b600081519050620011328162001107565b92915050565b60006200114f62001149846200109f565b62001080565b90508083825260208201905060208402830185811115620011755762001174620010ce565b5b835b81811015620011a257806200118d888262001121565b84526020840193505060208101905062001177565b5050509392505050565b600082601f830112620011c457620011c362001005565b5b8151620011d684826020860162001138565b91505092915050565b600060208284031215620011f857620011f762000ffb565b5b600082015167ffffffffffffffff81111562001219576200121862001000565b5b6200122784828501620011ac565b91505092915050565b7f4e487b7100000000000000000000000000000000000000000000000000000000600052603260045260246000fd5b7f4e487b7100000000000000000000000000000000000000000000000000000000600052601260045260246000fd5b60006200129b8262000ed7565b9150620012a88362000ed7565b925082620012bb57620012ba6200125f565b5b828204905092915050565b600082825260208201905092915050565b7f4f776e61626c653a2063616c6c6572206973206e6f7420746865206f776e6572600082015250565b60006200130f602083620012c6565b91506200131c82620012d7565b602082019050919050565b60006020820190508181036000830152620013428162001300565b9050919050565b7f41524332303a206d696e7420746f20746865207a65726f206164647265737300600082015250565b600062001381601f83620012c6565b91506200138e8262001349565b602082019050919050565b60006020820190508181036000830152620013b48162001372565b9050919050565b6000620013c88262000ed7565b9150620013d58362000ed7565b9250827fffffffffffffffffffffffffffffffffffffffffffffffffffffffffffffffff038211156200140d576200140c62000d54565b5b828201905092915050565b620014238162000ed7565b82525050565b600060208201905062001440600083018462001418565b92915050565b7f4e487b7100000000000000000000000000000000000000000000000000000000600052602260045260246000fd5b600060028204905060018216806200148e57607f821691505b60208210811415620014a557620014a462001446565b5b50919050565b616eb680620014bb6000396000f3fe6080604052600436106103e4576000357c01000000000000000000000000000000000000000000000000000000009004806366f5f2b61161020f578063c2d0ffca1161012a578063dd62ed3e116100bd578063f3339be71161008c578063f3339be714610eb8578063fa5f955614610ef5578063fd4781dc14610f1e578063ffecd9dd14610f5e576103eb565b8063dd62ed3e14610e00578063e37ba8f914610e3d578063e3d57b6a14610e66578063f2fde38b14610e8f576103eb565b8063cd002a88116100f9578063cd002a8814610d46578063d3ea435014610d6f578063d59fd90014610dac578063d892934214610dd7576103eb565b8063c2d0ffca14610cb4578063c9567bf914610cdd578063cb0c910814610cf4578063cc600f9114610d1d576103eb565b80638c7a273a116101a25780639e78fb4f116101715780639e78fb4f14610bfa578063a457c2d714610c11578063a9059cbb14610c4e578063b5dcdd3414610c8b576103eb565b80638c7a273a14610b3c5780638da5cb5b14610b6757806395d89b4114610b925780639ca423b314610bbd576103eb565b8063758463e2116101de578063758463e214610a705780637d58efb914610aad578063809d458d14610aea578063876a3aad14610b13576103eb565b806366f5f2b6146109c857806370a08231146109f1578063715018a614610a2e57806373124c9d14610a45576103eb565b80631febb9ea116102ff578063513970a911610292578063615cf8b811610261578063615cf8b81461090c57806364b6c90114610949578063665a11ca1461097257806366666aa91461099d576103eb565b8063513970a91461084e57806354d74e1f146108795780635efd86aa146108a45780635f1c3182146108e1576103eb565b8063432e8688116102ce578063432e86881461079457806343e716fe146107d157806348df5829146107fa57806349e588cf14610825576103eb565b80631febb9ea146106c657806323b872dd146106ef578063313ce5671461072c5780633950935114610757576103eb565b8063173ec75d116103775780631c499ab0116103465780631c499ab01461060e5780631cb5a549146106375780631cdd3be3146106605780631eb599671461069d576103eb565b8063173ec75d1461055457806317fb4c3b1461057d57806318160ddd146105ba5780631a25a608146105e5576103eb565b80630b83a727116103b35780630b83a727146104ac5780630d02f1ba146104c357806315f7aaab146104ec5780631732cded14610529576103eb565b806306fdde03146103f05780630914e0111461041b578063095ea7b3146104465780630962ef7914610483576103eb565b366103eb57005b600080fd5b3480156103fc57600080fd5b50610405610f87565b6040516104129190615586565b60405180910390f35b34801561042757600080fd5b50610430611019565b60405161043d91906155c1565b60405180910390f35b34801561045257600080fd5b5061046d6004803603810190610468919061566b565b611201565b60405161047a91906156c6565b60405180910390f35b34801561048f57600080fd5b506104aa60048036038101906104a591906156e1565b611224565b005b3480156104b857600080fd5b506104c161149c565b005b3480156104cf57600080fd5b506104ea60048036038101906104e5919061574a565b611712565b005b3480156104f857600080fd5b50610513600480360381019061050e9190615777565b61183a565b60405161052091906156c6565b60405180910390f35b34801561053557600080fd5b5061053e611888565b60405161054b91906156c6565b60405180910390f35b34801561056057600080fd5b5061057b6004803603810190610576919061574a565b61189b565b005b34801561058957600080fd5b506105a4600480360381019061059f9190615777565b611956565b6040516105b191906155c1565b60405180910390f35b3480156105c657600080fd5b506105cf6119a2565b6040516105dc91906155c1565b60405180910390f35b3480156105f157600080fd5b5061060c6004803603810190610607919061574a565b6119ac565b005b34801561061a57600080fd5b50610635600480360381019061063091906156e1565b611a67565b005b34801561064357600080fd5b5061065e600480360381019061065991906157d0565b611b08565b005b34801561066c57600080fd5b5061068760048036038101906106829190615777565b611bfa565b60405161069491906156c6565b60405180910390f35b3480156106a957600080fd5b506106c460048036038101906106bf9190615810565b611c1a565b005b3480156106d257600080fd5b506106ed60048036038101906106e891906156e1565b611e74565b005b3480156106fb57600080fd5b5061071660048036038101906107119190615863565b611f7d565b60405161072391906156c6565b60405180910390f35b34801561073857600080fd5b506107416120ca565b60405161074e91906158d2565b60405180910390f35b34801561076357600080fd5b5061077e6004803603810190610779919061566b565b6120d3565b60405161078b91906156c6565b60405180910390f35b3480156107a057600080fd5b506107bb60048036038101906107b691906156e1565b61217d565b6040516107c891906155c1565b60405180910390f35b3480156107dd57600080fd5b506107f860048036038101906107f391906156e1565b61228a565b005b34801561080657600080fd5b5061080f61232b565b60405161081c91906158fc565b60405180910390f35b34801561083157600080fd5b5061084c60048036038101906108479190615917565b612351565b005b34801561085a57600080fd5b50610863612405565b60405161087091906158fc565b60405180910390f35b34801561088557600080fd5b5061088e61242b565b60405161089b91906155c1565b60405180910390f35b3480156108b057600080fd5b506108cb60048036038101906108c6919061566b565b612431565b6040516108d891906155c1565b60405180910390f35b3480156108ed57600080fd5b506108f6612462565b60405161090391906155c1565b60405180910390f35b34801561091857600080fd5b50610933600480360381019061092e91906156e1565b612468565b60405161094091906155c1565b60405180910390f35b34801561095557600080fd5b50610970600480360381019061096b919061574a565b6124d7565b005b34801561097e57600080fd5b50610987612592565b60405161099491906158fc565b60405180910390f35b3480156109a957600080fd5b506109b26125b8565b6040516109bf91906158fc565b60405180910390f35b3480156109d457600080fd5b506109ef60048036038101906109ea919061574a565b6125de565b005b3480156109fd57600080fd5b50610a186004803603810190610a139190615777565b612699565b604051610a2591906155c1565b60405180910390f35b348015610a3a57600080fd5b50610a436126e1565b005b348015610a5157600080fd5b50610a5a612839565b604051610a6791906158fc565b60405180910390f35b348015610a7c57600080fd5b50610a976004803603810190610a9291906156e1565b61285f565b604051610aa491906155c1565b60405180910390f35b348015610ab957600080fd5b50610ad46004803603810190610acf91906156e1565b61287a565b604051610ae191906155c1565b60405180910390f35b348015610af657600080fd5b50610b116004803603810190610b0c9190615982565b612895565b005b348015610b1f57600080fd5b50610b3a6004803603810190610b3591906159af565b612970565b005b348015610b4857600080fd5b50610b51612a5d565b604051610b5e9190615a2d565b60405180910390f35b348015610b7357600080fd5b50610b7c612a7f565b604051610b8991906158fc565b60405180910390f35b348015610b9e57600080fd5b50610ba7612aa9565b604051610bb49190615586565b60405180910390f35b348015610bc957600080fd5b50610be46004803603810190610bdf9190615777565b612b3b565b604051610bf19190615a57565b60405180910390f35b348015610c0657600080fd5b50610c0f612b5e565b005b348015610c1d57600080fd5b50610c386004803603810190610c33919061566b565b612e8c565b604051610c4591906156c6565b60405180910390f35b348015610c5a57600080fd5b50610c756004803603810190610c70919061566b565b612f76565b604051610c8291906156c6565b60405180910390f35b348015610c9757600080fd5b50610cb26004803603810190610cad9190615a72565b612f8b565b005b348015610cc057600080fd5b50610cdb6004803603810190610cd691906156e1565b613392565b005b348015610ce957600080fd5b50610cf2613433565b005b348015610d0057600080fd5b50610d1b6004803603810190610d169190615af1565b6134e7565b005b348015610d2957600080fd5b50610d446004803603810190610d3f9190615982565b6135ba565b005b348015610d5257600080fd5b50610d6d6004803603810190610d68919061574a565b613695565b005b348015610d7b57600080fd5b50610d966004803603810190610d9191906156e1565b6137bd565b604051610da391906155c1565b60405180910390f35b348015610db857600080fd5b50610dc1613911565b604051610dce91906156c6565b60405180910390f35b348015610de357600080fd5b50610dfe6004803603810190610df991906157d0565b613924565b005b348015610e0c57600080fd5b50610e276004803603810190610e229190615b1e565b613a16565b604051610e3491906155c1565b60405180910390f35b348015610e4957600080fd5b50610e646004803603810190610e5f9190615982565b613a9d565b005b348015610e7257600080fd5b50610e8d6004803603810190610e8891906159af565b613b78565b005b348015610e9b57600080fd5b50610eb66004803603810190610eb19190615777565b613c65565b005b348015610ec457600080fd5b50610edf6004803603810190610eda91906156e1565b613e2c565b604051610eec9190615bd1565b60405180910390f35b348015610f0157600080fd5b50610f1c6004803603810190610f179190615810565b613ecd565b005b348015610f2a57600080fd5b50610f456004803603810190610f4091906156e1565b6141eb565b604051610f559493929190615bec565b60405180910390f35b348015610f6a57600080fd5b50610f856004803603810190610f80919061574a565b61423b565b005b606060038054610f9690615c60565b80601f0160208091040260200160405190810160405280929190818152602001828054610fc290615c60565b801561100f5780601f10610fe45761010080835404028352916020019161100f565b820191906000526020600020905b815481529060010190602001808311610ff257829003601f168201915b5050505050905090565b600080611024614363565b90506000600e60008373ffffffffffffffffffffffffffffffffffffffff1673ffffffffffffffffffffffffffffffffffffffff168152602001908152602001600020805490509050600081116110b0576040517f08c379a00000000000000000000000000000000000000000000000000000000081526004016110a790615cde565b60405180910390fd5b6000805b828110156111f75761113660116000600e60008873ffffffffffffffffffffffffffffffffffffffff1673ffffffffffffffffffffffffffffffffffffffff168152602001908152602001600020848154811061111457611113615cfe565b5b906000526020600020015481526020019081526020016000206001015461436b565b156111e457600060116000600e60008873ffffffffffffffffffffffffffffffffffffffff1673ffffffffffffffffffffffffffffffffffffffff168152602001908152602001600020848154811061119257611191615cfe565b5b906000526020600020015481526020019081526020016000206000015490506111ba816137bd565b836111c59190615d5c565b9250426011600083815260200190815260200160002060010181905550505b80806111ef90615db2565b9150506110b4565b5080935050505090565b60008061120c614363565b90506112198185856143b2565b600191505092915050565b600061122e614363565b9050600073ffffffffffffffffffffffffffffffffffffffff168173ffffffffffffffffffffffffffffffffffffffff1614156112a0576040517f08c379a000000000000000000000000000000000000000000000000000000000815260040161129790615e47565b60405180910390fd5b602260008273ffffffffffffffffffffffffffffffffffffffff1673ffffffffffffffffffffffffffffffffffffffff16815260200190815260200160002060009054906101000a900460ff161561132d576040517f08c379a000000000000000000000000000000000000000000000000000000000815260040161132490615ed9565b60405180910390fd5b601460009054906101000a900473ffffffffffffffffffffffffffffffffffffffff1673ffffffffffffffffffffffffffffffffffffffff168173ffffffffffffffffffffffffffffffffffffffff16141580156113d95750601560009054906101000a900473ffffffffffffffffffffffffffffffffffffffff1673ffffffffffffffffffffffffffffffffffffffff168173ffffffffffffffffffffffffffffffffffffffff1614155b611418576040517f08c379a000000000000000000000000000000000000000000000000000000000815260040161140f90615f6b565b60405180910390fd5b60006114238361217d565b905060006103e8601960149054906101000a900463ffffffff1663ffffffff168361144e9190615f8b565b6114589190616014565b905080826114669190616045565b9150611495601560009054906101000a900473ffffffffffffffffffffffffffffffffffffffff16848461457d565b5050505050565b60006114a6614363565b9050600073ffffffffffffffffffffffffffffffffffffffff168173ffffffffffffffffffffffffffffffffffffffff161415611518576040517f08c379a000000000000000000000000000000000000000000000000000000000815260040161150f90615e47565b60405180910390fd5b602260008273ffffffffffffffffffffffffffffffffffffffff1673ffffffffffffffffffffffffffffffffffffffff16815260200190815260200160002060009054906101000a900460ff16156115a5576040517f08c379a000000000000000000000000000000000000000000000000000000000815260040161159c90615ed9565b60405180910390fd5b601460009054906101000a900473ffffffffffffffffffffffffffffffffffffffff1673ffffffffffffffffffffffffffffffffffffffff168173ffffffffffffffffffffffffffffffffffffffff16141580156116515750601560009054906101000a900473ffffffffffffffffffffffffffffffffffffffff1673ffffffffffffffffffffffffffffffffffffffff168173ffffffffffffffffffffffffffffffffffffffff1614155b611690576040517f08c379a000000000000000000000000000000000000000000000000000000000815260040161168790615f6b565b60405180910390fd5b600061169a611019565b905060006103e8601960149054906101000a900463ffffffff1663ffffffff16836116c59190615f8b565b6116cf9190616014565b905080826116dd9190616045565b915061170c601560009054906101000a900473ffffffffffffffffffffffffffffffffffffffff16848461457d565b50505050565b61171a614363565b73ffffffffffffffffffffffffffffffffffffffff16600560009054906101000a900473ffffffffffffffffffffffffffffffffffffffff1673ffffffffffffffffffffffffffffffffffffffff16146117a9576040517f08c379a00000000000000000000000000000000000000000000000000000000081526004016117a0906160c5565b60405180910390fd5b80601960046101000a81548163ffffffff021916908363ffffffff160217905550601960089054906101000a900463ffffffff16601960009054906101000a900463ffffffff16601960049054906101000a900463ffffffff1661180d91906160e5565b61181791906160e5565b6019600c6101000a81548163ffffffff021916908363ffffffff16021790555050565b600080600e60008473ffffffffffffffffffffffffffffffffffffffff1673ffffffffffffffffffffffffffffffffffffffff16815260200190815260200160002080549050119050919050565b601d60149054906101000a900460ff1681565b6118a3614363565b73ffffffffffffffffffffffffffffffffffffffff16600560009054906101000a900473ffffffffffffffffffffffffffffffffffffffff1673ffffffffffffffffffffffffffffffffffffffff1614611932576040517f08c379a0000000000000000000000000000000000000000000000000000000008152600401611929906160c5565b60405180910390fd5b80601960186101000a81548163ffffffff021916908363ffffffff16021790555050565b6000600e60008373ffffffffffffffffffffffffffffffffffffffff1673ffffffffffffffffffffffffffffffffffffffff168152602001908152602001600020805490509050919050565b6000600254905090565b6119b4614363565b73ffffffffffffffffffffffffffffffffffffffff16600560009054906101000a900473ffffffffffffffffffffffffffffffffffffffff1673ffffffffffffffffffffffffffffffffffffffff1614611a43576040517f08c379a0000000000000000000000000000000000000000000000000000000008152600401611a3a906160c5565b60405180910390fd5b80601960146101000a81548163ffffffff021916908363ffffffff16021790555050565b611a6f614363565b73ffffffffffffffffffffffffffffffffffffffff16600560009054906101000a900473ffffffffffffffffffffffffffffffffffffffff1673ffffffffffffffffffffffffffffffffffffffff1614611afe576040517f08c379a0000000000000000000000000000000000000000000000000000000008152600401611af5906160c5565b60405180910390fd5b8060208190555050565b611b10614363565b73ffffffffffffffffffffffffffffffffffffffff16600560009054906101000a900473ffffffffffffffffffffffffffffffffffffffff1673ffffffffffffffffffffffffffffffffffffffff1614611b9f576040517f08c379a0000000000000000000000000000000000000000000000000000000008152600401611b96906160c5565b60405180910390fd5b80601760008473ffffffffffffffffffffffffffffffffffffffff1673ffffffffffffffffffffffffffffffffffffffff16815260200190815260200160002060006101000a81548160ff0219169083151502179055505050565b60226020528060005260406000206000915054906101000a900460ff1681565b6000611c24614363565b9050600073ffffffffffffffffffffffffffffffffffffffff168173ffffffffffffffffffffffffffffffffffffffff161415611c96576040517f08c379a0000000000000000000000000000000000000000000000000000000008152600401611c8d90616191565b60405180910390fd5b602260008273ffffffffffffffffffffffffffffffffffffffff1673ffffffffffffffffffffffffffffffffffffffff16815260200190815260200160002060009054906101000a900460ff1615611d23576040517f08c379a0000000000000000000000000000000000000000000000000000000008152600401611d1a90616223565b60405180910390fd5b601460009054906101000a900473ffffffffffffffffffffffffffffffffffffffff1673ffffffffffffffffffffffffffffffffffffffff168173ffffffffffffffffffffffffffffffffffffffff1614158015611dcf5750601560009054906101000a900473ffffffffffffffffffffffffffffffffffffffff1673ffffffffffffffffffffffffffffffffffffffff168173ffffffffffffffffffffffffffffffffffffffff1614155b611e0e576040517f08c379a0000000000000000000000000000000000000000000000000000000008152600401611e05906162b5565b60405180910390fd5b6000611e1930612699565b90506000601e548210159050601d60149054906101000a900460ff16158015611e3f5750805b15611e4e57611e4d82614ad4565b5b611e60611e59614363565b308861457d565b50611e6c868686613ecd565b505050505050565b611e7c614363565b73ffffffffffffffffffffffffffffffffffffffff16600560009054906101000a900473ffffffffffffffffffffffffffffffffffffffff1673ffffffffffffffffffffffffffffffffffffffff1614611f0b576040517f08c379a0000000000000000000000000000000000000000000000000000000008152600401611f02906160c5565b60405180910390fd5b60008111611f4e576040517f08c379a0000000000000000000000000000000000000000000000000000000008152600401611f4590616321565b60405180910390fd5b611f7a601560009054906101000a900473ffffffffffffffffffffffffffffffffffffffff1682614c90565b50565b60007fffffffffffffffffffffffffffffffffffffffffffffffffffffffffffffffff600160008673ffffffffffffffffffffffffffffffffffffffff1673ffffffffffffffffffffffffffffffffffffffff16815260200190815260200160002060003373ffffffffffffffffffffffffffffffffffffffff1673ffffffffffffffffffffffffffffffffffffffff16815260200190815260200160002054146120b65781600160008673ffffffffffffffffffffffffffffffffffffffff1673ffffffffffffffffffffffffffffffffffffffff16815260200190815260200160002060003373ffffffffffffffffffffffffffffffffffffffff1673ffffffffffffffffffffffffffffffffffffffff16815260200190815260200160002060008282546120ae9190616045565b925050819055505b6120c184848461457d565b90509392505050565b60006012905090565b6000806120de614363565b9050612172818585600160008673ffffffffffffffffffffffffffffffffffffffff1673ffffffffffffffffffffffffffffffffffffffff16815260200190815260200160002060008973ffffffffffffffffffffffffffffffffffffffff1673ffffffffffffffffffffffffffffffffffffffff1681526020019081526020016000205461216d9190615d5c565b6143b2565b600191505092915050565b60008061218983613e2c565b9050806060015173ffffffffffffffffffffffffffffffffffffffff166121ae614363565b73ffffffffffffffffffffffffffffffffffffffff1614612204576040517f08c379a00000000000000000000000000000000000000000000000000000000081526004016121fb9061638d565b60405180910390fd5b612211816020015161436b565b612250576040517f08c379a00000000000000000000000000000000000000000000000000000000081526004016122479061641f565b60405180910390fd5b600061225f82600001516137bd565b9050426011600084600001518152602001908152602001600020600101819055508092505050919050565b612292614363565b73ffffffffffffffffffffffffffffffffffffffff16600560009054906101000a900473ffffffffffffffffffffffffffffffffffffffff1673ffffffffffffffffffffffffffffffffffffffff1614612321576040517f08c379a0000000000000000000000000000000000000000000000000000000008152600401612318906160c5565b60405180910390fd5b80601e8190555050565b601460009054906101000a900473ffffffffffffffffffffffffffffffffffffffff1681565b612359614363565b73ffffffffffffffffffffffffffffffffffffffff16600560009054906101000a900473ffffffffffffffffffffffffffffffffffffffff1673ffffffffffffffffffffffffffffffffffffffff16146123e8576040517f08c379a00000000000000000000000000000000000000000000000000000000081526004016123df906160c5565b60405180910390fd5b80601260006101000a81548160ff02191690831515021790555050565b601b60009054906101000a900473ffffffffffffffffffffffffffffffffffffffff1681565b60065481565b600e602052816000526040600020818154811061244d57600080fd5b90600052602060002001600091509150505481565b601e5481565b600080821015801561247b575060028211155b6124ba576040517f08c379a00000000000000000000000000000000000000000000000000000000081526004016124b19061648b565b60405180910390fd5b600882600381106124ce576124cd615cfe565b5b01549050919050565b6124df614363565b73ffffffffffffffffffffffffffffffffffffffff16600560009054906101000a900473ffffffffffffffffffffffffffffffffffffffff1673ffffffffffffffffffffffffffffffffffffffff161461256e576040517f08c379a0000000000000000000000000000000000000000000000000000000008152600401612565906160c5565b60405180910390fd5b80601960106101000a81548163ffffffff021916908363ffffffff16021790555050565b601660009054906101000a900473ffffffffffffffffffffffffffffffffffffffff1681565b601560009054906101000a900473ffffffffffffffffffffffffffffffffffffffff1681565b6125e6614363565b73ffffffffffffffffffffffffffffffffffffffff16600560009054906101000a900473ffffffffffffffffffffffffffffffffffffffff1673ffffffffffffffffffffffffffffffffffffffff1614612675576040517f08c379a000000000000000000000000000000000000000000000000000000000815260040161266c906160c5565b60405180910390fd5b80601960186101000a81548163ffffffff021916908363ffffffff16021790555050565b60008060008373ffffffffffffffffffffffffffffffffffffffff1673ffffffffffffffffffffffffffffffffffffffff168152602001908152602001600020549050919050565b6126e9614363565b73ffffffffffffffffffffffffffffffffffffffff16600560009054906101000a900473ffffffffffffffffffffffffffffffffffffffff1673ffffffffffffffffffffffffffffffffffffffff1614612778576040517f08c379a000000000000000000000000000000000000000000000000000000000815260040161276f906160c5565b60405180910390fd5b600073ffffffffffffffffffffffffffffffffffffffff16600560009054906101000a900473ffffffffffffffffffffffffffffffffffffffff1673ffffffffffffffffffffffffffffffffffffffff167f8be0079c531659141344cd1fd0a4f28419497f9722a3daafe3b4186f6b6457e060405160405180910390a36000600560006101000a81548173ffffffffffffffffffffffffffffffffffffffff021916908373ffffffffffffffffffffffffffffffffffffffff160217905550565b601c60009054906101000a900473ffffffffffffffffffffffffffffffffffffffff1681565b6008816003811061286f57600080fd5b016000915090505481565b600b816003811061288a57600080fd5b016000915090505481565b61289d614363565b73ffffffffffffffffffffffffffffffffffffffff16600560009054906101000a900473ffffffffffffffffffffffffffffffffffffffff1673ffffffffffffffffffffffffffffffffffffffff161461292c576040517f08c379a0000000000000000000000000000000000000000000000000000000008152600401612923906160c5565b60405180910390fd5b80601460006101000a81548173ffffffffffffffffffffffffffffffffffffffff021916908373ffffffffffffffffffffffffffffffffffffffff16021790555050565b612978614363565b73ffffffffffffffffffffffffffffffffffffffff16600560009054906101000a900473ffffffffffffffffffffffffffffffffffffffff1673ffffffffffffffffffffffffffffffffffffffff1614612a07576040517f08c379a00000000000000000000000000000000000000000000000000000000081526004016129fe906160c5565b60405180910390fd5b826008600060038110612a1d57612a1c615cfe565b5b0181905550816008600160038110612a3857612a37615cfe565b5b0181905550806008600260038110612a5357612a52615cfe565b5b0181905550505050565b600760009054906101000a90046fffffffffffffffffffffffffffffffff1681565b6000600560009054906101000a900473ffffffffffffffffffffffffffffffffffffffff16905090565b606060048054612ab890615c60565b80601f0160208091040260200160405190810160405280929190818152602001828054612ae490615c60565b8015612b315780601f10612b0657610100808354040283529160200191612b31565b820191906000526020600020905b815481529060010190602001808311612b1457829003601f168201915b5050505050905090565b600f6020528060005260406000206000915054906101000a900463ffffffff1681565b612b66614363565b73ffffffffffffffffffffffffffffffffffffffff16600560009054906101000a900473ffffffffffffffffffffffffffffffffffffffff1673ffffffffffffffffffffffffffffffffffffffff1614612bf5576040517f08c379a0000000000000000000000000000000000000000000000000000000008152600401612bec906160c5565b60405180910390fd5b601d60009054906101000a900473ffffffffffffffffffffffffffffffffffffffff16601a60006101000a81548173ffffffffffffffffffffffffffffffffffffffff021916908373ffffffffffffffffffffffffffffffffffffffff160217905550601a60009054906101000a900473ffffffffffffffffffffffffffffffffffffffff1673ffffffffffffffffffffffffffffffffffffffff1663c45a01556040518163ffffffff167c0100000000000000000000000000000000000000000000000000000000028152600401602060405180830381865afa158015612ce1573d6000803e3d6000fd5b505050506040513d601f19601f82011682018060405250810190612d0591906164c0565b73ffffffffffffffffffffffffffffffffffffffff1663c9c6539630601a60009054906101000a900473ffffffffffffffffffffffffffffffffffffffff1673ffffffffffffffffffffffffffffffffffffffff166373b295c26040518163ffffffff167c0100000000000000000000000000000000000000000000000000000000028152600401602060405180830381865afa158015612daa573d6000803e3d6000fd5b505050506040513d601f19601f82011682018060405250810190612dce91906164c0565b6040518363ffffffff167c0100000000000000000000000000000000000000000000000000000000028152600401612e079291906164ed565b6020604051808303816000875af1158015612e26573d6000803e3d6000fd5b505050506040513d601f19601f82011682018060405250810190612e4a91906164c0565b601b60006101000a81548173ffffffffffffffffffffffffffffffffffffffff021916908373ffffffffffffffffffffffffffffffffffffffff160217905550565b600080612e97614363565b90506000600160008373ffffffffffffffffffffffffffffffffffffffff1673ffffffffffffffffffffffffffffffffffffffff16815260200190815260200160002060008673ffffffffffffffffffffffffffffffffffffffff1673ffffffffffffffffffffffffffffffffffffffff16815260200190815260200160002054905083811015612f5d576040517f08c379a0000000000000000000000000000000000000000000000000000000008152600401612f5490616588565b60405180910390fd5b612f6a82868684036143b2565b60019250505092915050565b6000612f8333848461457d565b905092915050565b612f93614363565b73ffffffffffffffffffffffffffffffffffffffff16600560009054906101000a900473ffffffffffffffffffffffffffffffffffffffff1673ffffffffffffffffffffffffffffffffffffffff1614613022576040517f08c379a0000000000000000000000000000000000000000000000000000000008152600401613019906160c5565b60405180910390fd5b8073ffffffffffffffffffffffffffffffffffffffff168273ffffffffffffffffffffffffffffffffffffffff161415613091576040517f08c379a0000000000000000000000000000000000000000000000000000000008152600401613088906165f4565b60405180910390fd5b6000600e60008473ffffffffffffffffffffffffffffffffffffffff1673ffffffffffffffffffffffffffffffffffffffff1681526020019081526020016000208054905090506000805b8281101561334a5785600e60008773ffffffffffffffffffffffffffffffffffffffff1673ffffffffffffffffffffffffffffffffffffffff168152602001908152602001600020828154811061313657613135615cfe565b5b9060005260206000200154141561333757600e60008673ffffffffffffffffffffffffffffffffffffffff1673ffffffffffffffffffffffffffffffffffffffff1681526020019081526020016000206001846131939190616045565b815481106131a4576131a3615cfe565b5b9060005260206000200154600e60008773ffffffffffffffffffffffffffffffffffffffff1673ffffffffffffffffffffffffffffffffffffffff1681526020019081526020016000208281548110613200576131ff615cfe565b5b9060005260206000200181905550600e60008673ffffffffffffffffffffffffffffffffffffffff1673ffffffffffffffffffffffffffffffffffffffff16815260200190815260200160002080548061325d5761325c616614565b5b60019003818190600052602060002001600090559055600e60008573ffffffffffffffffffffffffffffffffffffffff1673ffffffffffffffffffffffffffffffffffffffff168152602001908152602001600020869080600181540180825580915050600190039060005260206000200160009091909190915055836011600088815260200190815260200160002060030160006101000a81548173ffffffffffffffffffffffffffffffffffffffff021916908373ffffffffffffffffffffffffffffffffffffffff1602179055506001915061334a565b808061334290615db2565b9150506130dc565b508061338b576040517f08c379a00000000000000000000000000000000000000000000000000000000081526004016133829061668f565b60405180910390fd5b5050505050565b61339a614363565b73ffffffffffffffffffffffffffffffffffffffff16600560009054906101000a900473ffffffffffffffffffffffffffffffffffffffff1673ffffffffffffffffffffffffffffffffffffffff1614613429576040517f08c379a0000000000000000000000000000000000000000000000000000000008152600401613420906160c5565b60405180910390fd5b80601f8190555050565b61343b614363565b73ffffffffffffffffffffffffffffffffffffffff16600560009054906101000a900473ffffffffffffffffffffffffffffffffffffffff1673ffffffffffffffffffffffffffffffffffffffff16146134ca576040517f08c379a00000000000000000000000000000000000000000000000000000000081526004016134c1906160c5565b60405180910390fd5b6001602160006101000a81548160ff021916908315150217905550565b6134ef614363565b73ffffffffffffffffffffffffffffffffffffffff16600560009054906101000a900473ffffffffffffffffffffffffffffffffffffffff1673ffffffffffffffffffffffffffffffffffffffff161461357e576040517f08c379a0000000000000000000000000000000000000000000000000000000008152600401613575906160c5565b60405180910390fd5b80600760006101000a8154816fffffffffffffffffffffffffffffffff02191690836fffffffffffffffffffffffffffffffff16021790555050565b6135c2614363565b73ffffffffffffffffffffffffffffffffffffffff16600560009054906101000a900473ffffffffffffffffffffffffffffffffffffffff1673ffffffffffffffffffffffffffffffffffffffff1614613651576040517f08c379a0000000000000000000000000000000000000000000000000000000008152600401613648906160c5565b60405180910390fd5b80601560006101000a81548173ffffffffffffffffffffffffffffffffffffffff021916908373ffffffffffffffffffffffffffffffffffffffff16021790555050565b61369d614363565b73ffffffffffffffffffffffffffffffffffffffff16600560009054906101000a900473ffffffffffffffffffffffffffffffffffffffff1673ffffffffffffffffffffffffffffffffffffffff161461372c576040517f08c379a0000000000000000000000000000000000000000000000000000000008152600401613723906160c5565b60405180910390fd5b80601960086101000a81548163ffffffff021916908363ffffffff160217905550601960089054906101000a900463ffffffff16601960009054906101000a900463ffffffff16601960049054906101000a900463ffffffff1661379091906160e5565b61379a91906160e5565b6019600c6101000a81548163ffffffff021916908363ffffffff16021790555050565b6000806137c983613e2c565b90506000600b8260400151600381106137e5576137e4615cfe565b5b0154905060056fffffffffffffffffffffffffffffffff16600f6000846060015173ffffffffffffffffffffffffffffffffffffffff1673ffffffffffffffffffffffffffffffffffffffff16815260200190815260200160002060009054906101000a900463ffffffff1663ffffffff16111561389c57601060009054906101000a90046fffffffffffffffffffffffffffffffff166fffffffffffffffffffffffffffffffff16816138999190615d5c565b90505b620151806fffffffffffffffffffffffffffffffff168260200151426138c29190616045565b6103e88360088660400151600381106138de576138dd615cfe565b5b01546138ea9190615f8b565b6138f49190616014565b6138fe9190615f8b565b6139089190616014565b92505050919050565b601260009054906101000a900460ff1681565b61392c614363565b73ffffffffffffffffffffffffffffffffffffffff16600560009054906101000a900473ffffffffffffffffffffffffffffffffffffffff1673ffffffffffffffffffffffffffffffffffffffff16146139bb576040517f08c379a00000000000000000000000000000000000000000000000000000000081526004016139b2906160c5565b60405180910390fd5b80602260008473ffffffffffffffffffffffffffffffffffffffff1673ffffffffffffffffffffffffffffffffffffffff16815260200190815260200160002060006101000a81548160ff0219169083151502179055505050565b6000600160008473ffffffffffffffffffffffffffffffffffffffff1673ffffffffffffffffffffffffffffffffffffffff16815260200190815260200160002060008373ffffffffffffffffffffffffffffffffffffffff1673ffffffffffffffffffffffffffffffffffffffff16815260200190815260200160002054905092915050565b613aa5614363565b73ffffffffffffffffffffffffffffffffffffffff16600560009054906101000a900473ffffffffffffffffffffffffffffffffffffffff1673ffffffffffffffffffffffffffffffffffffffff1614613b34576040517f08c379a0000000000000000000000000000000000000000000000000000000008152600401613b2b906160c5565b60405180910390fd5b80601660006101000a81548173ffffffffffffffffffffffffffffffffffffffff021916908373ffffffffffffffffffffffffffffffffffffffff16021790555050565b613b80614363565b73ffffffffffffffffffffffffffffffffffffffff16600560009054906101000a900473ffffffffffffffffffffffffffffffffffffffff1673ffffffffffffffffffffffffffffffffffffffff1614613c0f576040517f08c379a0000000000000000000000000000000000000000000000000000000008152600401613c06906160c5565b60405180910390fd5b82600b600060038110613c2557613c24615cfe565b5b018190555081600b600160038110613c4057613c3f615cfe565b5b018190555080600b600260038110613c5b57613c5a615cfe565b5b0181905550505050565b613c6d614363565b73ffffffffffffffffffffffffffffffffffffffff16600560009054906101000a900473ffffffffffffffffffffffffffffffffffffffff1673ffffffffffffffffffffffffffffffffffffffff1614613cfc576040517f08c379a0000000000000000000000000000000000000000000000000000000008152600401613cf3906160c5565b60405180910390fd5b600073ffffffffffffffffffffffffffffffffffffffff168173ffffffffffffffffffffffffffffffffffffffff161415613d6c576040517f08c379a0000000000000000000000000000000000000000000000000000000008152600401613d6390616721565b60405180910390fd5b8073ffffffffffffffffffffffffffffffffffffffff16600560009054906101000a900473ffffffffffffffffffffffffffffffffffffffff1673ffffffffffffffffffffffffffffffffffffffff167f8be0079c531659141344cd1fd0a4f28419497f9722a3daafe3b4186f6b6457e060405160405180910390a380600560006101000a81548173ffffffffffffffffffffffffffffffffffffffff021916908373ffffffffffffffffffffffffffffffffffffffff16021790555050565b613e346154af565b601160008381526020019081526020016000206040518060800160405290816000820154815260200160018201548152602001600282015481526020016003820160009054906101000a900473ffffffffffffffffffffffffffffffffffffffff1673ffffffffffffffffffffffffffffffffffffffff1673ffffffffffffffffffffffffffffffffffffffff16815250509050919050565b6000613ed7614363565b9050601260009054906101000a900460ff16613f28576040517f08c379a0000000000000000000000000000000000000000000000000000000008152600401613f1f9061678d565b60405180910390fd5b60008310158015613f3a575060028311155b613f79576040517f08c379a0000000000000000000000000000000000000000000000000000000008152600401613f709061648b565b60405180910390fd5b60088360038110613f8d57613f8c615cfe565b5b01548414613fd0576040517f08c379a0000000000000000000000000000000000000000000000000000000008152600401613fc7906167f9565b60405180910390fd5b60006001600654613fe19190615d5c565b9050613feb6154af565b60405180608001604052808381526020014281526020018681526020018473ffffffffffffffffffffffffffffffffffffffff1681525090506006600081548092919061403790615db2565b9190505550806011600084815260200190815260200160002060008201518160000155602082015181600101556040820151816002015560608201518160030160006101000a81548173ffffffffffffffffffffffffffffffffffffffff021916908373ffffffffffffffffffffffffffffffffffffffff160217905550905050600e60008473ffffffffffffffffffffffffffffffffffffffff1673ffffffffffffffffffffffffffffffffffffffff168152602001908152602001600020829080600181540180825580915050600190039060005260206000200160009091909190915055600073ffffffffffffffffffffffffffffffffffffffff168473ffffffffffffffffffffffffffffffffffffffff1614158015614160575061415f8461183a565b5b156141e3576001600f60008673ffffffffffffffffffffffffffffffffffffffff1673ffffffffffffffffffffffffffffffffffffffff16815260200190815260200160002060008282829054906101000a900463ffffffff166141c491906160e5565b92506101000a81548163ffffffff021916908363ffffffff1602179055505b505050505050565b60116020528060005260406000206000915090508060000154908060010154908060020154908060030160009054906101000a900473ffffffffffffffffffffffffffffffffffffffff16905084565b614243614363565b73ffffffffffffffffffffffffffffffffffffffff16600560009054906101000a900473ffffffffffffffffffffffffffffffffffffffff1673ffffffffffffffffffffffffffffffffffffffff16146142d2576040517f08c379a00000000000000000000000000000000000000000000000000000000081526004016142c9906160c5565b60405180910390fd5b80601960006101000a81548163ffffffff021916908363ffffffff160217905550601960089054906101000a900463ffffffff16601960009054906101000a900463ffffffff16601960049054906101000a900463ffffffff1661433691906160e5565b61434091906160e5565b6019600c6101000a81548163ffffffff021916908363ffffffff16021790555050565b600033905090565b6000600760009054906101000a90046fffffffffffffffffffffffffffffffff166fffffffffffffffffffffffffffffffff1682426143aa9190616045565b119050919050565b600073ffffffffffffffffffffffffffffffffffffffff168373ffffffffffffffffffffffffffffffffffffffff161415614422576040517f08c379a00000000000000000000000000000000000000000000000000000000081526004016144199061688b565b60405180910390fd5b600073ffffffffffffffffffffffffffffffffffffffff168273ffffffffffffffffffffffffffffffffffffffff161415614492576040517f08c379a00000000000000000000000000000000000000000000000000000000081526004016144899061691d565b60405180910390fd5b80600160008573ffffffffffffffffffffffffffffffffffffffff1673ffffffffffffffffffffffffffffffffffffffff16815260200190815260200160002060008473ffffffffffffffffffffffffffffffffffffffff1673ffffffffffffffffffffffffffffffffffffffff168152602001908152602001600020819055508173ffffffffffffffffffffffffffffffffffffffff168373ffffffffffffffffffffffffffffffffffffffff167f8c5be1e5ebec7d5bd14f71427d1e84f3dd0314c0f7b2291e5b200ac8c7c3b9258360405161457091906155c1565b60405180910390a3505050565b600080829050600073ffffffffffffffffffffffffffffffffffffffff168573ffffffffffffffffffffffffffffffffffffffff1614156145f3576040517f08c379a00000000000000000000000000000000000000000000000000000000081526004016145ea906169af565b60405180910390fd5b600073ffffffffffffffffffffffffffffffffffffffff168473ffffffffffffffffffffffffffffffffffffffff161415614663576040517f08c379a000000000000000000000000000000000000000000000000000000000815260040161465a90616a41565b60405180910390fd5b602260008673ffffffffffffffffffffffffffffffffffffffff1673ffffffffffffffffffffffffffffffffffffffff16815260200190815260200160002060009054906101000a900460ff161580156147075750602260008573ffffffffffffffffffffffffffffffffffffffff1673ffffffffffffffffffffffffffffffffffffffff16815260200190815260200160002060009054906101000a900460ff16155b614746576040517f08c379a000000000000000000000000000000000000000000000000000000000815260040161473d90616aad565b60405180910390fd5b61474f85614df0565b158015614762575061476084614df0565b155b1561494b57602160009054906101000a900460ff161561482057600061478785612699565b905060205481856147989190615d5c565b11156147d9576040517f08c379a00000000000000000000000000000000000000000000000000000000081526004016147d090616b19565b60405180910390fd5b601f5484111561481e576040517f08c379a000000000000000000000000000000000000000000000000000000000815260040161481590616b85565b60405180910390fd5b505b602160009054906101000a900460ff1615801561488a5750601b60009054906101000a900473ffffffffffffffffffffffffffffffffffffffff1673ffffffffffffffffffffffffffffffffffffffff168573ffffffffffffffffffffffffffffffffffffffff16145b156148e8576001602260008673ffffffffffffffffffffffffffffffffffffffff1673ffffffffffffffffffffffffffffffffffffffff16815260200190815260200160002060006101000a81548160ff0219169083151502179055505b601b60009054906101000a900473ffffffffffffffffffffffffffffffffffffffff1673ffffffffffffffffffffffffffffffffffffffff168573ffffffffffffffffffffffffffffffffffffffff161461494a576149478584614eb9565b90505b5b806000808773ffffffffffffffffffffffffffffffffffffffff1673ffffffffffffffffffffffffffffffffffffffff168152602001908152602001600020546149959190616045565b6000808773ffffffffffffffffffffffffffffffffffffffff1673ffffffffffffffffffffffffffffffffffffffff16815260200190815260200160002081905550806000808673ffffffffffffffffffffffffffffffffffffffff1673ffffffffffffffffffffffffffffffffffffffff16815260200190815260200160002054614a219190615d5c565b6000808673ffffffffffffffffffffffffffffffffffffffff1673ffffffffffffffffffffffffffffffffffffffff168152602001908152602001600020819055508373ffffffffffffffffffffffffffffffffffffffff168573ffffffffffffffffffffffffffffffffffffffff167fddf252ad1be2c89b69c2b068fc378daa952ba7f163c4a11628f55a4df523b3ef85604051614ac091906155c1565b60405180910390a360019150509392505050565b6001601d60146101000a81548160ff02191690831515021790555060006103e8601960089054906101000a900463ffffffff1663ffffffff1683614b189190615f8b565b614b229190616014565b9050614b50601460009054906101000a900473ffffffffffffffffffffffffffffffffffffffff1682614fbe565b60006103e8601960049054906101000a900463ffffffff1663ffffffff1684614b799190615f8b565b614b839190616014565b905060006103e8601960109054906101000a900463ffffffff1663ffffffff1683614bae9190615f8b565b614bb89190616014565b9050614be6601560009054906101000a900473ffffffffffffffffffffffffffffffffffffffff1682614fbe565b614c1e30601560009054906101000a900473ffffffffffffffffffffffffffffffffffffffff168385614c199190616045565b61457d565b5060006103e8601960009054906101000a900463ffffffff1663ffffffff1686614c489190615f8b565b614c529190616014565b9050614c5d81615057565b614c6e614c6930612699565b61510e565b505050506000601d60146101000a81548160ff02191690831515021790555050565b600073ffffffffffffffffffffffffffffffffffffffff168273ffffffffffffffffffffffffffffffffffffffff161415614d00576040517f08c379a0000000000000000000000000000000000000000000000000000000008152600401614cf790616bf1565b60405180910390fd5b614d0c60008383615389565b8060026000828254614d1e9190615d5c565b92505081905550806000808473ffffffffffffffffffffffffffffffffffffffff1673ffffffffffffffffffffffffffffffffffffffff1681526020019081526020016000206000828254614d739190615d5c565b925050819055508173ffffffffffffffffffffffffffffffffffffffff16600073ffffffffffffffffffffffffffffffffffffffff167fddf252ad1be2c89b69c2b068fc378daa952ba7f163c4a11628f55a4df523b3ef83604051614dd891906155c1565b60405180910390a3614dec6000838361538e565b5050565b6000614dfa612a7f565b73ffffffffffffffffffffffffffffffffffffffff168273ffffffffffffffffffffffffffffffffffffffff161480614e5e57503073ffffffffffffffffffffffffffffffffffffffff168273ffffffffffffffffffffffffffffffffffffffff16145b80614eb25750601760008373ffffffffffffffffffffffffffffffffffffffff1673ffffffffffffffffffffffffffffffffffffffff16815260200190815260200160002060009054906101000a900460ff165b9050919050565b6000806103e8601960189054906101000a900463ffffffff1663ffffffff1684614ee39190615f8b565b614eed9190616014565b9050806000803073ffffffffffffffffffffffffffffffffffffffff1673ffffffffffffffffffffffffffffffffffffffff1681526020019081526020016000206000828254614f3d9190615d5c565b925050819055503073ffffffffffffffffffffffffffffffffffffffff168473ffffffffffffffffffffffffffffffffffffffff167fddf252ad1be2c89b69c2b068fc378daa952ba7f163c4a11628f55a4df523b3ef83604051614fa191906155c1565b60405180910390a38083614fb59190616045565b91505092915050565b60003073ffffffffffffffffffffffffffffffffffffffff16319050614fe38261510e565b6000813073ffffffffffffffffffffffffffffffffffffffff16316150089190616045565b90508373ffffffffffffffffffffffffffffffffffffffff166108fc829081150290604051600060405180830381858888f19350505050158015615050573d6000803e3d6000fd5b5050505050565b60006002826150669190616014565b9050600081836150769190616045565b905060003073ffffffffffffffffffffffffffffffffffffffff1631905061509d8361510e565b6000813073ffffffffffffffffffffffffffffffffffffffff16316150c29190616045565b90506150ce8382615393565b7f28fc98272ce761178794ad6768050fea1648e07f1e2ffe15afd3a290f838148683826040516150ff929190616c11565b60405180910390a15050505050565b6000600267ffffffffffffffff81111561512b5761512a616c3a565b5b6040519080825280602002602001820160405280156151595781602001602082028036833780820191505090505b509050308160008151811061517157615170615cfe565b5b602002602001019073ffffffffffffffffffffffffffffffffffffffff16908173ffffffffffffffffffffffffffffffffffffffff1681525050601a60009054906101000a900473ffffffffffffffffffffffffffffffffffffffff1673ffffffffffffffffffffffffffffffffffffffff166373b295c26040518163ffffffff167c0100000000000000000000000000000000000000000000000000000000028152600401602060405180830381865afa158015615234573d6000803e3d6000fd5b505050506040513d601f19601f8201168201806040525081019061525891906164c0565b8160018151811061526c5761526b615cfe565b5b602002602001019073ffffffffffffffffffffffffffffffffffffffff16908173ffffffffffffffffffffffffffffffffffffffff16815250506152d330601a60009054906101000a900473ffffffffffffffffffffffffffffffffffffffff16846143b2565b601a60009054906101000a900473ffffffffffffffffffffffffffffffffffffffff1673ffffffffffffffffffffffffffffffffffffffff1663762b15628360008430426040518663ffffffff167c0100000000000000000000000000000000000000000000000000000000028152600401615353959493929190616d5d565b600060405180830381600087803b15801561536d57600080fd5b505af1158015615381573d6000803e3d6000fd5b505050505050565b505050565b505050565b6153c030601a60009054906101000a900473ffffffffffffffffffffffffffffffffffffffff16846143b2565b601a60009054906101000a900473ffffffffffffffffffffffffffffffffffffffff1673ffffffffffffffffffffffffffffffffffffffff1663f91b3f72823085600080601660009054906101000a900473ffffffffffffffffffffffffffffffffffffffff16426040518863ffffffff167c010000000000000000000000000000000000000000000000000000000002815260040161546596959493929190616db7565b60606040518083038185885af1158015615483573d6000803e3d6000fd5b50505050506040513d601f19601f820116820180604052508101906154a89190616e2d565b5050505050565b6040518060800160405280600081526020016000815260200160008152602001600073ffffffffffffffffffffffffffffffffffffffff1681525090565b600081519050919050565b600082825260208201905092915050565b60005b8381101561552757808201518184015260208101905061550c565b83811115615536576000848401525b50505050565b6000601f19601f8301169050919050565b6000615558826154ed565b61556281856154f8565b9350615572818560208601615509565b61557b8161553c565b840191505092915050565b600060208201905081810360008301526155a0818461554d565b905092915050565b6000819050919050565b6155bb816155a8565b82525050565b60006020820190506155d660008301846155b2565b92915050565b600080fd5b600073ffffffffffffffffffffffffffffffffffffffff82169050919050565b600061560c826155e1565b9050919050565b61561c81615601565b811461562757600080fd5b50565b60008135905061563981615613565b92915050565b615648816155a8565b811461565357600080fd5b50565b6000813590506156658161563f565b92915050565b60008060408385031215615682576156816155dc565b5b60006156908582860161562a565b92505060206156a185828601615656565b9150509250929050565b60008115159050919050565b6156c0816156ab565b82525050565b60006020820190506156db60008301846156b7565b92915050565b6000602082840312156156f7576156f66155dc565b5b600061570584828501615656565b91505092915050565b600063ffffffff82169050919050565b6157278161570e565b811461573257600080fd5b50565b6000813590506157448161571e565b92915050565b6000602082840312156157605761575f6155dc565b5b600061576e84828501615735565b91505092915050565b60006020828403121561578d5761578c6155dc565b5b600061579b8482850161562a565b91505092915050565b6157ad816156ab565b81146157b857600080fd5b50565b6000813590506157ca816157a4565b92915050565b600080604083850312156157e7576157e66155dc565b5b60006157f58582860161562a565b9250506020615806858286016157bb565b9150509250929050565b600080600060608486031215615829576158286155dc565b5b600061583786828701615656565b935050602061584886828701615656565b92505060406158598682870161562a565b9150509250925092565b60008060006060848603121561587c5761587b6155dc565b5b600061588a8682870161562a565b935050602061589b8682870161562a565b92505060406158ac86828701615656565b9150509250925092565b600060ff82169050919050565b6158cc816158b6565b82525050565b60006020820190506158e760008301846158c3565b92915050565b6158f681615601565b82525050565b600060208201905061591160008301846158ed565b92915050565b60006020828403121561592d5761592c6155dc565b5b600061593b848285016157bb565b91505092915050565b600061594f826155e1565b9050919050565b61595f81615944565b811461596a57600080fd5b50565b60008135905061597c81615956565b92915050565b600060208284031215615998576159976155dc565b5b60006159a68482850161596d565b91505092915050565b6000806000606084860312156159c8576159c76155dc565b5b60006159d686828701615656565b93505060206159e786828701615656565b92505060406159f886828701615656565b9150509250925092565b60006fffffffffffffffffffffffffffffffff82169050919050565b615a2781615a02565b82525050565b6000602082019050615a426000830184615a1e565b92915050565b615a518161570e565b82525050565b6000602082019050615a6c6000830184615a48565b92915050565b600080600060608486031215615a8b57615a8a6155dc565b5b6000615a9986828701615656565b9350506020615aaa8682870161562a565b9250506040615abb8682870161562a565b9150509250925092565b615ace81615a02565b8114615ad957600080fd5b50565b600081359050615aeb81615ac5565b92915050565b600060208284031215615b0757615b066155dc565b5b6000615b1584828501615adc565b91505092915050565b60008060408385031215615b3557615b346155dc565b5b6000615b438582860161562a565b9250506020615b548582860161562a565b9150509250929050565b615b67816155a8565b82525050565b615b7681615601565b82525050565b608082016000820151615b926000850182615b5e565b506020820151615ba56020850182615b5e565b506040820151615bb86040850182615b5e565b506060820151615bcb6060850182615b6d565b50505050565b6000608082019050615be66000830184615b7c565b92915050565b6000608082019050615c0160008301876155b2565b615c0e60208301866155b2565b615c1b60408301856155b2565b615c2860608301846158ed565b95945050505050565b7f4e487b7100000000000000000000000000000000000000000000000000000000600052602260045260246000fd5b60006002820490506001821680615c7857607f821691505b60208210811415615c8c57615c8b615c31565b5b50919050565b7f4d757374206f776e206e6f64657320746f20636c61696d207265776172647300600082015250565b6000615cc8601f836154f8565b9150615cd382615c92565b602082019050919050565b60006020820190508181036000830152615cf781615cbb565b9050919050565b7f4e487b7100000000000000000000000000000000000000000000000000000000600052603260045260246000fd5b7f4e487b7100000000000000000000000000000000000000000000000000000000600052601160045260246000fd5b6000615d67826155a8565b9150615d72836155a8565b9250827fffffffffffffffffffffffffffffffffffffffffffffffffffffffffffffffff03821115615da757615da6615d2d565b5b828201905092915050565b6000615dbd826155a8565b91507fffffffffffffffffffffffffffffffffffffffffffffffffffffffffffffffff821415615df057615def615d2d565b5b600182019050919050565b7f434c41494d205245574152443a2066726f6d2074686520302061646472657373600082015250565b6000615e316020836154f8565b9150615e3c82615dfb565b602082019050919050565b60006020820190508181036000830152615e6081615e24565b9050919050565b7f434c41494d205245574152443a20426c61636b6c69737465642061646472657360008201527f7300000000000000000000000000000000000000000000000000000000000000602082015250565b6000615ec36021836154f8565b9150615ece82615e67565b604082019050919050565b60006020820190508181036000830152615ef281615eb6565b9050919050565b7f434c41494d205245574152443a20506f6f6c732063616e6e6f7420636c61696d60008201527f2072657761726473000000000000000000000000000000000000000000000000602082015250565b6000615f556028836154f8565b9150615f6082615ef9565b604082019050919050565b60006020820190508181036000830152615f8481615f48565b9050919050565b6000615f96826155a8565b9150615fa1836155a8565b9250817fffffffffffffffffffffffffffffffffffffffffffffffffffffffffffffffff0483118215151615615fda57615fd9615d2d565b5b828202905092915050565b7f4e487b7100000000000000000000000000000000000000000000000000000000600052601260045260246000fd5b600061601f826155a8565b915061602a836155a8565b92508261603a57616039615fe5565b5b828204905092915050565b6000616050826155a8565b915061605b836155a8565b92508282101561606e5761606d615d2d565b5b828203905092915050565b7f4f776e61626c653a2063616c6c6572206973206e6f7420746865206f776e6572600082015250565b60006160af6020836154f8565b91506160ba82616079565b602082019050919050565b600060208201905081810360008301526160de816160a2565b9050919050565b60006160f08261570e565b91506160fb8361570e565b92508263ffffffff0382111561611457616113615d2d565b5b828201905092915050565b7f4e4f4445204352454154494f4e3a2066726f6d2074686520302061646472657360008201527f7300000000000000000000000000000000000000000000000000000000000000602082015250565b600061617b6021836154f8565b91506161868261611f565b604082019050919050565b600060208201905081810360008301526161aa8161616e565b9050919050565b7f4e4f4445204352454154494f4e3a20426c61636b6c697374656420616464726560008201527f7373000000000000000000000000000000000000000000000000000000000000602082015250565b600061620d6022836154f8565b9150616218826161b1565b604082019050919050565b6000602082019050818103600083015261623c81616200565b9050919050565b7f4e4f4445204352454154494f4e3a20506f6f6c732063616e6e6f74206372656160008201527f7465206e6f646573000000000000000000000000000000000000000000000000602082015250565b600061629f6028836154f8565b91506162aa82616243565b604082019050919050565b600060208201905081810360008301526162ce81616292565b9050919050565b7f416d6f756e7420746f6f206c6f77000000000000000000000000000000000000600082015250565b600061630b600e836154f8565b9150616316826162d5565b602082019050919050565b6000602082019050818103600083015261633a816162fe565b9050919050565b7f4d757374206265206f776e6572206f66206e6f646520746f20636c61696d0000600082015250565b6000616377601e836154f8565b915061638282616341565b602082019050919050565b600060208201905081810360008301526163a68161636a565b9050919050565b7f4e6f6465207265776172647320617265206e6f7420636c61696d61626c65207960008201527f6574000000000000000000000000000000000000000000000000000000000000602082015250565b60006164096022836154f8565b9150616414826163ad565b604082019050919050565b60006020820190508181036000830152616438816163fc565b9050919050565b7f4e6f6465207479706520697320696e76616c6964000000000000000000000000600082015250565b60006164756014836154f8565b91506164808261643f565b602082019050919050565b600060208201905081810360008301526164a481616468565b9050919050565b6000815190506164ba81615613565b92915050565b6000602082840312156164d6576164d56155dc565b5b60006164e4848285016164ab565b91505092915050565b600060408201905061650260008301856158ed565b61650f60208301846158ed565b9392505050565b7f41524332303a2064656372656173656420616c6c6f77616e63652062656c6f7760008201527f207a65726f000000000000000000000000000000000000000000000000000000602082015250565b60006165726025836154f8565b915061657d82616516565b604082019050919050565b600060208201905081810360008301526165a181616565565b9050919050565b7f43616e6e6f74207472616e7366657220746f2073656c66000000000000000000600082015250565b60006165de6017836154f8565b91506165e9826165a8565b602082019050919050565b6000602082019050818103600083015261660d816165d1565b9050919050565b7f4e487b7100000000000000000000000000000000000000000000000000000000600052603160045260246000fd5b7f5472616e73666572206661696c65640000000000000000000000000000000000600082015250565b6000616679600f836154f8565b915061668482616643565b602082019050919050565b600060208201905081810360008301526166a88161666c565b9050919050565b7f4f776e61626c653a206e6577206f776e657220697320746865207a65726f206160008201527f6464726573730000000000000000000000000000000000000000000000000000602082015250565b600061670b6026836154f8565b9150616716826166af565b604082019050919050565b6000602082019050818103600083015261673a816166fe565b9050919050565b7f4e6f6465206372656174696f6e2069732064697361626c656400000000000000600082015250565b60006167776019836154f8565b915061678282616741565b602082019050919050565b600060208201905081810360008301526167a68161676a565b9050919050565b7f4e6f646520616d6f756e74206e6f7420636f7272656374000000000000000000600082015250565b60006167e36017836154f8565b91506167ee826167ad565b602082019050919050565b60006020820190508181036000830152616812816167d6565b9050919050565b7f41524332303a20617070726f76652066726f6d20746865207a65726f2061646460008201527f7265737300000000000000000000000000000000000000000000000000000000602082015250565b60006168756024836154f8565b915061688082616819565b604082019050919050565b600060208201905081810360008301526168a481616868565b9050919050565b7f41524332303a20617070726f766520746f20746865207a65726f20616464726560008201527f7373000000000000000000000000000000000000000000000000000000000000602082015250565b60006169076022836154f8565b9150616912826168ab565b604082019050919050565b60006020820190508181036000830152616936816168fa565b9050919050565b7f41524332303a207472616e736665722066726f6d20746865207a65726f20616460008201527f6472657373000000000000000000000000000000000000000000000000000000602082015250565b60006169996025836154f8565b91506169a48261693d565b604082019050919050565b600060208201905081810360008301526169c88161698c565b9050919050565b7f41524332303a207472616e7366657220746f20746865207a65726f206164647260008201527f6573730000000000000000000000000000000000000000000000000000000000602082015250565b6000616a2b6023836154f8565b9150616a36826169cf565b604082019050919050565b60006020820190508181036000830152616a5a81616a1e565b9050919050565b7f426c61636b6c6973746564206164647265737300000000000000000000000000600082015250565b6000616a976013836154f8565b9150616aa282616a61565b602082019050919050565b60006020820190508181036000830152616ac681616a8a565b9050919050565b7f5472616e7366657220616d6f756e7420746f6f20686967680000000000000000600082015250565b6000616b036018836154f8565b9150616b0e82616acd565b602082019050919050565b60006020820190508181036000830152616b3281616af6565b9050919050565b7f5472616e73616374696f6e204c696d6974204578636565646564000000000000600082015250565b6000616b6f601a836154f8565b9150616b7a82616b39565b602082019050919050565b60006020820190508181036000830152616b9e81616b62565b9050919050565b7f41524332303a206d696e7420746f20746865207a65726f206164647265737300600082015250565b6000616bdb601f836154f8565b9150616be682616ba5565b602082019050919050565b60006020820190508181036000830152616c0a81616bce565b9050919050565b6000604082019050616c2660008301856155b2565b616c3360208301846155b2565b9392505050565b7f4e487b7100000000000000000000000000000000000000000000000000000000600052604160045260246000fd5b6000819050919050565b6000819050919050565b6000616c98616c93616c8e84616c69565b616c73565b6155a8565b9050919050565b616ca881616c7d565b82525050565b600081519050919050565b600082825260208201905092915050565b6000819050602082019050919050565b6000616ce68383615b6d565b60208301905092915050565b6000602082019050919050565b6000616d0a82616cae565b616d148185616cb9565b9350616d1f83616cca565b8060005b83811015616d50578151616d378882616cda565b9750616d4283616cf2565b925050600181019050616d23565b5085935050505092915050565b600060a082019050616d7260008301886155b2565b616d7f6020830187616c9f565b8181036040830152616d918186616cff565b9050616da060608301856158ed565b616dad60808301846155b2565b9695505050505050565b600060c082019050616dcc60008301896158ed565b616dd960208301886155b2565b616de66040830187616c9f565b616df36060830186616c9f565b616e0060808301856158ed565b616e0d60a08301846155b2565b979650505050505050565b600081519050616e278161563f565b92915050565b600080600060608486031215616e4657616e456155dc565b5b6000616e5486828701616e18565b9350506020616e6586828701616e18565b9250506040616e7686828701616e18565b915050925092509256fea26469706673582212206a429d06aafb4cac865cdec760ecdb70056eb598a86c8e8c4f72cde75b54cfc364736f6c634300080c0033",
  "immutableReferences": {},
  "source": "\n// SPDX-License-Identifier: MIT\n\npragma solidity ^0.8.11;\n\nimport \"./ARC20.sol\";\nimport \"./PaymentSplitter.sol\";\nimport \"./Context.sol\";\nimport \"./ITraderJoeFactory.sol\";\nimport \"./ITraderJoeRouter.sol\";\nimport \"./MountainRewardManager.sol\";\n\n\n\n\ncontract Mountain is ARC20, MountainRewardManager {\n\n    // In the constructor compeitors usually provide :\n    // _ Addresses for the reward, treasury and liquidity handler pools\n    // _ Initial balances of tokens for those pools\n    // _ Fees for everything (and swapAmount)\n    // _ TraderJoe router address\n    // _ Payes and shares\n\n    // I think that except payes and shares we don't need to provide those in the constructor\n    // The reason is that everything can be written in the code and we provide setters to update just in case\n\n    // A setLiquidityPool function (with an array) like in PolarNodes ?\n\n    // Later : Need to take into account the presale tokens\n\n    // Think about the total supply (Polar Node : 1 Million tokens, About 5 millions for EtherStones, 20 Millions Thor)\n\n    // Think about the initial allocation. Need to check how many at deployment for other contracts.\n\n    // Decide values for all the fees\n\n    // Allow a function to mint new tokens to the rewardPool along the way (Like PolarNodes implemented ?)\n\n    // PaymentSplitter with the fallback (receive function) ? We use it ? Need to update the constructor\n\n\n    //-----------------------------------------------------\\\\\n    //----------- Token variables -------------------------\\\\\n    //-----------------------------------------------------\\\\  \n    string constant _name = 'Mountain';\n    string constant _symbol = 'MTN';\n    uint8 constant _decimals = 18;\n    uint256 _totalSupply = 1_000_000_000 * (10 ** _decimals);   \n\n\n\n    //-----------------------------------------------------\\\\\n    //--------------- Pools -------------------------------\\\\\n    //-----------------------------------------------------\\\\\n    address public treasuryPool;\n    address public rewardPool; \n    address public liquidityPool; // Todo: do we need an address for the LP tokens ? \n\n\tmapping(address => bool) private _isPool;\n\n\n    // Initial allocation of tokens (TODO : replace this)\n    uint64 ownerAllocation = 10;\n    uint64 treasuryPoolAllocation = 10;\n    uint64 rewardPoolAllocation = 80;\n    uint64 allocationDenominator = 100;\n\n\n    //-----------------------------------------------------\\\\\n    //----------- Fee variables ---------------------------\\\\\n    //-----------------------------------------------------\\\\\n\n    // Node creation fees\n    uint32 private liquidityFee = 50; // 5%\n    uint32 private rewardFee = 100; // 10%\n    uint32 private treasuryFee = 50; // 5%\n    uint32 private totalCreationFees = liquidityFee + rewardFee + treasuryFee;\n\n    uint32 private rewardSwapRatio = 50; // 5%\n\n    // Claim and sell fees\n    uint32 private claimFee = 20; // 2%\n    uint32 private sellFee = 100;// 10%\n\n    // Transfer node fee (Not implemented yet)\n    uint32 private transferFee = 500;// 50%\n\n\n\n    //-----------------------------------------------------\\\\\n    //----------- Auto Liquidity variables ----------------\\\\\n    //-----------------------------------------------------\\\\   \n\n    ITraderJoeRouter private traderJoeRouter;\n    address public traderJoePair;\n    address public traderJoePairTest;\n\n    //address private traderJoeRouterAddress = 0x60aE616a2155Ee3d9A68541Ba4544862310933d4;\n    address private traderJoeRouterAddress = 0x2D99ABD9008Dc933ff5c0CD271B88309593aB921; // Pangolin testnet\n    \n\n    bool public swapping = false;\n\n\n    //-----------------------------------------------------\\\\\n    //----------- Transfer related variables --------------\\\\\n    //-----------------------------------------------------\\\\   \n\n    /* Before transferring tokens/Avax to the pools, the min num of tokens accumulated with the fees needs\n       to be at least equal to swapTokensAmount. */     \n    uint256 public swapTokensAmount = 20 * (10 ** _decimals); // TODO : to define with the team    \n\n    // Max tokens per tx and per wallet\n    uint256 private maxTx = 1000 * (10 ** _decimals);\n    uint256 private maxWallet = 10_000 * (10 ** _decimals);\n\n   \tbool private tradingOpen = true; // TODO : Need to change this before launching\n\n    // List of blacklisted malicious addresses\n    mapping(address => bool) public _isBlacklisted;\n\n    //-----------------------------------------------------\\\\\n    //----------- Events and modifiers --------------------\\\\\n    //-----------------------------------------------------\\\\  \n\n\n    modifier inSwap {\n        swapping = true;\n        _;\n        swapping = false;\n    }\n\n\n    event SwapAndLiquify(uint256 otherHalf, uint256 newBalance);\n\n\n\n\n   constructor(address[] memory addresses) ARC20(_symbol, _name)  {\n\n     \n        rewardPool = addresses[0];\n        treasuryPool = addresses[1];\n        liquidityPool = addresses[2];\n\n        setIsPool(rewardPool, true);\n        setIsPool(treasuryPool, true);\n        setIsPool(liquidityPool, true);\n\n\n        _mint(msg.sender, _totalSupply * ownerAllocation / allocationDenominator); \n        _mint(rewardPool, _totalSupply * rewardPoolAllocation / allocationDenominator); \n        _mint(treasuryPool, _totalSupply * treasuryPoolAllocation / allocationDenominator); \n\n\n   }    \n\n    /** \n        @dev Create pair function : The pair MTN-AVAX is created for the first time on TraderJoe\n    */\n    function createPair() external onlyOwner {\n\n        // Instantiate a TraderJoe router with current address traderJoeRouterAddress\n        traderJoeRouter = ITraderJoeRouter(traderJoeRouterAddress);\n\n        // Create a TraderJoe pair for MTN token\n        traderJoePair = ITraderJoeFactory(traderJoeRouter.factory()).createPair(address(this), traderJoeRouter.WAVAX()); \n\n        // TODO : find a check that the pair was created and make a required in the functions that uses it\n\n    } \n\n    /** \n        @param account : The address to be blacklisted or not\n        @param value   : boolean to set the address to the blacklist or not\n    */\n    function blacklistMalicious(address account, bool value) external onlyOwner { \n        _isBlacklisted[account] = value;\n    }   \n    \n    /** \n        @param newVal : Boolean to set the min amount of tokens requested for a multi-swap\n    */    \n    function setSwapTokensAmount(uint256 newVal) external onlyOwner { \n        swapTokensAmount = newVal; \n    }\n\n    /** \n        @param walletAddress : The new wallet address for the treasury pool\n    */  \n    function updateTreasuryWallet(address payable walletAddress) external onlyOwner { \n        treasuryPool = walletAddress; \n    }\n\n\n    /** \n        @param walletAddress : The new wallet address for the reward pool\n    */      \n    function updateRewardWallet(address payable walletAddress) external onlyOwner { \n        rewardPool = walletAddress; \n    }\n\n\n    /** \n        @param walletAddress : The new wallet address for the pool that holds the LP tokens\n    */      \n    function updateLiquidityWallet(address payable walletAddress) external onlyOwner { \n        liquidityPool = walletAddress; \n    }    \n\n\n    /** \n        @param value : The new fee for the reward pool when a new node is created\n        @notice The max value for 100% is 1_000, i.e. 100 is 10%\n    */  \n    function updateRewardsFee(uint32 value) external onlyOwner {\n        rewardFee = value;\n        totalCreationFees = rewardFee+liquidityFee+treasuryFee;\n    }\n\n\n    /** \n        @param value : The new fee for the LP pool when a new node is created\n        @notice The max value for 100% is 1_000, i.e. 100 is 10%\n    */  \n    function updateLiquiditFee(uint32 value) external onlyOwner {\n        liquidityFee = value;\n        totalCreationFees = rewardFee+liquidityFee+treasuryFee;\n    }\n\n\n    /** \n        @param value : The new fee for the treasury pool when a new node is created\n        @notice The max value for 100% is 1_000, i.e. 100 is 10%\n    */  \n    function updateTreasuryFee(uint32 value) external onlyOwner {\n        treasuryFee = value;\n        totalCreationFees = rewardFee+liquidityFee+treasuryFee;\n    }\n\n    /** \n        @param value : The new fee to be taken at each user claim \n        @notice The max value for 100% is 1_000, i.e. 100 is 10%\n    */  \n    function updateClaimFee(uint32 value) external onlyOwner { \n        claimFee = value; \n    }\n\n    /** \n        @param value : The new fee to be taken at each user sell \n        @notice The max value for 100% is 1_000, i.e. 100 is 10%\n    */      \n    function updateSellFee(uint32 value) external onlyOwner { \n        sellFee = value; \n    }  \n\n    /** \n        @param value : The new fee to be taken at each user node transfer \n        @notice The max value for 100% is 1_000, i.e. 100 is 10%\n    */      \n    function updateTransferFee(uint32 value) external onlyOwner { \n        sellFee = value; \n    }    \n\n\n    /** \n        @param value : The new reward swap ratio. \n                       This is the percentage of tokens that will be swapped and sent to the reward Pool. \n        @notice The max value for 100% is 1_000, i.e. 100 is 10%\n    */     \n    function updateRewardSwapRatio(uint32 value) external onlyOwner { \n        rewardSwapRatio = value; \n    }\n\n\n    /** \n        @param account : The account that is set, or not, as a pool\n        @param value : If true the account is set as a pool\n    */   \n\tfunction setIsPool(address account, bool value) public onlyOwner {\n        _isPool[account] = value;\n    }\n\n    /** \n        @param value : The new max amount of tokens per tx\n    */   \n\tfunction updateMaxTx(uint256 value) external onlyOwner {\n        maxTx = value;\n    }\n\n\n    /** \n        @param value : The new max amount of tokens per wallet\n    */   \n\tfunction updateMaxWallet(uint256 value) external onlyOwner {\n        maxWallet = value;\n    }    \n\n    /** \n        @dev Start trading (after adding liquidity, and waiting some time in order to blacklist bots)\n    */   \n\tfunction openTrading() external onlyOwner {\n        tradingOpen = true;\n    }\n\n    /** \n        @param account : The address of the account to check if it's a pool address/the owner or this SC\n    */   \n    function isMTNAddress(address account) internal view returns (bool) {\n            return (account == owner() || account == address(this) || _isPool[account]);\n    }\n\n    /** \n        @param amount : The amount of tokens to be minted to the reward pool\n    */   \n\tfunction addTokensToRewardPool(uint256 amount) external onlyOwner {\n\t\trequire(amount > 0, \"Amount too low\");\n\t\t_mint(rewardPool, amount);\n\t}\n\n    // Note : Defined in PaymentSplitter, TODO : if we use it, remove this function\n    receive() external payable {}\n\n\n    function transfer(address recipient, uint256 amount) public override returns (bool) {\n        return _transfer(msg.sender, recipient, amount);\n    }\n\n    function transferFrom(address sender, address recipient, uint256 amount) public override returns (bool) {\n        if (_allowances[sender][msg.sender] != type(uint256).max) {\n            _allowances[sender][msg.sender] -= amount;\n        }\n        return _transfer(sender, recipient, amount);\n    }\n  \n    function _transfer(\n        address from,\n        address to,\n        uint256 amount\n    ) internal returns(bool){\n        \n        uint256 amountToTransfer = amount;\n\n        require(from != address(0), \"ARC20: transfer from the zero address\");\n        require(to != address(0), \"ARC20: transfer to the zero address\"); \n        require(!_isBlacklisted[from] && !_isBlacklisted[to], \"Blacklisted address\");\n\n\t\tif (!isMTNAddress(from) && !isMTNAddress(to)) {\n\n            \n\t\t \tif (tradingOpen) {\n\t\t \t\tuint256 walletBalance = balanceOf(address(to));\n\t\t \t\trequire(amount + walletBalance <= maxWallet, \"Transfer amount too high\");\n                require(amount <= maxTx, 'Transaction Limit Exceeded');\n\t\t \t}\n\n\t\t\tif (!tradingOpen && from == traderJoePair) {\n\t\t \t\t_isBlacklisted[to] = true;\n\t\t \t}\n\n\n            if(from != traderJoePair) {\n               amountToTransfer = takeSellFee(from, amount);\n            }\n\t\t}\n\n       \n        _balances[from] = _balances[from] - amountToTransfer;\n        _balances[to] = _balances[to] + amountToTransfer;\n\n        emit Transfer(from, to, amount);\n        return true;\n    }\n\n\n\n    function takeSellFee(address sender, uint256 amount) internal returns (uint256) {\n        uint256 feeAmount = (amount * sellFee) / PER_MILLE;\n        // if(block.timestamp < launchTaxEndTimestamp) {\n        //     feeAmount += ((amount*10*(7 days - (block.timestamp - launchTaxTimestamp))) / (7 days)) / PER_MILLE;\n        // }\n        _balances[address(this)] += feeAmount;\n        emit Transfer(sender,address(this), feeAmount);\n\n        return amount - feeAmount;\n    }\n\n\n    /** \n        @param tokens : The amount of tokens. \n        @dev For more details, see the functions swapTokensForAvax and addLiquidity\n    */  \n    function swapAndLiquify(uint256 tokens) private {\n\n        // Split the amount of tokens in half\n        uint256 half = tokens/2;\n        uint256 otherHalf = tokens-half;\n\n        // Store the initial AVAX balance\n        uint256 initialBalance = address(this).balance;\n\n        // Swap 50% of the tokens to AVAX\n        swapTokensForAvax(half);\n\n        // Calculate the amount of AVAX swapped\n        uint256 newBalance = address(this).balance-initialBalance;\n\n        // Add liquidity by adding 50% of tokens and the AVAX that was swapped\n        addLiquidity(otherHalf, newBalance);\n\n        // Emit an event for the logs\n        emit SwapAndLiquify(otherHalf, newBalance);\n    }\n\n\n    /** \n        @param tokenAmount : The amount of tokens\n        @param avaxAmount  : The amount of Avax\n        \n        @dev This function is responsible for adding liquidity to the liquidity pool MTN-AVAX\n             tokenAmount in dollar value = avaxAmount in dollar value.\n    */  \n    function addLiquidity(uint256 tokenAmount, uint256 avaxAmount) private {\n\n        // approve token transfer to cover all possible scenarios\n        _approve(address(this), address(traderJoeRouter), tokenAmount);\n\n        // add the liquidity\n        traderJoeRouter.addLiquidityAVAX{value: avaxAmount}(\n            address(this),\n            tokenAmount,\n            0, // slippage is unavoidable\n            0, // slippage is unavoidable\n            liquidityPool,\n            block.timestamp\n        );\n    }\n\n\n    /** \n        @param tokenAmount : The amount of tokens\n        \n        @dev This function is responsible for swapping MTN to AVAX\n             tokenAmount in dollar value = avaxAmount in dollar value.\n    */  \n    function swapTokensForAvax(uint256 tokenAmount) private {\n\n        // Compute the path (tokens to AVAX)\n        address[] memory path = new address[](2);\n        path[0] = address(this);\n        path[1] = traderJoeRouter.WAVAX();\n\n        // For a swap of tokens to AVAX, we need to approve spending first\n        _approve(address(this), address(traderJoeRouter), tokenAmount);\n\n        // Call the TraderJoe swapping function\n        // Todo : check why we need supportingFee\n        traderJoeRouter.swapExactTokensForAVAXSupportingFeeOnTransferTokens(\n            tokenAmount,\n            0, // accept any amount of ETH\n            path,\n            address(this),\n            block.timestamp\n        );\n    }    \n\n    /** \n        @param destination : The address of the pool where the AVAX are sent\n        @param tokens      : The amount of tokens to be swapped to AVAX\n    */ \n    function swapAndSendToPool(address destination, uint256 tokens) private {\n        \n        // Store the initial AVAX balance of the SC\n        uint256 initialAVAXBalance = address(this).balance;\n\n        // Swap tokens to AVAX\n        swapTokensForAvax(tokens);\n\n        // Get the total amount of AVAX that was swapped\n        uint256 newBalance = (address(this).balance)-initialAVAXBalance;\n\n        // Send it to the pool\n        payable(destination).transfer(newBalance);\n    }\n\n\n\n    /** \n        @param contractTokenBalance : The amount of tokens in this contract\n        \n        @dev This function handles all the transfers at a node creation \n             when there is enough tokens in the contract\n    */  \n    function multi_swapping(uint256 contractTokenBalance) private inSwap{\n            \n        // Swap some tokens for Avax and send them to the treasury pool\n        uint256 treasuryTokens = contractTokenBalance * treasuryFee / PER_MILLE;\n        swapAndSendToPool(treasuryPool, treasuryTokens);\n\n        // Send some tokens and Avax to the reward pool\n        uint256 rewardsPoolTokens = contractTokenBalance * rewardFee / PER_MILLE;\n        uint256 rewardsTokenstoSwap = rewardsPoolTokens * rewardSwapRatio / PER_MILLE;\n\n        swapAndSendToPool(rewardPool, rewardsTokenstoSwap);\n        _transfer(address(this),rewardPool, rewardsPoolTokens-rewardsTokenstoSwap);\n\n        // Swap half of some tokens and add liquidity\n        uint256 swapTokens = contractTokenBalance * liquidityFee / PER_MILLE;\n        swapAndLiquify(swapTokens);\n\n        // Swap the rest to Avax and keep it in this SC\n        swapTokensForAvax(balanceOf(address(this)));\n\n    }\n\n    /** \n        @param amount : The amount of tokens needed for the node creation \n        @param nodeType : The node type (Lava, Earth or Snow). Should be a uint between 0 and 2.\n        @param referral : The referral address (Address 0 if None)\n\n        @dev This function handles the node creation, by calling the nodeRewardManager, \n             and all the transfers to the different pools when there is enough tokens in the contract\n    */  \n    function createNodeAndTransferToPools(uint256 amount, uint256 nodeType, address referral) public {\n\n\n        address sender = _msgSender();\n        require(sender != address(0),\n                \"NODE CREATION: from the 0 address\");\n        require(!_isBlacklisted[sender], \n                \"NODE CREATION: Blacklisted address\");\n        require(sender != treasuryPool && sender != rewardPool,\n                \"NODE CREATION: Pools cannot create nodes\");\n\n\n        uint256 contractTokenBalance = balanceOf(address(this));\n        bool swapAmountOk = contractTokenBalance >= swapTokensAmount;\n        if (!swapping && swapAmountOk) {\n            multi_swapping(contractTokenBalance);\n        }\n\n        // TODO: add a require balance ?\n        _transfer(_msgSender(),address(this), amount);\n        super.createNode(amount, nodeType, referral);\n\n    }    \n\n    /** \n        @param id : The identifier of the node \n        \n        @dev This function uses the identifier to get the rewards of the node and send it to the \n             owner.\n    */ \n    function claimRewards(uint256 id) public {\n\n        address sender = _msgSender();\n\n        // Revert if the sender is the 0 address, blacklisted or a pool address\n        require(sender != address(0),    \n                \"CLAIM REWARD: from the 0 address\");\n        require(!_isBlacklisted[sender], \n                \"CLAIM REWARD: Blacklisted address\");\n        require(sender != treasuryPool && sender != rewardPool,\n                \"CLAIM REWARD: Pools cannot claim rewards\");\n\n        // Uses the nodeRewardManager to get the amount for reward for the node of given id\n        uint256 node_reward = super.getNodeReward(id);\n\n        // A percentage of fee, the claimFee, is applied and some tokens are be kept in the in the reward pool\n        uint256 feeAmount = node_reward*claimFee/PER_MILLE;\n        node_reward-= feeAmount;\n                     \n\n        // Transfer the reward to the owner of the node with given id\n        _transfer(rewardPool, sender, node_reward);\n    }\n\n\n    function claimAllRewards() public {\n\n        address sender = _msgSender();\n\n        // Revert if the sender is the 0 address, blacklisted or a pool address\n        require(sender != address(0),\n                \"CLAIM REWARD: from the 0 address\");\n        require(!_isBlacklisted[sender], \n                \"CLAIM REWARD: Blacklisted address\");\n        require(sender != treasuryPool && sender != rewardPool,\n                \"CLAIM REWARD: Pools cannot claim rewards\");\n\n        // Uses the nodeRewardManager to get the amount for all rewards for the nodes of the sender\n        uint256 node_reward = super.getAllReward();\n\n        // A percentage of fee, the claimFee, is applied and some tokens are be kept in the reward pool\n        uint256 feeAmount = node_reward*claimFee/PER_MILLE;\n        node_reward-= feeAmount;\n        \n        // Transfer all the rewards to the owner of the nodes       \n        _transfer(rewardPool, sender, node_reward);\n    }    \n\n\n\n}",
  "sourcePath": "/Users/pilu/Desktop/Nodes Avax Project/MountainNode/contracts/Mountain.sol",
  "compiler": {
    "name": "solc",
    "version": "0.8.12+commit.f00d7308.Emscripten.clang"
  },
  "schemaVersion": "3.4.6",
  "updatedAt": "2022-04-27T12:23:47.222Z",
  "networkType": "ethereum",
  "devdoc": {
    "kind": "dev",
    "methods": {
      "addTokensToRewardPool(uint256)": {
        "params": {
          "amount": ": The amount of tokens to be minted to the reward pool"
        }
      },
      "allowance(address,address)": {
        "details": "See {IARC20-allowance}."
      },
      "approve(address,uint256)": {
        "details": "See {IARC20-approve}. NOTE: If `amount` is the maximum `uint256`, the allowance is not updated on `transferFrom`. This is semantically equivalent to an infinite approval. Requirements: - `spender` cannot be the zero address."
      },
      "balanceOf(address)": {
        "details": "See {IARC20-balanceOf}."
      },
      "blacklistMalicious(address,bool)": {
        "params": {
          "account": ": The address to be blacklisted or not",
          "value": ": boolean to set the address to the blacklist or not"
        }
      },
      "calculateRewards(uint256)": {
        "details": "This function calculates reward every time it's called. Contrary to classical Node SC,  we believe that this way of doing is more efficient gas-wise. The reward is calculated based on the last time it was claimed (or the first time the node was created), and on the daily reward.",
        "params": {
          "_id": ": The identifier of the node.  "
        }
      },
      "claimRewards(uint256)": {
        "details": "This function uses the identifier to get the rewards of the node and send it to the  owner.",
        "params": {
          "id": ": The identifier of the node "
        }
      },
      "createNode(uint256,uint256,address)": {
        "details": "This is the main function to create a node",
        "params": {
          "_amount": ": The amount corresponding to the price of a the node  ",
          "_nodeType": ": The node type (Lava, earth or snow). Should be a uint between 0 and 2s",
          "_referral": ": The referral address (address 0 if None)"
        }
      },
      "createNodeAndTransferToPools(uint256,uint256,address)": {
        "details": "This function handles the node creation, by calling the nodeRewardManager,  and all the transfers to the different pools when there is enough tokens in the contract",
        "params": {
          "amount": ": The amount of tokens needed for the node creation ",
          "nodeType": ": The node type (Lava, Earth or Snow). Should be a uint between 0 and 2.",
          "referral": ": The referral address (Address 0 if None)"
        }
      },
      "createPair()": {
        "details": "Create pair function : The pair MTN-AVAX is created for the first time on TraderJoe"
      },
      "decimals()": {
        "details": "Returns the number of decimals used to get its user representation. For example, if `decimals` equals `2`, a balance of `505` tokens should be displayed to a user as `5.05` (`505 / 10 ** 2`). Tokens usually opt for a value of 18, imitating the relationship between Ether and Wei. This is the value {ARC20} uses, unless this function is overridden; NOTE: This information is only used for _display_ purposes: it in no way affects any of the arithmetic of the contract, including {IARC20-balanceOf} and {IARC20-transfer}."
      },
      "decreaseAllowance(address,uint256)": {
        "details": "Atomically decreases the allowance granted to `spender` by the caller. This is an alternative to {approve} that can be used as a mitigation for problems described in {IARC20-approve}. Emits an {Approval} event indicating the updated allowance. Requirements: - `spender` cannot be the zero address. - `spender` must have allowance for the caller of at least `subtractedValue`."
      },
      "getAllReward()": {
        "details": "This is the main function to get all rewards before transferring to the owner"
      },
      "getMountainNodeById(uint256)": {
        "details": "This function is public so that it's not only called internally, but also as a query if needed.",
        "params": {
          "_id": ": The identifier of the node  "
        }
      },
      "getNodePrice(uint256)": {
        "params": {
          "node_type": ": The node type (Lava, Earth or Snow). Must be between 0 and 2 "
        },
        "returns": {
          "_0": "uint256 : The current node price for the given type  "
        }
      },
      "getNodeReward(uint256)": {
        "details": "This is the main function to get reward of node given its NodeId, before transferring to the owner",
        "params": {
          "_id": ": The identifier of the node that the owner wants to get rewards from.  "
        }
      },
      "getNumberOfNodes(address)": {
        "params": {
          "account": ": The address of the account that supposedly has nodes"
        },
        "returns": {
          "_0": "uint256 : The number of nodes the account has"
        }
      },
      "increaseAllowance(address,uint256)": {
        "details": "Atomically increases the allowance granted to `spender` by the caller. This is an alternative to {approve} that can be used as a mitigation for problems described in {IARC20-approve}. Emits an {Approval} event indicating the updated allowance. Requirements: - `spender` cannot be the zero address."
      },
      "isNodeOwner(address)": {
        "params": {
          "account": ": The address of the account that supposedly has nodes"
        },
        "returns": {
          "_0": "bool    : True if the account has at least one Node"
        }
      },
      "name()": {
        "details": "Returns the name of the token."
      },
      "openTrading()": {
        "details": "Start trading (after adding liquidity, and waiting some time in order to blacklist bots)"
      },
      "owner()": {
        "details": "Returns the address of the current owner."
      },
      "renounceOwnership()": {
        "details": "Leaves the contract without owner. It will not be possible to call `onlyOwner` functions anymore. Can only be called by the current owner. NOTE: Renouncing ownership will leave the contract without an owner, thereby removing any functionality that is only available to the owner."
      },
      "setClaimTime(uint128)": {
        "params": {
          "newTime": ": The new min claim time that needs to be respected before claiming reward "
        }
      },
      "setIsPool(address,bool)": {
        "params": {
          "account": ": The account that is set, or not, as a pool",
          "value": ": If true the account is set as a pool"
        }
      },
      "setNodeCreation(bool)": {
        "params": {
          "enableNodeCreation": ": Boolean to enable or disable the node creation  "
        }
      },
      "setNodePrice(uint256,uint256,uint256)": {
        "params": {
          "Earth": ": The amount of tokens (respecting the decimals) of the Earth node ",
          "Lava": ": The amount of tokens (respecting the decimals) of the Lava node ",
          "Snow": ": The amount of tokens (respecting the decimals) of the Snow node "
        }
      },
      "setRewardPerNode(uint256,uint256,uint256)": {
        "details": "The percentages are set with 100% corresponding to 1_000 (Meaning 10% = 100)",
        "params": {
          "Earth": ": The daily reward (in percentages) for the Earth node ",
          "Lava": ": The daily reward (in percentages) for the Lava node ",
          "Snow": ": The daily reward (in percentages) for the Snow node "
        }
      },
      "setSwapTokensAmount(uint256)": {
        "params": {
          "newVal": ": Boolean to set the min amount of tokens requested for a multi-swap"
        }
      },
      "symbol()": {
        "details": "Returns the symbol of the token, usually a shorter version of the name."
      },
      "totalSupply()": {
        "details": "See {IARC20-totalSupply}."
      },
      "transferNode(uint256,address,address)": {
        "details": "This function loops over the nodes of the owner and if it finds the node with given id, it removes it from the owner list and add it to the recipient's list of nodes",
        "params": {
          "_id": ": The identifier of the node that the owner wants to to transfer  ",
          "_owner": ": The owner of the node with given id",
          "_recipient": ": The new owner of the node with given id "
        }
      },
      "transferOwnership(address)": {
        "details": "Transfers ownership of the contract to a new account (`newOwner`). Can only be called by the current owner."
      },
      "updateClaimFee(uint32)": {
        "params": {
          "value": ": The new fee to be taken at each user claim "
        }
      },
      "updateLiquiditFee(uint32)": {
        "params": {
          "value": ": The new fee for the LP pool when a new node is created"
        }
      },
      "updateLiquidityWallet(address)": {
        "params": {
          "walletAddress": ": The new wallet address for the pool that holds the LP tokens"
        }
      },
      "updateMaxTx(uint256)": {
        "params": {
          "value": ": The new max amount of tokens per tx"
        }
      },
      "updateMaxWallet(uint256)": {
        "params": {
          "value": ": The new max amount of tokens per wallet"
        }
      },
      "updateRewardSwapRatio(uint32)": {
        "params": {
          "value": ": The new reward swap ratio.  This is the percentage of tokens that will be swapped and sent to the reward Pool. "
        }
      },
      "updateRewardWallet(address)": {
        "params": {
          "walletAddress": ": The new wallet address for the reward pool"
        }
      },
      "updateRewardsFee(uint32)": {
        "params": {
          "value": ": The new fee for the reward pool when a new node is created"
        }
      },
      "updateSellFee(uint32)": {
        "params": {
          "value": ": The new fee to be taken at each user sell "
        }
      },
      "updateTransferFee(uint32)": {
        "params": {
          "value": ": The new fee to be taken at each user node transfer "
        }
      },
      "updateTreasuryFee(uint32)": {
        "params": {
          "value": ": The new fee for the treasury pool when a new node is created"
        }
      },
      "updateTreasuryWallet(address)": {
        "params": {
          "walletAddress": ": The new wallet address for the treasury pool"
        }
      }
    },
    "version": 1
  },
  "userdoc": {
    "kind": "user",
    "methods": {
      "transferNode(uint256,address,address)": {
        "notice": "TODO : For now it is only doable by the owner of the contract"
      },
      "updateClaimFee(uint32)": {
        "notice": "The max value for 100% is 1_000, i.e. 100 is 10%"
      },
      "updateLiquiditFee(uint32)": {
        "notice": "The max value for 100% is 1_000, i.e. 100 is 10%"
      },
      "updateRewardSwapRatio(uint32)": {
        "notice": "The max value for 100% is 1_000, i.e. 100 is 10%"
      },
      "updateRewardsFee(uint32)": {
        "notice": "The max value for 100% is 1_000, i.e. 100 is 10%"
      },
      "updateSellFee(uint32)": {
        "notice": "The max value for 100% is 1_000, i.e. 100 is 10%"
      },
      "updateTransferFee(uint32)": {
        "notice": "The max value for 100% is 1_000, i.e. 100 is 10%"
      },
      "updateTreasuryFee(uint32)": {
        "notice": "The max value for 100% is 1_000, i.e. 100 is 10%"
      }
    },
    "version": 1
  }
}