{
  "contractName": "Pair",
  "abi": [
    {
      "inputs": [
        {
          "internalType": "address",
          "name": "owner",
          "type": "address"
        }
      ],
      "name": "balanceOf",
      "outputs": [
        {
          "internalType": "uint256",
          "name": "",
          "type": "uint256"
        }
      ],
      "stateMutability": "view",
      "type": "function"
    }
  ],
  "bytecode": "0x608060405234801561001057600080fd5b5060dd8061001f6000396000f3fe6080604052348015600f57600080fd5b50600436106044577c0100000000000000000000000000000000000000000000000000000000600035046370a0823181146049575b600080fd5b605a6054366004606c565b50600090565b60405190815260200160405180910390f35b600060208284031215607d57600080fd5b813573ffffffffffffffffffffffffffffffffffffffff8116811460a057600080fd5b939250505056fea26469706673582212201272ea3da4109a22e32f85f6b9582da5fd982e5b9f8d0416422b7e605ebacc8b64736f6c634300080c0033",
  "immutableReferences": {},
  "source": "// SPDX-License-Identifier: MIT\n\npragma solidity ^0.8.11;\n\ncontract Pair {\n  function balanceOf(address owner) external view returns(uint) {}\n}\n",
  "sourcePath": "/Users/pilu/Desktop/Smart-contract-MTN/contracts/Pair.sol",
  "compiler": {
    "name": "solc",
    "version": "0.8.12+commit.f00d7308.Emscripten.clang"
  },
  "schemaVersion": "3.4.6",
  "updatedAt": "2022-05-04T15:15:15.787Z",
  "devdoc": {
    "kind": "dev",
    "methods": {},
    "version": 1
  },
  "userdoc": {
    "kind": "user",
    "methods": {},
    "version": 1
  }
}