{
  "contractName": "PaymentSplitter",
  "abi": [
    {
      "inputs": [
        {
          "internalType": "address[]",
          "name": "payees",
          "type": "address[]"
        },
        {
          "internalType": "uint256[]",
          "name": "shares_",
          "type": "uint256[]"
        }
      ],
      "stateMutability": "payable",
      "type": "constructor"
    },
    {
      "anonymous": false,
      "inputs": [
        {
          "indexed": true,
          "internalType": "contract IARC20",
          "name": "token",
          "type": "address"
        },
        {
          "indexed": false,
          "internalType": "address",
          "name": "to",
          "type": "address"
        },
        {
          "indexed": false,
          "internalType": "uint256",
          "name": "amount",
          "type": "uint256"
        }
      ],
      "name": "ARC20PaymentReleased",
      "type": "event"
    },
    {
      "anonymous": false,
      "inputs": [
        {
          "indexed": false,
          "internalType": "address",
          "name": "account",
          "type": "address"
        },
        {
          "indexed": false,
          "internalType": "uint256",
          "name": "shares",
          "type": "uint256"
        }
      ],
      "name": "PayeeAdded",
      "type": "event"
    },
    {
      "anonymous": false,
      "inputs": [
        {
          "indexed": false,
          "internalType": "address",
          "name": "from",
          "type": "address"
        },
        {
          "indexed": false,
          "internalType": "uint256",
          "name": "amount",
          "type": "uint256"
        }
      ],
      "name": "PaymentReceived",
      "type": "event"
    },
    {
      "anonymous": false,
      "inputs": [
        {
          "indexed": false,
          "internalType": "address",
          "name": "to",
          "type": "address"
        },
        {
          "indexed": false,
          "internalType": "uint256",
          "name": "amount",
          "type": "uint256"
        }
      ],
      "name": "PaymentReleased",
      "type": "event"
    },
    {
      "stateMutability": "payable",
      "type": "receive"
    },
    {
      "inputs": [],
      "name": "totalShares",
      "outputs": [
        {
          "internalType": "uint256",
          "name": "",
          "type": "uint256"
        }
      ],
      "stateMutability": "view",
      "type": "function"
    },
    {
      "inputs": [
        {
          "internalType": "contract IARC20",
          "name": "token",
          "type": "address"
        }
      ],
      "name": "totalReleased",
      "outputs": [
        {
          "internalType": "uint256",
          "name": "",
          "type": "uint256"
        }
      ],
      "stateMutability": "view",
      "type": "function"
    },
    {
      "inputs": [],
      "name": "totalReleased",
      "outputs": [
        {
          "internalType": "uint256",
          "name": "",
          "type": "uint256"
        }
      ],
      "stateMutability": "view",
      "type": "function"
    },
    {
      "inputs": [
        {
          "internalType": "address",
          "name": "account",
          "type": "address"
        }
      ],
      "name": "shares",
      "outputs": [
        {
          "internalType": "uint256",
          "name": "",
          "type": "uint256"
        }
      ],
      "stateMutability": "view",
      "type": "function"
    },
    {
      "inputs": [
        {
          "internalType": "contract IARC20",
          "name": "token",
          "type": "address"
        },
        {
          "internalType": "address",
          "name": "account",
          "type": "address"
        }
      ],
      "name": "released",
      "outputs": [
        {
          "internalType": "uint256",
          "name": "",
          "type": "uint256"
        }
      ],
      "stateMutability": "view",
      "type": "function"
    },
    {
      "inputs": [
        {
          "internalType": "address",
          "name": "account",
          "type": "address"
        }
      ],
      "name": "released",
      "outputs": [
        {
          "internalType": "uint256",
          "name": "",
          "type": "uint256"
        }
      ],
      "stateMutability": "view",
      "type": "function"
    },
    {
      "inputs": [
        {
          "internalType": "uint256",
          "name": "index",
          "type": "uint256"
        }
      ],
      "name": "payee",
      "outputs": [
        {
          "internalType": "address",
          "name": "",
          "type": "address"
        }
      ],
      "stateMutability": "view",
      "type": "function"
    },
    {
      "inputs": [
        {
          "internalType": "address payable",
          "name": "account",
          "type": "address"
        }
      ],
      "name": "release",
      "outputs": [],
      "stateMutability": "nonpayable",
      "type": "function"
    },
    {
      "inputs": [
        {
          "internalType": "contract IARC20",
          "name": "token",
          "type": "address"
        },
        {
          "internalType": "address",
          "name": "account",
          "type": "address"
        }
      ],
      "name": "release",
      "outputs": [],
      "stateMutability": "nonpayable",
      "type": "function"
    }
  ],
  "bytecode": "0x60806040526040516200237538038062002375833981810160405281019062000029919062000671565b805182511462000070576040517f08c379a000000000000000000000000000000000000000000000000000000000815260040162000067906200077d565b60405180910390fd5b6000825111620000b7576040517f08c379a0000000000000000000000000000000000000000000000000000000008152600401620000ae90620007ef565b60405180910390fd5b60005b82518110156200012f5762000119838281518110620000de57620000dd62000811565b5b6020026020010151838381518110620000fc57620000fb62000811565b5b602002602001015162000138640100000000026401000000009004565b808062000126906200086f565b915050620000ba565b50505062000b0b565b600073ffffffffffffffffffffffffffffffffffffffff168273ffffffffffffffffffffffffffffffffffffffff161415620001ab576040517f08c379a0000000000000000000000000000000000000000000000000000000008152600401620001a29062000933565b60405180910390fd5b60008111620001f1576040517f08c379a0000000000000000000000000000000000000000000000000000000008152600401620001e890620009a5565b60405180910390fd5b6000600260008473ffffffffffffffffffffffffffffffffffffffff1673ffffffffffffffffffffffffffffffffffffffff168152602001908152602001600020541462000276576040517f08c379a00000000000000000000000000000000000000000000000000000000081526004016200026d9062000a3d565b60405180910390fd5b6004829080600181540180825580915050600190039060005260206000200160009091909190916101000a81548173ffffffffffffffffffffffffffffffffffffffff021916908373ffffffffffffffffffffffffffffffffffffffff16021790555080600260008473ffffffffffffffffffffffffffffffffffffffff1673ffffffffffffffffffffffffffffffffffffffff16815260200190815260200160002081905550806000546200032d919062000a5f565b6000819055507f40c340f65e17194d14ddddb073d3c9f888e3cb52b5aae0c6c7706b4fbc905fac82826040516200036692919062000ade565b60405180910390a15050565b6000604051905090565b600080fd5b600080fd5b600080fd5b6000601f19601f8301169050919050565b7f4e487b7100000000000000000000000000000000000000000000000000000000600052604160045260246000fd5b620003d6826200038b565b810181811067ffffffffffffffff82111715620003f857620003f76200039c565b5b80604052505050565b60006200040d62000372565b90506200041b8282620003cb565b919050565b600067ffffffffffffffff8211156200043e576200043d6200039c565b5b602082029050602081019050919050565b600080fd5b600073ffffffffffffffffffffffffffffffffffffffff82169050919050565b6000620004818262000454565b9050919050565b620004938162000474565b81146200049f57600080fd5b50565b600081519050620004b38162000488565b92915050565b6000620004d0620004ca8462000420565b62000401565b90508083825260208201905060208402830185811115620004f657620004f56200044f565b5b835b818110156200052357806200050e8882620004a2565b845260208401935050602081019050620004f8565b5050509392505050565b600082601f83011262000545576200054462000386565b5b815162000557848260208601620004b9565b91505092915050565b600067ffffffffffffffff8211156200057e576200057d6200039c565b5b602082029050602081019050919050565b6000819050919050565b620005a4816200058f565b8114620005b057600080fd5b50565b600081519050620005c48162000599565b92915050565b6000620005e1620005db8462000560565b62000401565b905080838252602082019050602084028301858111156200060757620006066200044f565b5b835b818110156200063457806200061f8882620005b3565b84526020840193505060208101905062000609565b5050509392505050565b600082601f83011262000656576200065562000386565b5b815162000668848260208601620005ca565b91505092915050565b600080604083850312156200068b576200068a6200037c565b5b600083015167ffffffffffffffff811115620006ac57620006ab62000381565b5b620006ba858286016200052d565b925050602083015167ffffffffffffffff811115620006de57620006dd62000381565b5b620006ec858286016200063e565b9150509250929050565b600082825260208201905092915050565b7f5061796d656e7453706c69747465723a2070617965657320616e64207368617260008201527f6573206c656e677468206d69736d617463680000000000000000000000000000602082015250565b600062000765603283620006f6565b9150620007728262000707565b604082019050919050565b60006020820190508181036000830152620007988162000756565b9050919050565b7f5061796d656e7453706c69747465723a206e6f20706179656573000000000000600082015250565b6000620007d7601a83620006f6565b9150620007e4826200079f565b602082019050919050565b600060208201905081810360008301526200080a81620007c8565b9050919050565b7f4e487b7100000000000000000000000000000000000000000000000000000000600052603260045260246000fd5b7f4e487b7100000000000000000000000000000000000000000000000000000000600052601160045260246000fd5b60006200087c826200058f565b91507fffffffffffffffffffffffffffffffffffffffffffffffffffffffffffffffff821415620008b257620008b162000840565b5b600182019050919050565b7f5061796d656e7453706c69747465723a206163636f756e74206973207468652060008201527f7a65726f20616464726573730000000000000000000000000000000000000000602082015250565b60006200091b602c83620006f6565b91506200092882620008bd565b604082019050919050565b600060208201905081810360008301526200094e816200090c565b9050919050565b7f5061796d656e7453706c69747465723a20736861726573206172652030000000600082015250565b60006200098d601d83620006f6565b91506200099a8262000955565b602082019050919050565b60006020820190508181036000830152620009c0816200097e565b9050919050565b7f5061796d656e7453706c69747465723a206163636f756e7420616c726561647960008201527f2068617320736861726573000000000000000000000000000000000000000000602082015250565b600062000a25602b83620006f6565b915062000a3282620009c7565b604082019050919050565b6000602082019050818103600083015262000a588162000a16565b9050919050565b600062000a6c826200058f565b915062000a79836200058f565b9250827fffffffffffffffffffffffffffffffffffffffffffffffffffffffffffffffff0382111562000ab15762000ab062000840565b5b828201905092915050565b62000ac78162000474565b82525050565b62000ad8816200058f565b82525050565b600060408201905062000af5600083018562000abc565b62000b04602083018462000acd565b9392505050565b61185a8062000b1b6000396000f3fe6080604052600436106100a7576000357c0100000000000000000000000000000000000000000000000000000000900480638b83209b116100765780638b83209b146101ad5780639852595c146101ea578063ce7c2ac214610227578063d79779b214610264578063e33b7de3146102a1576100ee565b806319165587146100f35780633a98ef391461011c578063406072a91461014757806348b7504414610184576100ee565b366100ee577f6ef95f06320e7a25a04a175ca677b7052bdd97131872c2192525a629f51be7706100d56102cc565b346040516100e4929190610e21565b60405180910390a1005b600080fd5b3480156100ff57600080fd5b5061011a60048036038101906101159190610e8d565b6102d4565b005b34801561012857600080fd5b50610131610496565b60405161013e9190610eba565b60405180910390f35b34801561015357600080fd5b5061016e60048036038101906101699190610f3f565b61049f565b60405161017b9190610eba565b60405180910390f35b34801561019057600080fd5b506101ab60048036038101906101a69190610f3f565b610526565b005b3480156101b957600080fd5b506101d460048036038101906101cf9190610fab565b6107fb565b6040516101e19190610fd8565b60405180910390f35b3480156101f657600080fd5b50610211600480360381019061020c9190610ff3565b610843565b60405161021e9190610eba565b60405180910390f35b34801561023357600080fd5b5061024e60048036038101906102499190610ff3565b61088c565b60405161025b9190610eba565b60405180910390f35b34801561027057600080fd5b5061028b60048036038101906102869190611020565b6108d5565b6040516102989190610eba565b60405180910390f35b3480156102ad57600080fd5b506102b661091e565b6040516102c39190610eba565b60405180910390f35b600033905090565b6000600260008373ffffffffffffffffffffffffffffffffffffffff1673ffffffffffffffffffffffffffffffffffffffff1681526020019081526020016000205411610356576040517f08c379a000000000000000000000000000000000000000000000000000000000815260040161034d906110d0565b60405180910390fd5b600061036061091e565b3073ffffffffffffffffffffffffffffffffffffffff1631610382919061111f565b90506000610399838361039486610843565b610928565b905060008114156103df576040517f08c379a00000000000000000000000000000000000000000000000000000000081526004016103d6906111e7565b60405180910390fd5b80600360008573ffffffffffffffffffffffffffffffffffffffff1673ffffffffffffffffffffffffffffffffffffffff168152602001908152602001600020600082825461042e919061111f565b925050819055508060016000828254610447919061111f565b925050819055506104588382610996565b7fdf20fd1e76bc69d672e4814fafb2c449bba3a5369d8359adf9e05e6fde87b0568382604051610489929190611266565b60405180910390a1505050565b60008054905090565b6000600660008473ffffffffffffffffffffffffffffffffffffffff1673ffffffffffffffffffffffffffffffffffffffff16815260200190815260200160002060008373ffffffffffffffffffffffffffffffffffffffff1673ffffffffffffffffffffffffffffffffffffffff16815260200190815260200160002054905092915050565b6000600260008373ffffffffffffffffffffffffffffffffffffffff1673ffffffffffffffffffffffffffffffffffffffff16815260200190815260200160002054116105a8576040517f08c379a000000000000000000000000000000000000000000000000000000000815260040161059f906110d0565b60405180910390fd5b60006105b3836108d5565b8373ffffffffffffffffffffffffffffffffffffffff166370a08231306040518263ffffffff167c01000000000000000000000000000000000000000000000000000000000281526004016106089190610fd8565b602060405180830381865afa158015610625573d6000803e3d6000fd5b505050506040513d601f19601f8201168201806040525081019061064991906112a4565b610653919061111f565b9050600061066b8383610666878761049f565b610928565b905060008114156106b1576040517f08c379a00000000000000000000000000000000000000000000000000000000081526004016106a8906111e7565b60405180910390fd5b80600660008673ffffffffffffffffffffffffffffffffffffffff1673ffffffffffffffffffffffffffffffffffffffff16815260200190815260200160002060008573ffffffffffffffffffffffffffffffffffffffff1673ffffffffffffffffffffffffffffffffffffffff168152602001908152602001600020600082825461073d919061111f565b9250508190555080600560008673ffffffffffffffffffffffffffffffffffffffff1673ffffffffffffffffffffffffffffffffffffffff1681526020019081526020016000206000828254610793919061111f565b925050819055506107a5848483610aa1565b8373ffffffffffffffffffffffffffffffffffffffff167fa5e5e6cdd70158c5d539101264953655b65903a24bf6ddea572dc3fed1bce2b084836040516107ed929190610e21565b60405180910390a250505050565b600060048281548110610811576108106112d1565b5b9060005260206000200160009054906101000a900473ffffffffffffffffffffffffffffffffffffffff169050919050565b6000600360008373ffffffffffffffffffffffffffffffffffffffff1673ffffffffffffffffffffffffffffffffffffffff168152602001908152602001600020549050919050565b6000600260008373ffffffffffffffffffffffffffffffffffffffff1673ffffffffffffffffffffffffffffffffffffffff168152602001908152602001600020549050919050565b6000600560008373ffffffffffffffffffffffffffffffffffffffff1673ffffffffffffffffffffffffffffffffffffffff168152602001908152602001600020549050919050565b6000600154905090565b600081600054600260008773ffffffffffffffffffffffffffffffffffffffff1673ffffffffffffffffffffffffffffffffffffffff16815260200190815260200160002054856109799190611300565b6109839190611389565b61098d91906113ba565b90509392505050565b803073ffffffffffffffffffffffffffffffffffffffff163110156109f0576040517f08c379a00000000000000000000000000000000000000000000000000000000081526004016109e79061143a565b60405180910390fd5b60008273ffffffffffffffffffffffffffffffffffffffff1682604051610a169061148b565b60006040518083038185875af1925050503d8060008114610a53576040519150601f19603f3d011682016040523d82523d6000602084013e610a58565b606091505b5050905080610a9c576040517f08c379a0000000000000000000000000000000000000000000000000000000008152600401610a9390611512565b60405180910390fd5b505050565b610b3e8363a9059cbb7c0100000000000000000000000000000000000000000000000000000000028484604051602401610adc929190610e21565b604051602081830303815290604052907bffffffffffffffffffffffffffffffffffffffffffffffffffffffff19166020820180517bffffffffffffffffffffffffffffffffffffffffffffffffffffffff8381831617835250505050610b43565b505050565b6000610ba5826040518060400160405280602081526020017f5361666541524332303a206c6f772d6c6576656c2063616c6c206661696c65648152508573ffffffffffffffffffffffffffffffffffffffff16610c0a9092919063ffffffff16565b9050600081511115610c055780806020019051810190610bc5919061156a565b610c04576040517f08c379a0000000000000000000000000000000000000000000000000000000008152600401610bfb90611609565b60405180910390fd5b5b505050565b6060610c198484600085610c22565b90509392505050565b6060823073ffffffffffffffffffffffffffffffffffffffff16311015610c7e576040517f08c379a0000000000000000000000000000000000000000000000000000000008152600401610c759061169b565b60405180910390fd5b610c8785610d4d565b610cc6576040517f08c379a0000000000000000000000000000000000000000000000000000000008152600401610cbd90611707565b60405180910390fd5b6000808673ffffffffffffffffffffffffffffffffffffffff168587604051610cef9190611796565b60006040518083038185875af1925050503d8060008114610d2c576040519150601f19603f3d011682016040523d82523d6000602084013e610d31565b606091505b5091509150610d41828286610d60565b92505050949350505050565b600080823b905060008111915050919050565b60608315610d7057829050610dc0565b600083511115610d835782518084602001fd5b816040517f08c379a0000000000000000000000000000000000000000000000000000000008152600401610db79190611802565b60405180910390fd5b9392505050565b600073ffffffffffffffffffffffffffffffffffffffff82169050919050565b6000610df282610dc7565b9050919050565b610e0281610de7565b82525050565b6000819050919050565b610e1b81610e08565b82525050565b6000604082019050610e366000830185610df9565b610e436020830184610e12565b9392505050565b600080fd5b6000610e5a82610dc7565b9050919050565b610e6a81610e4f565b8114610e7557600080fd5b50565b600081359050610e8781610e61565b92915050565b600060208284031215610ea357610ea2610e4a565b5b6000610eb184828501610e78565b91505092915050565b6000602082019050610ecf6000830184610e12565b92915050565b6000610ee082610de7565b9050919050565b610ef081610ed5565b8114610efb57600080fd5b50565b600081359050610f0d81610ee7565b92915050565b610f1c81610de7565b8114610f2757600080fd5b50565b600081359050610f3981610f13565b92915050565b60008060408385031215610f5657610f55610e4a565b5b6000610f6485828601610efe565b9250506020610f7585828601610f2a565b9150509250929050565b610f8881610e08565b8114610f9357600080fd5b50565b600081359050610fa581610f7f565b92915050565b600060208284031215610fc157610fc0610e4a565b5b6000610fcf84828501610f96565b91505092915050565b6000602082019050610fed6000830184610df9565b92915050565b60006020828403121561100957611008610e4a565b5b600061101784828501610f2a565b91505092915050565b60006020828403121561103657611035610e4a565b5b600061104484828501610efe565b91505092915050565b600082825260208201905092915050565b7f5061796d656e7453706c69747465723a206163636f756e7420686173206e6f2060008201527f7368617265730000000000000000000000000000000000000000000000000000602082015250565b60006110ba60268361104d565b91506110c58261105e565b604082019050919050565b600060208201905081810360008301526110e9816110ad565b9050919050565b7f4e487b7100000000000000000000000000000000000000000000000000000000600052601160045260246000fd5b600061112a82610e08565b915061113583610e08565b9250827fffffffffffffffffffffffffffffffffffffffffffffffffffffffffffffffff0382111561116a576111696110f0565b5b828201905092915050565b7f5061796d656e7453706c69747465723a206163636f756e74206973206e6f742060008201527f647565207061796d656e74000000000000000000000000000000000000000000602082015250565b60006111d1602b8361104d565b91506111dc82611175565b604082019050919050565b60006020820190508181036000830152611200816111c4565b9050919050565b6000819050919050565b600061122c61122761122284610dc7565b611207565b610dc7565b9050919050565b600061123e82611211565b9050919050565b600061125082611233565b9050919050565b61126081611245565b82525050565b600060408201905061127b6000830185611257565b6112886020830184610e12565b9392505050565b60008151905061129e81610f7f565b92915050565b6000602082840312156112ba576112b9610e4a565b5b60006112c88482850161128f565b91505092915050565b7f4e487b7100000000000000000000000000000000000000000000000000000000600052603260045260246000fd5b600061130b82610e08565b915061131683610e08565b9250817fffffffffffffffffffffffffffffffffffffffffffffffffffffffffffffffff048311821515161561134f5761134e6110f0565b5b828202905092915050565b7f4e487b7100000000000000000000000000000000000000000000000000000000600052601260045260246000fd5b600061139482610e08565b915061139f83610e08565b9250826113af576113ae61135a565b5b828204905092915050565b60006113c582610e08565b91506113d083610e08565b9250828210156113e3576113e26110f0565b5b828203905092915050565b7f416464726573733a20696e73756666696369656e742062616c616e6365000000600082015250565b6000611424601d8361104d565b915061142f826113ee565b602082019050919050565b6000602082019050818103600083015261145381611417565b9050919050565b600081905092915050565b50565b600061147560008361145a565b915061148082611465565b600082019050919050565b600061149682611468565b9150819050919050565b7f416464726573733a20756e61626c6520746f2073656e642076616c75652c207260008201527f6563697069656e74206d61792068617665207265766572746564000000000000602082015250565b60006114fc603a8361104d565b9150611507826114a0565b604082019050919050565b6000602082019050818103600083015261152b816114ef565b9050919050565b60008115159050919050565b61154781611532565b811461155257600080fd5b50565b6000815190506115648161153e565b92915050565b6000602082840312156115805761157f610e4a565b5b600061158e84828501611555565b91505092915050565b7f5361666541524332303a204152433230206f7065726174696f6e20646964206e60008201527f6f74207375636365656400000000000000000000000000000000000000000000602082015250565b60006115f3602a8361104d565b91506115fe82611597565b604082019050919050565b60006020820190508181036000830152611622816115e6565b9050919050565b7f416464726573733a20696e73756666696369656e742062616c616e636520666f60008201527f722063616c6c0000000000000000000000000000000000000000000000000000602082015250565b600061168560268361104d565b915061169082611629565b604082019050919050565b600060208201905081810360008301526116b481611678565b9050919050565b7f416464726573733a2063616c6c20746f206e6f6e2d636f6e7472616374000000600082015250565b60006116f1601d8361104d565b91506116fc826116bb565b602082019050919050565b60006020820190508181036000830152611720816116e4565b9050919050565b600081519050919050565b60005b83811015611750578082015181840152602081019050611735565b8381111561175f576000848401525b50505050565b600061177082611727565b61177a818561145a565b935061178a818560208601611732565b80840191505092915050565b60006117a28284611765565b915081905092915050565b600081519050919050565b6000601f19601f8301169050919050565b60006117d4826117ad565b6117de818561104d565b93506117ee818560208601611732565b6117f7816117b8565b840191505092915050565b6000602082019050818103600083015261181c81846117c9565b90509291505056fea2646970667358221220adf094b485e539bc6e7ab66e62f081296445956d85cea9cbf74956f0bbe5edbe64736f6c634300080c0033",
  "immutableReferences": {},
  "source": "\n// SPDX-License-Identifier: MIT\n\npragma solidity ^0.8.11;\n\n\nimport \"./IARC20.sol\";\nimport \"./Context.sol\";\nimport \"./SafeARC20.sol\";\n\n\n/**\n * @title PaymentSplitter\n * @dev This contract allows to split Ether payments among a group of accounts. The sender does not need to be aware\n * that the Ether will be split in this way, since it is handled transparently by the contract.\n *\n * The split can be in equal parts or in any other arbitrary proportion. The way this is specified is by assigning each\n * account to a number of shares. Of all the Ether that this contract receives, each account will then be able to claim\n * an amount proportional to the percentage of total shares they were assigned.\n *\n * `PaymentSplitter` follows a _pull payment_ model. This means that payments are not automatically forwarded to the\n * accounts but kept in this contract, and the actual transfer is triggered as a separate step by calling the {release}\n * function.\n *\n * NOTE: This contract assumes that ARC20 tokens will behave similarly to native tokens (Ether). Rebasing tokens, and\n * tokens that apply fees during transfers, are likely to not be supported as expected. If in doubt, we encourage you\n * to run tests before sending real value to this contract.\n */\ncontract PaymentSplitter is Context {\n    event PayeeAdded(address account, uint256 shares);\n    event PaymentReleased(address to, uint256 amount);\n    event ARC20PaymentReleased(\n        IARC20 indexed token,\n        address to,\n        uint256 amount\n    );\n    event PaymentReceived(address from, uint256 amount);\n\n    uint256 private _totalShares;\n    uint256 private _totalReleased;\n\n    mapping(address => uint256) private _shares;\n    mapping(address => uint256) private _released;\n    address[] private _payees;\n\n    mapping(IARC20 => uint256) private _ARC20TotalReleased;\n    mapping(IARC20 => mapping(address => uint256)) private _ARC20Released;\n\n    /**\n     * @dev Creates an instance of `PaymentSplitter` where each account in `payees` is assigned the number of shares at\n     * the matching position in the `shares` array.\n     *\n     * All addresses in `payees` must be non-zero. Both arrays must have the same non-zero length, and there must be no\n     * duplicates in `payees`.\n     */\n    constructor(address[] memory payees, uint256[] memory shares_) payable {\n        require(\n            payees.length == shares_.length,\n            \"PaymentSplitter: payees and shares length mismatch\"\n        );\n        require(payees.length > 0, \"PaymentSplitter: no payees\");\n\n        for (uint256 i = 0; i < payees.length; i++) {\n            _addPayee(payees[i], shares_[i]);\n        }\n    }\n\n    /**\n     * @dev The Ether received will be logged with {PaymentReceived} events. Note that these events are not fully\n     * reliable: it's possible for a contract to receive Ether without triggering this function. This only affects the\n     * reliability of the events, and not the actual splitting of Ether.\n     *\n     * To learn more about this see the Solidity documentation for\n     * https://solidity.readthedocs.io/en/latest/contracts.html#fallback-function[fallback\n     * functions].\n     */\n    receive() external payable virtual {\n        emit PaymentReceived(_msgSender(), msg.value);\n    }\n\n    /**\n     * @dev Getter for the total shares held by payees.\n     */\n    function totalShares() public view returns (uint256) {\n        return _totalShares;\n    }\n\n    /**\n     * @dev Getter for the total amount of Ether already released.\n     */\n    function totalReleased() public view returns (uint256) {\n        return _totalReleased;\n    }\n\n    /**\n     * @dev Getter for the total amount of `token` already released. `token` should be the address of an IARC20\n     * contract.\n     */\n    function totalReleased(IARC20 token) public view returns (uint256) {\n        return _ARC20TotalReleased[token];\n    }\n\n    /**\n     * @dev Getter for the amount of shares held by an account.\n     */\n    function shares(address account) public view returns (uint256) {\n        return _shares[account];\n    }\n\n    /**\n     * @dev Getter for the amount of Ether already released to a payee.\n     */\n    function released(address account) public view returns (uint256) {\n        return _released[account];\n    }\n\n    /**\n     * @dev Getter for the amount of `token` tokens already released to a payee. `token` should be the address of an\n     * IARC20 contract.\n     */\n    function released(IARC20 token, address account)\n    public\n    view\n    returns (uint256)\n    {\n        return _ARC20Released[token][account];\n    }\n\n    /**\n     * @dev Getter for the address of the payee number `index`.\n     */\n    function payee(uint256 index) public view returns (address) {\n        return _payees[index];\n    }\n\n    /**\n     * @dev Triggers a transfer to `account` of the amount of Ether they are owed, according to their percentage of the\n     * total shares and their previous withdrawals.\n     */\n    function release(address payable account) public virtual {\n        require(_shares[account] > 0, \"PaymentSplitter: account has no shares\");\n\n        uint256 totalReceived = address(this).balance + totalReleased();\n        uint256 payment = _pendingPayment(\n            account,\n            totalReceived,\n            released(account)\n        );\n\n        require(payment != 0, \"PaymentSplitter: account is not due payment\");\n\n        _released[account] += payment;\n        _totalReleased += payment;\n\n        Address.sendValue(account, payment);\n        emit PaymentReleased(account, payment);\n    }\n\n    /**\n     * @dev Triggers a transfer to `account` of the amount of `token` tokens they are owed, according to their\n     * percentage of the total shares and their previous withdrawals. `token` must be the address of an IARC20\n     * contract.\n     */\n    function release(IARC20 token, address account) public virtual {\n        require(_shares[account] > 0, \"PaymentSplitter: account has no shares\");\n\n        uint256 totalReceived = token.balanceOf(address(this)) +\n        totalReleased(token);\n        uint256 payment = _pendingPayment(\n            account,\n            totalReceived,\n            released(token, account)\n        );\n\n        require(payment != 0, \"PaymentSplitter: account is not due payment\");\n\n        _ARC20Released[token][account] += payment;\n        _ARC20TotalReleased[token] += payment;\n\n        SafeARC20.safeTransfer(token, account, payment);\n        emit ARC20PaymentReleased(token, account, payment);\n    }\n\n    /**\n     * @dev internal logic for computing the pending payment of an `account` given the token historical balances and\n     * already released amounts.\n     */\n    function _pendingPayment(\n        address account,\n        uint256 totalReceived,\n        uint256 alreadyReleased\n    ) private view returns (uint256) {\n        return\n        (totalReceived * _shares[account]) / _totalShares - alreadyReleased;\n    }\n\n    /**\n     * @dev Add a new payee to the contract.\n     * @param account The address of the payee to add.\n     * @param shares_ The number of shares owned by the payee.\n     */\n    function _addPayee(address account, uint256 shares_) private {\n        require(\n            account != address(0),\n            \"PaymentSplitter: account is the zero address\"\n        );\n        require(shares_ > 0, \"PaymentSplitter: shares are 0\");\n        require(\n            _shares[account] == 0,\n            \"PaymentSplitter: account already has shares\"\n        );\n\n        _payees.push(account);\n        _shares[account] = shares_;\n        _totalShares = _totalShares + shares_;\n        emit PayeeAdded(account, shares_);\n    }\n}\n",
  "sourcePath": "/Users/pilu/Desktop/Nodes Avax Project/MountainNode/contracts/PaymentSplitter.sol",
  "compiler": {
    "name": "solc",
    "version": "0.8.12+commit.f00d7308.Emscripten.clang"
  },
  "schemaVersion": "3.4.6",
  "updatedAt": "2022-04-27T12:18:41.149Z",
  "devdoc": {
    "details": "This contract allows to split Ether payments among a group of accounts. The sender does not need to be aware that the Ether will be split in this way, since it is handled transparently by the contract. The split can be in equal parts or in any other arbitrary proportion. The way this is specified is by assigning each account to a number of shares. Of all the Ether that this contract receives, each account will then be able to claim an amount proportional to the percentage of total shares they were assigned. `PaymentSplitter` follows a _pull payment_ model. This means that payments are not automatically forwarded to the accounts but kept in this contract, and the actual transfer is triggered as a separate step by calling the {release} function. NOTE: This contract assumes that ARC20 tokens will behave similarly to native tokens (Ether). Rebasing tokens, and tokens that apply fees during transfers, are likely to not be supported as expected. If in doubt, we encourage you to run tests before sending real value to this contract.",
    "kind": "dev",
    "methods": {
      "constructor": {
        "details": "Creates an instance of `PaymentSplitter` where each account in `payees` is assigned the number of shares at the matching position in the `shares` array. All addresses in `payees` must be non-zero. Both arrays must have the same non-zero length, and there must be no duplicates in `payees`."
      },
      "payee(uint256)": {
        "details": "Getter for the address of the payee number `index`."
      },
      "release(address)": {
        "details": "Triggers a transfer to `account` of the amount of Ether they are owed, according to their percentage of the total shares and their previous withdrawals."
      },
      "release(address,address)": {
        "details": "Triggers a transfer to `account` of the amount of `token` tokens they are owed, according to their percentage of the total shares and their previous withdrawals. `token` must be the address of an IARC20 contract."
      },
      "released(address)": {
        "details": "Getter for the amount of Ether already released to a payee."
      },
      "released(address,address)": {
        "details": "Getter for the amount of `token` tokens already released to a payee. `token` should be the address of an IARC20 contract."
      },
      "shares(address)": {
        "details": "Getter for the amount of shares held by an account."
      },
      "totalReleased()": {
        "details": "Getter for the total amount of Ether already released."
      },
      "totalReleased(address)": {
        "details": "Getter for the total amount of `token` already released. `token` should be the address of an IARC20 contract."
      },
      "totalShares()": {
        "details": "Getter for the total shares held by payees."
      }
    },
    "title": "PaymentSplitter",
    "version": 1
  },
  "userdoc": {
    "kind": "user",
    "methods": {},
    "version": 1
  }
}