{
  "contractName": "Router",
  "abi": [
    {
      "inputs": [],
      "name": "WAVAX",
      "outputs": [
        {
          "internalType": "address",
          "name": "",
          "type": "address"
        }
      ],
      "stateMutability": "pure",
      "type": "function"
    },
    {
      "inputs": [
        {
          "internalType": "address",
          "name": "token",
          "type": "address"
        },
        {
          "internalType": "uint256",
          "name": "amountTokenDesired",
          "type": "uint256"
        },
        {
          "internalType": "uint256",
          "name": "amountTokenMin",
          "type": "uint256"
        },
        {
          "internalType": "uint256",
          "name": "amountAVAXMin",
          "type": "uint256"
        },
        {
          "internalType": "address",
          "name": "to",
          "type": "address"
        },
        {
          "internalType": "uint256",
          "name": "deadline",
          "type": "uint256"
        }
      ],
      "name": "addLiquidityAVAX",
      "outputs": [
        {
          "internalType": "uint256",
          "name": "amountToken",
          "type": "uint256"
        },
        {
          "internalType": "uint256",
          "name": "amountAVAX",
          "type": "uint256"
        },
        {
          "internalType": "uint256",
          "name": "liquidity",
          "type": "uint256"
        }
      ],
      "stateMutability": "payable",
      "type": "function"
    },
    {
      "inputs": [
        {
          "internalType": "uint256",
          "name": "amountOutMin",
          "type": "uint256"
        },
        {
          "internalType": "address[]",
          "name": "path",
          "type": "address[]"
        },
        {
          "internalType": "address",
          "name": "to",
          "type": "address"
        },
        {
          "internalType": "uint256",
          "name": "deadline",
          "type": "uint256"
        }
      ],
      "name": "swapExactAVAXForTokens",
      "outputs": [
        {
          "internalType": "uint256[]",
          "name": "amounts",
          "type": "uint256[]"
        }
      ],
      "stateMutability": "payable",
      "type": "function"
    },
    {
      "inputs": [
        {
          "internalType": "uint256",
          "name": "amountOut",
          "type": "uint256"
        },
        {
          "internalType": "address[]",
          "name": "path",
          "type": "address[]"
        },
        {
          "internalType": "address",
          "name": "to",
          "type": "address"
        },
        {
          "internalType": "uint256",
          "name": "deadline",
          "type": "uint256"
        }
      ],
      "name": "swapAVAXForExactTokens",
      "outputs": [
        {
          "internalType": "uint256[]",
          "name": "amounts",
          "type": "uint256[]"
        }
      ],
      "stateMutability": "payable",
      "type": "function"
    },
    {
      "inputs": [
        {
          "internalType": "uint256",
          "name": "amountIn",
          "type": "uint256"
        },
        {
          "internalType": "address[]",
          "name": "path",
          "type": "address[]"
        }
      ],
      "name": "getAmountsOut",
      "outputs": [
        {
          "internalType": "uint256[]",
          "name": "amounts",
          "type": "uint256[]"
        }
      ],
      "stateMutability": "view",
      "type": "function"
    },
    {
      "inputs": [
        {
          "internalType": "uint256",
          "name": "amountOut",
          "type": "uint256"
        },
        {
          "internalType": "address[]",
          "name": "path",
          "type": "address[]"
        }
      ],
      "name": "getAmountsIn",
      "outputs": [
        {
          "internalType": "uint256[]",
          "name": "amounts",
          "type": "uint256[]"
        }
      ],
      "stateMutability": "view",
      "type": "function"
    },
    {
      "inputs": [
        {
          "internalType": "uint256",
          "name": "amountOut",
          "type": "uint256"
        },
        {
          "internalType": "uint256",
          "name": "amountInMax",
          "type": "uint256"
        },
        {
          "internalType": "address[]",
          "name": "path",
          "type": "address[]"
        },
        {
          "internalType": "address",
          "name": "to",
          "type": "address"
        },
        {
          "internalType": "uint256",
          "name": "deadline",
          "type": "uint256"
        }
      ],
      "name": "swapTokensForExactAVAX",
      "outputs": [
        {
          "internalType": "uint256[]",
          "name": "amounts",
          "type": "uint256[]"
        }
      ],
      "stateMutability": "nonpayable",
      "type": "function"
    },
    {
      "inputs": [
        {
          "internalType": "uint256",
          "name": "amountIn",
          "type": "uint256"
        },
        {
          "internalType": "uint256",
          "name": "amountOutMin",
          "type": "uint256"
        },
        {
          "internalType": "address[]",
          "name": "path",
          "type": "address[]"
        },
        {
          "internalType": "address",
          "name": "to",
          "type": "address"
        },
        {
          "internalType": "uint256",
          "name": "deadline",
          "type": "uint256"
        }
      ],
      "name": "swapExactTokensForAVAXSupportingFeeOnTransferTokens",
      "outputs": [],
      "stateMutability": "view",
      "type": "function"
    },
    {
      "inputs": [
        {
          "internalType": "uint256",
          "name": "amountIn",
          "type": "uint256"
        },
        {
          "internalType": "uint256",
          "name": "amountOutMin",
          "type": "uint256"
        },
        {
          "internalType": "address[]",
          "name": "path",
          "type": "address[]"
        },
        {
          "internalType": "address",
          "name": "to",
          "type": "address"
        },
        {
          "internalType": "uint256",
          "name": "deadline",
          "type": "uint256"
        }
      ],
      "name": "swapExactTokensForAVAX",
      "outputs": [
        {
          "internalType": "uint256[]",
          "name": "amounts",
          "type": "uint256[]"
        }
      ],
      "stateMutability": "view",
      "type": "function"
    }
  ],
  "bytecode": "0x608060405234801561001057600080fd5b5061075b806100206000396000f3fe6080604052600436106100865760003560e01c80637a42416a116100595780637a42416a146101595780638a657e6714610196578063a2a1623d146101c6578063d06ca61f146101f6578063f91b3f721461023357610086565b80631f00ca741461008b578063676528d1146100c857806373b295c214610105578063762b156214610130575b600080fd5b34801561009757600080fd5b506100b260048036038101906100ad9190610368565b610265565b6040516100bf9190610486565b60405180910390f35b3480156100d457600080fd5b506100ef60048036038101906100ea9190610506565b61026e565b6040516100fc9190610486565b60405180910390f35b34801561011157600080fd5b5061011a61027a565b60405161012791906105af565b60405180910390f35b34801561013c57600080fd5b5061015760048036038101906101529190610506565b61027f565b005b34801561016557600080fd5b50610180600480360381019061017b9190610506565b610287565b60405161018d9190610486565b60405180910390f35b6101b060048036038101906101ab91906105ca565b610293565b6040516101bd9190610486565b60405180910390f35b6101e060048036038101906101db91906105ca565b61029e565b6040516101ed9190610486565b60405180910390f35b34801561020257600080fd5b5061021d60048036038101906102189190610368565b6102a9565b60405161022a9190610486565b60405180910390f35b61024d60048036038101906102489190610652565b6102b2565b60405161025c939291906106ee565b60405180910390f35b60609392505050565b60609695505050505050565b600090565b505050505050565b60609695505050505050565b606095945050505050565b606095945050505050565b60609392505050565b600080600096509650969350505050565b600080fd5b600080fd5b6000819050919050565b6102e0816102cd565b81146102eb57600080fd5b50565b6000813590506102fd816102d7565b92915050565b600080fd5b600080fd5b600080fd5b60008083601f84011261032857610327610303565b5b8235905067ffffffffffffffff81111561034557610344610308565b5b6020830191508360208202830111156103615761036061030d565b5b9250929050565b600080600060408486031215610381576103806102c3565b5b600061038f868287016102ee565b935050602084013567ffffffffffffffff8111156103b0576103af6102c8565b5b6103bc86828701610312565b92509250509250925092565b600081519050919050565b600082825260208201905092915050565b6000819050602082019050919050565b6103fd816102cd565b82525050565b600061040f83836103f4565b60208301905092915050565b6000602082019050919050565b6000610433826103c8565b61043d81856103d3565b9350610448836103e4565b8060005b838110156104795781516104608882610403565b975061046b8361041b565b92505060018101905061044c565b5085935050505092915050565b600060208201905081810360008301526104a08184610428565b905092915050565b600073ffffffffffffffffffffffffffffffffffffffff82169050919050565b60006104d3826104a8565b9050919050565b6104e3816104c8565b81146104ee57600080fd5b50565b600081359050610500816104da565b92915050565b60008060008060008060a08789031215610523576105226102c3565b5b600061053189828a016102ee565b965050602061054289828a016102ee565b955050604087013567ffffffffffffffff811115610563576105626102c8565b5b61056f89828a01610312565b9450945050606061058289828a016104f1565b925050608061059389828a016102ee565b9150509295509295509295565b6105a9816104c8565b82525050565b60006020820190506105c460008301846105a0565b92915050565b6000806000806000608086880312156105e6576105e56102c3565b5b60006105f4888289016102ee565b955050602086013567ffffffffffffffff811115610615576106146102c8565b5b61062188828901610312565b94509450506040610634888289016104f1565b9250506060610645888289016102ee565b9150509295509295909350565b60008060008060008060c0878903121561066f5761066e6102c3565b5b600061067d89828a016104f1565b965050602061068e89828a016102ee565b955050604061069f89828a016102ee565b94505060606106b089828a016102ee565b93505060806106c189828a016104f1565b92505060a06106d289828a016102ee565b9150509295509295509295565b6106e8816102cd565b82525050565b600060608201905061070360008301866106df565b61071060208301856106df565b61071d60408301846106df565b94935050505056fea264697066735822122079bf858d1e560435277e0174531efe74c2df605fe3f67713cf344ba2dc78b6ee64736f6c634300080c0033",
  "immutableReferences": {},
  "source": "// SPDX-License-Identifier: MIT\n\npragma solidity ^0.8.11;\n\ncontract Router {\n    \n    function WAVAX() external pure returns (address) {}\n\n\tfunction addLiquidityAVAX(\n        address token,\n        uint amountTokenDesired,\n        uint amountTokenMin,\n        uint amountAVAXMin,\n        address to,\n        uint deadline\n    ) external payable returns (uint amountToken, uint amountAVAX, uint liquidity) {}\n    \n    \n     function swapExactAVAXForTokens(\n     \tuint amountOutMin, \n     \taddress[] calldata path, \n     \taddress to, \n     \tuint deadline\n     \t) external payable returns (uint[] memory amounts) {}\n    \n    function swapAVAXForExactTokens(\n     \tuint amountOut,\n     \taddress[] calldata path,\n     \taddress to, \n     \tuint deadline\n     ) external payable returns (uint[] memory amounts) {}\n     \n     \n     \n    function getAmountsOut(\n     \tuint256 amountIn, \n     \taddress[] calldata path\n     ) external view  returns (uint256[] memory amounts) {}\n\n    function getAmountsIn(\n     \tuint256 amountOut, \n     \taddress[] calldata path\n     ) external view  returns (uint256[] memory amounts) {}\n\n    function swapTokensForExactAVAX(\n        uint256 amountOut,\n        uint256 amountInMax,\n        address[] calldata path,\n        address to,\n        uint256 deadline\n    ) external virtual returns (uint256[] memory amounts) {}\n     \n   function swapExactTokensForAVAXSupportingFeeOnTransferTokens(\n        uint amountIn,\n        uint amountOutMin,\n        address[] calldata path,\n        address to,\n        uint deadline\n    ) external view {}     \n    \n     \n   function swapExactTokensForAVAX(\n        uint amountIn,\n        uint amountOutMin,\n        address[] calldata path,\n        address to,\n        uint deadline\n    ) external view returns (uint[] memory amounts) {}\n     \n  \n        \n     \n}\n\n\n\n",
  "sourcePath": "/Users/pilu/Desktop/Nodes Avax Project/MountainNode/contracts/Router.sol",
  "compiler": {
    "name": "solc",
    "version": "0.8.12+commit.f00d7308.Emscripten.clang"
  },
  "schemaVersion": "3.4.6",
  "updatedAt": "2022-04-26T08:52:47.913Z",
  "devdoc": {
    "kind": "dev",
    "methods": {},
    "version": 1
  },
  "userdoc": {
    "kind": "user",
    "methods": {},
    "version": 1
  }
}