{
  "contractName": "Router",
  "abi": [
    {
      "inputs": [],
      "name": "WAVAX",
      "outputs": [
        {
          "internalType": "address",
          "name": "",
          "type": "address"
        }
      ],
      "stateMutability": "pure",
      "type": "function"
    },
    {
      "inputs": [
        {
          "internalType": "address",
          "name": "token",
          "type": "address"
        },
        {
          "internalType": "uint256",
          "name": "amountTokenDesired",
          "type": "uint256"
        },
        {
          "internalType": "uint256",
          "name": "amountTokenMin",
          "type": "uint256"
        },
        {
          "internalType": "uint256",
          "name": "amountAVAXMin",
          "type": "uint256"
        },
        {
          "internalType": "address",
          "name": "to",
          "type": "address"
        },
        {
          "internalType": "uint256",
          "name": "deadline",
          "type": "uint256"
        }
      ],
      "name": "addLiquidityAVAX",
      "outputs": [
        {
          "internalType": "uint256",
          "name": "amountToken",
          "type": "uint256"
        },
        {
          "internalType": "uint256",
          "name": "amountAVAX",
          "type": "uint256"
        },
        {
          "internalType": "uint256",
          "name": "liquidity",
          "type": "uint256"
        }
      ],
      "stateMutability": "payable",
      "type": "function"
    },
    {
      "inputs": [
        {
          "internalType": "uint256",
          "name": "amountOutMin",
          "type": "uint256"
        },
        {
          "internalType": "address[]",
          "name": "path",
          "type": "address[]"
        },
        {
          "internalType": "address",
          "name": "to",
          "type": "address"
        },
        {
          "internalType": "uint256",
          "name": "deadline",
          "type": "uint256"
        }
      ],
      "name": "swapExactAVAXForTokens",
      "outputs": [
        {
          "internalType": "uint256[]",
          "name": "amounts",
          "type": "uint256[]"
        }
      ],
      "stateMutability": "payable",
      "type": "function"
    },
    {
      "inputs": [
        {
          "internalType": "uint256",
          "name": "amountOut",
          "type": "uint256"
        },
        {
          "internalType": "address[]",
          "name": "path",
          "type": "address[]"
        },
        {
          "internalType": "address",
          "name": "to",
          "type": "address"
        },
        {
          "internalType": "uint256",
          "name": "deadline",
          "type": "uint256"
        }
      ],
      "name": "swapAVAXForExactTokens",
      "outputs": [
        {
          "internalType": "uint256[]",
          "name": "amounts",
          "type": "uint256[]"
        }
      ],
      "stateMutability": "payable",
      "type": "function"
    },
    {
      "inputs": [
        {
          "internalType": "uint256",
          "name": "amountIn",
          "type": "uint256"
        },
        {
          "internalType": "address[]",
          "name": "path",
          "type": "address[]"
        }
      ],
      "name": "getAmountsOut",
      "outputs": [
        {
          "internalType": "uint256[]",
          "name": "amounts",
          "type": "uint256[]"
        }
      ],
      "stateMutability": "view",
      "type": "function"
    },
    {
      "inputs": [
        {
          "internalType": "uint256",
          "name": "amountOut",
          "type": "uint256"
        },
        {
          "internalType": "address[]",
          "name": "path",
          "type": "address[]"
        }
      ],
      "name": "getAmountsIn",
      "outputs": [
        {
          "internalType": "uint256[]",
          "name": "amounts",
          "type": "uint256[]"
        }
      ],
      "stateMutability": "view",
      "type": "function"
    },
    {
      "inputs": [
        {
          "internalType": "uint256",
          "name": "amountOut",
          "type": "uint256"
        },
        {
          "internalType": "uint256",
          "name": "amountInMax",
          "type": "uint256"
        },
        {
          "internalType": "address[]",
          "name": "path",
          "type": "address[]"
        },
        {
          "internalType": "address",
          "name": "to",
          "type": "address"
        },
        {
          "internalType": "uint256",
          "name": "deadline",
          "type": "uint256"
        }
      ],
      "name": "swapTokensForExactAVAX",
      "outputs": [
        {
          "internalType": "uint256[]",
          "name": "amounts",
          "type": "uint256[]"
        }
      ],
      "stateMutability": "nonpayable",
      "type": "function"
    },
    {
      "inputs": [
        {
          "internalType": "uint256",
          "name": "amountIn",
          "type": "uint256"
        },
        {
          "internalType": "uint256",
          "name": "amountOutMin",
          "type": "uint256"
        },
        {
          "internalType": "address[]",
          "name": "path",
          "type": "address[]"
        },
        {
          "internalType": "address",
          "name": "to",
          "type": "address"
        },
        {
          "internalType": "uint256",
          "name": "deadline",
          "type": "uint256"
        }
      ],
      "name": "swapExactTokensForAVAXSupportingFeeOnTransferTokens",
      "outputs": [],
      "stateMutability": "view",
      "type": "function"
    },
    {
      "inputs": [
        {
          "internalType": "uint256",
          "name": "amountIn",
          "type": "uint256"
        },
        {
          "internalType": "uint256",
          "name": "amountOutMin",
          "type": "uint256"
        },
        {
          "internalType": "address[]",
          "name": "path",
          "type": "address[]"
        },
        {
          "internalType": "address",
          "name": "to",
          "type": "address"
        },
        {
          "internalType": "uint256",
          "name": "deadline",
          "type": "uint256"
        }
      ],
      "name": "swapExactTokensForAVAX",
      "outputs": [
        {
          "internalType": "uint256[]",
          "name": "amounts",
          "type": "uint256[]"
        }
      ],
      "stateMutability": "view",
      "type": "function"
    }
  ],
  "bytecode": "0x608060405234801561001057600080fd5b50610405806100206000396000f3fe6080604052600436106100a3576000357c0100000000000000000000000000000000000000000000000000000000900480637a42416a116100765780637a42416a146100e25780638a657e671461014a578063a2a1623d1461014a578063d06ca61f146100a8578063f91b3f721461016357600080fd5b80631f00ca74146100a8578063676528d1146100e257806373b295c214610109578063762b156214610125575b600080fd5b3480156100b457600080fd5b506100cc6100c33660046101e8565b60609392505050565b6040516100d99190610234565b60405180910390f35b3480156100ee57600080fd5b506100cc6100fd3660046102a1565b60609695505050505050565b34801561011557600080fd5b50604051600081526020016100d9565b34801561013157600080fd5b506101486101403660046102a1565b505050505050565b005b6100cc610158366004610311565b606095945050505050565b610182610171366004610377565b600080600096509650969350505050565b604080519384526020840192909252908201526060016100d9565b60008083601f8401126101af57600080fd5b50813567ffffffffffffffff8111156101c757600080fd5b60208301915083602080830285010111156101e157600080fd5b9250929050565b6000806000604084860312156101fd57600080fd5b83359250602084013567ffffffffffffffff81111561021b57600080fd5b6102278682870161019d565b9497909650939450505050565b6020808252825182820181905260009190848201906040850190845b8181101561026c57835183529284019291840191600101610250565b50909695505050505050565b803573ffffffffffffffffffffffffffffffffffffffff8116811461029c57600080fd5b919050565b60008060008060008060a087890312156102ba57600080fd5b8635955060208701359450604087013567ffffffffffffffff8111156102df57600080fd5b6102eb89828a0161019d565b90955093506102fe905060608801610278565b9150608087013590509295509295509295565b60008060008060006080868803121561032957600080fd5b85359450602086013567ffffffffffffffff81111561034757600080fd5b6103538882890161019d565b9095509350610366905060408701610278565b949793965091946060013592915050565b60008060008060008060c0878903121561039057600080fd5b61039987610278565b95506020870135945060408701359350606087013592506103bc60808801610278565b915060a08701359050929550929550929556fea26469706673582212202962a648f3e0f7eb26b911b4ff9398f0443a27a6dfb92753b49ccb45bec8123664736f6c634300080c0033",
  "immutableReferences": {},
  "source": "// SPDX-License-Identifier: MIT\n\npragma solidity ^0.8.11;\n\ncontract Router {\n    \n    function WAVAX() external pure returns (address) {}\n\n\tfunction addLiquidityAVAX(\n        address token,\n        uint amountTokenDesired,\n        uint amountTokenMin,\n        uint amountAVAXMin,\n        address to,\n        uint deadline\n    ) external payable returns (uint amountToken, uint amountAVAX, uint liquidity) {}\n    \n    \n     function swapExactAVAXForTokens(\n     \tuint amountOutMin, \n     \taddress[] calldata path, \n     \taddress to, \n     \tuint deadline\n     \t) external payable returns (uint[] memory amounts) {}\n    \n    function swapAVAXForExactTokens(\n     \tuint amountOut,\n     \taddress[] calldata path,\n     \taddress to, \n     \tuint deadline\n     ) external payable returns (uint[] memory amounts) {}\n     \n     \n     \n    function getAmountsOut(\n     \tuint256 amountIn, \n     \taddress[] calldata path\n     ) external view  returns (uint256[] memory amounts) {}\n\n    function getAmountsIn(\n     \tuint256 amountOut, \n     \taddress[] calldata path\n     ) external view  returns (uint256[] memory amounts) {}\n\n    function swapTokensForExactAVAX(\n        uint256 amountOut,\n        uint256 amountInMax,\n        address[] calldata path,\n        address to,\n        uint256 deadline\n    ) external virtual returns (uint256[] memory amounts) {}\n     \n   function swapExactTokensForAVAXSupportingFeeOnTransferTokens(\n        uint amountIn,\n        uint amountOutMin,\n        address[] calldata path,\n        address to,\n        uint deadline\n    ) external view {}     \n    \n     \n   function swapExactTokensForAVAX(\n        uint amountIn,\n        uint amountOutMin,\n        address[] calldata path,\n        address to,\n        uint deadline\n    ) external view returns (uint[] memory amounts) {}\n     \n  \n        \n     \n}\n\n\n\n",
  "sourcePath": "/Users/pilu/Desktop/Smart-contract-MTN/contracts/Router.sol",
  "compiler": {
    "name": "solc",
    "version": "0.8.12+commit.f00d7308.Emscripten.clang"
  },
  "schemaVersion": "3.4.6",
  "updatedAt": "2022-05-04T15:15:15.799Z",
  "devdoc": {
    "kind": "dev",
    "methods": {},
    "version": 1
  },
  "userdoc": {
    "kind": "user",
    "methods": {},
    "version": 1
  }
}